{
  "contractName": "Account",
  "abi": [
    {
      "inputs": [],
      "payable": false,
      "stateMutability": "nonpayable",
      "type": "constructor"
    },
    {
      "constant": false,
      "inputs": [
        {
          "internalType": "address",
          "name": "addr",
          "type": "address"
        }
      ],
      "name": "certifyAccount",
      "outputs": [],
      "payable": false,
      "stateMutability": "nonpayable",
      "type": "function"
    },
    {
      "constant": false,
      "inputs": [
        {
          "internalType": "address",
          "name": "addr",
          "type": "address"
        }
      ],
      "name": "uncertifyAccount",
      "outputs": [],
      "payable": false,
      "stateMutability": "nonpayable",
      "type": "function"
    },
    {
      "constant": false,
      "inputs": [
        {
          "internalType": "address",
          "name": "addr",
          "type": "address"
        }
      ],
      "name": "verifyAccount",
      "outputs": [],
      "payable": false,
      "stateMutability": "nonpayable",
      "type": "function"
    },
    {
      "constant": false,
      "inputs": [
        {
          "internalType": "address",
          "name": "addr",
          "type": "address"
        }
      ],
      "name": "unverifyAccount",
      "outputs": [],
      "payable": false,
      "stateMutability": "nonpayable",
      "type": "function"
    },
    {
      "constant": true,
      "inputs": [
        {
          "internalType": "address",
          "name": "addr",
          "type": "address"
        }
      ],
      "name": "viewAccountState",
      "outputs": [
        {
          "internalType": "enum Account.status",
          "name": "state",
          "type": "uint8"
        }
      ],
      "payable": false,
      "stateMutability": "view",
      "type": "function"
    },
    {
      "constant": true,
      "inputs": [
        {
          "internalType": "address",
          "name": "addr",
          "type": "address"
        }
      ],
      "name": "viewCertifiedStatus",
      "outputs": [
        {
          "internalType": "bool",
          "name": "",
          "type": "bool"
        }
      ],
      "payable": false,
      "stateMutability": "view",
      "type": "function"
    },
    {
      "constant": true,
      "inputs": [
        {
          "internalType": "address",
          "name": "addr",
          "type": "address"
        }
      ],
      "name": "viewAccountVerifier",
      "outputs": [
        {
          "internalType": "address",
          "name": "",
          "type": "address"
        }
      ],
      "payable": false,
      "stateMutability": "view",
      "type": "function"
    },
    {
      "constant": true,
      "inputs": [],
      "name": "getUnverifiedStatus",
      "outputs": [
        {
          "internalType": "enum Account.status",
          "name": "state",
          "type": "uint8"
        }
      ],
      "payable": false,
      "stateMutability": "pure",
      "type": "function"
    },
    {
      "constant": true,
      "inputs": [],
      "name": "getVerifiedStatus",
      "outputs": [
        {
          "internalType": "enum Account.status",
          "name": "state",
          "type": "uint8"
        }
      ],
      "payable": false,
      "stateMutability": "pure",
      "type": "function"
    }
  ],
  "bytecode": "0x608060405234801561001057600080fd5b50336000806101000a81548173ffffffffffffffffffffffffffffffffffffffff021916908373ffffffffffffffffffffffffffffffffffffffff160217905550610bb9806100606000396000f3fe608060405234801561001057600080fd5b50600436106100935760003560e01c8063a76dd77411610066578063a76dd774146101ca578063b7061523146101f6578063c2db26fc1461023a578063decfa1f41461027e578063f16dfbe91461030257610093565b80638915a6571461009857806390f9b678146100dc57806391a7ad34146101085780639a6c895114610164575b600080fd5b6100da600480360360208110156100ae57600080fd5b81019080803573ffffffffffffffffffffffffffffffffffffffff169060200190929190505050610346565b005b6100e4610512565b604051808260018111156100f457fe5b60ff16815260200191505060405180910390f35b61014a6004803603602081101561011e57600080fd5b81019080803573ffffffffffffffffffffffffffffffffffffffff16906020019092919050505061051a565b604051808215151515815260200191505060405180910390f35b6101a66004803603602081101561017a57600080fd5b81019080803573ffffffffffffffffffffffffffffffffffffffff169060200190929190505050610573565b604051808260018111156101b657fe5b60ff16815260200191505060405180910390f35b6101d26105cc565b604051808260018111156101e257fe5b60ff16815260200191505060405180910390f35b6102386004803603602081101561020c57600080fd5b81019080803573ffffffffffffffffffffffffffffffffffffffff1690602001909291905050506105d5565b005b61027c6004803603602081101561025057600080fd5b81019080803573ffffffffffffffffffffffffffffffffffffffff1690602001909291905050506107a0565b005b6102c06004803603602081101561029457600080fd5b81019080803573ffffffffffffffffffffffffffffffffffffffff16906020019092919050505061094a565b604051808273ffffffffffffffffffffffffffffffffffffffff1673ffffffffffffffffffffffffffffffffffffffff16815260200191505060405180910390f35b6103446004803603602081101561031857600080fd5b81019080803573ffffffffffffffffffffffffffffffffffffffff1690602001909291905050506109b6565b005b6000809054906101000a900473ffffffffffffffffffffffffffffffffffffffff1673ffffffffffffffffffffffffffffffffffffffff163373ffffffffffffffffffffffffffffffffffffffff16146103eb576040517f08c379a0000000000000000000000000000000000000000000000000000000008152600401808060200182810382526025815260200180610b606025913960400191505060405180910390fd5b60011515600160008373ffffffffffffffffffffffffffffffffffffffff1673ffffffffffffffffffffffffffffffffffffffff16815260200190815260200160002060000160159054906101000a900460ff161515146104b4576040517f08c379a00000000000000000000000000000000000000000000000000000000081526004018080602001828103825260188152602001807f4163636f756e74206973206e6f7420636572746966696564000000000000000081525060200191505060405180910390fd5b6000600160008373ffffffffffffffffffffffffffffffffffffffff1673ffffffffffffffffffffffffffffffffffffffff16815260200190815260200160002060000160156101000a81548160ff02191690831515021790555050565b600080905090565b6000600160008373ffffffffffffffffffffffffffffffffffffffff1673ffffffffffffffffffffffffffffffffffffffff16815260200190815260200160002060000160159054906101000a900460ff169050919050565b6000600160008373ffffffffffffffffffffffffffffffffffffffff1673ffffffffffffffffffffffffffffffffffffffff16815260200190815260200160002060000160009054906101000a900460ff169050919050565b60006001905090565b6000809054906101000a900473ffffffffffffffffffffffffffffffffffffffff1673ffffffffffffffffffffffffffffffffffffffff163373ffffffffffffffffffffffffffffffffffffffff161461067a576040517f08c379a0000000000000000000000000000000000000000000000000000000008152600401808060200182810382526025815260200180610b606025913960400191505060405180910390fd5b60001515600160008373ffffffffffffffffffffffffffffffffffffffff1673ffffffffffffffffffffffffffffffffffffffff16815260200190815260200160002060000160159054906101000a900460ff16151514610743576040517f08c379a000000000000000000000000000000000000000000000000000000000815260040180806020018281038252601c8152602001807f4163636f756e7420697320616c7265616479206365727469666965640000000081525060200191505060405180910390fd5b60018060008373ffffffffffffffffffffffffffffffffffffffff1673ffffffffffffffffffffffffffffffffffffffff16815260200190815260200160002060000160156101000a81548160ff02191690831515021790555050565b600160003373ffffffffffffffffffffffffffffffffffffffff1673ffffffffffffffffffffffffffffffffffffffff16815260200190815260200160002060000160159054906101000a900460ff16610862576040517f08c379a00000000000000000000000000000000000000000000000000000000081526004018080602001828103825260158152602001807f4163636f756e74206e6f7420636572746966696564000000000000000000000081525060200191505060405180910390fd5b6000600160008373ffffffffffffffffffffffffffffffffffffffff1673ffffffffffffffffffffffffffffffffffffffff16815260200190815260200160002060000160006101000a81548160ff021916908360018111156108c157fe5b021790555033600160008373ffffffffffffffffffffffffffffffffffffffff1673ffffffffffffffffffffffffffffffffffffffff16815260200190815260200160002060000160016101000a81548173ffffffffffffffffffffffffffffffffffffffff021916908373ffffffffffffffffffffffffffffffffffffffff16021790555050565b6000600160008373ffffffffffffffffffffffffffffffffffffffff1673ffffffffffffffffffffffffffffffffffffffff16815260200190815260200160002060000160019054906101000a900473ffffffffffffffffffffffffffffffffffffffff169050919050565b600160003373ffffffffffffffffffffffffffffffffffffffff1673ffffffffffffffffffffffffffffffffffffffff16815260200190815260200160002060000160159054906101000a900460ff16610a78576040517f08c379a00000000000000000000000000000000000000000000000000000000081526004018080602001828103825260158152602001807f4163636f756e74206e6f7420636572746966696564000000000000000000000081525060200191505060405180910390fd5b60018060008373ffffffffffffffffffffffffffffffffffffffff1673ffffffffffffffffffffffffffffffffffffffff16815260200190815260200160002060000160006101000a81548160ff02191690836001811115610ad657fe5b021790555033600160008373ffffffffffffffffffffffffffffffffffffffff1673ffffffffffffffffffffffffffffffffffffffff16815260200190815260200160002060000160016101000a81548173ffffffffffffffffffffffffffffffffffffffff021916908373ffffffffffffffffffffffffffffffffffffffff1602179055505056fe596f7520646f206e6f742068617665207065726d697373696f6e20746f20646f2074686973a265627a7a72315820ac9c05645a6859d08bf4605cf998602bfcb52da7ab20da33923ba54d31c0b7eb64736f6c63430005110032",
  "source": "pragma solidity ^0.5.0;\n\ncontract Account {\n    address owner;\n\n    // Struct creation for the account member\n    enum status {\n        unverified,\n        verified\n    }\n\n    constructor() public {\n        owner = msg.sender;\n    }\n\n    struct account {\n        status state; // whether an account can sell tickets\n        address verifier; // who verified this account\n        bool certified; // whether account can certify other addresses\n    }\n\n    mapping (address => account) accounts;\n\n    modifier onlyOwner() {\n        require(msg.sender == owner, \"You do not have permission to do this\");\n        _;\n    }\n\n    modifier isCertified() {\n        require(accounts[msg.sender].certified, \"Account not certified\");\n        _;\n    }\n\n    /**\n     * certify an account to be given the permission to verify other accounts\n     *\n     * param addr       address of the account to be certified\n     */\n    function certifyAccount(address addr) public onlyOwner() {\n        require(accounts[addr].certified == false, \"Account is already certified\");\n        accounts[addr].certified = true;\n    }\n\n    /**\n     * uncertify an account to revoke permission to verify other accounts\n     * param addr       address of the account to be uncertified\n     */\n    function uncertifyAccount(address addr) public onlyOwner() {\n        require(accounts[addr].certified == true, \"Account is not certified\");\n        accounts[addr].certified = false;\n    }\n\n    /**\n     * Verify an account to be able to list events\n     *\n     * param addr       address of the account to be verified\n     */\n    function verifyAccount(address addr) public isCertified() {\n        accounts[addr].state = status.verified;\n        accounts[addr].verifier = msg.sender;\n    }\n\n    /**\n     * Unverify an account to restrict listing events\n     *\n     * param addr       address of the account to be unverified\n     */\n    function unverifyAccount(address addr) public isCertified() {\n        accounts[addr].state = status.unverified;\n        accounts[addr].verifier = msg.sender;\n    }\n\n    /**\n     * View the state of an account\n     *\n     * param addr       address of the account\n     */\n    function viewAccountState(address addr) public view returns (status state) {\n        return accounts[addr].state;\n    }\n\n    /**\n     * View the certified status of an account\n     *\n     * param addr       address of the account\n     * returns bool     true if certified, else false\n     */\n    function viewCertifiedStatus(address addr) public view returns (bool) {\n        return accounts[addr].certified;\n    }\n\n    /**\n     * View the verifier of an account\n     *\n     * param addr       address of the account\n     * returns address  address of the verifier\n     */\n    function viewAccountVerifier(address addr) public view returns (address) {\n        return accounts[addr].verifier;\n    }\n    \n    /**\n     * Obtain enum value of an unverified state\n     *\n     * returns status state of the unverified status\n     */\n    function getUnverifiedStatus() public pure returns (status state) {\n        return status.unverified;\n    }\n\n    /**\n     * Obtain enum value of a verified state\n     *\n     * returns status state of the verified status\n     */\n    function getVerifiedStatus() public pure returns (status state) {\n        return status.verified;\n    }\n\n}",
  "sourcePath": "C:\\Users\\jd98_\\OneDrive\\Desktop\\IS4302\\proj\\contracts\\Account.sol",
  "compiler": {
    "name": "solc",
    "version": "0.5.17+commit.d19bba13.Emscripten.clang"
  },
  "schemaVersion": "3.4.11",
  "updatedAt": "2023-04-04T02:32:39.419Z",
  "devdoc": {
    "methods": {}
  },
  "userdoc": {
    "methods": {
      "certifyAccount(address)": {
        "notice": "certify an account to be given the permission to verify other accounts     * param addr       address of the account to be certified"
      },
      "getUnverifiedStatus()": {
        "notice": "Obtain enum value of an unverified state     * returns status state of the unverified status"
      },
      "getVerifiedStatus()": {
        "notice": "Obtain enum value of a verified state     * returns status state of the verified status"
      },
      "uncertifyAccount(address)": {
        "notice": "uncertify an account to revoke permission to verify other accounts param addr       address of the account to be uncertified"
      },
      "unverifyAccount(address)": {
        "notice": "Unverify an account to restrict listing events     * param addr       address of the account to be unverified"
      },
      "verifyAccount(address)": {
        "notice": "Verify an account to be able to list events     * param addr       address of the account to be verified"
      },
      "viewAccountState(address)": {
        "notice": "View the state of an account     * param addr       address of the account"
      },
      "viewAccountVerifier(address)": {
        "notice": "View the verifier of an account     * param addr       address of the account returns address  address of the verifier"
      },
      "viewCertifiedStatus(address)": {
        "notice": "View the certified status of an account     * param addr       address of the account returns bool     true if certified, else false"
      }
    }
  }
}