{
  "contractName": "Account",
  "abi": [
    {
      "inputs": [],
      "payable": false,
      "stateMutability": "nonpayable",
      "type": "constructor"
    },
    {
      "constant": false,
      "inputs": [
        {
          "internalType": "address",
          "name": "addr",
          "type": "address"
        }
      ],
      "name": "certifyAccount",
      "outputs": [],
      "payable": false,
      "stateMutability": "nonpayable",
      "type": "function"
    },
    {
      "constant": false,
      "inputs": [
        {
          "internalType": "address",
          "name": "addr",
          "type": "address"
        }
      ],
      "name": "uncertifyAccount",
      "outputs": [],
      "payable": false,
      "stateMutability": "nonpayable",
      "type": "function"
    },
    {
      "constant": false,
      "inputs": [
        {
          "internalType": "address",
          "name": "addr",
          "type": "address"
        }
      ],
      "name": "verifyAccount",
      "outputs": [],
      "payable": false,
      "stateMutability": "nonpayable",
      "type": "function"
    },
    {
      "constant": false,
      "inputs": [
        {
          "internalType": "address",
          "name": "addr",
          "type": "address"
        }
      ],
      "name": "unverifyAccount",
      "outputs": [],
      "payable": false,
      "stateMutability": "nonpayable",
      "type": "function"
    },
    {
      "constant": true,
      "inputs": [
        {
          "internalType": "address",
          "name": "addr",
          "type": "address"
        }
      ],
      "name": "viewAccountState",
      "outputs": [
        {
          "internalType": "enum Account.status",
          "name": "state",
          "type": "uint8"
        }
      ],
      "payable": false,
      "stateMutability": "view",
      "type": "function"
    },
    {
      "constant": true,
      "inputs": [
        {
          "internalType": "address",
          "name": "addr",
          "type": "address"
        }
      ],
      "name": "viewCertifiedStatus",
      "outputs": [
        {
          "internalType": "bool",
          "name": "",
          "type": "bool"
        }
      ],
      "payable": false,
      "stateMutability": "view",
      "type": "function"
    },
    {
      "constant": true,
      "inputs": [
        {
          "internalType": "address",
          "name": "addr",
          "type": "address"
        }
      ],
      "name": "viewAccountVerifier",
      "outputs": [
        {
          "internalType": "address",
          "name": "",
          "type": "address"
        }
      ],
      "payable": false,
      "stateMutability": "view",
      "type": "function"
    },
    {
      "constant": true,
      "inputs": [],
      "name": "getUnverifiedStatus",
      "outputs": [
        {
          "internalType": "enum Account.status",
          "name": "state",
          "type": "uint8"
        }
      ],
      "payable": false,
      "stateMutability": "pure",
      "type": "function"
    },
    {
      "constant": true,
      "inputs": [],
      "name": "getVerifiedStatus",
      "outputs": [
        {
          "internalType": "enum Account.status",
          "name": "state",
          "type": "uint8"
        }
      ],
      "payable": false,
      "stateMutability": "pure",
      "type": "function"
    },
    {
      "constant": true,
      "inputs": [
        {
          "internalType": "address",
          "name": "addr",
          "type": "address"
        }
      ],
      "name": "getBalance",
      "outputs": [
        {
          "internalType": "uint256",
          "name": "",
          "type": "uint256"
        }
      ],
      "payable": false,
      "stateMutability": "view",
      "type": "function"
    }
  ],
  "bytecode": "0x608060405234801561001057600080fd5b50336000806101000a81548173ffffffffffffffffffffffffffffffffffffffff021916908373ffffffffffffffffffffffffffffffffffffffff160217905550610c3d806100606000396000f3fe608060405234801561001057600080fd5b506004361061009e5760003560e01c8063b706152311610066578063b706152314610201578063c2db26fc14610245578063decfa1f414610289578063f16dfbe91461030d578063f8b2cb4f146103515761009e565b80638915a657146100a357806390f9b678146100e757806391a7ad34146101135780639a6c89511461016f578063a76dd774146101d5575b600080fd5b6100e5600480360360208110156100b957600080fd5b81019080803573ffffffffffffffffffffffffffffffffffffffff1690602001909291905050506103a9565b005b6100ef610575565b604051808260018111156100ff57fe5b60ff16815260200191505060405180910390f35b6101556004803603602081101561012957600080fd5b81019080803573ffffffffffffffffffffffffffffffffffffffff16906020019092919050505061057d565b604051808215151515815260200191505060405180910390f35b6101b16004803603602081101561018557600080fd5b81019080803573ffffffffffffffffffffffffffffffffffffffff1690602001909291905050506105d6565b604051808260018111156101c157fe5b60ff16815260200191505060405180910390f35b6101dd61062f565b604051808260018111156101ed57fe5b60ff16815260200191505060405180910390f35b6102436004803603602081101561021757600080fd5b81019080803573ffffffffffffffffffffffffffffffffffffffff169060200190929190505050610638565b005b6102876004803603602081101561025b57600080fd5b81019080803573ffffffffffffffffffffffffffffffffffffffff169060200190929190505050610803565b005b6102cb6004803603602081101561029f57600080fd5b81019080803573ffffffffffffffffffffffffffffffffffffffff1690602001909291905050506109ad565b604051808273ffffffffffffffffffffffffffffffffffffffff1673ffffffffffffffffffffffffffffffffffffffff16815260200191505060405180910390f35b61034f6004803603602081101561032357600080fd5b81019080803573ffffffffffffffffffffffffffffffffffffffff169060200190929190505050610a19565b005b6103936004803603602081101561036757600080fd5b81019080803573ffffffffffffffffffffffffffffffffffffffff169060200190929190505050610bc2565b6040518082815260200191505060405180910390f35b6000809054906101000a900473ffffffffffffffffffffffffffffffffffffffff1673ffffffffffffffffffffffffffffffffffffffff163373ffffffffffffffffffffffffffffffffffffffff161461044e576040517f08c379a0000000000000000000000000000000000000000000000000000000008152600401808060200182810382526025815260200180610be46025913960400191505060405180910390fd5b60011515600160008373ffffffffffffffffffffffffffffffffffffffff1673ffffffffffffffffffffffffffffffffffffffff16815260200190815260200160002060000160159054906101000a900460ff16151514610517576040517f08c379a00000000000000000000000000000000000000000000000000000000081526004018080602001828103825260188152602001807f4163636f756e74206973206e6f7420636572746966696564000000000000000081525060200191505060405180910390fd5b6000600160008373ffffffffffffffffffffffffffffffffffffffff1673ffffffffffffffffffffffffffffffffffffffff16815260200190815260200160002060000160156101000a81548160ff02191690831515021790555050565b600080905090565b6000600160008373ffffffffffffffffffffffffffffffffffffffff1673ffffffffffffffffffffffffffffffffffffffff16815260200190815260200160002060000160159054906101000a900460ff169050919050565b6000600160008373ffffffffffffffffffffffffffffffffffffffff1673ffffffffffffffffffffffffffffffffffffffff16815260200190815260200160002060000160009054906101000a900460ff169050919050565b60006001905090565b6000809054906101000a900473ffffffffffffffffffffffffffffffffffffffff1673ffffffffffffffffffffffffffffffffffffffff163373ffffffffffffffffffffffffffffffffffffffff16146106dd576040517f08c379a0000000000000000000000000000000000000000000000000000000008152600401808060200182810382526025815260200180610be46025913960400191505060405180910390fd5b60001515600160008373ffffffffffffffffffffffffffffffffffffffff1673ffffffffffffffffffffffffffffffffffffffff16815260200190815260200160002060000160159054906101000a900460ff161515146107a6576040517f08c379a000000000000000000000000000000000000000000000000000000000815260040180806020018281038252601c8152602001807f4163636f756e7420697320616c7265616479206365727469666965640000000081525060200191505060405180910390fd5b60018060008373ffffffffffffffffffffffffffffffffffffffff1673ffffffffffffffffffffffffffffffffffffffff16815260200190815260200160002060000160156101000a81548160ff02191690831515021790555050565b600160003373ffffffffffffffffffffffffffffffffffffffff1673ffffffffffffffffffffffffffffffffffffffff16815260200190815260200160002060000160159054906101000a900460ff166108c5576040517f08c379a00000000000000000000000000000000000000000000000000000000081526004018080602001828103825260158152602001807f4163636f756e74206e6f7420636572746966696564000000000000000000000081525060200191505060405180910390fd5b6000600160008373ffffffffffffffffffffffffffffffffffffffff1673ffffffffffffffffffffffffffffffffffffffff16815260200190815260200160002060000160006101000a81548160ff0219169083600181111561092457fe5b021790555033600160008373ffffffffffffffffffffffffffffffffffffffff1673ffffffffffffffffffffffffffffffffffffffff16815260200190815260200160002060000160016101000a81548173ffffffffffffffffffffffffffffffffffffffff021916908373ffffffffffffffffffffffffffffffffffffffff16021790555050565b6000600160008373ffffffffffffffffffffffffffffffffffffffff1673ffffffffffffffffffffffffffffffffffffffff16815260200190815260200160002060000160019054906101000a900473ffffffffffffffffffffffffffffffffffffffff169050919050565b600160003373ffffffffffffffffffffffffffffffffffffffff1673ffffffffffffffffffffffffffffffffffffffff16815260200190815260200160002060000160159054906101000a900460ff16610adb576040517f08c379a00000000000000000000000000000000000000000000000000000000081526004018080602001828103825260158152602001807f4163636f756e74206e6f7420636572746966696564000000000000000000000081525060200191505060405180910390fd5b60018060008373ffffffffffffffffffffffffffffffffffffffff1673ffffffffffffffffffffffffffffffffffffffff16815260200190815260200160002060000160006101000a81548160ff02191690836001811115610b3957fe5b021790555033600160008373ffffffffffffffffffffffffffffffffffffffff1673ffffffffffffffffffffffffffffffffffffffff16815260200190815260200160002060000160016101000a81548173ffffffffffffffffffffffffffffffffffffffff021916908373ffffffffffffffffffffffffffffffffffffffff16021790555050565b60008173ffffffffffffffffffffffffffffffffffffffff1631905091905056fe596f7520646f206e6f742068617665207065726d697373696f6e20746f20646f2074686973a265627a7a7231582003f6d46e964c342325cfc6597b4eb84131ad816be981cbeb7ecbfd3b8c6d4cd564736f6c63430005110032",
  "source": "pragma solidity ^0.5.0;\r\n\r\ncontract Account {\r\n    address owner;\r\n\r\n    // Struct creation for the account member\r\n    enum status {\r\n        unverified,\r\n        verified\r\n    }\r\n\r\n    constructor() public {\r\n        owner = msg.sender;\r\n    }\r\n\r\n    struct account {\r\n        status state; // whether an account can sell tickets\r\n        address verifier; // who verified this account\r\n        bool certified; // whether an account is certified to verify other address\r\n    }\r\n\r\n    mapping (address => account) accounts;\r\n\r\n    modifier onlyOwner() {\r\n        require(msg.sender == owner, \"You do not have permission to do this\");\r\n        _;\r\n    }\r\n\r\n    modifier isCertified() {\r\n        require(accounts[msg.sender].certified, \"Account not certified\");\r\n        _;\r\n    }\r\n\r\n    /**\r\n     * certify an account to be given the permission to verify other accounts\r\n     *\r\n     * param addr       address of the account to be certified\r\n     */\r\n    function certifyAccount(address addr) public onlyOwner() {\r\n        require(accounts[addr].certified == false, \"Account is already certified\");\r\n        accounts[addr].certified = true;\r\n    }\r\n\r\n    /**\r\n     * uncertify an account to revoke permission to verify other accounts\r\n     * param addr       address of the account to be uncertified\r\n     */\r\n    function uncertifyAccount(address addr) public onlyOwner() {\r\n        require(accounts[addr].certified == true, \"Account is not certified\");\r\n        accounts[addr].certified = false;\r\n    }\r\n\r\n    /**\r\n     * Verify an account to be able to list events\r\n     *\r\n     * param addr       address of the account to be verified\r\n     */\r\n    function verifyAccount(address addr) public isCertified() {\r\n        accounts[addr].state = status.verified;\r\n        accounts[addr].verifier = msg.sender;\r\n    }\r\n\r\n    /**\r\n     * Unverify an account to restrict listing events\r\n     *\r\n     * param addr       address of the account to be unverified\r\n     */\r\n    function unverifyAccount(address addr) public isCertified() {\r\n        accounts[addr].state = status.unverified;\r\n        accounts[addr].verifier = msg.sender;\r\n    }\r\n\r\n    /**\r\n     * View the state of an account\r\n     *\r\n     * param addr       address of the account\r\n     */\r\n    function viewAccountState(address addr) public view returns (status state) {\r\n        return accounts[addr].state;\r\n    }\r\n\r\n    /**\r\n     * View the certified status of an account\r\n     *\r\n     * param addr       address of the account\r\n     * returns bool     true if certified, else false\r\n     */\r\n    function viewCertifiedStatus(address addr) public view returns (bool) {\r\n        return accounts[addr].certified;\r\n    }\r\n\r\n    /**\r\n     * View the verifier of an account\r\n     *\r\n     * param addr       address of the account\r\n     * returns address  address of the verifier\r\n     */\r\n    function viewAccountVerifier(address addr) public view returns (address) {\r\n        return accounts[addr].verifier;\r\n    }\r\n    \r\n    /**\r\n     * Obtain enum value of an unverified state\r\n     *\r\n     * returns status state of the unverified status\r\n     */\r\n    function getUnverifiedStatus() public pure returns (status state) {\r\n        return status.unverified;\r\n    }\r\n\r\n    /**\r\n     * Obtain enum value of a verified state\r\n     *\r\n     * returns status state of the verified status\r\n     */\r\n    function getVerifiedStatus() public pure returns (status state) {\r\n        return status.verified;\r\n    }\r\n\r\n     /**\r\n     * Return ether balance of specific Account/ Contract Address\r\n     *\r\n     * param addr       address of the account/ contract\r\n     * returns uint256  ether balance of the account/ contract\r\n     */\r\n    function getBalance(address addr) public view returns (uint256) {\r\n        return addr.balance;\r\n    }\r\n\r\n}",
  "sourcePath": "C:\\Users\\remus\\Desktop\\3.2\\IS4302\\Project\\contracts\\Account.sol",
  "compiler": {
    "name": "solc",
    "version": "0.5.17+commit.d19bba13.Emscripten.clang"
  },
  "schemaVersion": "3.4.11",
  "updatedAt": "2023-04-06T15:34:34.290Z",
  "devdoc": {
    "methods": {}
  },
  "userdoc": {
    "methods": {
      "certifyAccount(address)": {
        "notice": "certify an account to be given the permission to verify other accounts      * param addr       address of the account to be certified"
      },
      "getBalance(address)": {
        "notice": "Return ether balance of specific Account/ Contract Address      * param addr       address of the account/ contract returns uint256  ether balance of the account/ contract"
      },
      "getUnverifiedStatus()": {
        "notice": "Obtain enum value of an unverified state      * returns status state of the unverified status"
      },
      "getVerifiedStatus()": {
        "notice": "Obtain enum value of a verified state      * returns status state of the verified status"
      },
      "uncertifyAccount(address)": {
        "notice": "uncertify an account to revoke permission to verify other accounts param addr       address of the account to be uncertified"
      },
      "unverifyAccount(address)": {
        "notice": "Unverify an account to restrict listing events      * param addr       address of the account to be unverified"
      },
      "verifyAccount(address)": {
        "notice": "Verify an account to be able to list events      * param addr       address of the account to be verified"
      },
      "viewAccountState(address)": {
        "notice": "View the state of an account      * param addr       address of the account"
      },
      "viewAccountVerifier(address)": {
        "notice": "View the verifier of an account      * param addr       address of the account returns address  address of the verifier"
      },
      "viewCertifiedStatus(address)": {
        "notice": "View the certified status of an account      * param addr       address of the account returns bool     true if certified, else false"
      }
    }
  }
}