{
  "contractName": "Account",
  "abi": [
    {
      "constant": false,
      "inputs": [
        {
          "internalType": "address",
          "name": "addr",
          "type": "address"
        }
      ],
      "name": "createAccount",
      "outputs": [],
      "payable": false,
      "stateMutability": "nonpayable",
      "type": "function"
    },
    {
      "constant": true,
      "inputs": [
        {
          "internalType": "address",
          "name": "addr",
          "type": "address"
        }
      ],
      "name": "viewAccountState",
      "outputs": [
        {
          "internalType": "enum Account.status",
          "name": "state",
          "type": "uint8"
        }
      ],
      "payable": false,
      "stateMutability": "view",
      "type": "function"
    },
    {
      "constant": true,
      "inputs": [
        {
          "internalType": "address",
          "name": "addr",
          "type": "address"
        }
      ],
      "name": "viewAccountRegistered",
      "outputs": [
        {
          "internalType": "bool",
          "name": "registered",
          "type": "bool"
        }
      ],
      "payable": false,
      "stateMutability": "view",
      "type": "function"
    }
  ],
  "bytecode": "0x608060405234801561001057600080fd5b50610351806100206000396000f3fe608060405234801561001057600080fd5b50600436106100405760003560e01c8062d02a34146100455780639859387b146100a15780639a6c8951146100e5575b600080fd5b6100876004803603602081101561005b57600080fd5b81019080803573ffffffffffffffffffffffffffffffffffffffff16906020019092919050505061014b565b604051808215151515815260200191505060405180910390f35b6100e3600480360360208110156100b757600080fd5b81019080803573ffffffffffffffffffffffffffffffffffffffff1690602001909291905050506101a3565b005b610127600480360360208110156100fb57600080fd5b81019080803573ffffffffffffffffffffffffffffffffffffffff1690602001909291905050506102c4565b6040518082600181111561013757fe5b60ff16815260200191505060405180910390f35b60008060008373ffffffffffffffffffffffffffffffffffffffff1673ffffffffffffffffffffffffffffffffffffffff16815260200190815260200160002060000160019054906101000a900460ff169050919050565b80600015156000808373ffffffffffffffffffffffffffffffffffffffff1673ffffffffffffffffffffffffffffffffffffffff16815260200190815260200160002060000160019054906101000a900460ff1615151461020357600080fd5b60016000808473ffffffffffffffffffffffffffffffffffffffff1673ffffffffffffffffffffffffffffffffffffffff16815260200190815260200160002060000160006101000a81548160ff0219169083600181111561026157fe5b021790555060016000808473ffffffffffffffffffffffffffffffffffffffff1673ffffffffffffffffffffffffffffffffffffffff16815260200190815260200160002060000160016101000a81548160ff0219169083151502179055505050565b60008060008373ffffffffffffffffffffffffffffffffffffffff1673ffffffffffffffffffffffffffffffffffffffff16815260200190815260200160002060000160009054906101000a900460ff16905091905056fea265627a7a723158206809c92d1cfccf1a71d953228db1e0520e986fe27d93ee88d8eb18513ecc769a64736f6c63430005110032",
  "source": "pragma solidity ^0.5.0;\r\n\r\ncontract Account {\r\n    // Struct creation for the account member\r\n    enum status {\r\n        unverified,\r\n        verified\r\n    }\r\n\r\n    struct account {\r\n        status state; // whether an account can sell tickets\r\n        bool registered;\r\n    }\r\n\r\n    mapping (address => account) accounts;\r\n\r\n    modifier validAccount(address addr) {\r\n        require(accounts[addr].registered == true); //Check if registered \r\n        _;\r\n    }\r\n\r\n    modifier invalidAccount(address addr) {\r\n        require(accounts[addr].registered == false); //Check if not registered\r\n        _;\r\n    }\r\n\r\n    /* Ensures an account is registered on the platform */\r\n    function createAccount(address addr) public invalidAccount(addr) {\r\n        accounts[addr].state = status.verified;\r\n        accounts[addr].registered = true; // updatees the field to make an account valid\r\n    }\r\n\r\n    function viewAccountState(address addr) public view returns (status state) {\r\n        return accounts[addr].state;\r\n    }\r\n\r\n    function viewAccountRegistered(address addr) public view returns(bool registered) {\r\n        return accounts[addr].registered;\r\n    } \r\n\r\n}",
  "sourcePath": "C:\\Users\\remus\\Desktop\\3.2\\IS4302\\Project\\contracts\\Account.sol",
  "compiler": {
    "name": "solc",
    "version": "0.5.17+commit.d19bba13.Emscripten.clang"
  },
  "schemaVersion": "3.4.11",
  "updatedAt": "2023-03-17T19:02:39.843Z",
  "devdoc": {
    "methods": {}
  },
  "userdoc": {
    "methods": {}
  }
}