{
  "contractName": "Buyer",
  "abi": [
    {
      "inputs": [
        {
          "internalType": "contract Account",
          "name": "accountAddress",
          "type": "address"
        }
      ],
      "payable": false,
      "stateMutability": "nonpayable",
      "type": "constructor"
    },
    {
      "constant": false,
      "inputs": [
        {
          "internalType": "uint256",
          "name": "eventId",
          "type": "uint256"
        },
        {
          "internalType": "uint8",
          "name": "quantity",
          "type": "uint8"
        }
      ],
      "name": "buyTickets",
      "outputs": [],
      "payable": false,
      "stateMutability": "nonpayable",
      "type": "function"
    },
    {
      "constant": false,
      "inputs": [
        {
          "internalType": "uint256",
          "name": "ticketId",
          "type": "uint256"
        }
      ],
      "name": "refundTickets",
      "outputs": [],
      "payable": false,
      "stateMutability": "nonpayable",
      "type": "function"
    },
    {
      "constant": true,
      "inputs": [
        {
          "internalType": "uint256",
          "name": "eventId",
          "type": "uint256"
        }
      ],
      "name": "viewListedEvents",
      "outputs": [],
      "payable": false,
      "stateMutability": "view",
      "type": "function"
    },
    {
      "constant": true,
      "inputs": [
        {
          "internalType": "uint256",
          "name": "ticketId",
          "type": "uint256"
        }
      ],
      "name": "viewTicketsBought",
      "outputs": [],
      "payable": false,
      "stateMutability": "view",
      "type": "function"
    }
  ],
  "bytecode": "0x608060405234801561001057600080fd5b5060405161027a38038061027a8339818101604052602081101561003357600080fd5b8101908080519060200190929190505050806000806101000a81548173ffffffffffffffffffffffffffffffffffffffff021916908373ffffffffffffffffffffffffffffffffffffffff160217905550506101e6806100946000396000f3fe608060405234801561001057600080fd5b506004361061004c5760003560e01c80631d99885d146100515780635a22ac921461007f578063773dd66c146100ba5780638964e322146100e8575b600080fd5b61007d6004803603602081101561006757600080fd5b8101908080359060200190929190505050610116565b005b6100b86004803603604081101561009557600080fd5b8101908080359060200190929190803560ff169060200190929190505050610119565b005b6100e6600480360360208110156100d057600080fd5b810190808035906020019092919050505061017c565b005b610114600480360360208110156100fe57600080fd5b810190808035906020019092919050505061017f565b005b50565b3360048260ff161115610177576040517f08c379a000000000000000000000000000000000000000000000000000000000815260040180806020018281038252602f815260200180610183602f913960400191505060405180910390fd5b505050565b50565b5056fe596f7520686176652070617373656420746865206d6178696d756d2062756c6b207075726368617365206c696d6974a265627a7a723158203444c120a7eeb789ee61745b808981010087db96ba2d84e7a52ce035ba8cca5264736f6c63430005110032",
  "source": "pragma solidity ^0.5.0;\r\n\r\nimport \"./Account.sol\";\r\n\r\ncontract Buyer {\r\n    Account accountContract;\r\n\r\n    constructor(Account accountAddress) public {\r\n        accountContract = accountAddress;\r\n    }\r\n\r\n    modifier isBuyer(address addr) {\r\n        //require((accountContract.viewAccountRegistered == true) && (accountContract.viewAccountState == Account.status.unverified));\r\n        _;\r\n    }\r\n\r\n    /* Depending on the implementation, these functions may be in a different contract */\r\n\r\n    /* Buy tickets for an event by specifying the eventId and amount*/\r\n    function buyTickets(uint256 eventId, uint8 quantity) public isBuyer(msg.sender) {\r\n        require(quantity <= 4, \"You have passed the maximum bulk purchase limit\");\r\n        //require a cooldown of 24hours before another purchase can be bought\r\n        //include refund mechanism\r\n    }\r\n\r\n    /* Refunds part of the token back to the buyer */\r\n    function refundTickets(uint256 ticketId) public isBuyer(msg.sender) {\r\n        //include refund mechanism using tokenism\r\n    }\r\n\r\n    /* View available tickets for an event that are listed on the platform*/\r\n    function viewListedEvents(uint256 eventId) public view isBuyer(msg.sender) {\r\n        //retrieve eventid from platform & display information\r\n    }\r\n\r\n    /* View tickets bought */\r\n    function viewTicketsBought(uint256 ticketId) public view isBuyer(msg.sender) {\r\n        //requirement: ticketid's owner is the sender\r\n        //retrieve info of a bought ticket\r\n    }\r\n \r\n}",
  "sourcePath": "C:\\Users\\remus\\Desktop\\3.2\\IS4302\\Project\\contracts\\Buyer.sol",
  "compiler": {
    "name": "solc",
    "version": "0.5.17+commit.d19bba13.Emscripten.clang"
  },
  "schemaVersion": "3.4.11",
  "updatedAt": "2023-03-17T19:02:39.845Z",
  "devdoc": {
    "methods": {}
  },
  "userdoc": {
    "methods": {}
  }
}