{
  "contractName": "EventTokenMarket",
  "abi": [
    {
      "inputs": [
        {
          "internalType": "contract EventToken",
          "name": "eventTokenAddress",
          "type": "address"
        },
        {
          "internalType": "uint256",
          "name": "comissionFeePercentage",
          "type": "uint256"
        }
      ],
      "payable": false,
      "stateMutability": "nonpayable",
      "type": "constructor"
    },
    {
      "anonymous": false,
      "inputs": [
        {
          "indexed": false,
          "internalType": "address",
          "name": "buyer",
          "type": "address"
        },
        {
          "indexed": false,
          "internalType": "uint256",
          "name": "quantity",
          "type": "uint256"
        },
        {
          "indexed": false,
          "internalType": "uint256",
          "name": "priceOfEachToken",
          "type": "uint256"
        }
      ],
      "name": "BuyToken",
      "type": "event"
    },
    {
      "anonymous": false,
      "inputs": [
        {
          "indexed": false,
          "internalType": "address",
          "name": "_seller",
          "type": "address"
        },
        {
          "indexed": false,
          "internalType": "uint256",
          "name": "sellOrderId",
          "type": "uint256"
        }
      ],
      "name": "SellOrderDelisted",
      "type": "event"
    },
    {
      "anonymous": false,
      "inputs": [
        {
          "indexed": false,
          "internalType": "uint256",
          "name": "orderId",
          "type": "uint256"
        },
        {
          "indexed": false,
          "internalType": "address",
          "name": "_seller",
          "type": "address"
        },
        {
          "indexed": false,
          "internalType": "uint256",
          "name": "_quantity",
          "type": "uint256"
        }
      ],
      "name": "SellOrderListed",
      "type": "event"
    },
    {
      "constant": true,
      "inputs": [],
      "name": "_comissionFeePercentage",
      "outputs": [
        {
          "internalType": "uint256",
          "name": "",
          "type": "uint256"
        }
      ],
      "payable": false,
      "stateMutability": "view",
      "type": "function"
    },
    {
      "constant": true,
      "inputs": [
        {
          "internalType": "uint256",
          "name": "purchasePrice",
          "type": "uint256"
        }
      ],
      "name": "getComissionFee",
      "outputs": [
        {
          "internalType": "uint256",
          "name": "",
          "type": "uint256"
        }
      ],
      "payable": false,
      "stateMutability": "view",
      "type": "function"
    },
    {
      "constant": false,
      "inputs": [
        {
          "internalType": "uint256",
          "name": "_quantity",
          "type": "uint256"
        }
      ],
      "name": "list",
      "outputs": [],
      "payable": false,
      "stateMutability": "nonpayable",
      "type": "function"
    },
    {
      "constant": false,
      "inputs": [
        {
          "internalType": "uint256",
          "name": "sellOrderId",
          "type": "uint256"
        }
      ],
      "name": "unlist",
      "outputs": [],
      "payable": false,
      "stateMutability": "nonpayable",
      "type": "function"
    },
    {
      "constant": false,
      "inputs": [
        {
          "internalType": "uint256",
          "name": "_quantity",
          "type": "uint256"
        }
      ],
      "name": "purchaseTokens",
      "outputs": [],
      "payable": true,
      "stateMutability": "payable",
      "type": "function"
    },
    {
      "constant": false,
      "inputs": [],
      "name": "withdrawComissionFee",
      "outputs": [],
      "payable": false,
      "stateMutability": "nonpayable",
      "type": "function"
    },
    {
      "constant": true,
      "inputs": [
        {
          "internalType": "uint256",
          "name": "_quantity",
          "type": "uint256"
        }
      ],
      "name": "checkCurrentPrice",
      "outputs": [
        {
          "internalType": "uint256[2]",
          "name": "",
          "type": "uint256[2]"
        }
      ],
      "payable": false,
      "stateMutability": "view",
      "type": "function"
    },
    {
      "constant": true,
      "inputs": [],
      "name": "checkCurrentSellOrder",
      "outputs": [
        {
          "internalType": "uint256[]",
          "name": "",
          "type": "uint256[]"
        }
      ],
      "payable": false,
      "stateMutability": "view",
      "type": "function"
    },
    {
      "constant": true,
      "inputs": [],
      "name": "getContractOwner",
      "outputs": [
        {
          "internalType": "address",
          "name": "",
          "type": "address"
        }
      ],
      "payable": false,
      "stateMutability": "view",
      "type": "function"
    }
  ],
  "bytecode": "0x608060405234801561001057600080fd5b506040516126593803806126598339818101604052604081101561003357600080fd5b810190808051906020019092919080519060200190929190505050816000806101000a81548173ffffffffffffffffffffffffffffffffffffffff021916908373ffffffffffffffffffffffffffffffffffffffff160217905550308260405161009c9061021e565b808373ffffffffffffffffffffffffffffffffffffffff1673ffffffffffffffffffffffffffffffffffffffff1681526020018273ffffffffffffffffffffffffffffffffffffffff1673ffffffffffffffffffffffffffffffffffffffff16815260200192505050604051809103906000f080158015610121573d6000803e3d6000fd5b50600160006101000a81548173ffffffffffffffffffffffffffffffffffffffff021916908373ffffffffffffffffffffffffffffffffffffffff1602179055506000811180156101725750606581105b6101c7576040517f08c379a00000000000000000000000000000000000000000000000000000000081526004018080602001828103825260248152602001806126356024913960400191505060405180910390fd5b80600281905550600060038190555033600460006101000a81548173ffffffffffffffffffffffffffffffffffffffff021916908373ffffffffffffffffffffffffffffffffffffffff160217905550505061022b565b610f94806116a183390190565b6114678061023a6000396000f3fe6080604052600436106100865760003560e01c806380c9419e1161005957806380c9419e1461018a57806381a2008e146101c557806399d4290114610231578063bbdf86cf146102a8578063bf5a4dd3146102bf57610086565b80633113219d1461008b5780633a8cf9cb146100b6578063442890d5146101055780637b97008d1461015c575b600080fd5b34801561009757600080fd5b506100a06102fa565b6040518082815260200191505060405180910390f35b3480156100c257600080fd5b506100ef600480360360208110156100d957600080fd5b8101908080359060200190929190505050610300565b6040518082815260200191505060405180910390f35b34801561011157600080fd5b5061011a61031d565b604051808273ffffffffffffffffffffffffffffffffffffffff1673ffffffffffffffffffffffffffffffffffffffff16815260200191505060405180910390f35b6101886004803603602081101561017257600080fd5b8101908080359060200190929190505050610347565b005b34801561019657600080fd5b506101c3600480360360208110156101ad57600080fd5b81019080803590602001909291905050506109c1565b005b3480156101d157600080fd5b506101da610dae565b6040518080602001828103825283818151815260200191508051906020019060200280838360005b8381101561021d578082015181840152602081019050610202565b505050509050019250505060405180910390f35b34801561023d57600080fd5b5061026a6004803603602081101561025457600080fd5b8101908080359060200190929190505050610e43565b6040518082600260200280838360005b8381101561029557808201518184015260208101905061027a565b5050505090500191505060405180910390f35b3480156102b457600080fd5b506102bd610f05565b005b3480156102cb57600080fd5b506102f8600480360360208110156102e257600080fd5b8101908080359060200190929190505050611026565b005b60025481565b6000806002546064848161031057fe5b0402905080915050919050565b6000600460009054906101000a900473ffffffffffffffffffffffffffffffffffffffff16905090565b61034f611391565b600160009054906101000a900473ffffffffffffffffffffffffffffffffffffffff1673ffffffffffffffffffffffffffffffffffffffff1663311e0ddc836040518263ffffffff1660e01b815260040180828152602001915050604080518083038186803b1580156103c157600080fd5b505afa1580156103d5573d6000803e3d6000fd5b505050506040513d601f19601f8201168201806040525060408110156103fa57600080fd5b8101908091905050905060008160006002811061041357fe5b6020020151905060008111610490576040517f08c379a000000000000000000000000000000000000000000000000000000000815260040180806020018281038252601f8152602001807f4e6f20746f6b656e7320617661696c61626c6520746f2070757263686173650081525060200191505060405180910390fd5b60008260016002811061049f57fe5b602002015190506000818302905080341015610506576040517f08c379a000000000000000000000000000000000000000000000000000000000815260040180806020018281038252602f8152602001806113b4602f913960400191505060405180910390fd5b3373ffffffffffffffffffffffffffffffffffffffff166108fc8234039081150290604051600060405180830381858888f1935050505015801561054e573d6000803e3d6000fd5b506060806000809050600160009054906101000a900473ffffffffffffffffffffffffffffffffffffffff1673ffffffffffffffffffffffffffffffffffffffff166383130eb8886040518263ffffffff1660e01b81526004018082600260200280838360005b838110156105d05780820151818401526020810190506105b5565b50505050905001915050600060405180830381600087803b1580156105f457600080fd5b505af1158015610608573d6000803e3d6000fd5b505050506040513d6000823e3d601f19601f82011682018060405250606081101561063257600080fd5b810190808051604051939291908464010000000082111561065257600080fd5b8382019150602082018581111561066857600080fd5b825186602082028301116401000000008211171561068557600080fd5b8083526020830192505050908051906020019060200280838360005b838110156106bc5780820151818401526020810190506106a1565b50505050905001604052602001805160405193929190846401000000008211156106e557600080fd5b838201915060208201858111156106fb57600080fd5b825186602082028301116401000000008211171561071857600080fd5b8083526020830192505050908051906020019060200280838360005b8381101561074f578082015181840152602081019050610734565b505050509050016040526020018051906020019092919050505080935081945082955050505060008090505b8181101561083e5760006002548786848151811061079557fe5b602002602001015102816107a557fe5b049050600081888785815181106107b857fe5b60200260200101510203905060008584815181106107d257fe5b602002602001015190508073ffffffffffffffffffffffffffffffffffffffff166108fc839081150290604051600060405180830381858888f19350505050158015610822573d6000803e3d6000fd5b508260035401600381905550505050808060010191505061077b565b506000809054906101000a900473ffffffffffffffffffffffffffffffffffffffff1673ffffffffffffffffffffffffffffffffffffffff166323b872dd3033896040518463ffffffff1660e01b8152600401808473ffffffffffffffffffffffffffffffffffffffff1673ffffffffffffffffffffffffffffffffffffffff1681526020018373ffffffffffffffffffffffffffffffffffffffff1673ffffffffffffffffffffffffffffffffffffffff1681526020018281526020019350505050600060405180830381600087803b15801561091b57600080fd5b505af115801561092f573d6000803e3d6000fd5b505050507ff6f342132c7de5e5a1e99c8efae544c94731f3ff093f5c3c97c6973d9415cdfb33878960016002811061096357fe5b6020020151604051808473ffffffffffffffffffffffffffffffffffffffff1673ffffffffffffffffffffffffffffffffffffffff168152602001838152602001828152602001935050505060405180910390a15050505050505050565b806000809054906101000a900473ffffffffffffffffffffffffffffffffffffffff1673ffffffffffffffffffffffffffffffffffffffff1663575a7c63336040518263ffffffff1660e01b8152600401808273ffffffffffffffffffffffffffffffffffffffff1673ffffffffffffffffffffffffffffffffffffffff16815260200191505060206040518083038186803b158015610a6057600080fd5b505afa158015610a74573d6000803e3d6000fd5b505050506040513d6020811015610a8a57600080fd5b81019080805190602001909291905050501015610af2576040517f08c379a000000000000000000000000000000000000000000000000000000000815260040180806020018281038252602b815260200180611408602b913960400191505060405180910390fd5b6000809054906101000a900473ffffffffffffffffffffffffffffffffffffffff1673ffffffffffffffffffffffffffffffffffffffff166323b872dd3330846040518463ffffffff1660e01b8152600401808473ffffffffffffffffffffffffffffffffffffffff1673ffffffffffffffffffffffffffffffffffffffff1681526020018373ffffffffffffffffffffffffffffffffffffffff1673ffffffffffffffffffffffffffffffffffffffff1681526020018281526020019350505050600060405180830381600087803b158015610bce57600080fd5b505af1158015610be2573d6000803e3d6000fd5b505050506000600160009054906101000a900473ffffffffffffffffffffffffffffffffffffffff1673ffffffffffffffffffffffffffffffffffffffff16637d44fca333846040518363ffffffff1660e01b8152600401808373ffffffffffffffffffffffffffffffffffffffff1673ffffffffffffffffffffffffffffffffffffffff16815260200182815260200192505050602060405180830381600087803b158015610c9157600080fd5b505af1158015610ca5573d6000803e3d6000fd5b505050506040513d6020811015610cbb57600080fd5b81019080805190602001909291905050509050600560003373ffffffffffffffffffffffffffffffffffffffff1673ffffffffffffffffffffffffffffffffffffffff1681526020019081526020016000208190806001815401808255809150509060018203906000526020600020016000909192909190915055507f6598806fa48ab5cb6cdf20f0fa9f763cb9269b91892d447a573f63b4346bf194813384604051808481526020018373ffffffffffffffffffffffffffffffffffffffff1673ffffffffffffffffffffffffffffffffffffffff168152602001828152602001935050505060405180910390a15050565b6060600560003373ffffffffffffffffffffffffffffffffffffffff1673ffffffffffffffffffffffffffffffffffffffff168152602001908152602001600020805480602002602001604051908101604052809291908181526020018280548015610e3957602002820191906000526020600020905b815481526020019060010190808311610e25575b5050505050905090565b610e4b611391565b600160009054906101000a900473ffffffffffffffffffffffffffffffffffffffff1673ffffffffffffffffffffffffffffffffffffffff1663311e0ddc836040518263ffffffff1660e01b815260040180828152602001915050604080518083038186803b158015610ebd57600080fd5b505afa158015610ed1573d6000803e3d6000fd5b505050506040513d601f19601f820116820180604052506040811015610ef657600080fd5b81019080919050509050919050565b600460009054906101000a900473ffffffffffffffffffffffffffffffffffffffff1673ffffffffffffffffffffffffffffffffffffffff163373ffffffffffffffffffffffffffffffffffffffff1614610fab576040517f08c379a00000000000000000000000000000000000000000000000000000000081526004018080602001828103825260258152602001806113e36025913960400191505060405180910390fd5b6000600460009054906101000a900473ffffffffffffffffffffffffffffffffffffffff1690508073ffffffffffffffffffffffffffffffffffffffff166108fc6003549081150290604051600060405180830381858888f1935050505015801561101a573d6000803e3d6000fd5b50600060038190555050565b600160009054906101000a900473ffffffffffffffffffffffffffffffffffffffff1673ffffffffffffffffffffffffffffffffffffffff166384eb06c133836040518363ffffffff1660e01b8152600401808373ffffffffffffffffffffffffffffffffffffffff1673ffffffffffffffffffffffffffffffffffffffff1681526020018281526020019250505060206040518083038186803b1580156110cd57600080fd5b505afa1580156110e1573d6000803e3d6000fd5b505050506040513d60208110156110f757600080fd5b810190808051906020019092919050505061117a576040517f08c379a000000000000000000000000000000000000000000000000000000000815260040180806020018281038252601b8152602001807f596f7520646964206e6f74206c6973742074686973206f72646572000000000081525060200191505060405180910390fd5b6000600160009054906101000a900473ffffffffffffffffffffffffffffffffffffffff1673ffffffffffffffffffffffffffffffffffffffff16630559c114836040518263ffffffff1660e01b815260040180828152602001915050602060405180830381600087803b1580156111f157600080fd5b505af1158015611205573d6000803e3d6000fd5b505050506040513d602081101561121b57600080fd5b810190808051906020019092919050505090506000809054906101000a900473ffffffffffffffffffffffffffffffffffffffff1673ffffffffffffffffffffffffffffffffffffffff166323b872dd3033846040518463ffffffff1660e01b8152600401808473ffffffffffffffffffffffffffffffffffffffff1673ffffffffffffffffffffffffffffffffffffffff1681526020018373ffffffffffffffffffffffffffffffffffffffff1673ffffffffffffffffffffffffffffffffffffffff1681526020018281526020019350505050600060405180830381600087803b15801561130a57600080fd5b505af115801561131e573d6000803e3d6000fd5b505050507f7402b2c17c169f06924eedf0f0b9e5f4fda19734faa687be52a02c080eeadd413383604051808373ffffffffffffffffffffffffffffffffffffffff1673ffffffffffffffffffffffffffffffffffffffff1681526020018281526020019250505060405180910390a15050565b604051806040016040528060029060208202803883398082019150509050509056fe596f7520646f206e6f74206861766520656e6f75676820657468657220746f20707572636861736520746f6b656e73596f7520646f206e6f742068617665207065726d697373696f6e20746f20646f2074686973596f7520646f206e6f74206861766520656e6f756768206576656e7420746f6b656e7320746f2073656c6ca265627a7a72315820dab3d8f5556c77bdaf3e06794bd5cbbfaa75b5e1dc59c02fd3dcf3610eac70fe64736f6c6343000511003260806040523480156200001157600080fd5b5060405162000f9438038062000f94833981810160405262000037919081019062000106565b600060028190555060006003819055506000600481905550816000806101000a81548173ffffffffffffffffffffffffffffffffffffffff021916908373ffffffffffffffffffffffffffffffffffffffff16021790555080600160006101000a81548173ffffffffffffffffffffffffffffffffffffffff021916908373ffffffffffffffffffffffffffffffffffffffff1602179055505050620001c3565b600081519050620000e9816200018f565b92915050565b6000815190506200010081620001a9565b92915050565b600080604083850312156200011a57600080fd5b60006200012a85828601620000d8565b92505060206200013d85828601620000ef565b9150509250929050565b600062000154826200016f565b9050919050565b6000620001688262000147565b9050919050565b600073ffffffffffffffffffffffffffffffffffffffff82169050919050565b6200019a8162000147565b8114620001a657600080fd5b50565b620001b4816200015b565b8114620001c057600080fd5b50565b610dc180620001d36000396000f3fe608060405234801561001057600080fd5b50600436106100625760003560e01c80630559c11414610067578063311e0ddc14610097578063471682b6146100c75780637d44fca3146100e557806383130eb81461011557806384eb06c114610147575b600080fd5b610081600480360361007c9190810190610942565b610177565b60405161008e9190610bee565b60405180910390f35b6100b160048036036100ac9190810190610942565b610248565b6040516100be9190610b53565b60405180910390f35b6100cf610355565b6040516100dc9190610bee565b60405180910390f35b6100ff60048036036100fa91908101906108dd565b61035f565b60405161010c9190610bee565b60405180910390f35b61012f600480360361012a9190810190610919565b6104b6565b60405161013e93929190610b6e565b60405180910390f35b610161600480360361015c91908101906108dd565b610769565b60405161016e9190610bb3565b60405180910390f35b60008060009054906101000a900473ffffffffffffffffffffffffffffffffffffffff1673ffffffffffffffffffffffffffffffffffffffff163373ffffffffffffffffffffffffffffffffffffffff1614610208576040517f08c379a00000000000000000000000000000000000000000000000000000000081526004016101ff90610bce565b60405180910390fd5b6000600560008481526020019081526020016000206001015490506000600560008581526020019081526020016000206001018190555080915050919050565b6102506107d8565b6000600160009054906101000a900473ffffffffffffffffffffffffffffffffffffffff1673ffffffffffffffffffffffffffffffffffffffff166396a869376040518163ffffffff1660e01b815260040160206040518083038186803b1580156102ba57600080fd5b505afa1580156102ce573d6000803e3d6000fd5b505050506040513d601f19601f820116820180604052506102f2919081019061096b565b9050600083905060045484106103085760045490505b6000600454600160648402038161031b57fe5b04905060008161271002840190506103316107d8565b60405180604001604052808581526020018381525090508095505050505050919050565b6000600454905090565b60008060009054906101000a900473ffffffffffffffffffffffffffffffffffffffff1673ffffffffffffffffffffffffffffffffffffffff163373ffffffffffffffffffffffffffffffffffffffff16146103f0576040517f08c379a00000000000000000000000000000000000000000000000000000000081526004016103e790610bce565b60405180910390fd5b600060035490506103ff6107fa565b60405180604001604052808673ffffffffffffffffffffffffffffffffffffffff168152602001858152509050806005600084815260200190815260200160002060008201518160000160006101000a81548173ffffffffffffffffffffffffffffffffffffffff021916908373ffffffffffffffffffffffffffffffffffffffff160217905550602082015181600101559050508360045401600481905550600160035401600381905550819250505092915050565b60608060008060009054906101000a900473ffffffffffffffffffffffffffffffffffffffff1673ffffffffffffffffffffffffffffffffffffffff163373ffffffffffffffffffffffffffffffffffffffff161461054a576040517f08c379a000000000000000000000000000000000000000000000000000000000815260040161054190610bce565b60405180910390fd5b60008460006002811061055957fe5b6020020151905060608060008090505b6003546002541115801561057d5750600084115b1561074f5760006005600060025481526020019081526020016000206001015490508481111561067c57848483815181106105b457fe5b60200260200101818152505060056000600254815260200190815260200160002060000160009054906101000a900473ffffffffffffffffffffffffffffffffffffffff1683838151811061060557fe5b602002602001019073ffffffffffffffffffffffffffffffffffffffff16908173ffffffffffffffffffffffffffffffffffffffff1681525050846005600060025481526020019081526020016000206001015403600560006002548152602001908152602001600020600101819055505061074f565b80850394508084838151811061068e57fe5b60200260200101818152505060056000600254815260200190815260200160002060000160009054906101000a900473ffffffffffffffffffffffffffffffffffffffff168383815181106106df57fe5b602002602001019073ffffffffffffffffffffffffffffffffffffffff16908173ffffffffffffffffffffffffffffffffffffffff168152505060006005600060025481526020019081526020016000206001018190555060016002540160028190555060018201915050610569565b600181019050828282965096509650505050509193909250565b60008273ffffffffffffffffffffffffffffffffffffffff166005600084815260200190815260200160002060000160009054906101000a900473ffffffffffffffffffffffffffffffffffffffff1673ffffffffffffffffffffffffffffffffffffffff1614905092915050565b6040518060400160405280600290602082028038833980820191505090505090565b6040518060400160405280600073ffffffffffffffffffffffffffffffffffffffff168152602001600081525090565b60008135905061083981610d50565b92915050565b600082601f83011261085057600080fd5b600261086361085e82610c36565b610c09565b9150818385602084028201111561087957600080fd5b60005b838110156108a9578161088f88826108b3565b84526020840193506020830192505060018101905061087c565b5050505092915050565b6000813590506108c281610d67565b92915050565b6000815190506108d781610d67565b92915050565b600080604083850312156108f057600080fd5b60006108fe8582860161082a565b925050602061090f858286016108b3565b9150509250929050565b60006040828403121561092b57600080fd5b60006109398482850161083f565b91505092915050565b60006020828403121561095457600080fd5b6000610962848285016108b3565b91505092915050565b60006020828403121561097d57600080fd5b600061098b848285016108c8565b91505092915050565b60006109a083836109c4565b60208301905092915050565b60006109b88383610b35565b60208301905092915050565b6109cd81610d08565b82525050565b60006109de82610c82565b6109e88185610cca565b93506109f383610c58565b8060005b83811015610a24578151610a0b8882610994565b9750610a1683610ca3565b9250506001810190506109f7565b5085935050505092915050565b610a3a81610c8d565b610a448184610cdb565b9250610a4f82610c68565b8060005b83811015610a80578151610a6787826109ac565b9650610a7283610cb0565b925050600181019050610a53565b505050505050565b6000610a9382610c98565b610a9d8185610ce6565b9350610aa883610c72565b8060005b83811015610ad9578151610ac088826109ac565b9750610acb83610cbd565b925050600181019050610aac565b5085935050505092915050565b610aef81610d1a565b82525050565b6000610b02601e83610cf7565b91507f596f7520617265206e6f7420616c6c6f77656420746f20646f207468697300006000830152602082019050919050565b610b3e81610d46565b82525050565b610b4d81610d46565b82525050565b6000604082019050610b686000830184610a31565b92915050565b60006060820190508181036000830152610b888186610a88565b90508181036020830152610b9c81856109d3565b9050610bab6040830184610b44565b949350505050565b6000602082019050610bc86000830184610ae6565b92915050565b60006020820190508181036000830152610be781610af5565b9050919050565b6000602082019050610c036000830184610b44565b92915050565b6000604051905081810181811067ffffffffffffffff82111715610c2c57600080fd5b8060405250919050565b600067ffffffffffffffff821115610c4d57600080fd5b602082029050919050565b6000819050602082019050919050565b6000819050919050565b6000819050602082019050919050565b600081519050919050565b600060029050919050565b600081519050919050565b6000602082019050919050565b6000602082019050919050565b6000602082019050919050565b600082825260208201905092915050565b600081905092915050565b600082825260208201905092915050565b600082825260208201905092915050565b6000610d1382610d26565b9050919050565b60008115159050919050565b600073ffffffffffffffffffffffffffffffffffffffff82169050919050565b6000819050919050565b610d5981610d08565b8114610d6457600080fd5b50565b610d7081610d46565b8114610d7b57600080fd5b5056fea365627a7a72315820bcf1d4a205781b2af42a098b2ccbcda918f12bdde8edb07212332262b48e54716c6578706572696d656e74616cf564736f6c63430005110040436f6d697373696f6e204665652063616e206f6e6c792062652066726f6d20312d313030",
  "source": "pragma solidity ^0.5.0;\nimport \"./EventToken.sol\";\nimport \"./EventTokenMarketAlgorithm.sol\";\n\ncontract EventTokenMarket {\n\n   EventToken eventTokenContract;                        // Our event token contract\n   EventTokenMarketAlgorithm marketAlgorithmContract;    // Our event token algorithm contract\n   uint256 public _comissionFeePercentage;               // What is the comission fee\n   uint256 totalComissionFee;\n   address _owner;                                       // Owner of event token market\n   mapping(address => uint256[]) usersCurrentListing;     // Save history of user listing\n\n   event SellOrderListed(uint256 orderId, address _seller, uint256 _quantity);\n   event SellOrderDelisted(address _seller, uint256 sellOrderId);\n   event BuyToken(address buyer, uint256 quantity, uint256 priceOfEachToken);\n\n   modifier onlyOwner() {\n         require(msg.sender == _owner, \"You do not have permission to do this\");\n         _;\n   }\n\n   constructor(EventToken eventTokenAddress, uint256 comissionFeePercentage) public {\n        eventTokenContract = eventTokenAddress;\n        marketAlgorithmContract = new EventTokenMarketAlgorithm(address(this), eventTokenAddress);\n        // Comission fee should be only from 1-100\n        require(comissionFeePercentage > 0 && comissionFeePercentage < 101, \"Comission Fee can only be from 1-100\");\n        _comissionFeePercentage = comissionFeePercentage;\n        totalComissionFee = 0;\n        _owner = msg.sender;\n   }\n\n   /**\n     * Calculate comission fee based on comissionFeePercentage\n     *\n     * param purchase price of token\n     * \n     */\n   function getComissionFee(uint256 purchasePrice) public view returns(uint256){\n      uint256 comissionFee = (purchasePrice / 100) * _comissionFeePercentage;\n      return comissionFee;\n   }\n\n   /**\n     * Allow user to list tokens to sell. Token price will be based on algo thus user can only list the amount of quantity.\n     *\n     * param amount of tokens to list\n     * \n     */\n   function list(uint256 _quantity) public {\n      require(eventTokenContract.checkEventTokenOf(msg.sender) >= _quantity, \"You do not have enough event tokens to sell\");\n      eventTokenContract.transferFrom(msg.sender, address(this), _quantity);\n      uint256 sellOrderID = marketAlgorithmContract.addSellOrder(msg.sender, _quantity);\n      usersCurrentListing[msg.sender].push(sellOrderID);\n      emit SellOrderListed(sellOrderID, msg.sender, _quantity);\n   }\n\n   /**\n     * Allow user to delist tokens to sell.\n     *\n     * param sell order id to delist\n     * \n     */\n   function unlist(uint256 sellOrderId) public {\n      require(marketAlgorithmContract.isSellOrderSeller(msg.sender, sellOrderId), \"You did not list this order\");\n      uint256 amountOfTokens = marketAlgorithmContract.removeSellOrder(sellOrderId);\n      eventTokenContract.transferFrom(address(this), msg.sender, amountOfTokens);\n      emit SellOrderDelisted(msg.sender, sellOrderId);\n   }\n\n   /**\n     * Allow user to purchase tokens\n     *\n     * param amount of tokens to list\n     * \n     */\n   function purchaseTokens(uint256 _quantity) public payable {\n\n      uint256[2] memory order = marketAlgorithmContract.getPriceOfBuyOrder(_quantity);\n      uint256 quantity = order[0];         // Quantity of tokens that he can buy\n      require(quantity > 0, \"No tokens available to purchase\");\n\n      uint256 priceOfEachToken = order[1]; // Price of each token\n      uint256 totalPrice = (quantity * priceOfEachToken); // 0 is quantity, 1 is price of each token\n      require(msg.value >= totalPrice, \"You do not have enough ether to purchase tokens\");\n\n      msg.sender.transfer(msg.value - totalPrice); // transfer remaining back to buyer\n\n      // Perform purchase and send eth to sellers.\n      uint256[] memory quantities;\n      address[] memory sellers;\n      uint256 startnum = 0;\n\n      // This will return all quantities and sellers that sold tokens\n      (quantities, sellers, startnum) = marketAlgorithmContract.buyTokens(order);\n\n      for (uint256 i = 0; i < startnum; i++ ) {\n         uint256 comissionFee = ((quantities[i] * priceOfEachToken) / _comissionFeePercentage); \n         uint256 priceToTransfer = (quantities[i] * priceOfEachToken) - comissionFee;\n         address payable to = address(uint160(sellers[i]));\n         to.transfer(priceToTransfer);\n         // Store total commission fee\n         totalComissionFee = totalComissionFee + comissionFee;\n      }\n\n      eventTokenContract.transferFrom(address(this), msg.sender, quantity);\n      emit BuyToken(msg.sender, quantity, order[1]);\n\n   }\n\n   function withdrawComissionFee() public onlyOwner {\n      address payable to = address(uint160(_owner));\n      to.transfer(totalComissionFee);\n      totalComissionFee = 0;\n   }\n\n   function checkCurrentPrice(uint256 _quantity) public view returns (uint256[2] memory) {\n      return marketAlgorithmContract.getPriceOfBuyOrder(_quantity);\n   }\n\n   function checkCurrentSellOrder() public view returns(uint256[] memory) {\n      return usersCurrentListing[msg.sender];\n   }\n\n   function getContractOwner() public view returns(address) {\n      return _owner;\n   }\n\n}\n",
  "sourcePath": "C:\\Users\\jd98_\\OneDrive\\Desktop\\IS4302\\proj\\contracts\\EventTokenMarket.sol",
  "compiler": {
    "name": "solc",
    "version": "0.5.17+commit.d19bba13.Emscripten.clang"
  },
  "schemaVersion": "3.4.11",
  "updatedAt": "2023-04-03T16:54:02.056Z",
  "devdoc": {
    "methods": {}
  },
  "userdoc": {
    "methods": {
      "getComissionFee(uint256)": {
        "notice": "Calculate comission fee based on comissionFeePercentage     * param purchase price of token      "
      },
      "list(uint256)": {
        "notice": "Allow user to list tokens to sell. Token price will be based on algo thus user can only list the amount of quantity.     * param amount of tokens to list      "
      },
      "purchaseTokens(uint256)": {
        "notice": "Allow user to purchase tokens     * param amount of tokens to list      "
      },
      "unlist(uint256)": {
        "notice": "Allow user to delist tokens to sell.     * param sell order id to delist      "
      }
    }
  }
}