{
  "contractName": "EventTokenMarketAlgorithm",
  "abi": [
    {
      "inputs": [
        {
          "internalType": "address",
          "name": "_eventTokenMarketAddress",
          "type": "address"
        },
        {
          "internalType": "contract EventToken",
          "name": "eventTokenAddress",
          "type": "address"
        }
      ],
      "payable": false,
      "stateMutability": "nonpayable",
      "type": "constructor"
    },
    {
      "constant": false,
      "inputs": [
        {
          "internalType": "address",
          "name": "_seller",
          "type": "address"
        },
        {
          "internalType": "uint256",
          "name": "_quantity",
          "type": "uint256"
        }
      ],
      "name": "addSellOrder",
      "outputs": [
        {
          "internalType": "uint256",
          "name": "",
          "type": "uint256"
        }
      ],
      "payable": false,
      "stateMutability": "nonpayable",
      "type": "function"
    },
    {
      "constant": false,
      "inputs": [
        {
          "internalType": "uint256",
          "name": "sellOrderId",
          "type": "uint256"
        }
      ],
      "name": "removeSellOrder",
      "outputs": [
        {
          "internalType": "uint256",
          "name": "",
          "type": "uint256"
        }
      ],
      "payable": false,
      "stateMutability": "nonpayable",
      "type": "function"
    },
    {
      "constant": false,
      "inputs": [
        {
          "internalType": "uint256[2]",
          "name": "order",
          "type": "uint256[2]"
        }
      ],
      "name": "buyTokens",
      "outputs": [
        {
          "internalType": "uint256[]",
          "name": "",
          "type": "uint256[]"
        },
        {
          "internalType": "address[]",
          "name": "",
          "type": "address[]"
        },
        {
          "internalType": "uint256",
          "name": "",
          "type": "uint256"
        }
      ],
      "payable": false,
      "stateMutability": "nonpayable",
      "type": "function"
    },
    {
      "constant": true,
      "inputs": [
        {
          "internalType": "uint256",
          "name": "_quantity",
          "type": "uint256"
        }
      ],
      "name": "getPriceOfBuyOrder",
      "outputs": [
        {
          "internalType": "uint256[2]",
          "name": "",
          "type": "uint256[2]"
        }
      ],
      "payable": false,
      "stateMutability": "view",
      "type": "function"
    },
    {
      "constant": true,
      "inputs": [
        {
          "internalType": "address",
          "name": "_address",
          "type": "address"
        },
        {
          "internalType": "uint256",
          "name": "sellOrderId",
          "type": "uint256"
        }
      ],
      "name": "isSellOrderSeller",
      "outputs": [
        {
          "internalType": "bool",
          "name": "",
          "type": "bool"
        }
      ],
      "payable": false,
      "stateMutability": "view",
      "type": "function"
    },
    {
      "constant": true,
      "inputs": [],
      "name": "getCurrentSellQuantity",
      "outputs": [
        {
          "internalType": "uint256",
          "name": "",
          "type": "uint256"
        }
      ],
      "payable": false,
      "stateMutability": "view",
      "type": "function"
    }
  ],
  "bytecode": "0x60806040523480156200001157600080fd5b5060405162000f9438038062000f94833981810160405262000037919081019062000106565b600060028190555060006003819055506000600481905550816000806101000a81548173ffffffffffffffffffffffffffffffffffffffff021916908373ffffffffffffffffffffffffffffffffffffffff16021790555080600160006101000a81548173ffffffffffffffffffffffffffffffffffffffff021916908373ffffffffffffffffffffffffffffffffffffffff1602179055505050620001c3565b600081519050620000e9816200018f565b92915050565b6000815190506200010081620001a9565b92915050565b600080604083850312156200011a57600080fd5b60006200012a85828601620000d8565b92505060206200013d85828601620000ef565b9150509250929050565b600062000154826200016f565b9050919050565b6000620001688262000147565b9050919050565b600073ffffffffffffffffffffffffffffffffffffffff82169050919050565b6200019a8162000147565b8114620001a657600080fd5b50565b620001b4816200015b565b8114620001c057600080fd5b50565b610dc180620001d36000396000f3fe608060405234801561001057600080fd5b50600436106100625760003560e01c80630559c11414610067578063311e0ddc14610097578063471682b6146100c75780637d44fca3146100e557806383130eb81461011557806384eb06c114610147575b600080fd5b610081600480360361007c9190810190610942565b610177565b60405161008e9190610bee565b60405180910390f35b6100b160048036036100ac9190810190610942565b610248565b6040516100be9190610b53565b60405180910390f35b6100cf610355565b6040516100dc9190610bee565b60405180910390f35b6100ff60048036036100fa91908101906108dd565b61035f565b60405161010c9190610bee565b60405180910390f35b61012f600480360361012a9190810190610919565b6104b6565b60405161013e93929190610b6e565b60405180910390f35b610161600480360361015c91908101906108dd565b610769565b60405161016e9190610bb3565b60405180910390f35b60008060009054906101000a900473ffffffffffffffffffffffffffffffffffffffff1673ffffffffffffffffffffffffffffffffffffffff163373ffffffffffffffffffffffffffffffffffffffff1614610208576040517f08c379a00000000000000000000000000000000000000000000000000000000081526004016101ff90610bce565b60405180910390fd5b6000600560008481526020019081526020016000206001015490506000600560008581526020019081526020016000206001018190555080915050919050565b6102506107d8565b6000600160009054906101000a900473ffffffffffffffffffffffffffffffffffffffff1673ffffffffffffffffffffffffffffffffffffffff166396a869376040518163ffffffff1660e01b815260040160206040518083038186803b1580156102ba57600080fd5b505afa1580156102ce573d6000803e3d6000fd5b505050506040513d601f19601f820116820180604052506102f2919081019061096b565b9050600083905060045484106103085760045490505b6000600454600160648402038161031b57fe5b04905060008161271002840190506103316107d8565b60405180604001604052808581526020018381525090508095505050505050919050565b6000600454905090565b60008060009054906101000a900473ffffffffffffffffffffffffffffffffffffffff1673ffffffffffffffffffffffffffffffffffffffff163373ffffffffffffffffffffffffffffffffffffffff16146103f0576040517f08c379a00000000000000000000000000000000000000000000000000000000081526004016103e790610bce565b60405180910390fd5b600060035490506103ff6107fa565b60405180604001604052808673ffffffffffffffffffffffffffffffffffffffff168152602001858152509050806005600084815260200190815260200160002060008201518160000160006101000a81548173ffffffffffffffffffffffffffffffffffffffff021916908373ffffffffffffffffffffffffffffffffffffffff160217905550602082015181600101559050508360045401600481905550600160035401600381905550819250505092915050565b60608060008060009054906101000a900473ffffffffffffffffffffffffffffffffffffffff1673ffffffffffffffffffffffffffffffffffffffff163373ffffffffffffffffffffffffffffffffffffffff161461054a576040517f08c379a000000000000000000000000000000000000000000000000000000000815260040161054190610bce565b60405180910390fd5b60008460006002811061055957fe5b6020020151905060608060008090505b6003546002541115801561057d5750600084115b1561074f5760006005600060025481526020019081526020016000206001015490508481111561067c57848483815181106105b457fe5b60200260200101818152505060056000600254815260200190815260200160002060000160009054906101000a900473ffffffffffffffffffffffffffffffffffffffff1683838151811061060557fe5b602002602001019073ffffffffffffffffffffffffffffffffffffffff16908173ffffffffffffffffffffffffffffffffffffffff1681525050846005600060025481526020019081526020016000206001015403600560006002548152602001908152602001600020600101819055505061074f565b80850394508084838151811061068e57fe5b60200260200101818152505060056000600254815260200190815260200160002060000160009054906101000a900473ffffffffffffffffffffffffffffffffffffffff168383815181106106df57fe5b602002602001019073ffffffffffffffffffffffffffffffffffffffff16908173ffffffffffffffffffffffffffffffffffffffff168152505060006005600060025481526020019081526020016000206001018190555060016002540160028190555060018201915050610569565b600181019050828282965096509650505050509193909250565b60008273ffffffffffffffffffffffffffffffffffffffff166005600084815260200190815260200160002060000160009054906101000a900473ffffffffffffffffffffffffffffffffffffffff1673ffffffffffffffffffffffffffffffffffffffff1614905092915050565b6040518060400160405280600290602082028038833980820191505090505090565b6040518060400160405280600073ffffffffffffffffffffffffffffffffffffffff168152602001600081525090565b60008135905061083981610d50565b92915050565b600082601f83011261085057600080fd5b600261086361085e82610c36565b610c09565b9150818385602084028201111561087957600080fd5b60005b838110156108a9578161088f88826108b3565b84526020840193506020830192505060018101905061087c565b5050505092915050565b6000813590506108c281610d67565b92915050565b6000815190506108d781610d67565b92915050565b600080604083850312156108f057600080fd5b60006108fe8582860161082a565b925050602061090f858286016108b3565b9150509250929050565b60006040828403121561092b57600080fd5b60006109398482850161083f565b91505092915050565b60006020828403121561095457600080fd5b6000610962848285016108b3565b91505092915050565b60006020828403121561097d57600080fd5b600061098b848285016108c8565b91505092915050565b60006109a083836109c4565b60208301905092915050565b60006109b88383610b35565b60208301905092915050565b6109cd81610d08565b82525050565b60006109de82610c82565b6109e88185610cca565b93506109f383610c58565b8060005b83811015610a24578151610a0b8882610994565b9750610a1683610ca3565b9250506001810190506109f7565b5085935050505092915050565b610a3a81610c8d565b610a448184610cdb565b9250610a4f82610c68565b8060005b83811015610a80578151610a6787826109ac565b9650610a7283610cb0565b925050600181019050610a53565b505050505050565b6000610a9382610c98565b610a9d8185610ce6565b9350610aa883610c72565b8060005b83811015610ad9578151610ac088826109ac565b9750610acb83610cbd565b925050600181019050610aac565b5085935050505092915050565b610aef81610d1a565b82525050565b6000610b02601e83610cf7565b91507f596f7520617265206e6f7420616c6c6f77656420746f20646f207468697300006000830152602082019050919050565b610b3e81610d46565b82525050565b610b4d81610d46565b82525050565b6000604082019050610b686000830184610a31565b92915050565b60006060820190508181036000830152610b888186610a88565b90508181036020830152610b9c81856109d3565b9050610bab6040830184610b44565b949350505050565b6000602082019050610bc86000830184610ae6565b92915050565b60006020820190508181036000830152610be781610af5565b9050919050565b6000602082019050610c036000830184610b44565b92915050565b6000604051905081810181811067ffffffffffffffff82111715610c2c57600080fd5b8060405250919050565b600067ffffffffffffffff821115610c4d57600080fd5b602082029050919050565b6000819050602082019050919050565b6000819050919050565b6000819050602082019050919050565b600081519050919050565b600060029050919050565b600081519050919050565b6000602082019050919050565b6000602082019050919050565b6000602082019050919050565b600082825260208201905092915050565b600081905092915050565b600082825260208201905092915050565b600082825260208201905092915050565b6000610d1382610d26565b9050919050565b60008115159050919050565b600073ffffffffffffffffffffffffffffffffffffffff82169050919050565b6000819050919050565b610d5981610d08565b8114610d6457600080fd5b50565b610d7081610d46565b8114610d7b57600080fd5b5056fea365627a7a72315820bcf1d4a205781b2af42a098b2ccbcda918f12bdde8edb07212332262b48e54716c6578706572696d656e74616cf564736f6c63430005110040",
  "source": "pragma solidity ^0.5.0;\npragma experimental ABIEncoderV2;\n\nimport \"./EventToken.sol\";\n\ncontract EventTokenMarketAlgorithm {\n\n\n    /**\n     * sellOrder Object that keep track of seller and quantity of token per order\n     *\n     * param seller    address of token seller\n     * param quantity  amount of token to sell\n     *\n     */\n    struct sellOrder {\n        address seller;\n        uint256 quantity;\n    }\n\n    address eventTokenMarketAddress;\n    EventToken eventTokenContract; \n    uint256 sellOrderFirstNum;                                       // Keep track of first sell order\n    uint256 sellOrderLastNum;                                        // Keep track of last sell order\n    uint256 currentSellQuantity;\n    mapping(uint256 => sellOrder) sellOrderList;\n    \n\n\n\n    /**\n     * creates EventTokenMarketAlgorithm to maintain order of market\n     *\n     * param _eventTokenMarketAddress    address of event token market for sale of tokens\n     * param eventTokenAddress           address of event token to check current supply to decide price of tokens     \n     */\n    constructor(address _eventTokenMarketAddress, EventToken eventTokenAddress) public {\n        sellOrderFirstNum = 0;\n        sellOrderLastNum = 0;\n        currentSellQuantity = 0;\n        eventTokenMarketAddress = _eventTokenMarketAddress;\n        eventTokenContract = eventTokenAddress;\n    }\n\n    // modifier to ensure only market algorithm can do this\n    modifier onlyEventTokenMarketAddress() {\n        require(msg.sender == eventTokenMarketAddress, \"You are not allowed to do this\");\n        _;\n    }\n\n    /**\n     * All checks to be done on EventTokenMarket\n     * add sell order to queue\n     *\n     * param _seller address of seller of tokens\n     * param _quantity amount of tokens to sell\n     */\n    function addSellOrder(address _seller, uint256 _quantity) onlyEventTokenMarketAddress public returns (uint256) {\n        \n        // Get order id\n        uint256 sellOrderId = sellOrderLastNum;\n        // Create market order\n        sellOrder memory newSellOrder = sellOrder(_seller, _quantity);\n        // List order\n        sellOrderList[sellOrderId] = newSellOrder;\n        // Add total sell quantity\n        currentSellQuantity = currentSellQuantity + _quantity;\n        // Increment number for next order id\n        sellOrderLastNum = sellOrderLastNum + 1;\n        // Return order id\n        return sellOrderId;\n    }\n\n    /**\n     * All checks to be done on EventTokenMarket\n     * remove sell order\n     *\n     * param sellOrderId id of sell order to remove\n     */\n    function removeSellOrder(uint256 sellOrderId) onlyEventTokenMarketAddress public returns (uint256) {\n        \n        // Save old quantity\n        uint256 amountOfTokens = sellOrderList[sellOrderId].quantity;\n        // Remove quantity\n        sellOrderList[sellOrderId].quantity = 0;\n        return amountOfTokens;\n    }\n\n    /**\n     * All checks to be done on EventTokenMarket\n     * buy tokens\n     *\n     * param sellOrderId id of sell order to remove\n     */\n    function buyTokens(uint256[2] memory order) onlyEventTokenMarketAddress public returns (uint256[] memory, address[] memory, uint256){\n\n        uint256 quantityToBuy = order[0];\n        uint256[] memory quantities;\n        address[] memory sellers;\n        uint256 startnum = 0;\n        while (sellOrderFirstNum <= sellOrderLastNum && quantityToBuy > 0) { // There is still tokens to sell\n            uint256 quantityAvailable = sellOrderList[sellOrderFirstNum].quantity;\n            if (quantityAvailable > quantityToBuy) { // Seller can take entire order\n                quantities[startnum] = quantityToBuy;\n                sellers[startnum] = sellOrderList[sellOrderFirstNum].seller;\n                sellOrderList[sellOrderFirstNum].quantity = sellOrderList[sellOrderFirstNum].quantity - quantityToBuy;\n                break;\n            } \n            else {\n                quantityToBuy = quantityToBuy - quantityAvailable;\n                quantities[startnum] = quantityAvailable;\n                sellers[startnum] = sellOrderList[sellOrderFirstNum].seller;\n                sellOrderList[sellOrderFirstNum].quantity = 0;\n                sellOrderFirstNum = sellOrderFirstNum + 1;\n                startnum = startnum + 1;\n            }\n        }\n        startnum = startnum + 1;\n        return (quantities, sellers, startnum);\n    }\n\n    /**\n     * decide price of tokens (Can brainstorm the algorithm, just a sample one for now)\n     *\n     * param quantity of tokens to sell\n     * returns price and token quantity\n     */\n    function getPriceOfBuyOrder(uint256 _quantity) public view returns (uint256[2] memory) {\n        uint256 basePriceOfToken = eventTokenContract.getBasePriceOfToken();\n        uint256 buyQuantity = _quantity;\n        \n        // How many percentage of token is buyer buying from the sale market? \n        if (_quantity >= currentSellQuantity) {\n            buyQuantity = currentSellQuantity;\n        }\n        uint256 percentageOfSaleMarket = ((buyQuantity * 100 - 1) / currentSellQuantity ); // Every percentage of market will increase price of token by 10000\n        uint256 priceOfEachToken = basePriceOfToken + (10000 * percentageOfSaleMarket);\n        uint256[2] memory order = [buyQuantity, priceOfEachToken];\n        return order;\n    }\n\n    /**\n     * check if sell order belongs to address\n     *\n     * param _address address to check\n     * param sellOrderId id of sell order to check\n     */\n    function isSellOrderSeller(address _address, uint256 sellOrderId) public view returns (bool) {\n        return sellOrderList[sellOrderId].seller == _address;\n    }\n\n    /**\n     * check current sell quantity in market\n     *\n     */\n    function getCurrentSellQuantity() public view returns (uint256) {\n        return currentSellQuantity;\n    }\n    \n}\n",
  "sourcePath": "C:\\Users\\jd98_\\OneDrive\\Desktop\\IS4302\\proj\\contracts\\EventTokenMarketAlgorithm.sol",
  "compiler": {
    "name": "solc",
    "version": "0.5.17+commit.d19bba13.Emscripten.clang"
  },
  "schemaVersion": "3.4.11",
  "updatedAt": "2023-04-04T07:34:44.907Z",
  "devdoc": {
    "methods": {}
  },
  "userdoc": {
    "methods": {
      "addSellOrder(address,uint256)": {
        "notice": "All checks to be done on EventTokenMarket add sell order to queue     * param _seller address of seller of tokens param _quantity amount of tokens to sell"
      },
      "buyTokens(uint256[2])": {
        "notice": "All checks to be done on EventTokenMarket buy tokens     * param sellOrderId id of sell order to remove"
      },
      "constructor": "creates EventTokenMarketAlgorithm to maintain order of market     * param _eventTokenMarketAddress    address of event token market for sale of tokens param eventTokenAddress           address of event token to check current supply to decide price of tokens     ",
      "getCurrentSellQuantity()": {
        "notice": "check current sell quantity in market     "
      },
      "getPriceOfBuyOrder(uint256)": {
        "notice": "decide price of tokens (Can brainstorm the algorithm, just a sample one for now)     * param quantity of tokens to sell returns price and token quantity"
      },
      "isSellOrderSeller(address,uint256)": {
        "notice": "check if sell order belongs to address     * param _address address to check param sellOrderId id of sell order to check"
      },
      "removeSellOrder(uint256)": {
        "notice": "All checks to be done on EventTokenMarket remove sell order     * param sellOrderId id of sell order to remove"
      }
    }
  }
}