{
  "contractName": "Event",
  "abi": [
    {
      "inputs": [
        {
          "internalType": "contract Ticket",
          "name": "ticketAddress",
          "type": "address"
        }
      ],
      "payable": false,
      "stateMutability": "nonpayable",
      "type": "constructor"
    },
    {
      "constant": true,
      "inputs": [
        {
          "internalType": "uint256",
          "name": "",
          "type": "uint256"
        }
      ],
      "name": "events",
      "outputs": [
        {
          "internalType": "string",
          "name": "title",
          "type": "string"
        },
        {
          "internalType": "string",
          "name": "venue",
          "type": "string"
        },
        {
          "internalType": "uint256",
          "name": "dateAndTime",
          "type": "uint256"
        },
        {
          "internalType": "uint256",
          "name": "capacity",
          "type": "uint256"
        },
        {
          "internalType": "uint256",
          "name": "ticketsLeft",
          "type": "uint256"
        },
        {
          "internalType": "uint256",
          "name": "priceOfTicket",
          "type": "uint256"
        },
        {
          "internalType": "address",
          "name": "seller",
          "type": "address"
        },
        {
          "internalType": "enum Event.eventState",
          "name": "state",
          "type": "uint8"
        },
        {
          "internalType": "uint256",
          "name": "firstTicketId",
          "type": "uint256"
        }
      ],
      "payable": false,
      "stateMutability": "view",
      "type": "function"
    },
    {
      "constant": true,
      "inputs": [],
      "name": "numEvents",
      "outputs": [
        {
          "internalType": "uint256",
          "name": "",
          "type": "uint256"
        }
      ],
      "payable": false,
      "stateMutability": "view",
      "type": "function"
    },
    {
      "constant": false,
      "inputs": [
        {
          "internalType": "string",
          "name": "title",
          "type": "string"
        },
        {
          "internalType": "string",
          "name": "venue",
          "type": "string"
        },
        {
          "internalType": "uint256",
          "name": "year",
          "type": "uint256"
        },
        {
          "internalType": "uint256",
          "name": "month",
          "type": "uint256"
        },
        {
          "internalType": "uint256",
          "name": "day",
          "type": "uint256"
        },
        {
          "internalType": "uint256",
          "name": "hour",
          "type": "uint256"
        },
        {
          "internalType": "uint256",
          "name": "minute",
          "type": "uint256"
        },
        {
          "internalType": "uint256",
          "name": "second",
          "type": "uint256"
        },
        {
          "internalType": "uint256",
          "name": "capacity",
          "type": "uint256"
        },
        {
          "internalType": "uint256",
          "name": "priceOfTicket",
          "type": "uint256"
        },
        {
          "internalType": "address",
          "name": "seller",
          "type": "address"
        }
      ],
      "name": "createEvent",
      "outputs": [
        {
          "internalType": "uint256",
          "name": "",
          "type": "uint256"
        }
      ],
      "payable": false,
      "stateMutability": "nonpayable",
      "type": "function"
    },
    {
      "constant": false,
      "inputs": [
        {
          "internalType": "address",
          "name": "owner",
          "type": "address"
        },
        {
          "internalType": "uint256",
          "name": "eventId",
          "type": "uint256"
        },
        {
          "internalType": "uint256",
          "name": "price",
          "type": "uint256"
        },
        {
          "internalType": "enum Ticket.category",
          "name": "cat",
          "type": "uint8"
        },
        {
          "internalType": "uint256",
          "name": "numOfTickets",
          "type": "uint256"
        }
      ],
      "name": "generateEventTickets",
      "outputs": [
        {
          "internalType": "uint256",
          "name": "",
          "type": "uint256"
        }
      ],
      "payable": false,
      "stateMutability": "nonpayable",
      "type": "function"
    },
    {
      "constant": true,
      "inputs": [
        {
          "internalType": "uint256",
          "name": "eventId",
          "type": "uint256"
        }
      ],
      "name": "isEventIdValid",
      "outputs": [
        {
          "internalType": "bool",
          "name": "",
          "type": "bool"
        }
      ],
      "payable": false,
      "stateMutability": "view",
      "type": "function"
    },
    {
      "constant": true,
      "inputs": [
        {
          "internalType": "uint256",
          "name": "eventId",
          "type": "uint256"
        }
      ],
      "name": "getEventTitle",
      "outputs": [
        {
          "internalType": "string",
          "name": "",
          "type": "string"
        }
      ],
      "payable": false,
      "stateMutability": "view",
      "type": "function"
    },
    {
      "constant": true,
      "inputs": [
        {
          "internalType": "uint256",
          "name": "eventId",
          "type": "uint256"
        }
      ],
      "name": "getEventVenue",
      "outputs": [
        {
          "internalType": "string",
          "name": "",
          "type": "string"
        }
      ],
      "payable": false,
      "stateMutability": "view",
      "type": "function"
    },
    {
      "constant": true,
      "inputs": [
        {
          "internalType": "uint256",
          "name": "eventId",
          "type": "uint256"
        }
      ],
      "name": "getEventDateAndTime",
      "outputs": [
        {
          "internalType": "uint256",
          "name": "",
          "type": "uint256"
        },
        {
          "internalType": "uint256",
          "name": "",
          "type": "uint256"
        },
        {
          "internalType": "uint256",
          "name": "",
          "type": "uint256"
        },
        {
          "internalType": "uint256",
          "name": "",
          "type": "uint256"
        },
        {
          "internalType": "uint256",
          "name": "",
          "type": "uint256"
        },
        {
          "internalType": "uint256",
          "name": "",
          "type": "uint256"
        }
      ],
      "payable": false,
      "stateMutability": "view",
      "type": "function"
    },
    {
      "constant": true,
      "inputs": [
        {
          "internalType": "uint256",
          "name": "eventId",
          "type": "uint256"
        }
      ],
      "name": "getEventCapacity",
      "outputs": [
        {
          "internalType": "uint256",
          "name": "",
          "type": "uint256"
        }
      ],
      "payable": false,
      "stateMutability": "view",
      "type": "function"
    },
    {
      "constant": true,
      "inputs": [
        {
          "internalType": "uint256",
          "name": "eventId",
          "type": "uint256"
        }
      ],
      "name": "getEventTicketsLeft",
      "outputs": [
        {
          "internalType": "uint256",
          "name": "",
          "type": "uint256"
        }
      ],
      "payable": false,
      "stateMutability": "view",
      "type": "function"
    },
    {
      "constant": true,
      "inputs": [
        {
          "internalType": "uint256",
          "name": "eventId",
          "type": "uint256"
        }
      ],
      "name": "getEventTicketPrice",
      "outputs": [
        {
          "internalType": "uint256",
          "name": "",
          "type": "uint256"
        }
      ],
      "payable": false,
      "stateMutability": "view",
      "type": "function"
    },
    {
      "constant": true,
      "inputs": [
        {
          "internalType": "uint256",
          "name": "eventId",
          "type": "uint256"
        }
      ],
      "name": "getEventSeller",
      "outputs": [
        {
          "internalType": "address",
          "name": "",
          "type": "address"
        }
      ],
      "payable": false,
      "stateMutability": "view",
      "type": "function"
    },
    {
      "constant": true,
      "inputs": [
        {
          "internalType": "uint256",
          "name": "eventId",
          "type": "uint256"
        }
      ],
      "name": "getEventState",
      "outputs": [
        {
          "internalType": "enum Event.eventState",
          "name": "",
          "type": "uint8"
        }
      ],
      "payable": false,
      "stateMutability": "view",
      "type": "function"
    },
    {
      "constant": true,
      "inputs": [
        {
          "internalType": "uint256",
          "name": "eventId",
          "type": "uint256"
        }
      ],
      "name": "getEventFirstTicketId",
      "outputs": [
        {
          "internalType": "uint256",
          "name": "",
          "type": "uint256"
        }
      ],
      "payable": false,
      "stateMutability": "view",
      "type": "function"
    },
    {
      "constant": false,
      "inputs": [
        {
          "internalType": "uint256",
          "name": "eventId",
          "type": "uint256"
        },
        {
          "internalType": "enum Event.eventState",
          "name": "estate",
          "type": "uint8"
        }
      ],
      "name": "setEventState",
      "outputs": [],
      "payable": false,
      "stateMutability": "nonpayable",
      "type": "function"
    },
    {
      "constant": false,
      "inputs": [
        {
          "internalType": "uint256",
          "name": "eventId",
          "type": "uint256"
        },
        {
          "internalType": "uint256",
          "name": "ticketId",
          "type": "uint256"
        }
      ],
      "name": "setEventFirstTicketId",
      "outputs": [],
      "payable": false,
      "stateMutability": "nonpayable",
      "type": "function"
    },
    {
      "constant": false,
      "inputs": [
        {
          "internalType": "uint256",
          "name": "eventId",
          "type": "uint256"
        },
        {
          "internalType": "uint256",
          "name": "ticketsLeft",
          "type": "uint256"
        }
      ],
      "name": "setEventTicketsLeft",
      "outputs": [],
      "payable": false,
      "stateMutability": "nonpayable",
      "type": "function"
    },
    {
      "constant": true,
      "inputs": [],
      "name": "getLatestEventId",
      "outputs": [
        {
          "internalType": "uint256",
          "name": "",
          "type": "uint256"
        }
      ],
      "payable": false,
      "stateMutability": "view",
      "type": "function"
    }
  ],
  "bytecode": "0x6080604052600060015534801561001557600080fd5b506040516117d93803806117d98339818101604052602081101561003857600080fd5b8101908080519060200190929190505050806000806101000a81548173ffffffffffffffffffffffffffffffffffffffff021916908373ffffffffffffffffffffffffffffffffffffffff16021790555050611740806100996000396000f3fe608060405234801561001057600080fd5b50600436106101165760003560e01c8063a52f91f9116100a2578063b2c55a3411610071578063b2c55a341461060d578063bf73e8af14610648578063df647178146106cb578063e5fc78c414610772578063ee6d30a1146107c257610116565b8063a52f91f914610507578063af71a95814610549578063afaddf8f14610581578063b0d13da6146105ef57610116565b806334cf562b116100e957806334cf562b146103865780635788b400146103a45780635f5af9f7146103e65780636459d3b41461041e578063836c0ea71461046057610116565b806301d3cf681461011b578063046cbeec14610161578063089cade7146101a35780630b79143014610208575b600080fd5b6101476004803603602081101561013157600080fd5b8101908080359060200190929190505050610999565b604051808215151515815260200191505060405180910390f35b61018d6004803603602081101561017757600080fd5b81019080803590602001909291905050506109a7565b6040518082815260200191505060405180910390f35b6101cf600480360360208110156101b957600080fd5b81019080803590602001909291905050506109d7565b60405180878152602001868152602001858152602001848152602001838152602001828152602001965050505050505060405180910390f35b6102346004803603602081101561021e57600080fd5b8101908080359060200190929190505050610a24565b6040518080602001806020018a81526020018981526020018881526020018781526020018673ffffffffffffffffffffffffffffffffffffffff1673ffffffffffffffffffffffffffffffffffffffff16815260200185600481111561029657fe5b60ff16815260200184815260200183810383528c818151815260200191508051906020019080838360005b838110156102dc5780820151818401526020810190506102c1565b50505050905090810190601f1680156103095780820380516001836020036101000a031916815260200191505b5083810382528b818151815260200191508051906020019080838360005b83811015610342578082015181840152602081019050610327565b50505050905090810190601f16801561036f5780820380516001836020036101000a031916815260200191505b509b50505050505050505050505060405180910390f35b61038e610bcf565b6040518082815260200191505060405180910390f35b6103d0600480360360208110156103ba57600080fd5b8101908080359060200190929190505050610bd5565b6040518082815260200191505060405180910390f35b61041c600480360360408110156103fc57600080fd5b810190808035906020019092919080359060200190929190505050610c05565b005b61044a6004803603602081101561043457600080fd5b8101908080359060200190929190505050610c34565b6040518082815260200191505060405180910390f35b61048c6004803603602081101561047657600080fd5b8101908080359060200190929190505050610c64565b6040518080602001828103825283818151815260200191508051906020019080838360005b838110156104cc5780820151818401526020810190506104b1565b50505050905090810190601f1680156104f95780820380516001836020036101000a031916815260200191505b509250505060405180910390f35b6105336004803603602081101561051d57600080fd5b8101908080359060200190929190505050610d2c565b6040518082815260200191505060405180910390f35b61057f6004803603604081101561055f57600080fd5b810190808035906020019092919080359060200190929190505050610d5c565b005b6105ad6004803603602081101561059757600080fd5b8101908080359060200190929190505050610d8b565b604051808273ffffffffffffffffffffffffffffffffffffffff1673ffffffffffffffffffffffffffffffffffffffff16815260200191505060405180910390f35b6105f7610ddb565b6040518082815260200191505060405180910390f35b6106466004803603604081101561062357600080fd5b8101908080359060200190929190803560ff169060200190929190505050610de7565b005b6106b5600480360360a081101561065e57600080fd5b81019080803573ffffffffffffffffffffffffffffffffffffffff1690602001909291908035906020019092919080359060200190929190803560ff16906020019092919080359060200190929190505050610e32565b6040518082815260200191505060405180910390f35b6106f7600480360360208110156106e157600080fd5b8101908080359060200190929190505050611093565b6040518080602001828103825283818151815260200191508051906020019080838360005b8381101561073757808201518184015260208101905061071c565b50505050905090810190601f1680156107645780820380516001836020036101000a031916815260200191505b509250505060405180910390f35b61079e6004803603602081101561078857600080fd5b810190808035906020019092919050505061115b565b604051808260048111156107ae57fe5b60ff16815260200191505060405180910390f35b61098360048036036101608110156107d957600080fd5b81019080803590602001906401000000008111156107f657600080fd5b82018360208201111561080857600080fd5b8035906020019184600183028401116401000000008311171561082a57600080fd5b91908080601f016020809104026020016040519081016040528093929190818152602001838380828437600081840152601f19601f8201169050808301925050505050505091929192908035906020019064010000000081111561088d57600080fd5b82018360208201111561089f57600080fd5b803590602001918460018302840111640100000000831117156108c157600080fd5b91908080601f016020809104026020016040519081016040528093929190818152602001838380828437600081840152601f19601f8201169050808301925050505050505091929192908035906020019092919080359060200190929190803590602001909291908035906020019092919080359060200190929190803590602001909291908035906020019092919080359060200190929190803573ffffffffffffffffffffffffffffffffffffffff169060200190929190505050611198565b6040518082815260200191505060405180910390f35b600060015482109050919050565b60008160015481106109b857600080fd5b6002600084815260200190815260200160002060040154915050919050565b6000806000806000808660015481106109ef57600080fd5b610a0e600260008a8152602001908152602001600020600201546113d0565b9650965096509650965096505091939550919395565b6002602052806000526040600020600091509050806000018054600181600116156101000203166002900480601f016020809104026020016040519081016040528092919081815260200182805460018160011615610100020316600290048015610ad05780601f10610aa557610100808354040283529160200191610ad0565b820191906000526020600020905b815481529060010190602001808311610ab357829003601f168201915b505050505090806001018054600181600116156101000203166002900480601f016020809104026020016040519081016040528092919081815260200182805460018160011615610100020316600290048015610b6e5780601f10610b4357610100808354040283529160200191610b6e565b820191906000526020600020905b815481529060010190602001808311610b5157829003601f168201915b5050505050908060020154908060030154908060040154908060050154908060060160009054906101000a900473ffffffffffffffffffffffffffffffffffffffff16908060060160149054906101000a900460ff16908060070154905089565b60015481565b6000816001548110610be657600080fd5b6002600084815260200190815260200160002060030154915050919050565b816001548110610c1457600080fd5b816002600085815260200190815260200160002060070181905550505050565b6000816001548110610c4557600080fd5b6002600084815260200190815260200160002060050154915050919050565b6060816001548110610c7557600080fd5b600260008481526020019081526020016000206001018054600181600116156101000203166002900480601f016020809104026020016040519081016040528092919081815260200182805460018160011615610100020316600290048015610d1f5780601f10610cf457610100808354040283529160200191610d1f565b820191906000526020600020905b815481529060010190602001808311610d0257829003601f168201915b5050505050915050919050565b6000816001548110610d3d57600080fd5b6002600084815260200190815260200160002060070154915050919050565b816001548110610d6b57600080fd5b816002600085815260200190815260200160002060040181905550505050565b6000816001548110610d9c57600080fd5b6002600084815260200190815260200160002060060160009054906101000a900473ffffffffffffffffffffffffffffffffffffffff16915050919050565b60006001805403905090565b816001548110610df657600080fd5b816002600085815260200190815260200160002060060160146101000a81548160ff02191690836004811115610e2857fe5b0217905550505050565b6000846001548110610e4357600080fd5b600080600090505b84811015611084576000811415610f6c576000809054906101000a900473ffffffffffffffffffffffffffffffffffffffff1673ffffffffffffffffffffffffffffffffffffffff1663389b62aa8a8a8a8a866040518663ffffffff1660e01b8152600401808673ffffffffffffffffffffffffffffffffffffffff1673ffffffffffffffffffffffffffffffffffffffff168152602001858152602001848152602001836002811115610efb57fe5b60ff16815260200182815260200195505050505050602060405180830381600087803b158015610f2a57600080fd5b505af1158015610f3e573d6000803e3d6000fd5b505050506040513d6020811015610f5457600080fd5b81019080805190602001909291905050509150611077565b6000809054906101000a900473ffffffffffffffffffffffffffffffffffffffff1673ffffffffffffffffffffffffffffffffffffffff1663389b62aa8a8a8a8a866040518663ffffffff1660e01b8152600401808673ffffffffffffffffffffffffffffffffffffffff1673ffffffffffffffffffffffffffffffffffffffff16815260200185815260200184815260200183600281111561100b57fe5b60ff16815260200182815260200195505050505050602060405180830381600087803b15801561103a57600080fd5b505af115801561104e573d6000803e3d6000fd5b505050506040513d602081101561106457600080fd5b8101908080519060200190929190505050505b8080600101915050610e4b565b50809250505095945050505050565b60608160015481106110a457600080fd5b600260008481526020019081526020016000206000018054600181600116156101000203166002900480601f01602080910402602001604051908101604052809291908181526020018280546001816001161561010002031660029004801561114e5780601f106111235761010080835404028352916020019161114e565b820191906000526020600020905b81548152906001019060200180831161113157829003601f168201915b5050505050915050919050565b600081600154811061116c57600080fd5b6002600084815260200190815260200160002060060160149054906101000a900460ff16915050919050565b6000426111a98b8b8b8b8b8b61144b565b1161121c576040517f08c379a00000000000000000000000000000000000000000000000000000000081526004018080602001828103825260158152602001807f496e76616c6964204461746520616e642054696d65000000000000000000000081525060200191505060405180910390fd5b6112246115f9565b6040518061012001604052808e81526020018d815260200161124a8d8d8d8d8d8d61144b565b81526020018681526020018681526020018581526020018473ffffffffffffffffffffffffffffffffffffffff1681526020016000600481111561128a57fe5b815260200160008152509050600060016000815480929190600101919050559050816002600083815260200190815260200160002060008201518160000190805190602001906112db929190611666565b5060208201518160010190805190602001906112f8929190611666565b5060408201518160020155606082015181600301556080820151816004015560a0820151816005015560c08201518160060160006101000a81548173ffffffffffffffffffffffffffffffffffffffff021916908373ffffffffffffffffffffffffffffffffffffffff16021790555060e08201518160060160146101000a81548160ff0219169083600481111561138c57fe5b0217905550610100820151816007015590505060006113af33838860018b610e32565b90506113bb8282610c05565b8193505050509b9a5050505050505050505050565b6000806000806000806113ee6201518088816113e857fe5b04611476565b809650819750829850505050600062015180888161140857fe5b069050610e10818161141657fe5b049350610e10818161142457fe5b069050603c818161143157fe5b049250603c818161143e57fe5b0691505091939550919395565b600081603c8402610e108602620151806114668b8b8b61154a565b0201010190509695505050505050565b600080600080849050600062253d8c62010bd98301019050600062023ab1826004028161149f57fe5b059050600460038262023ab10201816114b457fe5b0582039150600062164b0960018401610fa002816114ce57fe5b059050601f6004826105b502816114e157fe5b058403019250600061098f84605002816114f757fe5b059050600060508261098f028161150a57fe5b0585039050600b828161151957fe5b05945084600c0260028301039150848360318603606402010192508298508197508096505050505050509193909250565b60006107b284101561155b57600080fd5b600084905060008490506000849050600062253d8c60046064600c600e87038161158157fe5b056113248801018161158f57fe5b056003028161159a57fe5b05600c80600c600e8803816115ab57fe5b0502600287030361016f02816115bd57fe5b056004600c600e8803816115cd57fe5b056112c08901016105b502816115df57fe5b05617d4b8603010103039050809450505050509392505050565b604051806101200160405280606081526020016060815260200160008152602001600081526020016000815260200160008152602001600073ffffffffffffffffffffffffffffffffffffffff1681526020016000600481111561165957fe5b8152602001600081525090565b828054600181600116156101000203166002900490600052602060002090601f016020900481019282601f106116a757805160ff19168380011785556116d5565b828001600101855582156116d5579182015b828111156116d45782518255916020019190600101906116b9565b5b5090506116e291906116e6565b5090565b61170891905b808211156117045760008160009055506001016116ec565b5090565b9056fea265627a7a7231582062b67c33a7409d2e2bc87836ea035cb92844f5c29a8e7a8e32acffba3f1c870c64736f6c63430005110032",
  "source": "pragma solidity ^0.5.0;\r\n\r\nimport \"./DateTime.sol\";\r\nimport \"./Ticket.sol\";\r\n\r\ncontract Event {\r\n\r\n    Ticket ticketContract;\r\n\r\n    constructor(Ticket ticketAddress) public {\r\n        ticketContract = ticketAddress;\r\n    }\r\n\r\n    /**\r\n     * enum containing event state\r\n     * initial:             initial state before bidding\r\n     * bidding:             bidding state when bid commences\r\n     * buyAndRefund:        buy and refund state after bid closes\r\n     * sellerEventEnd:      seller declare end of event\r\n     * platformEventEnd:    platform declare end of event\r\n     */\r\n    enum eventState { initial, bidding, buyAndRefund, sellerEventEnd, platformEventEnd }\r\n\r\n    /**\r\n     * param title          title of event\r\n     * param venue          venue where event will be held at\r\n     * param dataAndTime    date and time of event\r\n     * param capacity       capacity of event\r\n     * param ticketsLeft    event tickets left \r\n     * param priceOfTicket  price of ticket\r\n     * param seller         organiser / seller of event ticket   \r\n    * param eventState     state of event: initial, bidding, buyAndRefund, sellerEventEnd, platformEventEnd\r\n     * param firstTicketId  id of first ticket sold\r\n     */\r\n    struct eventObj {\r\n        string title;\r\n        string venue;\r\n        uint256 dateAndTime;\r\n        uint256 capacity;\r\n        uint256 ticketsLeft;\r\n        uint256 priceOfTicket;\r\n        address seller;\r\n        eventState state;\r\n        uint256 firstTicketId;\r\n    }\r\n\r\n    uint256 public numEvents = 0; // Total number of events\r\n    mapping(uint256 => eventObj) public events; // Storing of events\r\n\r\n    // modifier to ensure eventId is valid\r\n    modifier validEventId(uint256 eventId) {\r\n        require(eventId < numEvents);\r\n        _;\r\n    }\r\n\r\n    /**\r\n     * creates a event and generates tickets\r\n     *\r\n     * param title                                      title of event\r\n     * param venue                                      venue where event will be held at\r\n     * param year, month, day, hour, minute, second     date and time of event\r\n     * param capacity                                   capacity of event\r\n     * param ticketsLeft                                event tickets left \r\n     * param priceOfTicket                              price of ticket\r\n     * param seller                                     organiser / seller of event ticket   \r\n     */\r\n    function createEvent(\r\n        string memory title,\r\n        string memory venue,\r\n        uint256 year, uint256 month, uint256 day, uint256 hour, uint256 minute, uint256 second,\r\n        uint256 capacity,\r\n        uint256 priceOfTicket,\r\n        address seller\r\n    ) public returns (uint256) {\r\n        require(DateTime.timestampFromDateTime(year, month, day, hour, minute, second) > now, \"Invalid Date and Time\");\r\n\r\n        eventObj memory newEvent = eventObj(\r\n            title,\r\n            venue,\r\n            DateTime.timestampFromDateTime(year, month, day, hour, minute, second),\r\n            capacity,\r\n            capacity,\r\n            priceOfTicket,\r\n            seller,\r\n            eventState.initial,\r\n            0\r\n        );\r\n\r\n        uint256 newEventId = numEvents++;\r\n        events[newEventId] = newEvent;\r\n\r\n        // Generate Tickets\r\n        uint256 firstTicketId = generateEventTickets(msg.sender, newEventId, priceOfTicket, Ticket.category.standard, capacity);\r\n\r\n        setEventFirstTicketId(newEventId, firstTicketId);\r\n\r\n        return newEventId;\r\n    }\r\n\r\n    /**\r\n     * generate event tickets\r\n     *\r\n     * param owner          owner of tickets\r\n     * param eventId        id of event\r\n     * param price          price of ticket\r\n     * param cat            seat category of ticket\r\n     * param numOfTickets   event tickets available \r\n     */\r\n    function generateEventTickets(address owner, uint256 eventId, uint256 price, Ticket.category cat, uint256 numOfTickets) public validEventId(eventId) returns (uint256) {\r\n        uint256 firstTicketId;\r\n        for (uint256 i = 0; i < numOfTickets; i++) {\r\n            if (i == 0) {\r\n                firstTicketId = ticketContract.add(owner, eventId, price, cat, i);\r\n            } else {\r\n                ticketContract.add(owner, eventId, price, cat, i);\r\n            }\r\n        }\r\n        return firstTicketId;\r\n    } \r\n\r\n\r\n    /**\r\n     * check if eventId is valid\r\n     *\r\n     * param eventId    id of event\r\n     */\r\n    function isEventIdValid(uint256 eventId) public view returns(bool) {\r\n        return eventId < numEvents;\r\n    }\r\n\r\n    /**\r\n     * get title of event\r\n     *\r\n     * param eventId    id of event\r\n     */\r\n    function getEventTitle(uint256 eventId) public view validEventId(eventId) returns (string memory) {\r\n        return events[eventId].title;\r\n    }\r\n\r\n    /**\r\n     * get venue of event\r\n     *\r\n     * param eventId    id of event\r\n     */\r\n    function getEventVenue(uint256 eventId) public view validEventId(eventId) returns (string memory) {\r\n        return events[eventId].venue;\r\n    }\r\n\r\n    /**\r\n     * get date and time of event\r\n     *\r\n     * param eventId    id of event\r\n     */\r\n    function getEventDateAndTime(uint256 eventId) public view validEventId(eventId) returns (uint256, uint256, uint256, uint256, uint256, uint256) {\r\n        return DateTime.timestampToDateTime(events[eventId].dateAndTime);\r\n    }\r\n\r\n    /**\r\n     * get capacity of event\r\n     *\r\n     * param eventId    id of event\r\n     */\r\n    function getEventCapacity(uint256 eventId) public view validEventId(eventId) returns (uint256) {\r\n        return events[eventId].capacity;\r\n    }\r\n\r\n    /**\r\n     * get tickets left for event\r\n     *\r\n     * param eventId    id of event\r\n     */\r\n    function getEventTicketsLeft(uint256 eventId) public view validEventId(eventId) returns (uint256) {\r\n        return events[eventId].ticketsLeft;\r\n    }\r\n\r\n    /**\r\n     * get ticket price for event\r\n     *\r\n     * param eventId    id of event\r\n     */\r\n    function getEventTicketPrice(uint256 eventId) public view validEventId(eventId) returns (uint256) {\r\n        return events[eventId].priceOfTicket;\r\n    }\r\n    \r\n    /**\r\n     * get address of event seller\r\n     *\r\n     * param eventId    id of event\r\n     */\r\n    function getEventSeller(uint256 eventId) public view validEventId(eventId) returns (address) {\r\n        return events[eventId].seller;\r\n    }\r\n\r\n    /**\r\n     * get state of event\r\n     *\r\n     * param eventId    id of event\r\n     */\r\n    function getEventState(uint256 eventId) public view validEventId(eventId) returns (eventState) {\r\n        return events[eventId].state;\r\n    }\r\n\r\n    /**\r\n     * get first ticket id of event\r\n     *\r\n     * param eventId    id of event\r\n     */\r\n    function getEventFirstTicketId(uint256 eventId) public view validEventId(eventId) returns (uint256) {\r\n        return events[eventId].firstTicketId;\r\n    }\r\n\r\n    /**\r\n     * set state of event\r\n     *\r\n     * param eventId    id of event\r\n     * param estate     event state\r\n     */\r\n    function setEventState(uint256 eventId, eventState estate) public validEventId(eventId) {\r\n        events[eventId].state = estate;\r\n    }\r\n\r\n    /**\r\n     * set first ticket id of event\r\n     *\r\n     * param eventId    id of event\r\n     * param ticketId   id of ticket\r\n     */\r\n    function setEventFirstTicketId(uint256 eventId, uint256 ticketId) public validEventId(eventId) {\r\n        events[eventId].firstTicketId = ticketId;\r\n    }\r\n\r\n    /**\r\n     * set tickets left for event\r\n     *\r\n     * param eventId        id of event\r\n     * param ticketsLeft    tickets left for event\r\n     */\r\n    function setEventTicketsLeft(uint256 eventId, uint256 ticketsLeft) public validEventId(eventId) {\r\n        events[eventId].ticketsLeft = ticketsLeft;\r\n    }\r\n\r\n    // get latest event id\r\n    function getLatestEventId() public view returns (uint256) {\r\n        return numEvents - 1;\r\n    }\r\n\r\n   \r\n}\r\n\r\n",
  "sourcePath": "C:\\Users\\remus\\Desktop\\3.2\\IS4302\\Project\\contracts\\Event.sol",
  "compiler": {
    "name": "solc",
    "version": "0.5.17+commit.d19bba13.Emscripten.clang"
  },
  "schemaVersion": "3.4.11",
  "updatedAt": "2023-04-06T15:34:34.325Z",
  "devdoc": {
    "methods": {}
  },
  "userdoc": {
    "methods": {
      "createEvent(string,string,uint256,uint256,uint256,uint256,uint256,uint256,uint256,uint256,address)": {
        "notice": "creates a event and generates tickets      * param title                                      title of event param venue                                      venue where event will be held at param year, month, day, hour, minute, second     date and time of event param capacity                                   capacity of event param ticketsLeft                                event tickets left  param priceOfTicket                              price of ticket param seller                                     organiser / seller of event ticket   "
      },
      "generateEventTickets(address,uint256,uint256,uint8,uint256)": {
        "notice": "generate event tickets      * param owner          owner of tickets param eventId        id of event param price          price of ticket param cat            seat category of ticket param numOfTickets   event tickets available "
      },
      "getEventCapacity(uint256)": {
        "notice": "get capacity of event      * param eventId    id of event"
      },
      "getEventDateAndTime(uint256)": {
        "notice": "get date and time of event      * param eventId    id of event"
      },
      "getEventFirstTicketId(uint256)": {
        "notice": "get first ticket id of event      * param eventId    id of event"
      },
      "getEventSeller(uint256)": {
        "notice": "get address of event seller      * param eventId    id of event"
      },
      "getEventState(uint256)": {
        "notice": "get state of event      * param eventId    id of event"
      },
      "getEventTicketPrice(uint256)": {
        "notice": "get ticket price for event      * param eventId    id of event"
      },
      "getEventTicketsLeft(uint256)": {
        "notice": "get tickets left for event      * param eventId    id of event"
      },
      "getEventTitle(uint256)": {
        "notice": "get title of event      * param eventId    id of event"
      },
      "getEventVenue(uint256)": {
        "notice": "get venue of event      * param eventId    id of event"
      },
      "isEventIdValid(uint256)": {
        "notice": "check if eventId is valid      * param eventId    id of event"
      },
      "setEventFirstTicketId(uint256,uint256)": {
        "notice": "set first ticket id of event      * param eventId    id of event param ticketId   id of ticket"
      },
      "setEventState(uint256,uint8)": {
        "notice": "set state of event      * param eventId    id of event param estate     event state"
      },
      "setEventTicketsLeft(uint256,uint256)": {
        "notice": "set tickets left for event      * param eventId        id of event param ticketsLeft    tickets left for event"
      }
    }
  }
}