{
  "contractName": "Event",
  "abi": [
    {
      "inputs": [
        {
          "internalType": "contract Ticket",
          "name": "ticketAddress",
          "type": "address"
        }
      ],
      "payable": false,
      "stateMutability": "nonpayable",
      "type": "constructor"
    },
    {
      "constant": true,
      "inputs": [
        {
          "internalType": "uint256",
          "name": "",
          "type": "uint256"
        }
      ],
      "name": "events",
      "outputs": [
        {
          "internalType": "string",
          "name": "title",
          "type": "string"
        },
        {
          "internalType": "string",
          "name": "venue",
          "type": "string"
        },
        {
          "internalType": "uint256",
          "name": "dateAndTime",
          "type": "uint256"
        },
        {
          "internalType": "uint256",
          "name": "capacity",
          "type": "uint256"
        },
        {
          "internalType": "uint256",
          "name": "ticketsLeft",
          "type": "uint256"
        },
        {
          "internalType": "uint256",
          "name": "priceOfTicket",
          "type": "uint256"
        },
        {
          "internalType": "address",
          "name": "seller",
          "type": "address"
        },
        {
          "internalType": "enum Event.bidState",
          "name": "state",
          "type": "uint8"
        }
      ],
      "payable": false,
      "stateMutability": "view",
      "type": "function"
    },
    {
      "constant": true,
      "inputs": [],
      "name": "numEvents",
      "outputs": [
        {
          "internalType": "uint256",
          "name": "",
          "type": "uint256"
        }
      ],
      "payable": false,
      "stateMutability": "view",
      "type": "function"
    },
    {
      "constant": false,
      "inputs": [
        {
          "internalType": "string",
          "name": "title",
          "type": "string"
        },
        {
          "internalType": "string",
          "name": "venue",
          "type": "string"
        },
        {
          "internalType": "uint256",
          "name": "year",
          "type": "uint256"
        },
        {
          "internalType": "uint256",
          "name": "month",
          "type": "uint256"
        },
        {
          "internalType": "uint256",
          "name": "day",
          "type": "uint256"
        },
        {
          "internalType": "uint256",
          "name": "hour",
          "type": "uint256"
        },
        {
          "internalType": "uint256",
          "name": "minute",
          "type": "uint256"
        },
        {
          "internalType": "uint256",
          "name": "second",
          "type": "uint256"
        },
        {
          "internalType": "uint256",
          "name": "capacity",
          "type": "uint256"
        },
        {
          "internalType": "uint256",
          "name": "ticketsLeft",
          "type": "uint256"
        },
        {
          "internalType": "uint256",
          "name": "priceOfTicket",
          "type": "uint256"
        },
        {
          "internalType": "address",
          "name": "seller",
          "type": "address"
        }
      ],
      "name": "createEvent",
      "outputs": [
        {
          "internalType": "uint256",
          "name": "",
          "type": "uint256"
        }
      ],
      "payable": false,
      "stateMutability": "nonpayable",
      "type": "function"
    },
    {
      "constant": false,
      "inputs": [
        {
          "internalType": "uint256",
          "name": "eventId",
          "type": "uint256"
        },
        {
          "internalType": "uint256",
          "name": "price",
          "type": "uint256"
        },
        {
          "internalType": "enum Ticket.category",
          "name": "cat",
          "type": "uint8"
        },
        {
          "internalType": "uint256",
          "name": "numOfTickets",
          "type": "uint256"
        }
      ],
      "name": "generateEventTickets",
      "outputs": [],
      "payable": false,
      "stateMutability": "nonpayable",
      "type": "function"
    },
    {
      "constant": true,
      "inputs": [
        {
          "internalType": "uint256",
          "name": "eventId",
          "type": "uint256"
        }
      ],
      "name": "getEventTitle",
      "outputs": [
        {
          "internalType": "string",
          "name": "",
          "type": "string"
        }
      ],
      "payable": false,
      "stateMutability": "view",
      "type": "function"
    },
    {
      "constant": true,
      "inputs": [
        {
          "internalType": "uint256",
          "name": "eventId",
          "type": "uint256"
        }
      ],
      "name": "getEventVenue",
      "outputs": [
        {
          "internalType": "string",
          "name": "",
          "type": "string"
        }
      ],
      "payable": false,
      "stateMutability": "view",
      "type": "function"
    },
    {
      "constant": true,
      "inputs": [
        {
          "internalType": "uint256",
          "name": "eventId",
          "type": "uint256"
        }
      ],
      "name": "getEventDateAndTime",
      "outputs": [
        {
          "internalType": "uint256",
          "name": "",
          "type": "uint256"
        },
        {
          "internalType": "uint256",
          "name": "",
          "type": "uint256"
        },
        {
          "internalType": "uint256",
          "name": "",
          "type": "uint256"
        },
        {
          "internalType": "uint256",
          "name": "",
          "type": "uint256"
        },
        {
          "internalType": "uint256",
          "name": "",
          "type": "uint256"
        },
        {
          "internalType": "uint256",
          "name": "",
          "type": "uint256"
        }
      ],
      "payable": false,
      "stateMutability": "view",
      "type": "function"
    },
    {
      "constant": true,
      "inputs": [
        {
          "internalType": "uint256",
          "name": "eventId",
          "type": "uint256"
        }
      ],
      "name": "getEventCapacity",
      "outputs": [
        {
          "internalType": "uint256",
          "name": "",
          "type": "uint256"
        }
      ],
      "payable": false,
      "stateMutability": "view",
      "type": "function"
    },
    {
      "constant": true,
      "inputs": [
        {
          "internalType": "uint256",
          "name": "eventId",
          "type": "uint256"
        }
      ],
      "name": "getEventTicketsLeft",
      "outputs": [
        {
          "internalType": "uint256",
          "name": "",
          "type": "uint256"
        }
      ],
      "payable": false,
      "stateMutability": "view",
      "type": "function"
    },
    {
      "constant": true,
      "inputs": [
        {
          "internalType": "uint256",
          "name": "eventId",
          "type": "uint256"
        }
      ],
      "name": "getEventTicketPrice",
      "outputs": [
        {
          "internalType": "uint256",
          "name": "",
          "type": "uint256"
        }
      ],
      "payable": false,
      "stateMutability": "view",
      "type": "function"
    },
    {
      "constant": true,
      "inputs": [
        {
          "internalType": "uint256",
          "name": "eventId",
          "type": "uint256"
        }
      ],
      "name": "getEventSeller",
      "outputs": [
        {
          "internalType": "address",
          "name": "",
          "type": "address"
        }
      ],
      "payable": false,
      "stateMutability": "view",
      "type": "function"
    },
    {
      "constant": false,
      "inputs": [
        {
          "internalType": "uint256",
          "name": "eventId",
          "type": "uint256"
        }
      ],
      "name": "endEvent",
      "outputs": [],
      "payable": false,
      "stateMutability": "nonpayable",
      "type": "function"
    },
    {
      "constant": true,
      "inputs": [
        {
          "internalType": "uint256",
          "name": "eventId",
          "type": "uint256"
        }
      ],
      "name": "getEventBidState",
      "outputs": [
        {
          "internalType": "enum Event.bidState",
          "name": "",
          "type": "uint8"
        }
      ],
      "payable": false,
      "stateMutability": "view",
      "type": "function"
    },
    {
      "constant": false,
      "inputs": [
        {
          "internalType": "uint256",
          "name": "eventId",
          "type": "uint256"
        },
        {
          "internalType": "enum Event.bidState",
          "name": "bstate",
          "type": "uint8"
        }
      ],
      "name": "setEventBidState",
      "outputs": [],
      "payable": false,
      "stateMutability": "nonpayable",
      "type": "function"
    }
  ],
  "bytecode": "0x6080604052600060015534801561001557600080fd5b506040516114ce3803806114ce8339818101604052602081101561003857600080fd5b8101908080519060200190929190505050806000806101000a81548173ffffffffffffffffffffffffffffffffffffffff021916908373ffffffffffffffffffffffffffffffffffffffff16021790555050611435806100996000396000f3fe608060405234801561001057600080fd5b50600436106100ea5760003560e01c8063836c0ea71161008c578063d9c6b21911610066578063d9c6b219146106d3578063df6471781461070e578063e9c93dbc146107b5578063f4a1ad1614610804576100ea565b8063836c0ea7146103dd578063afaddf8f14610484578063d14b3c6d146104f2576100ea565b8063330a347b116100c8578063330a347b1461030d57806334cf562b1461033b5780635788b400146103595780636459d3b41461039b576100ea565b8063046cbeec146100ef578063089cade7146101315780630b79143014610196575b600080fd5b61011b6004803603602081101561010557600080fd5b8101908080359060200190929190505050610854565b6040518082815260200191505060405180910390f35b61015d6004803603602081101561014757600080fd5b8101908080359060200190929190505050610884565b60405180878152602001868152602001858152602001848152602001838152602001828152602001965050505050505060405180910390f35b6101c2600480360360208110156101ac57600080fd5b81019080803590602001909291905050506108d1565b6040518080602001806020018981526020018881526020018781526020018681526020018573ffffffffffffffffffffffffffffffffffffffff1673ffffffffffffffffffffffffffffffffffffffff16815260200184600181111561022457fe5b60ff16815260200183810383528b818151815260200191508051906020019080838360005b83811015610264578082015181840152602081019050610249565b50505050905090810190601f1680156102915780820380516001836020036101000a031916815260200191505b5083810382528a818151815260200191508051906020019080838360005b838110156102ca5780820151818401526020810190506102af565b50505050905090810190601f1680156102f75780820380516001836020036101000a031916815260200191505b509a505050505050505050505060405180910390f35b6103396004803603602081101561032357600080fd5b8101908080359060200190929190505050610a76565b005b610343610b1a565b6040518082815260200191505060405180910390f35b6103856004803603602081101561036f57600080fd5b8101908080359060200190929190505050610b20565b6040518082815260200191505060405180910390f35b6103c7600480360360208110156103b157600080fd5b8101908080359060200190929190505050610b50565b6040518082815260200191505060405180910390f35b610409600480360360208110156103f357600080fd5b8101908080359060200190929190505050610b80565b6040518080602001828103825283818151815260200191508051906020019080838360005b8381101561044957808201518184015260208101905061042e565b50505050905090810190601f1680156104765780820380516001836020036101000a031916815260200191505b509250505060405180910390f35b6104b06004803603602081101561049a57600080fd5b8101908080359060200190929190505050610c48565b604051808273ffffffffffffffffffffffffffffffffffffffff1673ffffffffffffffffffffffffffffffffffffffff16815260200191505060405180910390f35b6106bd600480360361018081101561050957600080fd5b810190808035906020019064010000000081111561052657600080fd5b82018360208201111561053857600080fd5b8035906020019184600183028401116401000000008311171561055a57600080fd5b91908080601f016020809104026020016040519081016040528093929190818152602001838380828437600081840152601f19601f820116905080830192505050505050509192919290803590602001906401000000008111156105bd57600080fd5b8201836020820111156105cf57600080fd5b803590602001918460018302840111640100000000831117156105f157600080fd5b91908080601f016020809104026020016040519081016040528093929190818152602001838380828437600081840152601f19601f820116905080830192505050505050509192919290803590602001909291908035906020019092919080359060200190929190803590602001909291908035906020019092919080359060200190929190803590602001909291908035906020019092919080359060200190929190803573ffffffffffffffffffffffffffffffffffffffff169060200190929190505050610c98565b6040518082815260200191505060405180910390f35b61070c600480360360408110156106e957600080fd5b8101908080359060200190929190803560ff169060200190929190505050610e2c565b005b61073a6004803603602081101561072457600080fd5b8101908080359060200190929190505050610e77565b6040518080602001828103825283818151815260200191508051906020019080838360005b8381101561077a57808201518184015260208101905061075f565b50505050905090810190601f1680156107a75780820380516001836020036101000a031916815260200191505b509250505060405180910390f35b610802600480360360808110156107cb57600080fd5b810190808035906020019092919080359060200190929190803560ff16906020019092919080359060200190929190505050610f3f565b005b6108306004803603602081101561081a57600080fd5b8101908080359060200190929190505050611047565b6040518082600181111561084057fe5b60ff16815260200191505060405180910390f35b600081600154811061086557600080fd5b6002600084815260200190815260200160002060040154915050919050565b60008060008060008086600154811061089c57600080fd5b6108bb600260008a815260200190815260200160002060020154611084565b9650965096509650965096505091939550919395565b6002602052806000526040600020600091509050806000018054600181600116156101000203166002900480601f01602080910402602001604051908101604052809291908181526020018280546001816001161561010002031660029004801561097d5780601f106109525761010080835404028352916020019161097d565b820191906000526020600020905b81548152906001019060200180831161096057829003601f168201915b505050505090806001018054600181600116156101000203166002900480601f016020809104026020016040519081016040528092919081815260200182805460018160011615610100020316600290048015610a1b5780601f106109f057610100808354040283529160200191610a1b565b820191906000526020600020905b8154815290600101906020018083116109fe57829003601f168201915b5050505050908060020154908060030154908060040154908060050154908060060160009054906101000a900473ffffffffffffffffffffffffffffffffffffffff16908060060160149054906101000a900460ff16905088565b806001548110610a8557600080fd5b6002600083815260200190815260200160002060008082016000610aa991906112ad565b600182016000610ab991906112ad565b60028201600090556003820160009055600482016000905560058201600090556006820160006101000a81549073ffffffffffffffffffffffffffffffffffffffff02191690556006820160146101000a81549060ff021916905550505050565b60015481565b6000816001548110610b3157600080fd5b6002600084815260200190815260200160002060030154915050919050565b6000816001548110610b6157600080fd5b6002600084815260200190815260200160002060050154915050919050565b6060816001548110610b9157600080fd5b600260008481526020019081526020016000206001018054600181600116156101000203166002900480601f016020809104026020016040519081016040528092919081815260200182805460018160011615610100020316600290048015610c3b5780601f10610c1057610100808354040283529160200191610c3b565b820191906000526020600020905b815481529060010190602001808311610c1e57829003601f168201915b5050505050915050919050565b6000816001548110610c5957600080fd5b6002600084815260200190815260200160002060060160009054906101000a900473ffffffffffffffffffffffffffffffffffffffff16915050919050565b6000610ca26112f5565b6040518061010001604052808f81526020018e8152602001610cc88e8e8e8e8e8e6110ff565b81526020018781526020018681526020018581526020018473ffffffffffffffffffffffffffffffffffffffff168152602001600180811115610d0757fe5b815250905060006001600081548092919060010191905055905081600260008381526020019081526020016000206000820151816000019080519060200190610d5192919061135b565b506020820151816001019080519060200190610d6e92919061135b565b5060408201518160020155606082015181600301556080820151816004015560a0820151816005015560c08201518160060160006101000a81548173ffffffffffffffffffffffffffffffffffffffff021916908373ffffffffffffffffffffffffffffffffffffffff16021790555060e08201518160060160146101000a81548160ff02191690836001811115610e0257fe5b0217905550905050610e178186600189610f3f565b80925050509c9b505050505050505050505050565b816001548110610e3b57600080fd5b816002600085815260200190815260200160002060060160146101000a81548160ff02191690836001811115610e6d57fe5b0217905550505050565b6060816001548110610e8857600080fd5b600260008481526020019081526020016000206000018054600181600116156101000203166002900480601f016020809104026020016040519081016040528092919081815260200182805460018160011615610100020316600290048015610f325780601f10610f0757610100808354040283529160200191610f32565b820191906000526020600020905b815481529060010190602001808311610f1557829003601f168201915b5050505050915050919050565b836001548110610f4e57600080fd5b60008090505b8281101561103f576000809054906101000a900473ffffffffffffffffffffffffffffffffffffffff1673ffffffffffffffffffffffffffffffffffffffff1663b48630c2878787856040518563ffffffff1660e01b815260040180858152602001848152602001836002811115610fc857fe5b60ff168152602001828152602001945050505050602060405180830381600087803b158015610ff657600080fd5b505af115801561100a573d6000803e3d6000fd5b505050506040513d602081101561102057600080fd5b8101908080519060200190929190505050508080600101915050610f54565b505050505050565b600081600154811061105857600080fd5b6002600084815260200190815260200160002060060160149054906101000a900460ff16915050919050565b6000806000806000806110a262015180888161109c57fe5b0461112a565b80965081975082985050505060006201518088816110bc57fe5b069050610e1081816110ca57fe5b049350610e1081816110d857fe5b069050603c81816110e557fe5b049250603c81816110f257fe5b0691505091939550919395565b600081603c8402610e1086026201518061111a8b8b8b6111fe565b0201010190509695505050505050565b600080600080849050600062253d8c62010bd98301019050600062023ab1826004028161115357fe5b059050600460038262023ab102018161116857fe5b0582039150600062164b0960018401610fa0028161118257fe5b059050601f6004826105b5028161119557fe5b058403019250600061098f84605002816111ab57fe5b059050600060508261098f02816111be57fe5b0585039050600b82816111cd57fe5b05945084600c0260028301039150848360318603606402010192508298508197508096505050505050509193909250565b60006107b284101561120f57600080fd5b600084905060008490506000849050600062253d8c60046064600c600e87038161123557fe5b056113248801018161124357fe5b056003028161124e57fe5b05600c80600c600e88038161125f57fe5b0502600287030361016f028161127157fe5b056004600c600e88038161128157fe5b056112c08901016105b5028161129357fe5b05617d4b8603010103039050809450505050509392505050565b50805460018160011615610100020316600290046000825580601f106112d357506112f2565b601f0160209004906000526020600020908101906112f191906113db565b5b50565b604051806101000160405280606081526020016060815260200160008152602001600081526020016000815260200160008152602001600073ffffffffffffffffffffffffffffffffffffffff1681526020016000600181111561135557fe5b81525090565b828054600181600116156101000203166002900490600052602060002090601f016020900481019282601f1061139c57805160ff19168380011785556113ca565b828001600101855582156113ca579182015b828111156113c95782518255916020019190600101906113ae565b5b5090506113d791906113db565b5090565b6113fd91905b808211156113f95760008160009055506001016113e1565b5090565b9056fea265627a7a72315820f816f38d36018c7b39b161f5824e4eb37b84dd876fe49de867eb1ec510e07ba664736f6c63430005110032",
  "source": "pragma solidity ^0.5.0;\n\nimport \"./DateTime.sol\";\nimport \"./Ticket.sol\";\n\ncontract Event {\n\n    Ticket ticketContract;\n\n    constructor(Ticket ticketAddress) public {\n        ticketContract = ticketAddress;\n    }\n\n    enum bidState { open, close }\n\n    struct eventObj {\n        string title;\n        string venue;\n        uint256 dateAndTime;\n        uint256 capacity;\n        uint256 ticketsLeft;\n        uint256 priceOfTicket;\n        address seller;\n        bidState state;\n    }\n\n    uint256 public numEvents = 0;\n    mapping(uint256 => eventObj) public events;\n\n    function createEvent(\n        string memory title,\n        string memory venue,\n        uint256 year, uint256 month, uint256 day, uint256 hour, uint256 minute, uint256 second,\n        uint256 capacity,\n        uint256 ticketsLeft,\n        uint256 priceOfTicket,\n        address seller\n    ) public returns (uint256) {\n        // require creation fee in terms of tokens?\n        // require(msg.sender == platformOwner/seller?)\n\n        // require input validation for parameters Eg. datetime\n\n        eventObj memory newEvent = eventObj(\n            title,\n            venue,\n            DateTime.timestampFromDateTime(year, month, day, hour, minute, second),\n            capacity,\n            ticketsLeft,\n            priceOfTicket,\n            seller,\n            bidState.close\n        );\n\n        uint256 newEventId = numEvents++;\n        events[newEventId] = newEvent;\n        // transfer creation fee?\n\n        // Generate Tickets\n        generateEventTickets(newEventId, priceOfTicket, Ticket.category.standard, ticketsLeft);\n\n        return newEventId;\n    }\n\n    modifier validEventId(uint256 eventId) {\n        require(eventId < numEvents);\n        _;\n    }\n\n    function generateEventTickets(uint256 eventId, uint256 price, Ticket.category cat, uint256 numOfTickets) public validEventId(eventId) {\n        for (uint256 i = 0; i < numOfTickets; i++) {\n            ticketContract.add(eventId, price, cat, i);\n        }\n    } \n\n    function getEventTitle(uint256 eventId) public view validEventId(eventId) returns (string memory) {\n        return events[eventId].title;\n    }\n\n    function getEventVenue(uint256 eventId) public view validEventId(eventId) returns (string memory) {\n        return events[eventId].venue;\n    }\n\n    function getEventDateAndTime(uint256 eventId) public view validEventId(eventId) returns (uint256, uint256, uint256, uint256, uint256, uint256) {\n        return DateTime.timestampToDateTime(events[eventId].dateAndTime);\n    }\n\n    function getEventCapacity(uint256 eventId) public view validEventId(eventId) returns (uint256) {\n        return events[eventId].capacity;\n    }\n\n    function getEventTicketsLeft(uint256 eventId) public view validEventId(eventId) returns (uint256) {\n        return events[eventId].ticketsLeft;\n    }\n\n    function getEventTicketPrice(uint256 eventId) public view validEventId(eventId) returns (uint256) {\n        return events[eventId].priceOfTicket;\n    }\n    \n    function getEventSeller(uint256 eventId) public view validEventId(eventId) returns (address) {\n        return events[eventId].seller;\n    }\n\n\n    function endEvent(uint256 eventId) public validEventId(eventId) {\n        // return of deposit value done at Platform\n        // only call this function at Platform\n        delete events[eventId];\n    }\n    \n    function getEventBidState(uint256 eventId) public view validEventId(eventId) returns (bidState) {\n        return events[eventId].state;\n    }\n\n    function setEventBidState(uint256 eventId, bidState bstate) public validEventId(eventId) {\n        events[eventId].state = bstate;\n    }\n}\n\n",
  "sourcePath": "C:\\Users\\jd98_\\OneDrive\\Desktop\\IS4302\\proj\\contracts\\Event.sol",
  "compiler": {
    "name": "solc",
    "version": "0.5.17+commit.d19bba13.Emscripten.clang"
  },
  "schemaVersion": "3.4.11",
  "updatedAt": "2023-03-27T15:14:37.707Z",
  "devdoc": {
    "methods": {}
  },
  "userdoc": {
    "methods": {}
  }
}