{
  "contractName": "Event",
  "abi": [
    {
      "inputs": [
        {
          "internalType": "contract Ticket",
          "name": "ticketAddress",
          "type": "address"
        }
      ],
      "payable": false,
      "stateMutability": "nonpayable",
      "type": "constructor"
    },
    {
      "constant": true,
      "inputs": [
        {
          "internalType": "uint256",
          "name": "",
          "type": "uint256"
        }
      ],
      "name": "events",
      "outputs": [
        {
          "internalType": "string",
          "name": "title",
          "type": "string"
        },
        {
          "internalType": "string",
          "name": "venue",
          "type": "string"
        },
        {
          "internalType": "uint256",
          "name": "dateAndTime",
          "type": "uint256"
        },
        {
          "internalType": "uint256",
          "name": "capacity",
          "type": "uint256"
        },
        {
          "internalType": "uint256",
          "name": "ticketsLeft",
          "type": "uint256"
        },
        {
          "internalType": "uint256",
          "name": "priceOfTicket",
          "type": "uint256"
        },
        {
          "internalType": "address",
          "name": "seller",
          "type": "address"
        }
      ],
      "payable": false,
      "stateMutability": "view",
      "type": "function"
    },
    {
      "constant": true,
      "inputs": [],
      "name": "numEvents",
      "outputs": [
        {
          "internalType": "uint256",
          "name": "",
          "type": "uint256"
        }
      ],
      "payable": false,
      "stateMutability": "view",
      "type": "function"
    },
    {
      "constant": false,
      "inputs": [
        {
          "internalType": "string",
          "name": "title",
          "type": "string"
        },
        {
          "internalType": "string",
          "name": "venue",
          "type": "string"
        },
        {
          "internalType": "uint256",
          "name": "year",
          "type": "uint256"
        },
        {
          "internalType": "uint256",
          "name": "month",
          "type": "uint256"
        },
        {
          "internalType": "uint256",
          "name": "day",
          "type": "uint256"
        },
        {
          "internalType": "uint256",
          "name": "hour",
          "type": "uint256"
        },
        {
          "internalType": "uint256",
          "name": "minute",
          "type": "uint256"
        },
        {
          "internalType": "uint256",
          "name": "second",
          "type": "uint256"
        },
        {
          "internalType": "uint256",
          "name": "capacity",
          "type": "uint256"
        },
        {
          "internalType": "uint256",
          "name": "ticketsLeft",
          "type": "uint256"
        },
        {
          "internalType": "uint256",
          "name": "priceOfTicket",
          "type": "uint256"
        },
        {
          "internalType": "address",
          "name": "seller",
          "type": "address"
        }
      ],
      "name": "createEvent",
      "outputs": [
        {
          "internalType": "uint256",
          "name": "",
          "type": "uint256"
        }
      ],
      "payable": false,
      "stateMutability": "nonpayable",
      "type": "function"
    },
    {
      "constant": false,
      "inputs": [
        {
          "internalType": "uint256",
          "name": "eventId",
          "type": "uint256"
        },
        {
          "internalType": "uint256",
          "name": "price",
          "type": "uint256"
        },
        {
          "internalType": "enum Ticket.category",
          "name": "cat",
          "type": "uint8"
        },
        {
          "internalType": "uint256",
          "name": "numOfTickets",
          "type": "uint256"
        }
      ],
      "name": "generateEventTickets",
      "outputs": [],
      "payable": false,
      "stateMutability": "nonpayable",
      "type": "function"
    },
    {
      "constant": true,
      "inputs": [
        {
          "internalType": "uint256",
          "name": "eventId",
          "type": "uint256"
        }
      ],
      "name": "getEventTitle",
      "outputs": [
        {
          "internalType": "string",
          "name": "",
          "type": "string"
        }
      ],
      "payable": false,
      "stateMutability": "view",
      "type": "function"
    },
    {
      "constant": true,
      "inputs": [
        {
          "internalType": "uint256",
          "name": "eventId",
          "type": "uint256"
        }
      ],
      "name": "getEventVenue",
      "outputs": [
        {
          "internalType": "string",
          "name": "",
          "type": "string"
        }
      ],
      "payable": false,
      "stateMutability": "view",
      "type": "function"
    },
    {
      "constant": true,
      "inputs": [
        {
          "internalType": "uint256",
          "name": "eventId",
          "type": "uint256"
        }
      ],
      "name": "getEventDateAndTime",
      "outputs": [
        {
          "internalType": "uint256",
          "name": "",
          "type": "uint256"
        },
        {
          "internalType": "uint256",
          "name": "",
          "type": "uint256"
        },
        {
          "internalType": "uint256",
          "name": "",
          "type": "uint256"
        },
        {
          "internalType": "uint256",
          "name": "",
          "type": "uint256"
        },
        {
          "internalType": "uint256",
          "name": "",
          "type": "uint256"
        },
        {
          "internalType": "uint256",
          "name": "",
          "type": "uint256"
        }
      ],
      "payable": false,
      "stateMutability": "view",
      "type": "function"
    },
    {
      "constant": true,
      "inputs": [
        {
          "internalType": "uint256",
          "name": "eventId",
          "type": "uint256"
        }
      ],
      "name": "getEventCapacity",
      "outputs": [
        {
          "internalType": "uint256",
          "name": "",
          "type": "uint256"
        }
      ],
      "payable": false,
      "stateMutability": "view",
      "type": "function"
    },
    {
      "constant": true,
      "inputs": [
        {
          "internalType": "uint256",
          "name": "eventId",
          "type": "uint256"
        }
      ],
      "name": "getEventTicketsLeft",
      "outputs": [
        {
          "internalType": "uint256",
          "name": "",
          "type": "uint256"
        }
      ],
      "payable": false,
      "stateMutability": "view",
      "type": "function"
    },
    {
      "constant": true,
      "inputs": [
        {
          "internalType": "uint256",
          "name": "eventId",
          "type": "uint256"
        }
      ],
      "name": "getEventSeller",
      "outputs": [
        {
          "internalType": "address",
          "name": "",
          "type": "address"
        }
      ],
      "payable": false,
      "stateMutability": "view",
      "type": "function"
    }
  ],
  "bytecode": "0x6080604052600060015534801561001557600080fd5b5060405161116d38038061116d8339818101604052602081101561003857600080fd5b8101908080519060200190929190505050806000806101000a81548173ffffffffffffffffffffffffffffffffffffffff021916908373ffffffffffffffffffffffffffffffffffffffff160217905550506110d4806100996000396000f3fe608060405234801561001057600080fd5b506004361061009e5760003560e01c8063836c0ea711610066578063836c0ea71461030c578063afaddf8f146103b3578063d14b3c6d14610421578063df64717814610602578063e9c93dbc146106a95761009e565b8063046cbeec146100a3578063089cade7146100e55780630b7914301461014a57806334cf562b146102ac5780635788b400146102ca575b600080fd5b6100cf600480360360208110156100b957600080fd5b81019080803590602001909291905050506106f8565b6040518082815260200191505060405180910390f35b610111600480360360208110156100fb57600080fd5b8101908080359060200190929190505050610728565b60405180878152602001868152602001858152602001848152602001838152602001828152602001965050505050505060405180910390f35b6101766004803603602081101561016057600080fd5b8101908080359060200190929190505050610775565b6040518080602001806020018881526020018781526020018681526020018581526020018473ffffffffffffffffffffffffffffffffffffffff1673ffffffffffffffffffffffffffffffffffffffff16815260200183810383528a818151815260200191508051906020019080838360005b838110156102045780820151818401526020810190506101e9565b50505050905090810190601f1680156102315780820380516001836020036101000a031916815260200191505b50838103825289818151815260200191508051906020019080838360005b8381101561026a57808201518184015260208101905061024f565b50505050905090810190601f1680156102975780820380516001836020036101000a031916815260200191505b50995050505050505050505060405180910390f35b6102b4610907565b6040518082815260200191505060405180910390f35b6102f6600480360360208110156102e057600080fd5b810190808035906020019092919050505061090d565b6040518082815260200191505060405180910390f35b6103386004803603602081101561032257600080fd5b810190808035906020019092919050505061093d565b6040518080602001828103825283818151815260200191508051906020019080838360005b8381101561037857808201518184015260208101905061035d565b50505050905090810190601f1680156103a55780820380516001836020036101000a031916815260200191505b509250505060405180910390f35b6103df600480360360208110156103c957600080fd5b8101908080359060200190929190505050610a05565b604051808273ffffffffffffffffffffffffffffffffffffffff1673ffffffffffffffffffffffffffffffffffffffff16815260200191505060405180910390f35b6105ec600480360361018081101561043857600080fd5b810190808035906020019064010000000081111561045557600080fd5b82018360208201111561046757600080fd5b8035906020019184600183028401116401000000008311171561048957600080fd5b91908080601f016020809104026020016040519081016040528093929190818152602001838380828437600081840152601f19601f820116905080830192505050505050509192919290803590602001906401000000008111156104ec57600080fd5b8201836020820111156104fe57600080fd5b8035906020019184600183028401116401000000008311171561052057600080fd5b91908080601f016020809104026020016040519081016040528093929190818152602001838380828437600081840152601f19601f820116905080830192505050505050509192919290803590602001909291908035906020019092919080359060200190929190803590602001909291908035906020019092919080359060200190929190803590602001909291908035906020019092919080359060200190929190803573ffffffffffffffffffffffffffffffffffffffff169060200190929190505050610a55565b6040518082815260200191505060405180910390f35b61062e6004803603602081101561061857600080fd5b8101908080359060200190929190505050610bae565b6040518080602001828103825283818151815260200191508051906020019080838360005b8381101561066e578082015181840152602081019050610653565b50505050905090810190601f16801561069b5780820380516001836020036101000a031916815260200191505b509250505060405180910390f35b6106f6600480360360808110156106bf57600080fd5b810190808035906020019092919080359060200190929190803560ff16906020019092919080359060200190929190505050610c76565b005b600081600154811061070957600080fd5b6002600084815260200190815260200160002060040154915050919050565b60008060008060008086600154811061074057600080fd5b61075f600260008a815260200190815260200160002060020154610d7e565b9650965096509650965096505091939550919395565b6002602052806000526040600020600091509050806000018054600181600116156101000203166002900480601f0160208091040260200160405190810160405280929190818152602001828054600181600116156101000203166002900480156108215780601f106107f657610100808354040283529160200191610821565b820191906000526020600020905b81548152906001019060200180831161080457829003601f168201915b505050505090806001018054600181600116156101000203166002900480601f0160208091040260200160405190810160405280929190818152602001828054600181600116156101000203166002900480156108bf5780601f10610894576101008083540402835291602001916108bf565b820191906000526020600020905b8154815290600101906020018083116108a257829003601f168201915b5050505050908060020154908060030154908060040154908060050154908060060160009054906101000a900473ffffffffffffffffffffffffffffffffffffffff16905087565b60015481565b600081600154811061091e57600080fd5b6002600084815260200190815260200160002060030154915050919050565b606081600154811061094e57600080fd5b600260008481526020019081526020016000206001018054600181600116156101000203166002900480601f0160208091040260200160405190810160405280929190818152602001828054600181600116156101000203166002900480156109f85780601f106109cd576101008083540402835291602001916109f8565b820191906000526020600020905b8154815290600101906020018083116109db57829003601f168201915b5050505050915050919050565b6000816001548110610a1657600080fd5b6002600084815260200190815260200160002060060160009054906101000a900473ffffffffffffffffffffffffffffffffffffffff16915050919050565b6000610a5f610fa7565b6040518060e001604052808f81526020018e8152602001610a848e8e8e8e8e8e610df9565b81526020018781526020018681526020018581526020018473ffffffffffffffffffffffffffffffffffffffff16815250905060006001600081548092919060010191905055905081600260008381526020019081526020016000206000820151816000019080519060200190610afc929190610ffa565b506020820151816001019080519060200190610b19929190610ffa565b5060408201518160020155606082015181600301556080820151816004015560a0820151816005015560c08201518160060160006101000a81548173ffffffffffffffffffffffffffffffffffffffff021916908373ffffffffffffffffffffffffffffffffffffffff160217905550905050610b998186600189610c76565b80925050509c9b505050505050505050505050565b6060816001548110610bbf57600080fd5b600260008481526020019081526020016000206000018054600181600116156101000203166002900480601f016020809104026020016040519081016040528092919081815260200182805460018160011615610100020316600290048015610c695780601f10610c3e57610100808354040283529160200191610c69565b820191906000526020600020905b815481529060010190602001808311610c4c57829003601f168201915b5050505050915050919050565b836001548110610c8557600080fd5b60008090505b82811015610d76576000809054906101000a900473ffffffffffffffffffffffffffffffffffffffff1673ffffffffffffffffffffffffffffffffffffffff1663b48630c2878787856040518563ffffffff1660e01b815260040180858152602001848152602001836002811115610cff57fe5b60ff168152602001828152602001945050505050602060405180830381600087803b158015610d2d57600080fd5b505af1158015610d41573d6000803e3d6000fd5b505050506040513d6020811015610d5757600080fd5b8101908080519060200190929190505050508080600101915050610c8b565b505050505050565b600080600080600080610d9c620151808881610d9657fe5b04610e24565b8096508197508298505050506000620151808881610db657fe5b069050610e108181610dc457fe5b049350610e108181610dd257fe5b069050603c8181610ddf57fe5b049250603c8181610dec57fe5b0691505091939550919395565b600081603c8402610e10860262015180610e148b8b8b610ef8565b0201010190509695505050505050565b600080600080849050600062253d8c62010bd98301019050600062023ab18260040281610e4d57fe5b059050600460038262023ab1020181610e6257fe5b0582039150600062164b0960018401610fa00281610e7c57fe5b059050601f6004826105b50281610e8f57fe5b058403019250600061098f8460500281610ea557fe5b059050600060508261098f0281610eb857fe5b0585039050600b8281610ec757fe5b05945084600c0260028301039150848360318603606402010192508298508197508096505050505050509193909250565b60006107b2841015610f0957600080fd5b600084905060008490506000849050600062253d8c60046064600c600e870381610f2f57fe5b0561132488010181610f3d57fe5b0560030281610f4857fe5b05600c80600c600e880381610f5957fe5b0502600287030361016f0281610f6b57fe5b056004600c600e880381610f7b57fe5b056112c08901016105b50281610f8d57fe5b05617d4b8603010103039050809450505050509392505050565b6040518060e00160405280606081526020016060815260200160008152602001600081526020016000815260200160008152602001600073ffffffffffffffffffffffffffffffffffffffff1681525090565b828054600181600116156101000203166002900490600052602060002090601f016020900481019282601f1061103b57805160ff1916838001178555611069565b82800160010185558215611069579182015b8281111561106857825182559160200191906001019061104d565b5b509050611076919061107a565b5090565b61109c91905b80821115611098576000816000905550600101611080565b5090565b9056fea265627a7a723158206313dba76260f90bfc2a36cd6210cc967d3ebf55852682131aa0bd2144883cec64736f6c63430005110032",
  "source": "pragma solidity ^0.5.0;\r\n\r\nimport \"./DateTime.sol\";\r\nimport \"./Ticket.sol\";\r\n\r\ncontract Event {\r\n\r\n    Ticket ticketContract;\r\n\r\n    constructor(Ticket ticketAddress) public {\r\n        ticketContract = ticketAddress;\r\n    }\r\n\r\n    struct eventObj {\r\n        string title;\r\n        string venue;\r\n        uint256 dateAndTime;\r\n        uint256 capacity;\r\n        uint256 ticketsLeft;\r\n        uint256 priceOfTicket;\r\n        address seller;\r\n    }\r\n\r\n    uint256 public numEvents = 0;\r\n    mapping(uint256 => eventObj) public events;\r\n\r\n    function createEvent(\r\n        string memory title,\r\n        string memory venue,\r\n        uint256 year, uint256 month, uint256 day, uint256 hour, uint256 minute, uint256 second,\r\n        uint256 capacity,\r\n        uint256 ticketsLeft,\r\n        uint256 priceOfTicket,\r\n        address seller\r\n    ) public returns (uint256) {\r\n        // require creation fee in terms of tokens?\r\n        // require(msg.sender == platformOwner/seller?)\r\n\r\n        // require input validation for parameters Eg. datetime\r\n\r\n        eventObj memory newEvent = eventObj(\r\n            title,\r\n            venue,\r\n            DateTime.timestampFromDateTime(year, month, day, hour, minute, second),\r\n            capacity,\r\n            ticketsLeft,\r\n            priceOfTicket,\r\n            seller\r\n        );\r\n\r\n        uint256 newEventId = numEvents++;\r\n        events[newEventId] = newEvent;\r\n        // transfer creation fee?\r\n\r\n        // Generate Tickets\r\n        generateEventTickets(newEventId, priceOfTicket, Ticket.category.standard, ticketsLeft);\r\n\r\n        return newEventId;\r\n    }\r\n\r\n    modifier validEventId(uint256 eventId) {\r\n        require(eventId < numEvents);\r\n        _;\r\n    }\r\n\r\n    function generateEventTickets(uint256 eventId, uint256 price, Ticket.category cat, uint256 numOfTickets) public validEventId(eventId) {\r\n        for (uint256 i = 0; i < numOfTickets; i++) {\r\n            ticketContract.add(eventId, price, cat, i);\r\n        }\r\n    } \r\n\r\n    function getEventTitle(uint256 eventId) public view validEventId(eventId) returns (string memory) {\r\n        return events[eventId].title;\r\n    }\r\n\r\n    function getEventVenue(uint256 eventId) public view validEventId(eventId) returns (string memory) {\r\n        return events[eventId].venue;\r\n    }\r\n\r\n    function getEventDateAndTime(uint256 eventId) public view validEventId(eventId) returns (uint256, uint256, uint256, uint256, uint256, uint256) {\r\n        return DateTime.timestampToDateTime(events[eventId].dateAndTime);\r\n    }\r\n\r\n    function getEventCapacity(uint256 eventId) public view validEventId(eventId) returns (uint256) {\r\n        return events[eventId].capacity;\r\n    }\r\n\r\n    function getEventTicketsLeft(uint256 eventId) public view validEventId(eventId) returns (uint256) {\r\n        return events[eventId].ticketsLeft;\r\n    }\r\n    \r\n    function getEventSeller(uint256 eventId) public view validEventId(eventId) returns (address) {\r\n        return events[eventId].seller;\r\n    }\r\n}\r\n\r\n",
  "sourcePath": "C:\\Users\\remus\\Desktop\\3.2\\IS4302\\Project\\contracts\\Event.sol",
  "compiler": {
    "name": "solc",
    "version": "0.5.17+commit.d19bba13.Emscripten.clang"
  },
  "schemaVersion": "3.4.11",
  "updatedAt": "2023-03-17T19:02:39.875Z",
  "devdoc": {
    "methods": {}
  },
  "userdoc": {
    "methods": {}
  }
}