{
  "contractName": "Event",
  "abi": [
    {
      "inputs": [
        {
          "internalType": "contract Ticket",
          "name": "ticketAddress",
          "type": "address"
        }
      ],
      "payable": false,
      "stateMutability": "nonpayable",
      "type": "constructor"
    },
    {
      "constant": true,
      "inputs": [
        {
          "internalType": "uint256",
          "name": "",
          "type": "uint256"
        }
      ],
      "name": "events",
      "outputs": [
        {
          "internalType": "string",
          "name": "title",
          "type": "string"
        },
        {
          "internalType": "string",
          "name": "venue",
          "type": "string"
        },
        {
          "internalType": "uint256",
          "name": "dateAndTime",
          "type": "uint256"
        },
        {
          "internalType": "uint256",
          "name": "capacity",
          "type": "uint256"
        },
        {
          "internalType": "uint256",
          "name": "ticketsLeft",
          "type": "uint256"
        },
        {
          "internalType": "uint256",
          "name": "priceOfTicket",
          "type": "uint256"
        },
        {
          "internalType": "address",
          "name": "seller",
          "type": "address"
        },
        {
          "internalType": "enum Event.bidState",
          "name": "state",
          "type": "uint8"
        },
        {
          "internalType": "uint256",
          "name": "firstTicketId",
          "type": "uint256"
        }
      ],
      "payable": false,
      "stateMutability": "view",
      "type": "function"
    },
    {
      "constant": true,
      "inputs": [],
      "name": "numEvents",
      "outputs": [
        {
          "internalType": "uint256",
          "name": "",
          "type": "uint256"
        }
      ],
      "payable": false,
      "stateMutability": "view",
      "type": "function"
    },
    {
      "constant": false,
      "inputs": [
        {
          "internalType": "string",
          "name": "title",
          "type": "string"
        },
        {
          "internalType": "string",
          "name": "venue",
          "type": "string"
        },
        {
          "internalType": "uint256",
          "name": "year",
          "type": "uint256"
        },
        {
          "internalType": "uint256",
          "name": "month",
          "type": "uint256"
        },
        {
          "internalType": "uint256",
          "name": "day",
          "type": "uint256"
        },
        {
          "internalType": "uint256",
          "name": "hour",
          "type": "uint256"
        },
        {
          "internalType": "uint256",
          "name": "minute",
          "type": "uint256"
        },
        {
          "internalType": "uint256",
          "name": "second",
          "type": "uint256"
        },
        {
          "internalType": "uint256",
          "name": "capacity",
          "type": "uint256"
        },
        {
          "internalType": "uint256",
          "name": "priceOfTicket",
          "type": "uint256"
        },
        {
          "internalType": "address",
          "name": "seller",
          "type": "address"
        }
      ],
      "name": "createEvent",
      "outputs": [
        {
          "internalType": "uint256",
          "name": "",
          "type": "uint256"
        }
      ],
      "payable": false,
      "stateMutability": "nonpayable",
      "type": "function"
    },
    {
      "constant": false,
      "inputs": [
        {
          "internalType": "address",
          "name": "owner",
          "type": "address"
        },
        {
          "internalType": "uint256",
          "name": "eventId",
          "type": "uint256"
        },
        {
          "internalType": "uint256",
          "name": "price",
          "type": "uint256"
        },
        {
          "internalType": "enum Ticket.category",
          "name": "cat",
          "type": "uint8"
        },
        {
          "internalType": "uint256",
          "name": "numOfTickets",
          "type": "uint256"
        }
      ],
      "name": "generateEventTickets",
      "outputs": [
        {
          "internalType": "uint256",
          "name": "",
          "type": "uint256"
        }
      ],
      "payable": false,
      "stateMutability": "nonpayable",
      "type": "function"
    },
    {
      "constant": true,
      "inputs": [
        {
          "internalType": "uint256",
          "name": "eventId",
          "type": "uint256"
        }
      ],
      "name": "isEventIdValid",
      "outputs": [
        {
          "internalType": "bool",
          "name": "",
          "type": "bool"
        }
      ],
      "payable": false,
      "stateMutability": "view",
      "type": "function"
    },
    {
      "constant": true,
      "inputs": [
        {
          "internalType": "uint256",
          "name": "eventId",
          "type": "uint256"
        }
      ],
      "name": "getEventTitle",
      "outputs": [
        {
          "internalType": "string",
          "name": "",
          "type": "string"
        }
      ],
      "payable": false,
      "stateMutability": "view",
      "type": "function"
    },
    {
      "constant": true,
      "inputs": [
        {
          "internalType": "uint256",
          "name": "eventId",
          "type": "uint256"
        }
      ],
      "name": "getEventVenue",
      "outputs": [
        {
          "internalType": "string",
          "name": "",
          "type": "string"
        }
      ],
      "payable": false,
      "stateMutability": "view",
      "type": "function"
    },
    {
      "constant": true,
      "inputs": [
        {
          "internalType": "uint256",
          "name": "eventId",
          "type": "uint256"
        }
      ],
      "name": "getEventDateAndTime",
      "outputs": [
        {
          "internalType": "uint256",
          "name": "",
          "type": "uint256"
        },
        {
          "internalType": "uint256",
          "name": "",
          "type": "uint256"
        },
        {
          "internalType": "uint256",
          "name": "",
          "type": "uint256"
        },
        {
          "internalType": "uint256",
          "name": "",
          "type": "uint256"
        },
        {
          "internalType": "uint256",
          "name": "",
          "type": "uint256"
        },
        {
          "internalType": "uint256",
          "name": "",
          "type": "uint256"
        }
      ],
      "payable": false,
      "stateMutability": "view",
      "type": "function"
    },
    {
      "constant": true,
      "inputs": [
        {
          "internalType": "uint256",
          "name": "eventId",
          "type": "uint256"
        }
      ],
      "name": "getEventCapacity",
      "outputs": [
        {
          "internalType": "uint256",
          "name": "",
          "type": "uint256"
        }
      ],
      "payable": false,
      "stateMutability": "view",
      "type": "function"
    },
    {
      "constant": true,
      "inputs": [
        {
          "internalType": "uint256",
          "name": "eventId",
          "type": "uint256"
        }
      ],
      "name": "getEventTicketsLeft",
      "outputs": [
        {
          "internalType": "uint256",
          "name": "",
          "type": "uint256"
        }
      ],
      "payable": false,
      "stateMutability": "view",
      "type": "function"
    },
    {
      "constant": true,
      "inputs": [
        {
          "internalType": "uint256",
          "name": "eventId",
          "type": "uint256"
        }
      ],
      "name": "getEventTicketPrice",
      "outputs": [
        {
          "internalType": "uint256",
          "name": "",
          "type": "uint256"
        }
      ],
      "payable": false,
      "stateMutability": "view",
      "type": "function"
    },
    {
      "constant": true,
      "inputs": [
        {
          "internalType": "uint256",
          "name": "eventId",
          "type": "uint256"
        }
      ],
      "name": "getEventSeller",
      "outputs": [
        {
          "internalType": "address",
          "name": "",
          "type": "address"
        }
      ],
      "payable": false,
      "stateMutability": "view",
      "type": "function"
    },
    {
      "constant": true,
      "inputs": [
        {
          "internalType": "uint256",
          "name": "eventId",
          "type": "uint256"
        }
      ],
      "name": "getEventBidState",
      "outputs": [
        {
          "internalType": "enum Event.bidState",
          "name": "",
          "type": "uint8"
        }
      ],
      "payable": false,
      "stateMutability": "view",
      "type": "function"
    },
    {
      "constant": true,
      "inputs": [
        {
          "internalType": "uint256",
          "name": "eventId",
          "type": "uint256"
        }
      ],
      "name": "getEventFirstTicketId",
      "outputs": [
        {
          "internalType": "uint256",
          "name": "",
          "type": "uint256"
        }
      ],
      "payable": false,
      "stateMutability": "view",
      "type": "function"
    },
    {
      "constant": false,
      "inputs": [
        {
          "internalType": "uint256",
          "name": "eventId",
          "type": "uint256"
        },
        {
          "internalType": "enum Event.bidState",
          "name": "bstate",
          "type": "uint8"
        }
      ],
      "name": "setEventBidState",
      "outputs": [],
      "payable": false,
      "stateMutability": "nonpayable",
      "type": "function"
    },
    {
      "constant": false,
      "inputs": [
        {
          "internalType": "uint256",
          "name": "eventId",
          "type": "uint256"
        },
        {
          "internalType": "uint256",
          "name": "ticketId",
          "type": "uint256"
        }
      ],
      "name": "setEventFirstTicketId",
      "outputs": [],
      "payable": false,
      "stateMutability": "nonpayable",
      "type": "function"
    },
    {
      "constant": false,
      "inputs": [
        {
          "internalType": "uint256",
          "name": "eventId",
          "type": "uint256"
        },
        {
          "internalType": "uint256",
          "name": "ticketsLeft",
          "type": "uint256"
        }
      ],
      "name": "setEventTicketsLeft",
      "outputs": [],
      "payable": false,
      "stateMutability": "nonpayable",
      "type": "function"
    },
    {
      "constant": false,
      "inputs": [
        {
          "internalType": "uint256",
          "name": "eventId",
          "type": "uint256"
        }
      ],
      "name": "endEvent",
      "outputs": [],
      "payable": false,
      "stateMutability": "nonpayable",
      "type": "function"
    },
    {
      "constant": true,
      "inputs": [],
      "name": "getLatestEventId",
      "outputs": [
        {
          "internalType": "uint256",
          "name": "",
          "type": "uint256"
        }
      ],
      "payable": false,
      "stateMutability": "view",
      "type": "function"
    }
  ],
  "bytecode": "0x6080604052600060015534801561001557600080fd5b506040516119063803806119068339818101604052602081101561003857600080fd5b8101908080519060200190929190505050806000806101000a81548173ffffffffffffffffffffffffffffffffffffffff021916908373ffffffffffffffffffffffffffffffffffffffff1602179055505061186d806100996000396000f3fe608060405234801561001057600080fd5b50600436106101215760003560e01c8063836c0ea7116100ad578063bf73e8af11610071578063bf73e8af14610646578063d9c6b219146106c9578063df64717814610704578063ee6d30a1146107ab578063f4a1ad161461098257610121565b8063836c0ea714610499578063a52f91f914610540578063af71a95814610582578063afaddf8f146105ba578063b0d13da61461062857610121565b8063330a347b116100f4578063330a347b1461039157806334cf562b146103bf5780635788b400146103dd5780635f5af9f71461041f5780636459d3b41461045757610121565b806301d3cf6814610126578063046cbeec1461016c578063089cade7146101ae5780630b79143014610213575b600080fd5b6101526004803603602081101561013c57600080fd5b81019080803590602001909291905050506109d2565b604051808215151515815260200191505060405180910390f35b6101986004803603602081101561018257600080fd5b81019080803590602001909291905050506109e0565b6040518082815260200191505060405180910390f35b6101da600480360360208110156101c457600080fd5b8101908080359060200190929190505050610a10565b60405180878152602001868152602001858152602001848152602001838152602001828152602001965050505050505060405180910390f35b61023f6004803603602081101561022957600080fd5b8101908080359060200190929190505050610a5d565b6040518080602001806020018a81526020018981526020018881526020018781526020018673ffffffffffffffffffffffffffffffffffffffff1673ffffffffffffffffffffffffffffffffffffffff1681526020018560028111156102a157fe5b60ff16815260200184815260200183810383528c818151815260200191508051906020019080838360005b838110156102e75780820151818401526020810190506102cc565b50505050905090810190601f1680156103145780820380516001836020036101000a031916815260200191505b5083810382528b818151815260200191508051906020019080838360005b8381101561034d578082015181840152602081019050610332565b50505050905090810190601f16801561037a5780820380516001836020036101000a031916815260200191505b509b50505050505050505050505060405180910390f35b6103bd600480360360208110156103a757600080fd5b8101908080359060200190929190505050610c08565b005b6103c7610cb4565b6040518082815260200191505060405180910390f35b610409600480360360208110156103f357600080fd5b8101908080359060200190929190505050610cba565b6040518082815260200191505060405180910390f35b6104556004803603604081101561043557600080fd5b810190808035906020019092919080359060200190929190505050610cea565b005b6104836004803603602081101561046d57600080fd5b8101908080359060200190929190505050610d19565b6040518082815260200191505060405180910390f35b6104c5600480360360208110156104af57600080fd5b8101908080359060200190929190505050610d49565b6040518080602001828103825283818151815260200191508051906020019080838360005b838110156105055780820151818401526020810190506104ea565b50505050905090810190601f1680156105325780820380516001836020036101000a031916815260200191505b509250505060405180910390f35b61056c6004803603602081101561055657600080fd5b8101908080359060200190929190505050610e11565b6040518082815260200191505060405180910390f35b6105b86004803603604081101561059857600080fd5b810190808035906020019092919080359060200190929190505050610e41565b005b6105e6600480360360208110156105d057600080fd5b8101908080359060200190929190505050610e70565b604051808273ffffffffffffffffffffffffffffffffffffffff1673ffffffffffffffffffffffffffffffffffffffff16815260200191505060405180910390f35b610630610ec0565b6040518082815260200191505060405180910390f35b6106b3600480360360a081101561065c57600080fd5b81019080803573ffffffffffffffffffffffffffffffffffffffff1690602001909291908035906020019092919080359060200190929190803560ff16906020019092919080359060200190929190505050610ecc565b6040518082815260200191505060405180910390f35b610702600480360360408110156106df57600080fd5b8101908080359060200190929190803560ff16906020019092919050505061112d565b005b6107306004803603602081101561071a57600080fd5b8101908080359060200190929190505050611178565b6040518080602001828103825283818151815260200191508051906020019080838360005b83811015610770578082015181840152602081019050610755565b50505050905090810190601f16801561079d5780820380516001836020036101000a031916815260200191505b509250505060405180910390f35b61096c60048036036101608110156107c257600080fd5b81019080803590602001906401000000008111156107df57600080fd5b8201836020820111156107f157600080fd5b8035906020019184600183028401116401000000008311171561081357600080fd5b91908080601f016020809104026020016040519081016040528093929190818152602001838380828437600081840152601f19601f8201169050808301925050505050505091929192908035906020019064010000000081111561087657600080fd5b82018360208201111561088857600080fd5b803590602001918460018302840111640100000000831117156108aa57600080fd5b91908080601f016020809104026020016040519081016040528093929190818152602001838380828437600081840152601f19601f8201169050808301925050505050505091929192908035906020019092919080359060200190929190803590602001909291908035906020019092919080359060200190929190803590602001909291908035906020019092919080359060200190929190803573ffffffffffffffffffffffffffffffffffffffff169060200190929190505050611240565b6040518082815260200191505060405180910390f35b6109ae6004803603602081101561099857600080fd5b8101908080359060200190929190505050611478565b604051808260028111156109be57fe5b60ff16815260200191505060405180910390f35b600060015482109050919050565b60008160015481106109f157600080fd5b6002600084815260200190815260200160002060040154915050919050565b600080600080600080866001548110610a2857600080fd5b610a47600260008a8152602001908152602001600020600201546114b5565b9650965096509650965096505091939550919395565b6002602052806000526040600020600091509050806000018054600181600116156101000203166002900480601f016020809104026020016040519081016040528092919081815260200182805460018160011615610100020316600290048015610b095780601f10610ade57610100808354040283529160200191610b09565b820191906000526020600020905b815481529060010190602001808311610aec57829003601f168201915b505050505090806001018054600181600116156101000203166002900480601f016020809104026020016040519081016040528092919081815260200182805460018160011615610100020316600290048015610ba75780601f10610b7c57610100808354040283529160200191610ba7565b820191906000526020600020905b815481529060010190602001808311610b8a57829003601f168201915b5050505050908060020154908060030154908060040154908060050154908060060160009054906101000a900473ffffffffffffffffffffffffffffffffffffffff16908060060160149054906101000a900460ff16908060070154905089565b806001548110610c1757600080fd5b6002600083815260200190815260200160002060008082016000610c3b91906116de565b600182016000610c4b91906116de565b60028201600090556003820160009055600482016000905560058201600090556006820160006101000a81549073ffffffffffffffffffffffffffffffffffffffff02191690556006820160146101000a81549060ff0219169055600782016000905550505050565b60015481565b6000816001548110610ccb57600080fd5b6002600084815260200190815260200160002060030154915050919050565b816001548110610cf957600080fd5b816002600085815260200190815260200160002060070181905550505050565b6000816001548110610d2a57600080fd5b6002600084815260200190815260200160002060050154915050919050565b6060816001548110610d5a57600080fd5b600260008481526020019081526020016000206001018054600181600116156101000203166002900480601f016020809104026020016040519081016040528092919081815260200182805460018160011615610100020316600290048015610e045780601f10610dd957610100808354040283529160200191610e04565b820191906000526020600020905b815481529060010190602001808311610de757829003601f168201915b5050505050915050919050565b6000816001548110610e2257600080fd5b6002600084815260200190815260200160002060070154915050919050565b816001548110610e5057600080fd5b816002600085815260200190815260200160002060040181905550505050565b6000816001548110610e8157600080fd5b6002600084815260200190815260200160002060060160009054906101000a900473ffffffffffffffffffffffffffffffffffffffff16915050919050565b60006001805403905090565b6000846001548110610edd57600080fd5b600080600090505b8481101561111e576000811415611006576000809054906101000a900473ffffffffffffffffffffffffffffffffffffffff1673ffffffffffffffffffffffffffffffffffffffff1663389b62aa8a8a8a8a866040518663ffffffff1660e01b8152600401808673ffffffffffffffffffffffffffffffffffffffff1673ffffffffffffffffffffffffffffffffffffffff168152602001858152602001848152602001836002811115610f9557fe5b60ff16815260200182815260200195505050505050602060405180830381600087803b158015610fc457600080fd5b505af1158015610fd8573d6000803e3d6000fd5b505050506040513d6020811015610fee57600080fd5b81019080805190602001909291905050509150611111565b6000809054906101000a900473ffffffffffffffffffffffffffffffffffffffff1673ffffffffffffffffffffffffffffffffffffffff1663389b62aa8a8a8a8a866040518663ffffffff1660e01b8152600401808673ffffffffffffffffffffffffffffffffffffffff1673ffffffffffffffffffffffffffffffffffffffff1681526020018581526020018481526020018360028111156110a557fe5b60ff16815260200182815260200195505050505050602060405180830381600087803b1580156110d457600080fd5b505af11580156110e8573d6000803e3d6000fd5b505050506040513d60208110156110fe57600080fd5b8101908080519060200190929190505050505b8080600101915050610ee5565b50809250505095945050505050565b81600154811061113c57600080fd5b816002600085815260200190815260200160002060060160146101000a81548160ff0219169083600281111561116e57fe5b0217905550505050565b606081600154811061118957600080fd5b600260008481526020019081526020016000206000018054600181600116156101000203166002900480601f0160208091040260200160405190810160405280929190818152602001828054600181600116156101000203166002900480156112335780601f1061120857610100808354040283529160200191611233565b820191906000526020600020905b81548152906001019060200180831161121657829003601f168201915b5050505050915050919050565b6000426112518b8b8b8b8b8b611530565b116112c4576040517f08c379a00000000000000000000000000000000000000000000000000000000081526004018080602001828103825260158152602001807f496e76616c6964204461746520616e642054696d65000000000000000000000081525060200191505060405180910390fd5b6112cc611726565b6040518061012001604052808e81526020018d81526020016112f28d8d8d8d8d8d611530565b81526020018681526020018681526020018581526020018473ffffffffffffffffffffffffffffffffffffffff1681526020016000600281111561133257fe5b81526020016000815250905060006001600081548092919060010191905055905081600260008381526020019081526020016000206000820151816000019080519060200190611383929190611793565b5060208201518160010190805190602001906113a0929190611793565b5060408201518160020155606082015181600301556080820151816004015560a0820151816005015560c08201518160060160006101000a81548173ffffffffffffffffffffffffffffffffffffffff021916908373ffffffffffffffffffffffffffffffffffffffff16021790555060e08201518160060160146101000a81548160ff0219169083600281111561143457fe5b02179055506101008201518160070155905050600061145733838860018b610ecc565b90506114638282610cea565b8193505050509b9a5050505050505050505050565b600081600154811061148957600080fd5b6002600084815260200190815260200160002060060160149054906101000a900460ff16915050919050565b6000806000806000806114d36201518088816114cd57fe5b0461155b565b80965081975082985050505060006201518088816114ed57fe5b069050610e1081816114fb57fe5b049350610e10818161150957fe5b069050603c818161151657fe5b049250603c818161152357fe5b0691505091939550919395565b600081603c8402610e1086026201518061154b8b8b8b61162f565b0201010190509695505050505050565b600080600080849050600062253d8c62010bd98301019050600062023ab1826004028161158457fe5b059050600460038262023ab102018161159957fe5b0582039150600062164b0960018401610fa002816115b357fe5b059050601f6004826105b502816115c657fe5b058403019250600061098f84605002816115dc57fe5b059050600060508261098f02816115ef57fe5b0585039050600b82816115fe57fe5b05945084600c0260028301039150848360318603606402010192508298508197508096505050505050509193909250565b60006107b284101561164057600080fd5b600084905060008490506000849050600062253d8c60046064600c600e87038161166657fe5b056113248801018161167457fe5b056003028161167f57fe5b05600c80600c600e88038161169057fe5b0502600287030361016f02816116a257fe5b056004600c600e8803816116b257fe5b056112c08901016105b502816116c457fe5b05617d4b8603010103039050809450505050509392505050565b50805460018160011615610100020316600290046000825580601f106117045750611723565b601f0160209004906000526020600020908101906117229190611813565b5b50565b604051806101200160405280606081526020016060815260200160008152602001600081526020016000815260200160008152602001600073ffffffffffffffffffffffffffffffffffffffff1681526020016000600281111561178657fe5b8152602001600081525090565b828054600181600116156101000203166002900490600052602060002090601f016020900481019282601f106117d457805160ff1916838001178555611802565b82800160010185558215611802579182015b828111156118015782518255916020019190600101906117e6565b5b50905061180f9190611813565b5090565b61183591905b80821115611831576000816000905550600101611819565b5090565b9056fea265627a7a72315820c81592da6074b57508d8ec7a35ce93ab1a400480f673452d056f037526548ef064736f6c63430005110032",
  "source": "pragma solidity ^0.5.0;\n\nimport \"./DateTime.sol\";\nimport \"./Ticket.sol\";\n\ncontract Event {\n\n    Ticket ticketContract;\n\n    constructor(Ticket ticketAddress) public {\n        ticketContract = ticketAddress;\n    }\n\n    /**\n     * enum containing 'bid' state\n     * close:       initial state\n     * open:        bidding commences\n     * buy:         bidding closed and buying enabled\n     */\n    enum bidState { close, open, buy }\n\n    /**\n     * param title          title of event\n     * param venue          venue where event will be held at\n     * param dataAndTime    date and time of event\n     * param capacity       capacity of event\n     * param ticketsLeft    event tickets left \n     * param priceOfTicket  price of ticket\n     * param seller         organiser / seller of event ticket   \n     * param bidState       state of bidding: close, open, buy\n     * param firstTicketId  id of first ticket sold\n     */\n    struct eventObj {\n        string title;\n        string venue;\n        uint256 dateAndTime;\n        uint256 capacity;\n        uint256 ticketsLeft;\n        uint256 priceOfTicket;\n        address seller;\n        bidState state;\n        uint256 firstTicketId;\n    }\n\n    uint256 public numEvents = 0; // Total number of events\n    mapping(uint256 => eventObj) public events; // Storing of events\n\n    // modifier to ensure eventId is valid\n    modifier validEventId(uint256 eventId) {\n        require(eventId < numEvents);\n        _;\n    }\n\n    /**\n     * creates a event and generates tickets\n     *\n     * param title                                      title of event\n     * param venue                                      venue where event will be held at\n     * param year, month, day, hour, minute, second     date and time of event\n     * param capacity                                   capacity of event\n     * param ticketsLeft                                event tickets left \n     * param priceOfTicket                              price of ticket\n     * param seller                                     organiser / seller of event ticket   \n     */\n    function createEvent(\n        string memory title,\n        string memory venue,\n        uint256 year, uint256 month, uint256 day, uint256 hour, uint256 minute, uint256 second,\n        uint256 capacity,\n        uint256 priceOfTicket,\n        address seller\n    ) public returns (uint256) {\n        require(DateTime.timestampFromDateTime(year, month, day, hour, minute, second) > now, \"Invalid Date and Time\");\n\n        eventObj memory newEvent = eventObj(\n            title,\n            venue,\n            DateTime.timestampFromDateTime(year, month, day, hour, minute, second),\n            capacity,\n            capacity,\n            priceOfTicket,\n            seller,\n            bidState.close,\n            0\n        );\n\n        uint256 newEventId = numEvents++;\n        events[newEventId] = newEvent;\n\n        // Generate Tickets\n        uint256 firstTicketId = generateEventTickets(msg.sender, newEventId, priceOfTicket, Ticket.category.standard, capacity);\n\n        setEventFirstTicketId(newEventId, firstTicketId);\n\n        return newEventId;\n    }\n\n    /**\n     * generate event tickets\n     *\n     * param owner          owner of tickets\n     * param eventId        id of event\n     * param price          price of ticket\n     * param cat            seat category of ticket\n     * param numOfTickets   event tickets available \n     */\n    function generateEventTickets(address owner, uint256 eventId, uint256 price, Ticket.category cat, uint256 numOfTickets) public validEventId(eventId) returns (uint256) {\n        uint256 firstTicketId;\n        for (uint256 i = 0; i < numOfTickets; i++) {\n            if (i == 0) {\n                firstTicketId = ticketContract.add(owner, eventId, price, cat, i);\n            } else {\n                ticketContract.add(owner, eventId, price, cat, i);\n            }\n        }\n        return firstTicketId;\n    } \n\n\n    /**\n     * check if eventId is valid\n     *\n     * param eventId    id of event\n     */\n    function isEventIdValid(uint256 eventId) public view returns(bool) {\n        return eventId < numEvents;\n    }\n\n    /**\n     * get title of event\n     *\n     * param eventId    id of event\n     */\n    function getEventTitle(uint256 eventId) public view validEventId(eventId) returns (string memory) {\n        return events[eventId].title;\n    }\n\n    /**\n     * get venue of event\n     *\n     * param eventId    id of event\n     */\n    function getEventVenue(uint256 eventId) public view validEventId(eventId) returns (string memory) {\n        return events[eventId].venue;\n    }\n\n    /**\n     * get date and time of event\n     *\n     * param eventId    id of event\n     */\n    function getEventDateAndTime(uint256 eventId) public view validEventId(eventId) returns (uint256, uint256, uint256, uint256, uint256, uint256) {\n        return DateTime.timestampToDateTime(events[eventId].dateAndTime);\n    }\n\n    /**\n     * get capacity of event\n     *\n     * param eventId    id of event\n     */\n    function getEventCapacity(uint256 eventId) public view validEventId(eventId) returns (uint256) {\n        return events[eventId].capacity;\n    }\n\n    /**\n     * get tickets left for event\n     *\n     * param eventId    id of event\n     */\n    function getEventTicketsLeft(uint256 eventId) public view validEventId(eventId) returns (uint256) {\n        return events[eventId].ticketsLeft;\n    }\n\n    /**\n     * get ticket price for event\n     *\n     * param eventId    id of event\n     */\n    function getEventTicketPrice(uint256 eventId) public view validEventId(eventId) returns (uint256) {\n        return events[eventId].priceOfTicket;\n    }\n    \n    /**\n     * get address of event seller\n     *\n     * param eventId    id of event\n     */\n    function getEventSeller(uint256 eventId) public view validEventId(eventId) returns (address) {\n        return events[eventId].seller;\n    }\n\n    /**\n     * get bid state of event\n     *\n     * param eventId    id of event\n     */\n    function getEventBidState(uint256 eventId) public view validEventId(eventId) returns (bidState) {\n        return events[eventId].state;\n    }\n\n    /**\n     * get first ticket id of event\n     *\n     * param eventId    id of event\n     */\n    function getEventFirstTicketId(uint256 eventId) public view validEventId(eventId) returns (uint256) {\n        return events[eventId].firstTicketId;\n    }\n\n    /**\n     * set bid state of event\n     *\n     * param eventId    id of event\n     * param bstate     bidstate\n     */\n    function setEventBidState(uint256 eventId, bidState bstate) public validEventId(eventId) {\n        events[eventId].state = bstate;\n    }\n\n    /**\n     * set first ticket id of event\n     *\n     * param eventId    id of event\n     * param ticketId   id of ticket\n     */\n    function setEventFirstTicketId(uint256 eventId, uint256 ticketId) public validEventId(eventId) {\n        events[eventId].firstTicketId = ticketId;\n    }\n\n    /**\n     * set tickets left for event\n     *\n     * param eventId        id of event\n     * param ticketsLeft    tickets left for event\n     */\n    function setEventTicketsLeft(uint256 eventId, uint256 ticketsLeft) public validEventId(eventId) {\n        events[eventId].ticketsLeft = ticketsLeft;\n    }\n\n    /**\n     * delete event after it ended\n     *\n     * param eventId    id of event\n     */\n    function endEvent(uint256 eventId) public validEventId(eventId) {\n        // return of deposit value done at Platform\n        // only call this function at Platform\n        delete events[eventId];\n    }\n\n    // get latest event id\n    function getLatestEventId() public view returns (uint256) {\n        return numEvents - 1;\n    }\n\n   \n}\n\n",
  "sourcePath": "C:\\Users\\jd98_\\OneDrive\\Desktop\\IS4302\\proj\\contracts\\Event.sol",
  "compiler": {
    "name": "solc",
    "version": "0.5.17+commit.d19bba13.Emscripten.clang"
  },
  "schemaVersion": "3.4.11",
  "updatedAt": "2023-04-05T14:51:55.056Z",
  "networkType": "ethereum",
  "devdoc": {
    "methods": {}
  },
  "userdoc": {
    "methods": {
      "createEvent(string,string,uint256,uint256,uint256,uint256,uint256,uint256,uint256,uint256,address)": {
        "notice": "creates a event and generates tickets     * param title                                      title of event param venue                                      venue where event will be held at param year, month, day, hour, minute, second     date and time of event param capacity                                   capacity of event param ticketsLeft                                event tickets left  param priceOfTicket                              price of ticket param seller                                     organiser / seller of event ticket   "
      },
      "endEvent(uint256)": {
        "notice": "delete event after it ended     * param eventId    id of event"
      },
      "generateEventTickets(address,uint256,uint256,uint8,uint256)": {
        "notice": "generate event tickets     * param owner          owner of tickets param eventId        id of event param price          price of ticket param cat            seat category of ticket param numOfTickets   event tickets available "
      },
      "getEventBidState(uint256)": {
        "notice": "get bid state of event     * param eventId    id of event"
      },
      "getEventCapacity(uint256)": {
        "notice": "get capacity of event     * param eventId    id of event"
      },
      "getEventDateAndTime(uint256)": {
        "notice": "get date and time of event     * param eventId    id of event"
      },
      "getEventFirstTicketId(uint256)": {
        "notice": "get first ticket id of event     * param eventId    id of event"
      },
      "getEventSeller(uint256)": {
        "notice": "get address of event seller     * param eventId    id of event"
      },
      "getEventTicketPrice(uint256)": {
        "notice": "get ticket price for event     * param eventId    id of event"
      },
      "getEventTicketsLeft(uint256)": {
        "notice": "get tickets left for event     * param eventId    id of event"
      },
      "getEventTitle(uint256)": {
        "notice": "get title of event     * param eventId    id of event"
      },
      "getEventVenue(uint256)": {
        "notice": "get venue of event     * param eventId    id of event"
      },
      "isEventIdValid(uint256)": {
        "notice": "check if eventId is valid     * param eventId    id of event"
      },
      "setEventBidState(uint256,uint8)": {
        "notice": "set bid state of event     * param eventId    id of event param bstate     bidstate"
      },
      "setEventFirstTicketId(uint256,uint256)": {
        "notice": "set first ticket id of event     * param eventId    id of event param ticketId   id of ticket"
      },
      "setEventTicketsLeft(uint256,uint256)": {
        "notice": "set tickets left for event     * param eventId        id of event param ticketsLeft    tickets left for event"
      }
    }
  }
}