{
  "contractName": "EventTokenMarket",
  "abi": [
    {
      "inputs": [
        {
          "internalType": "contract EventToken",
          "name": "eventTokenAddress",
          "type": "address"
        },
        {
          "internalType": "uint256",
          "name": "comissionFeePercentage",
          "type": "uint256"
        }
      ],
      "payable": false,
      "stateMutability": "nonpayable",
      "type": "constructor"
    },
    {
      "anonymous": false,
      "inputs": [
        {
          "indexed": false,
          "internalType": "address",
          "name": "buyer",
          "type": "address"
        },
        {
          "indexed": false,
          "internalType": "uint256",
          "name": "quantity",
          "type": "uint256"
        },
        {
          "indexed": false,
          "internalType": "uint256",
          "name": "priceOfEachToken",
          "type": "uint256"
        }
      ],
      "name": "BuyToken",
      "type": "event"
    },
    {
      "anonymous": false,
      "inputs": [
        {
          "indexed": false,
          "internalType": "address",
          "name": "_seller",
          "type": "address"
        },
        {
          "indexed": false,
          "internalType": "uint256",
          "name": "amount",
          "type": "uint256"
        }
      ],
      "name": "EarnedEth",
      "type": "event"
    },
    {
      "anonymous": false,
      "inputs": [
        {
          "indexed": false,
          "internalType": "address",
          "name": "_seller",
          "type": "address"
        },
        {
          "indexed": false,
          "internalType": "uint256",
          "name": "sellOrderId",
          "type": "uint256"
        }
      ],
      "name": "SellOrderDelisted",
      "type": "event"
    },
    {
      "anonymous": false,
      "inputs": [
        {
          "indexed": false,
          "internalType": "uint256",
          "name": "sellOrderId",
          "type": "uint256"
        },
        {
          "indexed": false,
          "internalType": "address",
          "name": "_seller",
          "type": "address"
        },
        {
          "indexed": false,
          "internalType": "uint256",
          "name": "_quantity",
          "type": "uint256"
        }
      ],
      "name": "SellOrderListed",
      "type": "event"
    },
    {
      "constant": true,
      "inputs": [],
      "name": "_comissionFeePercentage",
      "outputs": [
        {
          "internalType": "uint256",
          "name": "",
          "type": "uint256"
        }
      ],
      "payable": false,
      "stateMutability": "view",
      "type": "function"
    },
    {
      "constant": true,
      "inputs": [
        {
          "internalType": "uint256",
          "name": "purchasePrice",
          "type": "uint256"
        }
      ],
      "name": "getComissionFee",
      "outputs": [
        {
          "internalType": "uint256",
          "name": "",
          "type": "uint256"
        }
      ],
      "payable": false,
      "stateMutability": "view",
      "type": "function"
    },
    {
      "constant": false,
      "inputs": [
        {
          "internalType": "uint256",
          "name": "_quantity",
          "type": "uint256"
        }
      ],
      "name": "list",
      "outputs": [],
      "payable": false,
      "stateMutability": "nonpayable",
      "type": "function"
    },
    {
      "constant": false,
      "inputs": [
        {
          "internalType": "uint256",
          "name": "sellOrderId",
          "type": "uint256"
        }
      ],
      "name": "unlist",
      "outputs": [],
      "payable": false,
      "stateMutability": "nonpayable",
      "type": "function"
    },
    {
      "constant": false,
      "inputs": [
        {
          "internalType": "uint256",
          "name": "_quantity",
          "type": "uint256"
        }
      ],
      "name": "purchaseTokens",
      "outputs": [],
      "payable": true,
      "stateMutability": "payable",
      "type": "function"
    },
    {
      "constant": false,
      "inputs": [],
      "name": "withdrawComissionFee",
      "outputs": [],
      "payable": false,
      "stateMutability": "nonpayable",
      "type": "function"
    },
    {
      "constant": true,
      "inputs": [
        {
          "internalType": "uint256",
          "name": "_quantity",
          "type": "uint256"
        }
      ],
      "name": "checkCurrentPrice",
      "outputs": [
        {
          "internalType": "uint256[2]",
          "name": "",
          "type": "uint256[2]"
        }
      ],
      "payable": false,
      "stateMutability": "view",
      "type": "function"
    },
    {
      "constant": true,
      "inputs": [],
      "name": "checkCurrentSellOrder",
      "outputs": [
        {
          "internalType": "uint256[]",
          "name": "",
          "type": "uint256[]"
        }
      ],
      "payable": false,
      "stateMutability": "view",
      "type": "function"
    },
    {
      "constant": true,
      "inputs": [],
      "name": "getContractOwner",
      "outputs": [
        {
          "internalType": "address",
          "name": "",
          "type": "address"
        }
      ],
      "payable": false,
      "stateMutability": "view",
      "type": "function"
    },
    {
      "constant": true,
      "inputs": [],
      "name": "getCurrentSellQuantity",
      "outputs": [
        {
          "internalType": "uint256",
          "name": "",
          "type": "uint256"
        }
      ],
      "payable": false,
      "stateMutability": "view",
      "type": "function"
    }
  ],
  "bytecode": "0x608060405234801561001057600080fd5b50604051620028ba380380620028ba8339818101604052604081101561003557600080fd5b810190808051906020019092919080519060200190929190505050816000806101000a81548173ffffffffffffffffffffffffffffffffffffffff021916908373ffffffffffffffffffffffffffffffffffffffff160217905550308260405161009e90610221565b808373ffffffffffffffffffffffffffffffffffffffff1673ffffffffffffffffffffffffffffffffffffffff1681526020018273ffffffffffffffffffffffffffffffffffffffff1673ffffffffffffffffffffffffffffffffffffffff16815260200192505050604051809103906000f080158015610123573d6000803e3d6000fd5b50600160006101000a81548173ffffffffffffffffffffffffffffffffffffffff021916908373ffffffffffffffffffffffffffffffffffffffff1602179055506000811180156101745750606581105b6101ca576040517f08c379a0000000000000000000000000000000000000000000000000000000008152600401808060200182810382526024815260200180620028966024913960400191505060405180910390fd5b80600281905550600060038190555033600460006101000a81548173ffffffffffffffffffffffffffffffffffffffff021916908373ffffffffffffffffffffffffffffffffffffffff160217905550505061022f565b610fe380620018b383390190565b611674806200023f6000396000f3fe6080604052600436106100915760003560e01c806380c9419e1161005957806380c9419e146101c057806381a2008e146101fb57806399d4290114610267578063bbdf86cf146102de578063bf5a4dd3146102f557610091565b80633113219d146100965780633a8cf9cb146100c1578063442890d514610110578063471682b6146101675780637b97008d14610192575b600080fd5b3480156100a257600080fd5b506100ab610330565b6040518082815260200191505060405180910390f35b3480156100cd57600080fd5b506100fa600480360360208110156100e457600080fd5b8101908080359060200190929190505050610336565b6040518082815260200191505060405180910390f35b34801561011c57600080fd5b50610125610353565b604051808273ffffffffffffffffffffffffffffffffffffffff1673ffffffffffffffffffffffffffffffffffffffff16815260200191505060405180910390f35b34801561017357600080fd5b5061017c61037d565b6040518082815260200191505060405180910390f35b6101be600480360360208110156101a857600080fd5b8101908080359060200190929190505050610427565b005b3480156101cc57600080fd5b506101f9600480360360208110156101e357600080fd5b8101908080359060200190929190505050610b26565b005b34801561020757600080fd5b50610210610f47565b6040518080602001828103825283818151815260200191508051906020019060200280838360005b83811015610253578082015181840152602081019050610238565b505050509050019250505060405180910390f35b34801561027357600080fd5b506102a06004803603602081101561028a57600080fd5b8101908080359060200190929190505050610fdc565b6040518082600260200280838360005b838110156102cb5780820151818401526020810190506102b0565b5050505090500191505060405180910390f35b3480156102ea57600080fd5b506102f361109e565b005b34801561030157600080fd5b5061032e6004803603602081101561031857600080fd5b81019080803590602001909291905050506111bf565b005b60025481565b6000806002546064848161034657fe5b0402905080915050919050565b6000600460009054906101000a900473ffffffffffffffffffffffffffffffffffffffff16905090565b6000600160009054906101000a900473ffffffffffffffffffffffffffffffffffffffff1673ffffffffffffffffffffffffffffffffffffffff1663471682b66040518163ffffffff1660e01b815260040160206040518083038186803b1580156103e757600080fd5b505afa1580156103fb573d6000803e3d6000fd5b505050506040513d602081101561041157600080fd5b8101908080519060200190929190505050905090565b61042f61155e565b600160009054906101000a900473ffffffffffffffffffffffffffffffffffffffff1673ffffffffffffffffffffffffffffffffffffffff1663311e0ddc836040518263ffffffff1660e01b815260040180828152602001915050604080518083038186803b1580156104a157600080fd5b505afa1580156104b5573d6000803e3d6000fd5b505050506040513d601f19601f8201168201806040525060408110156104da57600080fd5b810190809190505090506000816000600281106104f357fe5b6020020151905080831115610553576040517f08c379a00000000000000000000000000000000000000000000000000000000081526004018080602001828103825260408152602001806116006040913960400191505060405180910390fd5b60008260016002811061056257fe5b6020020151905060008183029050803410156105c9576040517f08c379a000000000000000000000000000000000000000000000000000000000815260040180806020018281038252602f815260200180611581602f913960400191505060405180910390fd5b3373ffffffffffffffffffffffffffffffffffffffff166108fc8234039081150290604051600060405180830381858888f19350505050158015610611573d6000803e3d6000fd5b506060806000809050600160009054906101000a900473ffffffffffffffffffffffffffffffffffffffff1673ffffffffffffffffffffffffffffffffffffffff166383130eb8886040518263ffffffff1660e01b81526004018082600260200280838360005b83811015610693578082015181840152602081019050610678565b50505050905001915050600060405180830381600087803b1580156106b757600080fd5b505af11580156106cb573d6000803e3d6000fd5b505050506040513d6000823e3d601f19601f8201168201806040525060608110156106f557600080fd5b810190808051604051939291908464010000000082111561071557600080fd5b8382019150602082018581111561072b57600080fd5b825186602082028301116401000000008211171561074857600080fd5b8083526020830192505050908051906020019060200280838360005b8381101561077f578082015181840152602081019050610764565b50505050905001604052602001805160405193929190846401000000008211156107a857600080fd5b838201915060208201858111156107be57600080fd5b82518660208202830111640100000000821117156107db57600080fd5b8083526020830192505050908051906020019060200280838360005b838110156108125780820151818401526020810190506107f7565b505050509050016040526020018051906020019092919050505080935081945082955050505060008090505b8181101561096f57600060025460648887858151811061085a57fe5b6020026020010151028161086a57fe5b040290506000818887858151811061087e57fe5b602002602001015102039050600085848151811061089857fe5b602002602001015190508073ffffffffffffffffffffffffffffffffffffffff166108fc839081150290604051600060405180830381858888f193505050501580156108e8573d6000803e3d6000fd5b507fe10e354b7ddb01f2cd5188a7ae23dcd832dd4fb6cad88af437a34b7ae27214118183604051808373ffffffffffffffffffffffffffffffffffffffff1673ffffffffffffffffffffffffffffffffffffffff1681526020018281526020019250505060405180910390a18260035401600381905550505050808060010191505061083e565b506000809054906101000a900473ffffffffffffffffffffffffffffffffffffffff1673ffffffffffffffffffffffffffffffffffffffff1663dbb31b703030338a6040518563ffffffff1660e01b8152600401808573ffffffffffffffffffffffffffffffffffffffff1673ffffffffffffffffffffffffffffffffffffffff1681526020018473ffffffffffffffffffffffffffffffffffffffff1673ffffffffffffffffffffffffffffffffffffffff1681526020018373ffffffffffffffffffffffffffffffffffffffff1673ffffffffffffffffffffffffffffffffffffffff168152602001828152602001945050505050600060405180830381600087803b158015610a8057600080fd5b505af1158015610a94573d6000803e3d6000fd5b505050507ff6f342132c7de5e5a1e99c8efae544c94731f3ff093f5c3c97c6973d9415cdfb338789600160028110610ac857fe5b6020020151604051808473ffffffffffffffffffffffffffffffffffffffff1673ffffffffffffffffffffffffffffffffffffffff168152602001838152602001828152602001935050505060405180910390a15050505050505050565b806000809054906101000a900473ffffffffffffffffffffffffffffffffffffffff1673ffffffffffffffffffffffffffffffffffffffff1663575a7c63336040518263ffffffff1660e01b8152600401808273ffffffffffffffffffffffffffffffffffffffff1673ffffffffffffffffffffffffffffffffffffffff16815260200191505060206040518083038186803b158015610bc557600080fd5b505afa158015610bd9573d6000803e3d6000fd5b505050506040513d6020811015610bef57600080fd5b81019080805190602001909291905050501015610c57576040517f08c379a000000000000000000000000000000000000000000000000000000000815260040180806020018281038252602b8152602001806115d5602b913960400191505060405180910390fd5b6000809054906101000a900473ffffffffffffffffffffffffffffffffffffffff1673ffffffffffffffffffffffffffffffffffffffff1663dbb31b70333030856040518563ffffffff1660e01b8152600401808573ffffffffffffffffffffffffffffffffffffffff1673ffffffffffffffffffffffffffffffffffffffff1681526020018473ffffffffffffffffffffffffffffffffffffffff1673ffffffffffffffffffffffffffffffffffffffff1681526020018373ffffffffffffffffffffffffffffffffffffffff1673ffffffffffffffffffffffffffffffffffffffff168152602001828152602001945050505050600060405180830381600087803b158015610d6757600080fd5b505af1158015610d7b573d6000803e3d6000fd5b505050506000600160009054906101000a900473ffffffffffffffffffffffffffffffffffffffff1673ffffffffffffffffffffffffffffffffffffffff16637d44fca333846040518363ffffffff1660e01b8152600401808373ffffffffffffffffffffffffffffffffffffffff1673ffffffffffffffffffffffffffffffffffffffff16815260200182815260200192505050602060405180830381600087803b158015610e2a57600080fd5b505af1158015610e3e573d6000803e3d6000fd5b505050506040513d6020811015610e5457600080fd5b81019080805190602001909291905050509050600560003373ffffffffffffffffffffffffffffffffffffffff1673ffffffffffffffffffffffffffffffffffffffff1681526020019081526020016000208190806001815401808255809150509060018203906000526020600020016000909192909190915055507f6598806fa48ab5cb6cdf20f0fa9f763cb9269b91892d447a573f63b4346bf194813384604051808481526020018373ffffffffffffffffffffffffffffffffffffffff1673ffffffffffffffffffffffffffffffffffffffff168152602001828152602001935050505060405180910390a15050565b6060600560003373ffffffffffffffffffffffffffffffffffffffff1673ffffffffffffffffffffffffffffffffffffffff168152602001908152602001600020805480602002602001604051908101604052809291908181526020018280548015610fd257602002820191906000526020600020905b815481526020019060010190808311610fbe575b5050505050905090565b610fe461155e565b600160009054906101000a900473ffffffffffffffffffffffffffffffffffffffff1673ffffffffffffffffffffffffffffffffffffffff1663311e0ddc836040518263ffffffff1660e01b815260040180828152602001915050604080518083038186803b15801561105657600080fd5b505afa15801561106a573d6000803e3d6000fd5b505050506040513d601f19601f82011682018060405250604081101561108f57600080fd5b81019080919050509050919050565b600460009054906101000a900473ffffffffffffffffffffffffffffffffffffffff1673ffffffffffffffffffffffffffffffffffffffff163373ffffffffffffffffffffffffffffffffffffffff1614611144576040517f08c379a00000000000000000000000000000000000000000000000000000000081526004018080602001828103825260258152602001806115b06025913960400191505060405180910390fd5b6000600460009054906101000a900473ffffffffffffffffffffffffffffffffffffffff1690508073ffffffffffffffffffffffffffffffffffffffff166108fc6003549081150290604051600060405180830381858888f193505050501580156111b3573d6000803e3d6000fd5b50600060038190555050565b600160009054906101000a900473ffffffffffffffffffffffffffffffffffffffff1673ffffffffffffffffffffffffffffffffffffffff166384eb06c133836040518363ffffffff1660e01b8152600401808373ffffffffffffffffffffffffffffffffffffffff1673ffffffffffffffffffffffffffffffffffffffff1681526020018281526020019250505060206040518083038186803b15801561126657600080fd5b505afa15801561127a573d6000803e3d6000fd5b505050506040513d602081101561129057600080fd5b8101908080519060200190929190505050611313576040517f08c379a000000000000000000000000000000000000000000000000000000000815260040180806020018281038252601b8152602001807f596f7520646964206e6f74206c6973742074686973206f72646572000000000081525060200191505060405180910390fd5b6000600160009054906101000a900473ffffffffffffffffffffffffffffffffffffffff1673ffffffffffffffffffffffffffffffffffffffff16630559c114836040518263ffffffff1660e01b815260040180828152602001915050602060405180830381600087803b15801561138a57600080fd5b505af115801561139e573d6000803e3d6000fd5b505050506040513d60208110156113b457600080fd5b810190808051906020019092919050505090506000809054906101000a900473ffffffffffffffffffffffffffffffffffffffff1673ffffffffffffffffffffffffffffffffffffffff1663dbb31b70303033856040518563ffffffff1660e01b8152600401808573ffffffffffffffffffffffffffffffffffffffff1673ffffffffffffffffffffffffffffffffffffffff1681526020018473ffffffffffffffffffffffffffffffffffffffff1673ffffffffffffffffffffffffffffffffffffffff1681526020018373ffffffffffffffffffffffffffffffffffffffff1673ffffffffffffffffffffffffffffffffffffffff168152602001828152602001945050505050600060405180830381600087803b1580156114d757600080fd5b505af11580156114eb573d6000803e3d6000fd5b505050507f7402b2c17c169f06924eedf0f0b9e5f4fda19734faa687be52a02c080eeadd413383604051808373ffffffffffffffffffffffffffffffffffffffff1673ffffffffffffffffffffffffffffffffffffffff1681526020018281526020019250505060405180910390a15050565b604051806040016040528060029060208202803883398082019150509050509056fe596f7520646f206e6f74206861766520656e6f75676820657468657220746f20707572636861736520746f6b656e73596f7520646f206e6f742068617665207065726d697373696f6e20746f20646f2074686973596f7520646f206e6f74206861766520656e6f756768206576656e7420746f6b656e7320746f2073656c6c5175616e74697479206f6620746f6b656e7320746f207075726368617365206973206d6f7265207468616e20746f74616c2073656c6c696e6720737570706c79a265627a7a72315820143e5810a5f99f2973a6c9671d90009f09e150d6f97abf9b3a9547fb5e92cd4164736f6c6343000511003260806040523480156200001157600080fd5b5060405162000fe338038062000fe3833981810160405262000037919081019062000106565b600060028190555060006003819055506000600481905550816000806101000a81548173ffffffffffffffffffffffffffffffffffffffff021916908373ffffffffffffffffffffffffffffffffffffffff16021790555080600160006101000a81548173ffffffffffffffffffffffffffffffffffffffff021916908373ffffffffffffffffffffffffffffffffffffffff1602179055505050620001c3565b600081519050620000e9816200018f565b92915050565b6000815190506200010081620001a9565b92915050565b600080604083850312156200011a57600080fd5b60006200012a85828601620000d8565b92505060206200013d85828601620000ef565b9150509250929050565b600062000154826200016f565b9050919050565b6000620001688262000147565b9050919050565b600073ffffffffffffffffffffffffffffffffffffffff82169050919050565b6200019a8162000147565b8114620001a657600080fd5b50565b620001b4816200015b565b8114620001c057600080fd5b50565b610e1080620001d36000396000f3fe608060405234801561001057600080fd5b50600436106100625760003560e01c80630559c11414610067578063311e0ddc14610097578063471682b6146100c75780637d44fca3146100e557806383130eb81461011557806384eb06c114610147575b600080fd5b610081600480360361007c9190810190610991565b610177565b60405161008e9190610c3d565b60405180910390f35b6100b160048036036100ac9190810190610991565b610258565b6040516100be9190610ba2565b60405180910390f35b6100cf610393565b6040516100dc9190610c3d565b60405180910390f35b6100ff60048036036100fa919081019061092c565b61039d565b60405161010c9190610c3d565b60405180910390f35b61012f600480360361012a9190810190610968565b6104f4565b60405161013e93929190610bbd565b60405180910390f35b610161600480360361015c919081019061092c565b6107b8565b60405161016e9190610c02565b60405180910390f35b60008060009054906101000a900473ffffffffffffffffffffffffffffffffffffffff1673ffffffffffffffffffffffffffffffffffffffff163373ffffffffffffffffffffffffffffffffffffffff1614610208576040517f08c379a00000000000000000000000000000000000000000000000000000000081526004016101ff90610c1d565b60405180910390fd5b600060056000848152602001908152602001600020600101549050806004600082825403925050819055506000600560008581526020019081526020016000206001018190555080915050919050565b610260610827565b610268610827565b6000600454141561029557604051806040016040528060008152602001600081525090508091505061038e565b6000600160009054906101000a900473ffffffffffffffffffffffffffffffffffffffff1673ffffffffffffffffffffffffffffffffffffffff166396a869376040518163ffffffff1660e01b815260040160206040518083038186803b1580156102ff57600080fd5b505afa158015610313573d6000803e3d6000fd5b505050506040513d601f19601f8201168201806040525061033791908101906109ba565b90506000849050600454851061034d5760045490505b6000600454600160648402038161036057fe5b0490506000816127100284019050604051806040016040528084815260200182815250945084955050505050505b919050565b6000600454905090565b60008060009054906101000a900473ffffffffffffffffffffffffffffffffffffffff1673ffffffffffffffffffffffffffffffffffffffff163373ffffffffffffffffffffffffffffffffffffffff161461042e576040517f08c379a000000000000000000000000000000000000000000000000000000000815260040161042590610c1d565b60405180910390fd5b6000600354905061043d610849565b60405180604001604052808673ffffffffffffffffffffffffffffffffffffffff168152602001858152509050806005600084815260200190815260200160002060008201518160000160006101000a81548173ffffffffffffffffffffffffffffffffffffffff021916908373ffffffffffffffffffffffffffffffffffffffff160217905550602082015181600101559050508360045401600481905550600160035401600381905550819250505092915050565b6060806000808460006002811061050757fe5b602002015190506060600a6040519080825280602002602001820160405280156105405781602001602082028038833980820191505090505b5090506060600a6040519080825280602002602001820160405280156105755781602001602082028038833980820191505090505b50905060008090505b6003546002541080156105915750600084115b1561079e576000600560006002548152602001908152602001600020600101549050848111156106a057848483815181106105c857fe5b60200260200101818152505060056000600254815260200190815260200160002060000160009054906101000a900473ffffffffffffffffffffffffffffffffffffffff1683838151811061061957fe5b602002602001019073ffffffffffffffffffffffffffffffffffffffff16908173ffffffffffffffffffffffffffffffffffffffff168152505084600560006002548152602001908152602001600020600101540360056000600254815260200190815260200160002060010181905550846004600082825403925050819055505061079e565b60008114156106bb576001600254016002819055505061057e565b8085039450808483815181106106cd57fe5b60200260200101818152505060056000600254815260200190815260200160002060000160009054906101000a900473ffffffffffffffffffffffffffffffffffffffff1683838151811061071e57fe5b602002602001019073ffffffffffffffffffffffffffffffffffffffff16908173ffffffffffffffffffffffffffffffffffffffff1681525050600060056000600254815260200190815260200160002060010181905550600182019150600160025401600281905550806004600082825403925050819055505061057e565b600181019050828282965096509650505050509193909250565b60008273ffffffffffffffffffffffffffffffffffffffff166005600084815260200190815260200160002060000160009054906101000a900473ffffffffffffffffffffffffffffffffffffffff1673ffffffffffffffffffffffffffffffffffffffff1614905092915050565b6040518060400160405280600290602082028038833980820191505090505090565b6040518060400160405280600073ffffffffffffffffffffffffffffffffffffffff168152602001600081525090565b60008135905061088881610d9f565b92915050565b600082601f83011261089f57600080fd5b60026108b26108ad82610c85565b610c58565b915081838560208402820111156108c857600080fd5b60005b838110156108f857816108de8882610902565b8452602084019350602083019250506001810190506108cb565b5050505092915050565b60008135905061091181610db6565b92915050565b60008151905061092681610db6565b92915050565b6000806040838503121561093f57600080fd5b600061094d85828601610879565b925050602061095e85828601610902565b9150509250929050565b60006040828403121561097a57600080fd5b60006109888482850161088e565b91505092915050565b6000602082840312156109a357600080fd5b60006109b184828501610902565b91505092915050565b6000602082840312156109cc57600080fd5b60006109da84828501610917565b91505092915050565b60006109ef8383610a13565b60208301905092915050565b6000610a078383610b84565b60208301905092915050565b610a1c81610d57565b82525050565b6000610a2d82610cd1565b610a378185610d19565b9350610a4283610ca7565b8060005b83811015610a73578151610a5a88826109e3565b9750610a6583610cf2565b925050600181019050610a46565b5085935050505092915050565b610a8981610cdc565b610a938184610d2a565b9250610a9e82610cb7565b8060005b83811015610acf578151610ab687826109fb565b9650610ac183610cff565b925050600181019050610aa2565b505050505050565b6000610ae282610ce7565b610aec8185610d35565b9350610af783610cc1565b8060005b83811015610b28578151610b0f88826109fb565b9750610b1a83610d0c565b925050600181019050610afb565b5085935050505092915050565b610b3e81610d69565b82525050565b6000610b51601e83610d46565b91507f596f7520617265206e6f7420616c6c6f77656420746f20646f207468697300006000830152602082019050919050565b610b8d81610d95565b82525050565b610b9c81610d95565b82525050565b6000604082019050610bb76000830184610a80565b92915050565b60006060820190508181036000830152610bd78186610ad7565b90508181036020830152610beb8185610a22565b9050610bfa6040830184610b93565b949350505050565b6000602082019050610c176000830184610b35565b92915050565b60006020820190508181036000830152610c3681610b44565b9050919050565b6000602082019050610c526000830184610b93565b92915050565b6000604051905081810181811067ffffffffffffffff82111715610c7b57600080fd5b8060405250919050565b600067ffffffffffffffff821115610c9c57600080fd5b602082029050919050565b6000819050602082019050919050565b6000819050919050565b6000819050602082019050919050565b600081519050919050565b600060029050919050565b600081519050919050565b6000602082019050919050565b6000602082019050919050565b6000602082019050919050565b600082825260208201905092915050565b600081905092915050565b600082825260208201905092915050565b600082825260208201905092915050565b6000610d6282610d75565b9050919050565b60008115159050919050565b600073ffffffffffffffffffffffffffffffffffffffff82169050919050565b6000819050919050565b610da881610d57565b8114610db357600080fd5b50565b610dbf81610d95565b8114610dca57600080fd5b5056fea365627a7a723158206d485507c16ed7a99d49beb7731649e0a79aa7f4adeb28a625137be53d0391d96c6578706572696d656e74616cf564736f6c63430005110040436f6d697373696f6e204665652063616e206f6e6c792062652066726f6d20312d313030",
  "source": "pragma solidity ^0.5.0;\r\nimport \"./EventToken.sol\";\r\nimport \"./EventTokenMarketAlgorithm.sol\";\r\n\r\ncontract EventTokenMarket {\r\n\r\n   EventToken eventTokenContract;                        // Our event token contract\r\n   EventTokenMarketAlgorithm marketAlgorithmContract;    // Our event token algorithm contract\r\n   uint256 public _comissionFeePercentage;               // What is the comission fee\r\n   uint256 totalComissionFee;\r\n   address _owner;                                       // Owner of event token market\r\n   mapping(address => uint256[]) usersCurrentListing;     // Save history of user listing\r\n\r\n   event SellOrderListed(uint256 sellOrderId, address _seller, uint256 _quantity);\r\n   event SellOrderDelisted(address _seller, uint256 sellOrderId);\r\n   event BuyToken(address buyer, uint256 quantity, uint256 priceOfEachToken);\r\n   event EarnedEth(address _seller, uint256 amount);\r\n\r\n   modifier onlyOwner() {\r\n         require(msg.sender == _owner, \"You do not have permission to do this\");\r\n         _;\r\n   }\r\n\r\n   constructor(EventToken eventTokenAddress, uint256 comissionFeePercentage) public {\r\n        eventTokenContract = eventTokenAddress;\r\n        marketAlgorithmContract = new EventTokenMarketAlgorithm(address(this), eventTokenAddress);\r\n        // Comission fee should be only from 1-100\r\n        require(comissionFeePercentage > 0 && comissionFeePercentage < 101, \"Comission Fee can only be from 1-100\");\r\n        _comissionFeePercentage = comissionFeePercentage;\r\n        totalComissionFee = 0;\r\n        _owner = msg.sender;\r\n   }\r\n\r\n   /**\r\n     * Calculate comission fee based on comissionFeePercentage\r\n     *\r\n     * param purchase price of token\r\n     * \r\n     */\r\n   function getComissionFee(uint256 purchasePrice) public view returns(uint256){\r\n      uint256 comissionFee = (purchasePrice / 100) * _comissionFeePercentage;\r\n      return comissionFee;\r\n   }\r\n\r\n   /**\r\n     * Allow user to list tokens to sell. Token price will be based on algo thus user can only list the amount of quantity.\r\n     *\r\n     * param amount of tokens to list\r\n     * \r\n     */\r\n   function list(uint256 _quantity) public {\r\n      require(eventTokenContract.checkEventTokenOf(msg.sender) >= _quantity, \"You do not have enough event tokens to sell\");\r\n      eventTokenContract.approvedTransferFrom(msg.sender, address(this), address(this), _quantity);\r\n      uint256 sellOrderId = marketAlgorithmContract.addSellOrder(msg.sender, _quantity);\r\n      usersCurrentListing[msg.sender].push(sellOrderId);\r\n      emit SellOrderListed(sellOrderId, msg.sender, _quantity);\r\n   }\r\n\r\n   /**\r\n     * Allow user to delist tokens to sell.\r\n     *\r\n     * param sell order id to delist\r\n     * \r\n     */\r\n   function unlist(uint256 sellOrderId) public {\r\n      require(marketAlgorithmContract.isSellOrderSeller(msg.sender, sellOrderId), \"You did not list this order\");\r\n      uint256 amountOfTokens = marketAlgorithmContract.removeSellOrder(sellOrderId);\r\n      eventTokenContract.approvedTransferFrom(address(this), address(this), msg.sender, amountOfTokens);\r\n      emit SellOrderDelisted(msg.sender, sellOrderId);\r\n   }\r\n\r\n   /**\r\n     * Allow user to purchase tokens\r\n     *\r\n     * param amount of tokens to list\r\n     * \r\n     */\r\n   function purchaseTokens(uint256 _quantity) public payable {\r\n\r\n      uint256[2] memory order = marketAlgorithmContract.getPriceOfBuyOrder(_quantity);\r\n      uint256 quantity = order[0];         // Quantity of tokens that he can buy\r\n      require(_quantity <= quantity, \"Quantity of tokens to purchase is more than total selling supply\");\r\n\r\n      uint256 priceOfEachToken = order[1]; // Price of each token\r\n      uint256 totalPrice = (quantity * priceOfEachToken); // 0 is quantity, 1 is price of each token\r\n      require(msg.value >= totalPrice, \"You do not have enough ether to purchase tokens\");\r\n\r\n      msg.sender.transfer(msg.value - totalPrice); // transfer remaining back to buyer\r\n\r\n      // Perform purchase and send eth to sellers.\r\n      uint256[] memory quantities;\r\n      address[] memory sellers;\r\n      uint256 startnum = 0;\r\n\r\n      // This will return all quantities and sellers that sold tokens\r\n      (quantities, sellers, startnum) = marketAlgorithmContract.buyTokens(order);\r\n\r\n      for (uint256 i = 0; i < startnum; i++ ) {\r\n         uint256 comissionFee = (((quantities[i] * priceOfEachToken) / 100) *_comissionFeePercentage); \r\n         uint256 priceToTransfer = (quantities[i] * priceOfEachToken) - comissionFee;\r\n         address payable to = address(uint160(sellers[i]));\r\n         to.transfer(priceToTransfer);\r\n         emit EarnedEth(to, priceToTransfer);\r\n         // Store total commission fee\r\n         totalComissionFee = totalComissionFee + comissionFee;\r\n      }\r\n\r\n      eventTokenContract.approvedTransferFrom(address(this), address(this), msg.sender, quantity);\r\n      emit BuyToken(msg.sender, quantity, order[1]);\r\n\r\n   }\r\n\r\n   function withdrawComissionFee() public onlyOwner {\r\n      address payable to = address(uint160(_owner));\r\n      to.transfer(totalComissionFee);\r\n      totalComissionFee = 0;\r\n   }\r\n\r\n   function checkCurrentPrice(uint256 _quantity) public view returns (uint256[2] memory) {\r\n      return marketAlgorithmContract.getPriceOfBuyOrder(_quantity);\r\n   }\r\n\r\n   function checkCurrentSellOrder() public view returns(uint256[] memory) {\r\n      return usersCurrentListing[msg.sender];\r\n   }\r\n\r\n   function getContractOwner() public view returns(address) {\r\n      return _owner;\r\n   }\r\n\r\n   function getCurrentSellQuantity() public view returns(uint256){\r\n      return marketAlgorithmContract.getCurrentSellQuantity();\r\n   }\r\n}\r\n",
  "sourcePath": "C:\\Users\\remus\\Desktop\\3.2\\IS4302\\Project\\contracts\\EventTokenMarket.sol",
  "compiler": {
    "name": "solc",
    "version": "0.5.17+commit.d19bba13.Emscripten.clang"
  },
  "schemaVersion": "3.4.11",
  "updatedAt": "2023-04-06T15:34:34.334Z",
  "devdoc": {
    "methods": {}
  },
  "userdoc": {
    "methods": {
      "getComissionFee(uint256)": {
        "notice": "Calculate comission fee based on comissionFeePercentage      * param purchase price of token \r"
      },
      "list(uint256)": {
        "notice": "Allow user to list tokens to sell. Token price will be based on algo thus user can only list the amount of quantity.      * param amount of tokens to list \r"
      },
      "purchaseTokens(uint256)": {
        "notice": "Allow user to purchase tokens      * param amount of tokens to list \r"
      },
      "unlist(uint256)": {
        "notice": "Allow user to delist tokens to sell.      * param sell order id to delist \r"
      }
    }
  }
}