{
  "contractName": "EventTokenMarketAlgorithm",
  "abi": [
    {
      "inputs": [
        {
          "internalType": "address",
          "name": "_eventTokenMarketAddress",
          "type": "address"
        },
        {
          "internalType": "contract EventToken",
          "name": "eventTokenAddress",
          "type": "address"
        }
      ],
      "payable": false,
      "stateMutability": "nonpayable",
      "type": "constructor"
    },
    {
      "constant": false,
      "inputs": [
        {
          "internalType": "address",
          "name": "_seller",
          "type": "address"
        },
        {
          "internalType": "uint256",
          "name": "_quantity",
          "type": "uint256"
        }
      ],
      "name": "addSellOrder",
      "outputs": [
        {
          "internalType": "uint256",
          "name": "",
          "type": "uint256"
        }
      ],
      "payable": false,
      "stateMutability": "nonpayable",
      "type": "function"
    },
    {
      "constant": false,
      "inputs": [
        {
          "internalType": "uint256",
          "name": "sellOrderId",
          "type": "uint256"
        }
      ],
      "name": "removeSellOrder",
      "outputs": [
        {
          "internalType": "uint256",
          "name": "",
          "type": "uint256"
        }
      ],
      "payable": false,
      "stateMutability": "nonpayable",
      "type": "function"
    },
    {
      "constant": false,
      "inputs": [
        {
          "internalType": "uint256[2]",
          "name": "order",
          "type": "uint256[2]"
        }
      ],
      "name": "buyTokens",
      "outputs": [
        {
          "internalType": "uint256[]",
          "name": "",
          "type": "uint256[]"
        },
        {
          "internalType": "address[]",
          "name": "",
          "type": "address[]"
        },
        {
          "internalType": "uint256",
          "name": "",
          "type": "uint256"
        }
      ],
      "payable": false,
      "stateMutability": "nonpayable",
      "type": "function"
    },
    {
      "constant": true,
      "inputs": [
        {
          "internalType": "uint256",
          "name": "_quantity",
          "type": "uint256"
        }
      ],
      "name": "getPriceOfBuyOrder",
      "outputs": [
        {
          "internalType": "uint256[2]",
          "name": "",
          "type": "uint256[2]"
        }
      ],
      "payable": false,
      "stateMutability": "view",
      "type": "function"
    },
    {
      "constant": true,
      "inputs": [
        {
          "internalType": "address",
          "name": "_address",
          "type": "address"
        },
        {
          "internalType": "uint256",
          "name": "sellOrderId",
          "type": "uint256"
        }
      ],
      "name": "isSellOrderSeller",
      "outputs": [
        {
          "internalType": "bool",
          "name": "",
          "type": "bool"
        }
      ],
      "payable": false,
      "stateMutability": "view",
      "type": "function"
    },
    {
      "constant": true,
      "inputs": [],
      "name": "getCurrentSellQuantity",
      "outputs": [
        {
          "internalType": "uint256",
          "name": "",
          "type": "uint256"
        }
      ],
      "payable": false,
      "stateMutability": "view",
      "type": "function"
    }
  ],
  "bytecode": "0x60806040523480156200001157600080fd5b5060405162000fe338038062000fe3833981810160405262000037919081019062000106565b600060028190555060006003819055506000600481905550816000806101000a81548173ffffffffffffffffffffffffffffffffffffffff021916908373ffffffffffffffffffffffffffffffffffffffff16021790555080600160006101000a81548173ffffffffffffffffffffffffffffffffffffffff021916908373ffffffffffffffffffffffffffffffffffffffff1602179055505050620001c3565b600081519050620000e9816200018f565b92915050565b6000815190506200010081620001a9565b92915050565b600080604083850312156200011a57600080fd5b60006200012a85828601620000d8565b92505060206200013d85828601620000ef565b9150509250929050565b600062000154826200016f565b9050919050565b6000620001688262000147565b9050919050565b600073ffffffffffffffffffffffffffffffffffffffff82169050919050565b6200019a8162000147565b8114620001a657600080fd5b50565b620001b4816200015b565b8114620001c057600080fd5b50565b610e1080620001d36000396000f3fe608060405234801561001057600080fd5b50600436106100625760003560e01c80630559c11414610067578063311e0ddc14610097578063471682b6146100c75780637d44fca3146100e557806383130eb81461011557806384eb06c114610147575b600080fd5b610081600480360361007c9190810190610991565b610177565b60405161008e9190610c3d565b60405180910390f35b6100b160048036036100ac9190810190610991565b610258565b6040516100be9190610ba2565b60405180910390f35b6100cf610393565b6040516100dc9190610c3d565b60405180910390f35b6100ff60048036036100fa919081019061092c565b61039d565b60405161010c9190610c3d565b60405180910390f35b61012f600480360361012a9190810190610968565b6104f4565b60405161013e93929190610bbd565b60405180910390f35b610161600480360361015c919081019061092c565b6107b8565b60405161016e9190610c02565b60405180910390f35b60008060009054906101000a900473ffffffffffffffffffffffffffffffffffffffff1673ffffffffffffffffffffffffffffffffffffffff163373ffffffffffffffffffffffffffffffffffffffff1614610208576040517f08c379a00000000000000000000000000000000000000000000000000000000081526004016101ff90610c1d565b60405180910390fd5b600060056000848152602001908152602001600020600101549050806004600082825403925050819055506000600560008581526020019081526020016000206001018190555080915050919050565b610260610827565b610268610827565b6000600454141561029557604051806040016040528060008152602001600081525090508091505061038e565b6000600160009054906101000a900473ffffffffffffffffffffffffffffffffffffffff1673ffffffffffffffffffffffffffffffffffffffff166396a869376040518163ffffffff1660e01b815260040160206040518083038186803b1580156102ff57600080fd5b505afa158015610313573d6000803e3d6000fd5b505050506040513d601f19601f8201168201806040525061033791908101906109ba565b90506000849050600454851061034d5760045490505b6000600454600160648402038161036057fe5b0490506000816127100284019050604051806040016040528084815260200182815250945084955050505050505b919050565b6000600454905090565b60008060009054906101000a900473ffffffffffffffffffffffffffffffffffffffff1673ffffffffffffffffffffffffffffffffffffffff163373ffffffffffffffffffffffffffffffffffffffff161461042e576040517f08c379a000000000000000000000000000000000000000000000000000000000815260040161042590610c1d565b60405180910390fd5b6000600354905061043d610849565b60405180604001604052808673ffffffffffffffffffffffffffffffffffffffff168152602001858152509050806005600084815260200190815260200160002060008201518160000160006101000a81548173ffffffffffffffffffffffffffffffffffffffff021916908373ffffffffffffffffffffffffffffffffffffffff160217905550602082015181600101559050508360045401600481905550600160035401600381905550819250505092915050565b6060806000808460006002811061050757fe5b602002015190506060600a6040519080825280602002602001820160405280156105405781602001602082028038833980820191505090505b5090506060600a6040519080825280602002602001820160405280156105755781602001602082028038833980820191505090505b50905060008090505b6003546002541080156105915750600084115b1561079e576000600560006002548152602001908152602001600020600101549050848111156106a057848483815181106105c857fe5b60200260200101818152505060056000600254815260200190815260200160002060000160009054906101000a900473ffffffffffffffffffffffffffffffffffffffff1683838151811061061957fe5b602002602001019073ffffffffffffffffffffffffffffffffffffffff16908173ffffffffffffffffffffffffffffffffffffffff168152505084600560006002548152602001908152602001600020600101540360056000600254815260200190815260200160002060010181905550846004600082825403925050819055505061079e565b60008114156106bb576001600254016002819055505061057e565b8085039450808483815181106106cd57fe5b60200260200101818152505060056000600254815260200190815260200160002060000160009054906101000a900473ffffffffffffffffffffffffffffffffffffffff1683838151811061071e57fe5b602002602001019073ffffffffffffffffffffffffffffffffffffffff16908173ffffffffffffffffffffffffffffffffffffffff1681525050600060056000600254815260200190815260200160002060010181905550600182019150600160025401600281905550806004600082825403925050819055505061057e565b600181019050828282965096509650505050509193909250565b60008273ffffffffffffffffffffffffffffffffffffffff166005600084815260200190815260200160002060000160009054906101000a900473ffffffffffffffffffffffffffffffffffffffff1673ffffffffffffffffffffffffffffffffffffffff1614905092915050565b6040518060400160405280600290602082028038833980820191505090505090565b6040518060400160405280600073ffffffffffffffffffffffffffffffffffffffff168152602001600081525090565b60008135905061088881610d9f565b92915050565b600082601f83011261089f57600080fd5b60026108b26108ad82610c85565b610c58565b915081838560208402820111156108c857600080fd5b60005b838110156108f857816108de8882610902565b8452602084019350602083019250506001810190506108cb565b5050505092915050565b60008135905061091181610db6565b92915050565b60008151905061092681610db6565b92915050565b6000806040838503121561093f57600080fd5b600061094d85828601610879565b925050602061095e85828601610902565b9150509250929050565b60006040828403121561097a57600080fd5b60006109888482850161088e565b91505092915050565b6000602082840312156109a357600080fd5b60006109b184828501610902565b91505092915050565b6000602082840312156109cc57600080fd5b60006109da84828501610917565b91505092915050565b60006109ef8383610a13565b60208301905092915050565b6000610a078383610b84565b60208301905092915050565b610a1c81610d57565b82525050565b6000610a2d82610cd1565b610a378185610d19565b9350610a4283610ca7565b8060005b83811015610a73578151610a5a88826109e3565b9750610a6583610cf2565b925050600181019050610a46565b5085935050505092915050565b610a8981610cdc565b610a938184610d2a565b9250610a9e82610cb7565b8060005b83811015610acf578151610ab687826109fb565b9650610ac183610cff565b925050600181019050610aa2565b505050505050565b6000610ae282610ce7565b610aec8185610d35565b9350610af783610cc1565b8060005b83811015610b28578151610b0f88826109fb565b9750610b1a83610d0c565b925050600181019050610afb565b5085935050505092915050565b610b3e81610d69565b82525050565b6000610b51601e83610d46565b91507f596f7520617265206e6f7420616c6c6f77656420746f20646f207468697300006000830152602082019050919050565b610b8d81610d95565b82525050565b610b9c81610d95565b82525050565b6000604082019050610bb76000830184610a80565b92915050565b60006060820190508181036000830152610bd78186610ad7565b90508181036020830152610beb8185610a22565b9050610bfa6040830184610b93565b949350505050565b6000602082019050610c176000830184610b35565b92915050565b60006020820190508181036000830152610c3681610b44565b9050919050565b6000602082019050610c526000830184610b93565b92915050565b6000604051905081810181811067ffffffffffffffff82111715610c7b57600080fd5b8060405250919050565b600067ffffffffffffffff821115610c9c57600080fd5b602082029050919050565b6000819050602082019050919050565b6000819050919050565b6000819050602082019050919050565b600081519050919050565b600060029050919050565b600081519050919050565b6000602082019050919050565b6000602082019050919050565b6000602082019050919050565b600082825260208201905092915050565b600081905092915050565b600082825260208201905092915050565b600082825260208201905092915050565b6000610d6282610d75565b9050919050565b60008115159050919050565b600073ffffffffffffffffffffffffffffffffffffffff82169050919050565b6000819050919050565b610da881610d57565b8114610db357600080fd5b50565b610dbf81610d95565b8114610dca57600080fd5b5056fea365627a7a723158206d485507c16ed7a99d49beb7731649e0a79aa7f4adeb28a625137be53d0391d96c6578706572696d656e74616cf564736f6c63430005110040",
  "source": "pragma solidity ^0.5.0;\r\npragma experimental ABIEncoderV2;\r\n\r\nimport \"./EventToken.sol\";\r\n\r\ncontract EventTokenMarketAlgorithm {\r\n\r\n\r\n    /**\r\n     * sellOrder Object that keep track of seller and quantity of token per order\r\n     *\r\n     * param seller    address of token seller\r\n     * param quantity  amount of token to sell\r\n     *\r\n     */\r\n    struct sellOrder {\r\n        address seller;\r\n        uint256 quantity;\r\n    }\r\n\r\n    address eventTokenMarketAddress;\r\n    EventToken eventTokenContract; \r\n    uint256 sellOrderFirstNum;                                       // Keep track of first sell order\r\n    uint256 sellOrderLastNum;                                        // Keep track of last sell order\r\n    uint256 currentSellQuantity;\r\n    mapping(uint256 => sellOrder) sellOrderList;\r\n    \r\n\r\n\r\n\r\n    /**\r\n     * creates EventTokenMarketAlgorithm to maintain order of market\r\n     *\r\n     * param _eventTokenMarketAddress    address of event token market for sale of tokens\r\n     * param eventTokenAddress           address of event token to check current supply to decide price of tokens     \r\n     */\r\n    constructor(address _eventTokenMarketAddress, EventToken eventTokenAddress) public {\r\n        sellOrderFirstNum = 0;\r\n        sellOrderLastNum = 0;\r\n        currentSellQuantity = 0;\r\n        eventTokenMarketAddress = _eventTokenMarketAddress;\r\n        eventTokenContract = eventTokenAddress;\r\n    }\r\n\r\n    // modifier to ensure only token market can do this\r\n    modifier onlyEventTokenMarketAddress() {\r\n        require(msg.sender == eventTokenMarketAddress, \"You are not allowed to do this\");\r\n        _;\r\n    }\r\n\r\n    /**\r\n     * All checks to be done on EventTokenMarket\r\n     * add sell order to queue\r\n     *\r\n     * param _seller address of seller of tokens\r\n     * param _quantity amount of tokens to sell\r\n     */\r\n    function addSellOrder(address _seller, uint256 _quantity) onlyEventTokenMarketAddress public returns (uint256) {\r\n        \r\n        // Get order id\r\n        uint256 sellOrderId = sellOrderLastNum;\r\n        // Create market order\r\n        sellOrder memory newSellOrder = sellOrder(_seller, _quantity);\r\n        // List order\r\n        sellOrderList[sellOrderId] = newSellOrder;\r\n        // Add total sell quantity\r\n        currentSellQuantity = currentSellQuantity + _quantity;\r\n        // Increment number for next order id\r\n        sellOrderLastNum = sellOrderLastNum + 1;\r\n        // Return order id\r\n        return sellOrderId;\r\n    }\r\n\r\n    /**\r\n     * All checks to be done on EventTokenMarket\r\n     * remove sell order\r\n     *\r\n     * param sellOrderId id of sell order to remove\r\n     */\r\n    function removeSellOrder(uint256 sellOrderId) onlyEventTokenMarketAddress public returns (uint256) {\r\n        \r\n        // Save old quantity\r\n        uint256 amountOfTokens = sellOrderList[sellOrderId].quantity;\r\n        currentSellQuantity -= amountOfTokens;\r\n        // Remove quantity\r\n        sellOrderList[sellOrderId].quantity = 0;\r\n        return amountOfTokens;\r\n    }\r\n\r\n    /**\r\n     * All checks to be done on EventTokenMarket, ensure that no one will buy more than what is avaiable.\r\n     * buy tokens\r\n     *\r\n     * param sellOrderId id of sell order to remove\r\n     */\r\n    function buyTokens(uint256[2] memory order)  public returns (uint256[] memory, address[] memory, uint256){\r\n\r\n        uint256 quantityToBuy = order[0];\r\n        uint256[] memory quantities = new uint256[](10);\r\n        address[] memory sellers = new address[](10);\r\n        uint256 startnum = 0;\r\n        while (sellOrderFirstNum < sellOrderLastNum && quantityToBuy > 0) { // There is still tokens to sell\r\n             uint256 quantityAvailable = sellOrderList[sellOrderFirstNum].quantity;\r\n            if (quantityAvailable > quantityToBuy) { // Seller have leftover tokens\r\n                quantities[startnum] = quantityToBuy; \r\n                sellers[startnum] = sellOrderList[sellOrderFirstNum].seller;\r\n                sellOrderList[sellOrderFirstNum].quantity = sellOrderList[sellOrderFirstNum].quantity - quantityToBuy;\r\n                currentSellQuantity -= quantityToBuy;\r\n                break;\r\n            } \r\n            else { // Seller sells everything\r\n                if (quantityAvailable == 0) { // Check if no quantity\r\n                    sellOrderFirstNum = sellOrderFirstNum + 1;\r\n                    continue;\r\n                }\r\n                quantityToBuy = quantityToBuy - quantityAvailable; // Update total quantity to buy\r\n                quantities[startnum] = quantityAvailable; // Seller sold quantityAvailable\r\n                sellers[startnum] = sellOrderList[sellOrderFirstNum].seller; // Who is the seller\r\n                sellOrderList[sellOrderFirstNum].quantity = 0; // Seller have no more tokens\r\n                startnum = startnum + 1; // increment to add new seller\r\n                sellOrderFirstNum = sellOrderFirstNum + 1;\r\n                currentSellQuantity -= quantityAvailable;\r\n            }\r\n        }\r\n        startnum += 1;\r\n        return (quantities, sellers, startnum);\r\n    }\r\n\r\n    /**\r\n     * decide price of tokens (Can brainstorm the algorithm, just a sample one for now)\r\n     *\r\n     * param quantity of tokens to sell\r\n     * returns price and token quantity\r\n     */\r\n    function getPriceOfBuyOrder(uint256 _quantity) public view returns (uint256[2] memory) {\r\n        uint256[2] memory order;\r\n        if (currentSellQuantity == 0) {\r\n            order = [uint256(0),0];\r\n            return order;\r\n        }\r\n        uint256 basePriceOfToken = eventTokenContract.getBasePriceOfToken();\r\n        uint256 buyQuantity = _quantity;\r\n        \r\n        // How many percentage of token is buyer buying from the sale market? \r\n        if (_quantity >= currentSellQuantity) {\r\n            buyQuantity = currentSellQuantity;\r\n        }\r\n        uint256 percentageOfSaleMarket = (((buyQuantity * 100) -1) / currentSellQuantity ); // Every percentage of market will increase price of token by 10000\r\n        uint256 priceOfEachToken = basePriceOfToken + (10000 * percentageOfSaleMarket);\r\n        order = [buyQuantity, priceOfEachToken];\r\n        return order;\r\n    }\r\n\r\n    /**\r\n     * check if sell order belongs to address\r\n     *\r\n     * param _address address to check\r\n     * param sellOrderId id of sell order to check\r\n     */\r\n    function isSellOrderSeller(address _address, uint256 sellOrderId) public view returns (bool) {\r\n        return sellOrderList[sellOrderId].seller == _address;\r\n    }\r\n\r\n    /**\r\n     * check current sell quantity in market\r\n     *\r\n     */\r\n    function getCurrentSellQuantity() public view returns (uint256) {\r\n        return currentSellQuantity;\r\n    }\r\n    \r\n    \r\n}\r\n",
  "sourcePath": "C:\\Users\\remus\\Desktop\\3.2\\IS4302\\Project\\contracts\\EventTokenMarketAlgorithm.sol",
  "compiler": {
    "name": "solc",
    "version": "0.5.17+commit.d19bba13.Emscripten.clang"
  },
  "schemaVersion": "3.4.11",
  "updatedAt": "2023-04-06T15:34:34.339Z",
  "devdoc": {
    "methods": {}
  },
  "userdoc": {
    "methods": {
      "addSellOrder(address,uint256)": {
        "notice": "All checks to be done on EventTokenMarket add sell order to queue      * param _seller address of seller of tokens param _quantity amount of tokens to sell"
      },
      "buyTokens(uint256[2])": {
        "notice": "All checks to be done on EventTokenMarket, ensure that no one will buy more than what is avaiable. buy tokens      * param sellOrderId id of sell order to remove"
      },
      "constructor": "creates EventTokenMarketAlgorithm to maintain order of market      * param _eventTokenMarketAddress    address of event token market for sale of tokens param eventTokenAddress           address of event token to check current supply to decide price of tokens     ",
      "getCurrentSellQuantity()": {
        "notice": "check current sell quantity in market      "
      },
      "getPriceOfBuyOrder(uint256)": {
        "notice": "decide price of tokens (Can brainstorm the algorithm, just a sample one for now)      * param quantity of tokens to sell returns price and token quantity"
      },
      "isSellOrderSeller(address,uint256)": {
        "notice": "check if sell order belongs to address      * param _address address to check param sellOrderId id of sell order to check"
      },
      "removeSellOrder(uint256)": {
        "notice": "All checks to be done on EventTokenMarket remove sell order      * param sellOrderId id of sell order to remove"
      }
    }
  }
}