{
  "contractName": "Event",
  "abi": [
    {
      "constant": true,
      "inputs": [
        {
          "internalType": "uint256",
          "name": "",
          "type": "uint256"
        }
      ],
      "name": "events",
      "outputs": [
        {
          "internalType": "string",
          "name": "title",
          "type": "string"
        },
        {
          "internalType": "string",
          "name": "venue",
          "type": "string"
        },
        {
          "internalType": "uint256",
          "name": "dateAndTime",
          "type": "uint256"
        },
        {
          "internalType": "uint256",
          "name": "capacity",
          "type": "uint256"
        },
        {
          "internalType": "uint256",
          "name": "ticketsLeft",
          "type": "uint256"
        },
        {
          "internalType": "address",
          "name": "seller",
          "type": "address"
        }
      ],
      "payable": false,
      "stateMutability": "view",
      "type": "function"
    },
    {
      "constant": true,
      "inputs": [],
      "name": "numEvents",
      "outputs": [
        {
          "internalType": "uint256",
          "name": "",
          "type": "uint256"
        }
      ],
      "payable": false,
      "stateMutability": "view",
      "type": "function"
    },
    {
      "constant": false,
      "inputs": [
        {
          "internalType": "string",
          "name": "title",
          "type": "string"
        },
        {
          "internalType": "string",
          "name": "venue",
          "type": "string"
        },
        {
          "internalType": "uint256",
          "name": "year",
          "type": "uint256"
        },
        {
          "internalType": "uint256",
          "name": "month",
          "type": "uint256"
        },
        {
          "internalType": "uint256",
          "name": "day",
          "type": "uint256"
        },
        {
          "internalType": "uint256",
          "name": "hour",
          "type": "uint256"
        },
        {
          "internalType": "uint256",
          "name": "minute",
          "type": "uint256"
        },
        {
          "internalType": "uint256",
          "name": "second",
          "type": "uint256"
        },
        {
          "internalType": "uint256",
          "name": "capacity",
          "type": "uint256"
        },
        {
          "internalType": "uint256",
          "name": "ticketsLeft",
          "type": "uint256"
        },
        {
          "internalType": "address",
          "name": "seller",
          "type": "address"
        }
      ],
      "name": "createEvent",
      "outputs": [
        {
          "internalType": "uint256",
          "name": "",
          "type": "uint256"
        }
      ],
      "payable": false,
      "stateMutability": "nonpayable",
      "type": "function"
    },
    {
      "constant": true,
      "inputs": [
        {
          "internalType": "uint256",
          "name": "eventId",
          "type": "uint256"
        }
      ],
      "name": "getEventTitle",
      "outputs": [
        {
          "internalType": "string",
          "name": "",
          "type": "string"
        }
      ],
      "payable": false,
      "stateMutability": "view",
      "type": "function"
    },
    {
      "constant": true,
      "inputs": [
        {
          "internalType": "uint256",
          "name": "eventId",
          "type": "uint256"
        }
      ],
      "name": "getEventVenue",
      "outputs": [
        {
          "internalType": "string",
          "name": "",
          "type": "string"
        }
      ],
      "payable": false,
      "stateMutability": "view",
      "type": "function"
    },
    {
      "constant": true,
      "inputs": [
        {
          "internalType": "uint256",
          "name": "eventId",
          "type": "uint256"
        }
      ],
      "name": "getEventDateAndTime",
      "outputs": [
        {
          "internalType": "uint256",
          "name": "",
          "type": "uint256"
        },
        {
          "internalType": "uint256",
          "name": "",
          "type": "uint256"
        },
        {
          "internalType": "uint256",
          "name": "",
          "type": "uint256"
        },
        {
          "internalType": "uint256",
          "name": "",
          "type": "uint256"
        },
        {
          "internalType": "uint256",
          "name": "",
          "type": "uint256"
        },
        {
          "internalType": "uint256",
          "name": "",
          "type": "uint256"
        }
      ],
      "payable": false,
      "stateMutability": "view",
      "type": "function"
    },
    {
      "constant": true,
      "inputs": [
        {
          "internalType": "uint256",
          "name": "eventId",
          "type": "uint256"
        }
      ],
      "name": "getEventCapacity",
      "outputs": [
        {
          "internalType": "uint256",
          "name": "",
          "type": "uint256"
        }
      ],
      "payable": false,
      "stateMutability": "view",
      "type": "function"
    },
    {
      "constant": true,
      "inputs": [
        {
          "internalType": "uint256",
          "name": "eventId",
          "type": "uint256"
        }
      ],
      "name": "getEventTicketsLeft",
      "outputs": [
        {
          "internalType": "uint256",
          "name": "",
          "type": "uint256"
        }
      ],
      "payable": false,
      "stateMutability": "view",
      "type": "function"
    },
    {
      "constant": true,
      "inputs": [
        {
          "internalType": "uint256",
          "name": "eventId",
          "type": "uint256"
        }
      ],
      "name": "getEventSeller",
      "outputs": [
        {
          "internalType": "address",
          "name": "",
          "type": "address"
        }
      ],
      "payable": false,
      "stateMutability": "view",
      "type": "function"
    }
  ],
  "bytecode": "0x60806040526000805534801561001457600080fd5b50610f35806100246000396000f3fe608060405234801561001057600080fd5b50600436106100935760003560e01c80635788b400116100665780635788b400146102b8578063836c0ea7146102fa578063afaddf8f146103a1578063df6471781461040f578063ee6d30a1146104b657610093565b8063046cbeec14610098578063089cade7146100da5780630b7914301461013f57806334cf562b1461029a575b600080fd5b6100c4600480360360208110156100ae57600080fd5b810190808035906020019092919050505061068d565b6040518082815260200191505060405180910390f35b610106600480360360208110156100f057600080fd5b81019080803590602001909291905050506106bd565b60405180878152602001868152602001858152602001848152602001838152602001828152602001965050505050505060405180910390f35b61016b6004803603602081101561015557600080fd5b810190808035906020019092919050505061070a565b6040518080602001806020018781526020018681526020018581526020018473ffffffffffffffffffffffffffffffffffffffff1673ffffffffffffffffffffffffffffffffffffffff168152602001838103835289818151815260200191508051906020019080838360005b838110156101f35780820151818401526020810190506101d8565b50505050905090810190601f1680156102205780820380516001836020036101000a031916815260200191505b50838103825288818151815260200191508051906020019080838360005b8381101561025957808201518184015260208101905061023e565b50505050905090810190601f1680156102865780820380516001836020036101000a031916815260200191505b509850505050505050505060405180910390f35b6102a2610896565b6040518082815260200191505060405180910390f35b6102e4600480360360208110156102ce57600080fd5b810190808035906020019092919050505061089c565b6040518082815260200191505060405180910390f35b6103266004803603602081101561031057600080fd5b81019080803590602001909291905050506108cc565b6040518080602001828103825283818151815260200191508051906020019080838360005b8381101561036657808201518184015260208101905061034b565b50505050905090810190601f1680156103935780820380516001836020036101000a031916815260200191505b509250505060405180910390f35b6103cd600480360360208110156103b757600080fd5b8101908080359060200190929190505050610994565b604051808273ffffffffffffffffffffffffffffffffffffffff1673ffffffffffffffffffffffffffffffffffffffff16815260200191505060405180910390f35b61043b6004803603602081101561042557600080fd5b81019080803590602001909291905050506109e4565b6040518080602001828103825283818151815260200191508051906020019080838360005b8381101561047b578082015181840152602081019050610460565b50505050905090810190601f1680156104a85780820380516001836020036101000a031916815260200191505b509250505060405180910390f35b61067760048036036101608110156104cd57600080fd5b81019080803590602001906401000000008111156104ea57600080fd5b8201836020820111156104fc57600080fd5b8035906020019184600183028401116401000000008311171561051e57600080fd5b91908080601f016020809104026020016040519081016040528093929190818152602001838380828437600081840152601f19601f8201169050808301925050505050505091929192908035906020019064010000000081111561058157600080fd5b82018360208201111561059357600080fd5b803590602001918460018302840111640100000000831117156105b557600080fd5b91908080601f016020809104026020016040519081016040528093929190818152602001838380828437600081840152601f19601f8201169050808301925050505050505091929192908035906020019092919080359060200190929190803590602001909291908035906020019092919080359060200190929190803590602001909291908035906020019092919080359060200190929190803573ffffffffffffffffffffffffffffffffffffffff169060200190929190505050610aac565b6040518082815260200191505060405180910390f35b600081600054811061069e57600080fd5b6001600084815260200190815260200160002060040154915050919050565b6000806000806000808660005481106106d557600080fd5b6106f4600160008a815260200190815260200160002060020154610be6565b9650965096509650965096505091939550919395565b6001602052806000526040600020600091509050806000018054600181600116156101000203166002900480601f0160208091040260200160405190810160405280929190818152602001828054600181600116156101000203166002900480156107b65780601f1061078b576101008083540402835291602001916107b6565b820191906000526020600020905b81548152906001019060200180831161079957829003601f168201915b505050505090806001018054600181600116156101000203166002900480601f0160208091040260200160405190810160405280929190818152602001828054600181600116156101000203166002900480156108545780601f1061082957610100808354040283529160200191610854565b820191906000526020600020905b81548152906001019060200180831161083757829003601f168201915b5050505050908060020154908060030154908060040154908060050160009054906101000a900473ffffffffffffffffffffffffffffffffffffffff16905086565b60005481565b60008160005481106108ad57600080fd5b6001600084815260200190815260200160002060030154915050919050565b60608160005481106108dd57600080fd5b600160008481526020019081526020016000206001018054600181600116156101000203166002900480601f0160208091040260200160405190810160405280929190818152602001828054600181600116156101000203166002900480156109875780601f1061095c57610100808354040283529160200191610987565b820191906000526020600020905b81548152906001019060200180831161096a57829003601f168201915b5050505050915050919050565b60008160005481106109a557600080fd5b6001600084815260200190815260200160002060050160009054906101000a900473ffffffffffffffffffffffffffffffffffffffff16915050919050565b60608160005481106109f557600080fd5b600160008481526020019081526020016000206000018054600181600116156101000203166002900480601f016020809104026020016040519081016040528092919081815260200182805460018160011615610100020316600290048015610a9f5780601f10610a7457610100808354040283529160200191610a9f565b820191906000526020600020905b815481529060010190602001808311610a8257829003601f168201915b5050505050915050919050565b6000610ab6610e0f565b6040518060c001604052808e81526020018d8152602001610adb8d8d8d8d8d8d610c61565b81526020018681526020018581526020018473ffffffffffffffffffffffffffffffffffffffff168152509050600080600081548092919060010191905055905081600160008381526020019081526020016000206000820151816000019080519060200190610b4c929190610e5b565b506020820151816001019080519060200190610b69929190610e5b565b5060408201518160020155606082015181600301556080820151816004015560a08201518160050160006101000a81548173ffffffffffffffffffffffffffffffffffffffff021916908373ffffffffffffffffffffffffffffffffffffffff16021790555090505080925050509b9a5050505050505050505050565b600080600080600080610c04620151808881610bfe57fe5b04610c8c565b8096508197508298505050506000620151808881610c1e57fe5b069050610e108181610c2c57fe5b049350610e108181610c3a57fe5b069050603c8181610c4757fe5b049250603c8181610c5457fe5b0691505091939550919395565b600081603c8402610e10860262015180610c7c8b8b8b610d60565b0201010190509695505050505050565b600080600080849050600062253d8c62010bd98301019050600062023ab18260040281610cb557fe5b059050600460038262023ab1020181610cca57fe5b0582039150600062164b0960018401610fa00281610ce457fe5b059050601f6004826105b50281610cf757fe5b058403019250600061098f8460500281610d0d57fe5b059050600060508261098f0281610d2057fe5b0585039050600b8281610d2f57fe5b05945084600c0260028301039150848360318603606402010192508298508197508096505050505050509193909250565b60006107b2841015610d7157600080fd5b600084905060008490506000849050600062253d8c60046064600c600e870381610d9757fe5b0561132488010181610da557fe5b0560030281610db057fe5b05600c80600c600e880381610dc157fe5b0502600287030361016f0281610dd357fe5b056004600c600e880381610de357fe5b056112c08901016105b50281610df557fe5b05617d4b8603010103039050809450505050509392505050565b6040518060c001604052806060815260200160608152602001600081526020016000815260200160008152602001600073ffffffffffffffffffffffffffffffffffffffff1681525090565b828054600181600116156101000203166002900490600052602060002090601f016020900481019282601f10610e9c57805160ff1916838001178555610eca565b82800160010185558215610eca579182015b82811115610ec9578251825591602001919060010190610eae565b5b509050610ed79190610edb565b5090565b610efd91905b80821115610ef9576000816000905550600101610ee1565b5090565b9056fea265627a7a7231582003562beb87fb878455fe4d9628a4c1926da8938fb04f0089951bb33511c5a5b664736f6c63430005110032",
  "source": "pragma solidity ^0.5.0;\r\n\r\nimport \"./DateTime.sol\";\r\n\r\ncontract Event {\r\n\r\n    struct eventObj {\r\n        string title;\r\n        string venue;\r\n        uint256 dateAndTime;\r\n        uint256 capacity;\r\n        uint256 ticketsLeft;\r\n        address seller;\r\n    }\r\n\r\n    uint256 public numEvents = 0;\r\n    mapping(uint256 => eventObj) public events;\r\n\r\n    function createEvent(\r\n        string memory title,\r\n        string memory venue,\r\n        uint256 year, uint256 month, uint256 day, uint256 hour, uint256 minute, uint256 second,\r\n        uint256 capacity,\r\n        uint256 ticketsLeft,\r\n        address seller\r\n    ) public returns (uint256) {\r\n        // require creation fee in terms of tokens?\r\n        // require(msg.sender == platformOwner/seller?)\r\n\r\n        // require input validation for parameters Eg. datetime\r\n\r\n        eventObj memory newEvent = eventObj(\r\n            title,\r\n            venue,\r\n            DateTime.timestampFromDateTime(year, month, day, hour, minute, second),\r\n            capacity,\r\n            ticketsLeft,\r\n            seller\r\n        );\r\n\r\n        uint256 newEventId = numEvents++;\r\n        events[newEventId] = newEvent;\r\n        // transfer creation fee?\r\n\r\n        // Generate Tickets\r\n\r\n        return newEventId;\r\n    }\r\n\r\n    modifier validEventId(uint256 eventId) {\r\n        require(eventId < numEvents);\r\n        _;\r\n    }\r\n\r\n    function getEventTitle(uint256 eventId) public view validEventId(eventId) returns (string memory) {\r\n        return events[eventId].title;\r\n    }\r\n\r\n    function getEventVenue(uint256 eventId) public view validEventId(eventId) returns (string memory) {\r\n        return events[eventId].venue;\r\n    }\r\n\r\n    function getEventDateAndTime(uint256 eventId) public view validEventId(eventId) returns (uint256, uint256, uint256, uint256, uint256, uint256) {\r\n        return DateTime.timestampToDateTime(events[eventId].dateAndTime);\r\n    }\r\n\r\n    function getEventCapacity(uint256 eventId) public view validEventId(eventId) returns (uint256) {\r\n        return events[eventId].capacity;\r\n    }\r\n\r\n    function getEventTicketsLeft(uint256 eventId) public view validEventId(eventId) returns (uint256) {\r\n        return events[eventId].ticketsLeft;\r\n    }\r\n    \r\n    function getEventSeller(uint256 eventId) public view validEventId(eventId) returns (address) {\r\n        return events[eventId].seller;\r\n    }\r\n}\r\n\r\n",
  "sourcePath": "C:\\Users\\remus\\Desktop\\3.2\\IS4302\\Project\\contracts\\Event.sol",
  "compiler": {
    "name": "solc",
    "version": "0.5.17+commit.d19bba13.Emscripten.clang"
  },
  "schemaVersion": "3.4.11",
  "updatedAt": "2023-03-11T06:43:11.423Z",
  "networkType": "ethereum",
  "devdoc": {
    "methods": {}
  },
  "userdoc": {
    "methods": {}
  }
}