{
  "contractName": "Platform",
  "abi": [
    {
      "inputs": [
        {
          "internalType": "contract Account",
          "name": "accountAddr",
          "type": "address"
        },
        {
          "internalType": "contract EventToken",
          "name": "eventTokenAddr",
          "type": "address"
        },
        {
          "internalType": "contract Event",
          "name": "eventAddr",
          "type": "address"
        },
        {
          "internalType": "contract Ticket",
          "name": "ticketAddr",
          "type": "address"
        }
      ],
      "payable": false,
      "stateMutability": "nonpayable",
      "type": "constructor"
    },
    {
      "anonymous": false,
      "inputs": [
        {
          "indexed": false,
          "internalType": "uint256",
          "name": "eventId",
          "type": "uint256"
        }
      ],
      "name": "BidClosed",
      "type": "event"
    },
    {
      "anonymous": false,
      "inputs": [
        {
          "indexed": false,
          "internalType": "uint256",
          "name": "eventId",
          "type": "uint256"
        }
      ],
      "name": "BidCommenced",
      "type": "event"
    },
    {
      "anonymous": false,
      "inputs": [
        {
          "indexed": false,
          "internalType": "uint256",
          "name": "eventId",
          "type": "uint256"
        },
        {
          "indexed": false,
          "internalType": "address",
          "name": "buyer",
          "type": "address"
        },
        {
          "indexed": false,
          "internalType": "uint256",
          "name": "tokenBid",
          "type": "uint256"
        }
      ],
      "name": "BidPlaced",
      "type": "event"
    },
    {
      "anonymous": false,
      "inputs": [
        {
          "indexed": false,
          "internalType": "uint256",
          "name": "eventId",
          "type": "uint256"
        },
        {
          "indexed": false,
          "internalType": "address",
          "name": "buyer",
          "type": "address"
        },
        {
          "indexed": false,
          "internalType": "uint256",
          "name": "tokenBid",
          "type": "uint256"
        }
      ],
      "name": "BidUpdate",
      "type": "event"
    },
    {
      "anonymous": false,
      "inputs": [
        {
          "indexed": false,
          "internalType": "uint256",
          "name": "eventId",
          "type": "uint256"
        },
        {
          "indexed": false,
          "internalType": "address",
          "name": "buyer",
          "type": "address"
        }
      ],
      "name": "BuyTicket",
      "type": "event"
    },
    {
      "anonymous": false,
      "inputs": [
        {
          "indexed": false,
          "internalType": "uint256",
          "name": "eventId",
          "type": "uint256"
        }
      ],
      "name": "PlatformEventEnd",
      "type": "event"
    },
    {
      "anonymous": false,
      "inputs": [
        {
          "indexed": false,
          "internalType": "uint256",
          "name": "ticketId",
          "type": "uint256"
        },
        {
          "indexed": false,
          "internalType": "address",
          "name": "refunder",
          "type": "address"
        }
      ],
      "name": "RefundTicket",
      "type": "event"
    },
    {
      "anonymous": false,
      "inputs": [
        {
          "indexed": false,
          "internalType": "uint256",
          "name": "eventId",
          "type": "uint256"
        }
      ],
      "name": "SellerEventEnd",
      "type": "event"
    },
    {
      "constant": true,
      "inputs": [
        {
          "internalType": "address",
          "name": "",
          "type": "address"
        },
        {
          "internalType": "uint256",
          "name": "",
          "type": "uint256"
        }
      ],
      "name": "addressBiddings",
      "outputs": [
        {
          "internalType": "uint256",
          "name": "quantity",
          "type": "uint256"
        },
        {
          "internalType": "uint256",
          "name": "pricePerTicket",
          "type": "uint256"
        },
        {
          "internalType": "uint256",
          "name": "tokenPerTicket",
          "type": "uint256"
        },
        {
          "internalType": "uint256",
          "name": "firstIndexForEventBiddings",
          "type": "uint256"
        }
      ],
      "payable": false,
      "stateMutability": "view",
      "type": "function"
    },
    {
      "constant": true,
      "inputs": [
        {
          "internalType": "uint256",
          "name": "",
          "type": "uint256"
        },
        {
          "internalType": "uint256",
          "name": "",
          "type": "uint256"
        },
        {
          "internalType": "uint256",
          "name": "",
          "type": "uint256"
        }
      ],
      "name": "eventBiddings",
      "outputs": [
        {
          "internalType": "address",
          "name": "",
          "type": "address"
        }
      ],
      "payable": false,
      "stateMutability": "view",
      "type": "function"
    },
    {
      "constant": true,
      "inputs": [
        {
          "internalType": "uint256",
          "name": "",
          "type": "uint256"
        }
      ],
      "name": "eventTopBid",
      "outputs": [
        {
          "internalType": "uint256",
          "name": "",
          "type": "uint256"
        }
      ],
      "payable": false,
      "stateMutability": "view",
      "type": "function"
    },
    {
      "constant": false,
      "inputs": [
        {
          "internalType": "string",
          "name": "title",
          "type": "string"
        },
        {
          "internalType": "string",
          "name": "venue",
          "type": "string"
        },
        {
          "internalType": "uint256",
          "name": "year",
          "type": "uint256"
        },
        {
          "internalType": "uint256",
          "name": "month",
          "type": "uint256"
        },
        {
          "internalType": "uint256",
          "name": "day",
          "type": "uint256"
        },
        {
          "internalType": "uint256",
          "name": "hour",
          "type": "uint256"
        },
        {
          "internalType": "uint256",
          "name": "minute",
          "type": "uint256"
        },
        {
          "internalType": "uint256",
          "name": "second",
          "type": "uint256"
        },
        {
          "internalType": "uint256",
          "name": "capacity",
          "type": "uint256"
        },
        {
          "internalType": "uint256",
          "name": "priceOfTicket",
          "type": "uint256"
        },
        {
          "internalType": "address",
          "name": "seller",
          "type": "address"
        }
      ],
      "name": "listEvent",
      "outputs": [
        {
          "internalType": "uint256",
          "name": "",
          "type": "uint256"
        }
      ],
      "payable": true,
      "stateMutability": "payable",
      "type": "function"
    },
    {
      "constant": false,
      "inputs": [
        {
          "internalType": "uint256",
          "name": "eventId",
          "type": "uint256"
        }
      ],
      "name": "commenceBidding",
      "outputs": [],
      "payable": false,
      "stateMutability": "nonpayable",
      "type": "function"
    },
    {
      "constant": false,
      "inputs": [
        {
          "internalType": "uint256",
          "name": "eventId",
          "type": "uint256"
        },
        {
          "internalType": "uint8",
          "name": "quantity",
          "type": "uint8"
        },
        {
          "internalType": "uint256",
          "name": "tokenBid",
          "type": "uint256"
        }
      ],
      "name": "placeBid",
      "outputs": [],
      "payable": true,
      "stateMutability": "payable",
      "type": "function"
    },
    {
      "constant": false,
      "inputs": [
        {
          "internalType": "uint256",
          "name": "eventId",
          "type": "uint256"
        },
        {
          "internalType": "uint256",
          "name": "tokenBid",
          "type": "uint256"
        }
      ],
      "name": "updateBid",
      "outputs": [],
      "payable": false,
      "stateMutability": "nonpayable",
      "type": "function"
    },
    {
      "constant": false,
      "inputs": [
        {
          "internalType": "uint256",
          "name": "eventId",
          "type": "uint256"
        }
      ],
      "name": "closeBidding",
      "outputs": [],
      "payable": false,
      "stateMutability": "nonpayable",
      "type": "function"
    },
    {
      "constant": false,
      "inputs": [
        {
          "internalType": "uint256",
          "name": "ticketId",
          "type": "uint256"
        }
      ],
      "name": "refundTicket",
      "outputs": [],
      "payable": true,
      "stateMutability": "payable",
      "type": "function"
    },
    {
      "constant": false,
      "inputs": [
        {
          "internalType": "uint256",
          "name": "eventId",
          "type": "uint256"
        },
        {
          "internalType": "uint8",
          "name": "quantity",
          "type": "uint8"
        }
      ],
      "name": "buyTickets",
      "outputs": [],
      "payable": true,
      "stateMutability": "payable",
      "type": "function"
    },
    {
      "constant": false,
      "inputs": [
        {
          "internalType": "uint256",
          "name": "eventId",
          "type": "uint256"
        }
      ],
      "name": "endEvent",
      "outputs": [],
      "payable": false,
      "stateMutability": "nonpayable",
      "type": "function"
    },
    {
      "constant": true,
      "inputs": [
        {
          "internalType": "uint256",
          "name": "capacity",
          "type": "uint256"
        },
        {
          "internalType": "uint256",
          "name": "priceOfTicket",
          "type": "uint256"
        }
      ],
      "name": "calMinimumDeposit",
      "outputs": [
        {
          "internalType": "uint256",
          "name": "",
          "type": "uint256"
        }
      ],
      "payable": false,
      "stateMutability": "pure",
      "type": "function"
    },
    {
      "constant": true,
      "inputs": [],
      "name": "getPlatformAddr",
      "outputs": [
        {
          "internalType": "address",
          "name": "",
          "type": "address"
        }
      ],
      "payable": false,
      "stateMutability": "view",
      "type": "function"
    }
  ],
  "bytecode": "0x608060405234801561001057600080fd5b50604051620050c2380380620050c28339818101604052608081101561003557600080fd5b8101908080519060200190929190805190602001909291908051906020019092919080519060200190929190505050836000806101000a81548173ffffffffffffffffffffffffffffffffffffffff021916908373ffffffffffffffffffffffffffffffffffffffff16021790555082600160006101000a81548173ffffffffffffffffffffffffffffffffffffffff021916908373ffffffffffffffffffffffffffffffffffffffff16021790555081600260006101000a81548173ffffffffffffffffffffffffffffffffffffffff021916908373ffffffffffffffffffffffffffffffffffffffff16021790555080600360006101000a81548173ffffffffffffffffffffffffffffffffffffffff021916908373ffffffffffffffffffffffffffffffffffffffff16021790555033600560006101000a81548173ffffffffffffffffffffffffffffffffffffffff021916908373ffffffffffffffffffffffffffffffffffffffff16021790555050505050614f0680620001bc6000396000f3fe6080604052600436106100c25760003560e01c806360365e0c1161007f5780637a101061116100595780637a101061146104d05780637c1267a6146105295780637c57937d1461056e578063d6375d93146105c5576100c2565b806360365e0c14610422578063750a9b3b1461046757806375774100146104a2576100c2565b80630bec24a6146100c757806312f04c4d1461014b578063330a347b1461032257806344c7cb711461035d5780635a22ac92146103ac5780635b1194b2146103e7575b600080fd5b3480156100d357600080fd5b50610120600480360360408110156100ea57600080fd5b81019080803573ffffffffffffffffffffffffffffffffffffffff16906020019092919080359060200190929190505050610654565b6040518085815260200184815260200183815260200182815260200194505050505060405180910390f35b61030c600480360361016081101561016257600080fd5b810190808035906020019064010000000081111561017f57600080fd5b82018360208201111561019157600080fd5b803590602001918460018302840111640100000000831117156101b357600080fd5b91908080601f016020809104026020016040519081016040528093929190818152602001838380828437600081840152601f19601f8201169050808301925050505050505091929192908035906020019064010000000081111561021657600080fd5b82018360208201111561022857600080fd5b8035906020019184600183028401116401000000008311171561024a57600080fd5b91908080601f016020809104026020016040519081016040528093929190818152602001838380828437600081840152601f19601f8201169050808301925050505050505091929192908035906020019092919080359060200190929190803590602001909291908035906020019092919080359060200190929190803590602001909291908035906020019092919080359060200190929190803573ffffffffffffffffffffffffffffffffffffffff169060200190929190505050610691565b6040518082815260200191505060405180910390f35b34801561032e57600080fd5b5061035b6004803603602081101561034557600080fd5b8101908080359060200190929190505050610b4d565b005b34801561036957600080fd5b506103966004803603602081101561038057600080fd5b810190808035906020019092919050505061125d565b6040518082815260200191505060405180910390f35b6103e5600480360360408110156103c257600080fd5b8101908080359060200190929190803560ff169060200190929190505050611275565b005b3480156103f357600080fd5b506104206004803603602081101561040a57600080fd5b8101908080359060200190929190505050612053565b005b34801561042e57600080fd5b506104656004803603604081101561044557600080fd5b810190808035906020019092919080359060200190929190505050612920565b005b34801561047357600080fd5b506104a06004803603602081101561048a57600080fd5b81019080803590602001909291905050506132f9565b005b6104ce600480360360208110156104b857600080fd5b810190808035906020019092919050505061365e565b005b3480156104dc57600080fd5b50610513600480360360408110156104f357600080fd5b810190808035906020019092919080359060200190929190505050613f83565b6040518082815260200191505060405180910390f35b61056c6004803603606081101561053f57600080fd5b8101908080359060200190929190803560ff16906020019092919080359060200190929190505050613f9e565b005b34801561057a57600080fd5b50610583614c7c565b604051808273ffffffffffffffffffffffffffffffffffffffff1673ffffffffffffffffffffffffffffffffffffffff16815260200191505060405180910390f35b3480156105d157600080fd5b50610612600480360360608110156105e857600080fd5b81019080803590602001909291908035906020019092919080359060200190929190505050614c84565b604051808273ffffffffffffffffffffffffffffffffffffffff1673ffffffffffffffffffffffffffffffffffffffff16815260200191505060405180910390f35b6008602052816000526040600020602052806000526040600020600091509150508060000154908060010154908060020154908060030154905084565b60008060009054906101000a900473ffffffffffffffffffffffffffffffffffffffff1673ffffffffffffffffffffffffffffffffffffffff1663a76dd7746040518163ffffffff1660e01b815260040160206040518083038186803b1580156106fa57600080fd5b505afa15801561070e573d6000803e3d6000fd5b505050506040513d602081101561072457600080fd5b8101908080519060200190929190505050600181111561074057fe5b6000809054906101000a900473ffffffffffffffffffffffffffffffffffffffff1673ffffffffffffffffffffffffffffffffffffffff16639a6c8951336040518263ffffffff1660e01b8152600401808273ffffffffffffffffffffffffffffffffffffffff1673ffffffffffffffffffffffffffffffffffffffff16815260200191505060206040518083038186803b1580156107de57600080fd5b505afa1580156107f2573d6000803e3d6000fd5b505050506040513d602081101561080857600080fd5b8101908080519060200190929190505050600181111561082457fe5b14610897576040517f08c379a000000000000000000000000000000000000000000000000000000000815260040180806020018281038252601d8152602001807f596f7520617265206e6f7420612076657269666965642073656c6c657200000081525060200191505060405180910390fd5b60016108a38585613f83565b023410156108fc576040517f08c379a0000000000000000000000000000000000000000000000000000000008152600401808060200182810382526063815260200180614d056063913960800191505060405180910390fd5b6000600260009054906101000a900473ffffffffffffffffffffffffffffffffffffffff1673ffffffffffffffffffffffffffffffffffffffff1663ee6d30a18e8e8e8e8e8e8e8e8e8e8e6040518c63ffffffff1660e01b81526004018080602001806020018c81526020018b81526020018a81526020018981526020018881526020018781526020018681526020018581526020018473ffffffffffffffffffffffffffffffffffffffff1673ffffffffffffffffffffffffffffffffffffffff16815260200183810383528e818151815260200191508051906020019080838360005b838110156109fc5780820151818401526020810190506109e1565b50505050905090810190601f168015610a295780820380516001836020036101000a031916815260200191505b5083810382528d818151815260200191508051906020019080838360005b83811015610a62578082015181840152602081019050610a47565b50505050905090810190601f168015610a8f5780820380516001836020036101000a031916815260200191505b509d5050505050505050505050505050602060405180830381600087803b158015610ab957600080fd5b505af1158015610acd573d6000803e3d6000fd5b505050506040513d6020811015610ae357600080fd5b8101908080519060200190929190505050905034600460003373ffffffffffffffffffffffffffffffffffffffff1673ffffffffffffffffffffffffffffffffffffffff16815260200190815260200160002081905550809150509b9a5050505050505050505050565b6000809054906101000a900473ffffffffffffffffffffffffffffffffffffffff1673ffffffffffffffffffffffffffffffffffffffff1663a76dd7746040518163ffffffff1660e01b815260040160206040518083038186803b158015610bb457600080fd5b505afa158015610bc8573d6000803e3d6000fd5b505050506040513d6020811015610bde57600080fd5b81019080805190602001909291905050506001811115610bfa57fe5b6000809054906101000a900473ffffffffffffffffffffffffffffffffffffffff1673ffffffffffffffffffffffffffffffffffffffff16639a6c8951336040518263ffffffff1660e01b8152600401808273ffffffffffffffffffffffffffffffffffffffff1673ffffffffffffffffffffffffffffffffffffffff16815260200191505060206040518083038186803b158015610c9857600080fd5b505afa158015610cac573d6000803e3d6000fd5b505050506040513d6020811015610cc257600080fd5b81019080805190602001909291905050506001811115610cde57fe5b14610d51576040517f08c379a000000000000000000000000000000000000000000000000000000000815260040180806020018281038252601d8152602001807f596f7520617265206e6f7420612076657269666965642073656c6c657200000081525060200191505060405180910390fd5b6000600260009054906101000a900473ffffffffffffffffffffffffffffffffffffffff1673ffffffffffffffffffffffffffffffffffffffff1663afaddf8f836040518263ffffffff1660e01b81526004018082815260200191505060206040518083038186803b158015610dc657600080fd5b505afa158015610dda573d6000803e3d6000fd5b505050506040513d6020811015610df057600080fd5b810190808051906020019092919050505090503373ffffffffffffffffffffffffffffffffffffffff168173ffffffffffffffffffffffffffffffffffffffff1614610e87576040517f08c379a0000000000000000000000000000000000000000000000000000000008152600401808060200182810382526022815260200180614e616022913960400191505060405180910390fd5b3373ffffffffffffffffffffffffffffffffffffffff166108fc600460008473ffffffffffffffffffffffffffffffffffffffff1673ffffffffffffffffffffffffffffffffffffffff168152602001908152602001600020549081150290604051600060405180830381858888f19350505050158015610f0c573d6000803e3d6000fd5b506000600260009054906101000a900473ffffffffffffffffffffffffffffffffffffffff1673ffffffffffffffffffffffffffffffffffffffff1663046cbeec846040518263ffffffff1660e01b81526004018082815260200191505060206040518083038186803b158015610f8257600080fd5b505afa158015610f96573d6000803e3d6000fd5b505050506040513d6020811015610fac57600080fd5b8101908080519060200190929190505050600260009054906101000a900473ffffffffffffffffffffffffffffffffffffffff1673ffffffffffffffffffffffffffffffffffffffff16635788b400856040518263ffffffff1660e01b81526004018082815260200191505060206040518083038186803b15801561103057600080fd5b505afa158015611044573d6000803e3d6000fd5b505050506040513d602081101561105a57600080fd5b81019080805190602001909291905050500390506000600260009054906101000a900473ffffffffffffffffffffffffffffffffffffffff1673ffffffffffffffffffffffffffffffffffffffff16636459d3b4856040518263ffffffff1660e01b81526004018082815260200191505060206040518083038186803b1580156110e357600080fd5b505afa1580156110f7573d6000803e3d6000fd5b505050506040513d602081101561110d57600080fd5b8101908080519060200190929190505050820290506000606482605f028161113157fe5b0490503373ffffffffffffffffffffffffffffffffffffffff166108fc829081150290604051600060405180830381858888f1935050505015801561117a573d6000803e3d6000fd5b50600260009054906101000a900473ffffffffffffffffffffffffffffffffffffffff1673ffffffffffffffffffffffffffffffffffffffff1663b2c55a348660036040518363ffffffff1660e01b8152600401808381526020018260048111156111e157fe5b60ff16815260200192505050600060405180830381600087803b15801561120757600080fd5b505af115801561121b573d6000803e3d6000fd5b505050507f495f8b7bb58e30ac91c7041cf163f35c27c516127bfaef128c121f5a36b04aac856040518082815260200191505060405180910390a15050505050565b60066020528060005260406000206000915090505481565b6000809054906101000a900473ffffffffffffffffffffffffffffffffffffffff1673ffffffffffffffffffffffffffffffffffffffff166390f9b6786040518163ffffffff1660e01b815260040160206040518083038186803b1580156112dc57600080fd5b505afa1580156112f0573d6000803e3d6000fd5b505050506040513d602081101561130657600080fd5b8101908080519060200190929190505050600181111561132257fe5b6000809054906101000a900473ffffffffffffffffffffffffffffffffffffffff1673ffffffffffffffffffffffffffffffffffffffff16639a6c8951336040518263ffffffff1660e01b8152600401808273ffffffffffffffffffffffffffffffffffffffff1673ffffffffffffffffffffffffffffffffffffffff16815260200191505060206040518083038186803b1580156113c057600080fd5b505afa1580156113d4573d6000803e3d6000fd5b505050506040513d60208110156113ea57600080fd5b8101908080519060200190929190505050600181111561140657fe5b14611479576040517f08c379a00000000000000000000000000000000000000000000000000000000081526004018080602001828103825260138152602001807f596f7520617265206e6f7420612062757965720000000000000000000000000081525060200191505060405180910390fd5b6002600481111561148657fe5b600260009054906101000a900473ffffffffffffffffffffffffffffffffffffffff1673ffffffffffffffffffffffffffffffffffffffff1663e5fc78c4846040518263ffffffff1660e01b81526004018082815260200191505060206040518083038186803b1580156114f957600080fd5b505afa15801561150d573d6000803e3d6000fd5b505050506040513d602081101561152357600080fd5b8101908080519060200190929190505050600481111561153f57fe5b146115b2576040517f08c379a00000000000000000000000000000000000000000000000000000000081526004018080602001828103825260198152602001807f4576656e74206e6f74206f70656e20666f7220627579696e670000000000000081525060200191505060405180910390fd5b60008160ff161161160e576040517f08c379a0000000000000000000000000000000000000000000000000000000008152600401808060200182810382526026815260200180614eac6026913960400191505060405180910390fd5b60048160ff16111561166b576040517f08c379a000000000000000000000000000000000000000000000000000000000815260040180806020018281038252602f815260200180614d68602f913960400191505060405180910390fd5b60011515600260009054906101000a900473ffffffffffffffffffffffffffffffffffffffff1673ffffffffffffffffffffffffffffffffffffffff166301d3cf68846040518263ffffffff1660e01b81526004018082815260200191505060206040518083038186803b1580156116e257600080fd5b505afa1580156116f6573d6000803e3d6000fd5b505050506040513d602081101561170c57600080fd5b8101908080519060200190929190505050151514611792576040517f08c379a000000000000000000000000000000000000000000000000000000000815260040180806020018281038252600d8152602001807f496e76616c6964204576656e740000000000000000000000000000000000000081525060200191505060405180910390fd5b8060ff16600260009054906101000a900473ffffffffffffffffffffffffffffffffffffffff1673ffffffffffffffffffffffffffffffffffffffff1663046cbeec846040518263ffffffff1660e01b81526004018082815260200191505060206040518083038186803b15801561180957600080fd5b505afa15801561181d573d6000803e3d6000fd5b505050506040513d602081101561183357600080fd5b810190808051906020019092919050505010156118b8576040517f08c379a00000000000000000000000000000000000000000000000000000000081526004018080602001828103825260128152602001807f4e6f7420656e6f756768207469636b657473000000000000000000000000000081525060200191505060405180910390fd5b60008160ff16600260009054906101000a900473ffffffffffffffffffffffffffffffffffffffff1673ffffffffffffffffffffffffffffffffffffffff16636459d3b4856040518263ffffffff1660e01b81526004018082815260200191505060206040518083038186803b15801561193157600080fd5b505afa158015611945573d6000803e3d6000fd5b505050506040513d602081101561195b57600080fd5b8101908080519060200190929190505050029050803410156119c8576040517f08c379a0000000000000000000000000000000000000000000000000000000008152600401808060200182810382526029815260200180614e836029913960400191505060405180910390fd5b60008260ff16600260009054906101000a900473ffffffffffffffffffffffffffffffffffffffff1673ffffffffffffffffffffffffffffffffffffffff1663046cbeec866040518263ffffffff1660e01b81526004018082815260200191505060206040518083038186803b158015611a4157600080fd5b505afa158015611a55573d6000803e3d6000fd5b505050506040513d6020811015611a6b57600080fd5b8101908080519060200190929190505050039050600260009054906101000a900473ffffffffffffffffffffffffffffffffffffffff1673ffffffffffffffffffffffffffffffffffffffff1663af71a95885836040518363ffffffff1660e01b81526004018083815260200182815260200192505050600060405180830381600087803b158015611afc57600080fd5b505af1158015611b10573d6000803e3d6000fd5b505050506000600260009054906101000a900473ffffffffffffffffffffffffffffffffffffffff1673ffffffffffffffffffffffffffffffffffffffff1663a52f91f9866040518263ffffffff1660e01b81526004018082815260200191505060206040518083038186803b158015611b8957600080fd5b505afa158015611b9d573d6000803e3d6000fd5b505050506040513d6020811015611bb357600080fd5b8101908080519060200190929190505050905060006001600260009054906101000a900473ffffffffffffffffffffffffffffffffffffffff1673ffffffffffffffffffffffffffffffffffffffff16635788b400886040518263ffffffff1660e01b81526004018082815260200191505060206040518083038186803b158015611c3d57600080fd5b505afa158015611c51573d6000803e3d6000fd5b505050506040513d6020811015611c6757600080fd5b810190808051906020019092919050505083010390505b818110611e50573073ffffffffffffffffffffffffffffffffffffffff16600360009054906101000a900473ffffffffffffffffffffffffffffffffffffffff1673ffffffffffffffffffffffffffffffffffffffff1663ad093409836040518263ffffffff1660e01b81526004018082815260200191505060206040518083038186803b158015611d0f57600080fd5b505afa158015611d23573d6000803e3d6000fd5b505050506040513d6020811015611d3957600080fd5b810190808051906020019092919050505073ffffffffffffffffffffffffffffffffffffffff161415611e4257600360009054906101000a900473ffffffffffffffffffffffffffffffffffffffff1673ffffffffffffffffffffffffffffffffffffffff1663679ebf1a82336040518363ffffffff1660e01b8152600401808381526020018273ffffffffffffffffffffffffffffffffffffffff1673ffffffffffffffffffffffffffffffffffffffff16815260200192505050600060405180830381600087803b158015611e0f57600080fd5b505af1158015611e23573d6000803e3d6000fd5b5050505084806001900395505060008560ff161415611e4157611e50565b5b808060019003915050611c7e565b600260009054906101000a900473ffffffffffffffffffffffffffffffffffffffff1673ffffffffffffffffffffffffffffffffffffffff1663af71a958878760ff16600260009054906101000a900473ffffffffffffffffffffffffffffffffffffffff1673ffffffffffffffffffffffffffffffffffffffff1663046cbeec8b6040518263ffffffff1660e01b81526004018082815260200191505060206040518083038186803b158015611f0657600080fd5b505afa158015611f1a573d6000803e3d6000fd5b505050506040513d6020811015611f3057600080fd5b8101908080519060200190929190505050036040518363ffffffff1660e01b81526004018083815260200182815260200192505050600060405180830381600087803b158015611f7f57600080fd5b505af1158015611f93573d6000803e3d6000fd5b505050503373ffffffffffffffffffffffffffffffffffffffff166108fc8534039081150290604051600060405180830381858888f19350505050158015611fdf573d6000803e3d6000fd5b507f98b1ba5f454cea2e686f54332a7b0f31faa0ffe6644247ffb84185f75e029a528633604051808381526020018273ffffffffffffffffffffffffffffffffffffffff1673ffffffffffffffffffffffffffffffffffffffff1681526020019250505060405180910390a1505050505050565b600260009054906101000a900473ffffffffffffffffffffffffffffffffffffffff1673ffffffffffffffffffffffffffffffffffffffff1663afaddf8f826040518263ffffffff1660e01b81526004018082815260200191505060206040518083038186803b1580156120c657600080fd5b505afa1580156120da573d6000803e3d6000fd5b505050506040513d60208110156120f057600080fd5b810190808051906020019092919050505073ffffffffffffffffffffffffffffffffffffffff163373ffffffffffffffffffffffffffffffffffffffff16146121a1576040517f08c379a000000000000000000000000000000000000000000000000000000000815260040180806020018281038252601d8152602001807f4f6e6c792073656c6c65722063616e20636c6f73652062696464696e6700000081525060200191505060405180910390fd5b600160048111156121ae57fe5b600260009054906101000a900473ffffffffffffffffffffffffffffffffffffffff1673ffffffffffffffffffffffffffffffffffffffff1663e5fc78c4836040518263ffffffff1660e01b81526004018082815260200191505060206040518083038186803b15801561222157600080fd5b505afa158015612235573d6000803e3d6000fd5b505050506040513d602081101561224b57600080fd5b8101908080519060200190929190505050600481111561226757fe5b146122da576040517f08c379a000000000000000000000000000000000000000000000000000000000815260040180806020018281038252601a8152602001807f4576656e74206e6f74206f70656e20666f722062696464696e6700000000000081525060200191505060405180910390fd5b6000600660008381526020019081526020016000205490506000600260009054906101000a900473ffffffffffffffffffffffffffffffffffffffff1673ffffffffffffffffffffffffffffffffffffffff1663046cbeec846040518263ffffffff1660e01b81526004018082815260200191505060206040518083038186803b15801561236757600080fd5b505afa15801561237b573d6000803e3d6000fd5b505050506040513d602081101561239157600080fd5b810190808051906020019092919050505090506000600260009054906101000a900473ffffffffffffffffffffffffffffffffffffffff1673ffffffffffffffffffffffffffffffffffffffff1663a52f91f9856040518263ffffffff1660e01b81526004018082815260200191505060206040518083038186803b15801561241957600080fd5b505afa15801561242d573d6000803e3d6000fd5b505050506040513d602081101561244357600080fd5b810190808051906020019092919050505090505b6001156127aa57606060076000868152602001908152602001600020600085815260200190815260200160002080548060200260200160405190810160405280929190818152602001828054801561250457602002820191906000526020600020905b8160009054906101000a900473ffffffffffffffffffffffffffffffffffffffff1673ffffffffffffffffffffffffffffffffffffffff16815260200190600101908083116124ba575b5050505050905060008090505b815181101561278b57600073ffffffffffffffffffffffffffffffffffffffff1682828151811061253e57fe5b602002602001015173ffffffffffffffffffffffffffffffffffffffff1614156125675761277e565b6000841461265957600360009054906101000a900473ffffffffffffffffffffffffffffffffffffffff1673ffffffffffffffffffffffffffffffffffffffff1663679ebf1a848484815181106125ba57fe5b60200260200101516040518363ffffffff1660e01b8152600401808381526020018273ffffffffffffffffffffffffffffffffffffffff1673ffffffffffffffffffffffffffffffffffffffff16815260200192505050600060405180830381600087803b15801561262b57600080fd5b505af115801561263f573d6000803e3d6000fd5b50505050828060010193505083806001900394505061277d565b600082828151811061266757fe5b602002602001015173ffffffffffffffffffffffffffffffffffffffff1690508073ffffffffffffffffffffffffffffffffffffffff166108fc600260009054906101000a900473ffffffffffffffffffffffffffffffffffffffff1673ffffffffffffffffffffffffffffffffffffffff16636459d3b48a6040518263ffffffff1660e01b81526004018082815260200191505060206040518083038186803b15801561271457600080fd5b505afa158015612728573d6000803e3d6000fd5b505050506040513d602081101561273e57600080fd5b81019080805190602001909291905050509081150290604051600060405180830381858888f1935050505015801561277a573d6000803e3d6000fd5b50505b5b8080600101915050612511565b50600084141561279b57506127aa565b83806001900394505050612457565b600260009054906101000a900473ffffffffffffffffffffffffffffffffffffffff1673ffffffffffffffffffffffffffffffffffffffff1663af71a95885846040518363ffffffff1660e01b81526004018083815260200182815260200192505050600060405180830381600087803b15801561282757600080fd5b505af115801561283b573d6000803e3d6000fd5b50505050600260009054906101000a900473ffffffffffffffffffffffffffffffffffffffff1673ffffffffffffffffffffffffffffffffffffffff1663b2c55a348560026040518363ffffffff1660e01b8152600401808381526020018260048111156128a557fe5b60ff16815260200192505050600060405180830381600087803b1580156128cb57600080fd5b505af11580156128df573d6000803e3d6000fd5b505050507f6763f632a6aff2fa61f0d00f2f5928247e48bbab083af597c763beb7a7074ac1846040518082815260200191505060405180910390a150505050565b6000809054906101000a900473ffffffffffffffffffffffffffffffffffffffff1673ffffffffffffffffffffffffffffffffffffffff166390f9b6786040518163ffffffff1660e01b815260040160206040518083038186803b15801561298757600080fd5b505afa15801561299b573d6000803e3d6000fd5b505050506040513d60208110156129b157600080fd5b810190808051906020019092919050505060018111156129cd57fe5b6000809054906101000a900473ffffffffffffffffffffffffffffffffffffffff1673ffffffffffffffffffffffffffffffffffffffff16639a6c8951336040518263ffffffff1660e01b8152600401808273ffffffffffffffffffffffffffffffffffffffff1673ffffffffffffffffffffffffffffffffffffffff16815260200191505060206040518083038186803b158015612a6b57600080fd5b505afa158015612a7f573d6000803e3d6000fd5b505050506040513d6020811015612a9557600080fd5b81019080805190602001909291905050506001811115612ab157fe5b14612b24576040517f08c379a00000000000000000000000000000000000000000000000000000000081526004018080602001828103825260138152602001807f596f7520617265206e6f7420612062757965720000000000000000000000000081525060200191505060405180910390fd5b60016004811115612b3157fe5b600260009054906101000a900473ffffffffffffffffffffffffffffffffffffffff1673ffffffffffffffffffffffffffffffffffffffff1663e5fc78c4846040518263ffffffff1660e01b81526004018082815260200191505060206040518083038186803b158015612ba457600080fd5b505afa158015612bb8573d6000803e3d6000fd5b505050506040513d6020811015612bce57600080fd5b81019080805190602001909291905050506004811115612bea57fe5b14612c5d576040517f08c379a000000000000000000000000000000000000000000000000000000000815260040180806020018281038252601a8152602001807f4576656e74206e6f74206f70656e20666f722062696464696e6700000000000081525060200191505060405180910390fd5b612c65614cdc565b600860003373ffffffffffffffffffffffffffffffffffffffff1673ffffffffffffffffffffffffffffffffffffffff16815260200190815260200160002060008481526020019081526020016000206040518060800160405290816000820154815260200160018201548152602001600282015481526020016003820154815250509050600081600001511415612d48576040517f08c379a0000000000000000000000000000000000000000000000000000000008152600401808060200182810382526029815260200180614dc46029913960400191505060405180910390fd5b80604001518211612da4576040517f08c379a000000000000000000000000000000000000000000000000000000000815260040180806020018281038252602d815260200180614d97602d913960400191505060405180910390fd5b6000816040015183039050600082600001518202905080600160009054906101000a900473ffffffffffffffffffffffffffffffffffffffff1673ffffffffffffffffffffffffffffffffffffffff16638b099b2333306040518363ffffffff1660e01b8152600401808373ffffffffffffffffffffffffffffffffffffffff1673ffffffffffffffffffffffffffffffffffffffff1681526020018273ffffffffffffffffffffffffffffffffffffffff1673ffffffffffffffffffffffffffffffffffffffff1681526020019250505060206040518083038186803b158015612e8e57600080fd5b505afa158015612ea2573d6000803e3d6000fd5b505050506040513d6020811015612eb857600080fd5b81019080805190602001909291905050501015612f20576040517f08c379a000000000000000000000000000000000000000000000000000000000815260040180806020018281038252602d815260200180614e34602d913960400191505060405180910390fd5b600160009054906101000a900473ffffffffffffffffffffffffffffffffffffffff1673ffffffffffffffffffffffffffffffffffffffff1663dbb31b70333030856040518563ffffffff1660e01b8152600401808573ffffffffffffffffffffffffffffffffffffffff1673ffffffffffffffffffffffffffffffffffffffff1681526020018473ffffffffffffffffffffffffffffffffffffffff1673ffffffffffffffffffffffffffffffffffffffff1681526020018373ffffffffffffffffffffffffffffffffffffffff1673ffffffffffffffffffffffffffffffffffffffff168152602001828152602001945050505050600060405180830381600087803b15801561303157600080fd5b505af1158015613045573d6000803e3d6000fd5b505050506000836060015190505b83600001518460600151018110156130d25760076000878152602001908152602001600020600085604001518152602001908152602001600020818154811061309857fe5b9060005260206000200160006101000a81549073ffffffffffffffffffffffffffffffffffffffff02191690558080600101915050613053565b50600080600090505b84600001518160ff1610156131b9576007600088815260200190815260200160002060008781526020019081526020016000203390806001815401808255809150509060018203906000526020600020016000909192909190916101000a81548173ffffffffffffffffffffffffffffffffffffffff021916908373ffffffffffffffffffffffffffffffffffffffff1602179055505060008160ff1614156131ac576001600760008981526020019081526020016000206000888152602001908152602001600020805490500391505b80806001019150506130db565b50848460400181815250508084606001818152505083600860003373ffffffffffffffffffffffffffffffffffffffff1673ffffffffffffffffffffffffffffffffffffffff168152602001908152602001600020600088815260200190815260200160002060008201518160000155602082015181600101556040820151816002015560608201518160030155905050600660008781526020019081526020016000205485111561327e578460066000888152602001908152602001600020819055505b7f9174449ac7c003173341a1f3f506a9527220b24421d6ef39c81cc3be2da5cd7f863387604051808481526020018373ffffffffffffffffffffffffffffffffffffffff1673ffffffffffffffffffffffffffffffffffffffff168152602001828152602001935050505060405180910390a1505050505050565b600260009054906101000a900473ffffffffffffffffffffffffffffffffffffffff1673ffffffffffffffffffffffffffffffffffffffff1663afaddf8f826040518263ffffffff1660e01b81526004018082815260200191505060206040518083038186803b15801561336c57600080fd5b505afa158015613380573d6000803e3d6000fd5b505050506040513d602081101561339657600080fd5b810190808051906020019092919050505073ffffffffffffffffffffffffffffffffffffffff163373ffffffffffffffffffffffffffffffffffffffff1614613447576040517f08c379a00000000000000000000000000000000000000000000000000000000081526004018080602001828103825260208152602001807f4f6e6c792073656c6c65722063616e20636f6d6d656e63652062696464696e6781525060200191505060405180910390fd5b6000600481111561345457fe5b600260009054906101000a900473ffffffffffffffffffffffffffffffffffffffff1673ffffffffffffffffffffffffffffffffffffffff1663e5fc78c4836040518263ffffffff1660e01b81526004018082815260200191505060206040518083038186803b1580156134c757600080fd5b505afa1580156134db573d6000803e3d6000fd5b505050506040513d60208110156134f157600080fd5b8101908080519060200190929190505050600481111561350d57fe5b14613580576040517f08c379a000000000000000000000000000000000000000000000000000000000815260040180806020018281038252601a8152602001807f4576656e74206e6f7420696e20696e697469616c20737461746500000000000081525060200191505060405180910390fd5b600260009054906101000a900473ffffffffffffffffffffffffffffffffffffffff1673ffffffffffffffffffffffffffffffffffffffff1663b2c55a348260016040518363ffffffff1660e01b8152600401808381526020018260048111156135e657fe5b60ff16815260200192505050600060405180830381600087803b15801561360c57600080fd5b505af1158015613620573d6000803e3d6000fd5b505050507f06fe11e50ef598e7d082666f5ab23b04096ea52b6b458ff241ba708c0e66bac9816040518082815260200191505060405180910390a150565b6000809054906101000a900473ffffffffffffffffffffffffffffffffffffffff1673ffffffffffffffffffffffffffffffffffffffff166390f9b6786040518163ffffffff1660e01b815260040160206040518083038186803b1580156136c557600080fd5b505afa1580156136d9573d6000803e3d6000fd5b505050506040513d60208110156136ef57600080fd5b8101908080519060200190929190505050600181111561370b57fe5b6000809054906101000a900473ffffffffffffffffffffffffffffffffffffffff1673ffffffffffffffffffffffffffffffffffffffff16639a6c8951336040518263ffffffff1660e01b8152600401808273ffffffffffffffffffffffffffffffffffffffff1673ffffffffffffffffffffffffffffffffffffffff16815260200191505060206040518083038186803b1580156137a957600080fd5b505afa1580156137bd573d6000803e3d6000fd5b505050506040513d60208110156137d357600080fd5b810190808051906020019092919050505060018111156137ef57fe5b14613862576040517f08c379a00000000000000000000000000000000000000000000000000000000081526004018080602001828103825260138152602001807f596f7520617265206e6f7420612062757965720000000000000000000000000081525060200191505060405180910390fd5b6000600360009054906101000a900473ffffffffffffffffffffffffffffffffffffffff1673ffffffffffffffffffffffffffffffffffffffff1663a433cbbc836040518263ffffffff1660e01b81526004018082815260200191505060206040518083038186803b1580156138d757600080fd5b505afa1580156138eb573d6000803e3d6000fd5b505050506040513d602081101561390157600080fd5b810190808051906020019092919050505090506002600481111561392157fe5b600260009054906101000a900473ffffffffffffffffffffffffffffffffffffffff1673ffffffffffffffffffffffffffffffffffffffff1663e5fc78c4836040518263ffffffff1660e01b81526004018082815260200191505060206040518083038186803b15801561399457600080fd5b505afa1580156139a8573d6000803e3d6000fd5b505050506040513d60208110156139be57600080fd5b810190808051906020019092919050505060048111156139da57fe5b14613a4d576040517f08c379a000000000000000000000000000000000000000000000000000000000815260040180806020018281038252601c8152602001807f4576656e74206e6f74206f70656e20666f7220726566756e64696e670000000081525060200191505060405180910390fd5b3373ffffffffffffffffffffffffffffffffffffffff16600360009054906101000a900473ffffffffffffffffffffffffffffffffffffffff1673ffffffffffffffffffffffffffffffffffffffff1663262ebb48846040518263ffffffff1660e01b81526004018082815260200191505060206040518083038186803b158015613ad757600080fd5b505afa158015613aeb573d6000803e3d6000fd5b505050506040513d6020811015613b0157600080fd5b810190808051906020019092919050505073ffffffffffffffffffffffffffffffffffffffff1614613b9b576040517f08c379a00000000000000000000000000000000000000000000000000000000081526004018080602001828103825260138152602001807f4e6f74206f776e6572206f66207469636b65740000000000000000000000000081525060200191505060405180910390fd5b3073ffffffffffffffffffffffffffffffffffffffff16600360009054906101000a900473ffffffffffffffffffffffffffffffffffffffff1673ffffffffffffffffffffffffffffffffffffffff1663ad093409846040518263ffffffff1660e01b81526004018082815260200191505060206040518083038186803b158015613c2557600080fd5b505afa158015613c39573d6000803e3d6000fd5b505050506040513d6020811015613c4f57600080fd5b810190808051906020019092919050505073ffffffffffffffffffffffffffffffffffffffff1614613ccc576040517f08c379a0000000000000000000000000000000000000000000000000000000008152600401808060200182810382526025815260200180614ded6025913960400191505060405180910390fd5b600260009054906101000a900473ffffffffffffffffffffffffffffffffffffffff1673ffffffffffffffffffffffffffffffffffffffff1663af71a958826001600260009054906101000a900473ffffffffffffffffffffffffffffffffffffffff1673ffffffffffffffffffffffffffffffffffffffff1663046cbeec866040518263ffffffff1660e01b81526004018082815260200191505060206040518083038186803b158015613d8057600080fd5b505afa158015613d94573d6000803e3d6000fd5b505050506040513d6020811015613daa57600080fd5b8101908080519060200190929190505050016040518363ffffffff1660e01b81526004018083815260200182815260200192505050600060405180830381600087803b158015613df957600080fd5b505af1158015613e0d573d6000803e3d6000fd5b50505050600060028060009054906101000a900473ffffffffffffffffffffffffffffffffffffffff1673ffffffffffffffffffffffffffffffffffffffff16636459d3b4846040518263ffffffff1660e01b81526004018082815260200191505060206040518083038186803b158015613e8757600080fd5b505afa158015613e9b573d6000803e3d6000fd5b505050506040513d6020811015613eb157600080fd5b810190808051906020019092919050505081613ec957fe5b0490503373ffffffffffffffffffffffffffffffffffffffff166108fc829081150290604051600060405180830381858888f19350505050158015613f12573d6000803e3d6000fd5b507f40a6831f9344d3b7d89057ad7efb0ec25d91d328d858bacece957b6033e5981a8333604051808381526020018273ffffffffffffffffffffffffffffffffffffffff1673ffffffffffffffffffffffffffffffffffffffff1681526020019250505060405180910390a1505050565b600061c350600283850281613f9457fe5b0402905092915050565b6000809054906101000a900473ffffffffffffffffffffffffffffffffffffffff1673ffffffffffffffffffffffffffffffffffffffff166390f9b6786040518163ffffffff1660e01b815260040160206040518083038186803b15801561400557600080fd5b505afa158015614019573d6000803e3d6000fd5b505050506040513d602081101561402f57600080fd5b8101908080519060200190929190505050600181111561404b57fe5b6000809054906101000a900473ffffffffffffffffffffffffffffffffffffffff1673ffffffffffffffffffffffffffffffffffffffff16639a6c8951336040518263ffffffff1660e01b8152600401808273ffffffffffffffffffffffffffffffffffffffff1673ffffffffffffffffffffffffffffffffffffffff16815260200191505060206040518083038186803b1580156140e957600080fd5b505afa1580156140fd573d6000803e3d6000fd5b505050506040513d602081101561411357600080fd5b8101908080519060200190929190505050600181111561412f57fe5b146141a2576040517f08c379a00000000000000000000000000000000000000000000000000000000081526004018080602001828103825260138152602001807f596f7520617265206e6f7420612062757965720000000000000000000000000081525060200191505060405180910390fd5b600160048111156141af57fe5b600260009054906101000a900473ffffffffffffffffffffffffffffffffffffffff1673ffffffffffffffffffffffffffffffffffffffff1663e5fc78c4856040518263ffffffff1660e01b81526004018082815260200191505060206040518083038186803b15801561422257600080fd5b505afa158015614236573d6000803e3d6000fd5b505050506040513d602081101561424c57600080fd5b8101908080519060200190929190505050600481111561426857fe5b146142db576040517f08c379a000000000000000000000000000000000000000000000000000000000815260040180806020018281038252601a8152602001807f4576656e74206e6f74206f70656e20666f722062696464696e6700000000000081525060200191505060405180910390fd5b60008260ff1611614337576040517f08c379a0000000000000000000000000000000000000000000000000000000008152600401808060200182810382526026815260200180614eac6026913960400191505060405180910390fd5b60048260ff161115614394576040517f08c379a000000000000000000000000000000000000000000000000000000000815260040180806020018281038252602f815260200180614d68602f913960400191505060405180910390fd5b8160ff16600260009054906101000a900473ffffffffffffffffffffffffffffffffffffffff1673ffffffffffffffffffffffffffffffffffffffff16636459d3b4856040518263ffffffff1660e01b81526004018082815260200191505060206040518083038186803b15801561440b57600080fd5b505afa15801561441f573d6000803e3d6000fd5b505050506040513d602081101561443557600080fd5b8101908080519060200190929190505050023410156144bc576040517f08c379a000000000000000000000000000000000000000000000000000000000815260040180806020018281038252601a8152602001807f42757965722068617320696e73756666696369656e742045544800000000000081525060200191505060405180910390fd5b8160ff168102600160009054906101000a900473ffffffffffffffffffffffffffffffffffffffff1673ffffffffffffffffffffffffffffffffffffffff1663575a7c63336040518263ffffffff1660e01b8152600401808273ffffffffffffffffffffffffffffffffffffffff1673ffffffffffffffffffffffffffffffffffffffff16815260200191505060206040518083038186803b15801561456157600080fd5b505afa158015614575573d6000803e3d6000fd5b505050506040513d602081101561458b57600080fd5b810190808051906020019092919050505010156145f3576040517f08c379a0000000000000000000000000000000000000000000000000000000008152600401808060200182810382526022815260200180614e126022913960400191505060405180910390fd5b6000811115614896578160ff168102600160009054906101000a900473ffffffffffffffffffffffffffffffffffffffff1673ffffffffffffffffffffffffffffffffffffffff16638b099b2333306040518363ffffffff1660e01b8152600401808373ffffffffffffffffffffffffffffffffffffffff1673ffffffffffffffffffffffffffffffffffffffff1681526020018273ffffffffffffffffffffffffffffffffffffffff1673ffffffffffffffffffffffffffffffffffffffff1681526020019250505060206040518083038186803b1580156146d557600080fd5b505afa1580156146e9573d6000803e3d6000fd5b505050506040513d60208110156146ff57600080fd5b81019080805190602001909291905050501015614767576040517f08c379a000000000000000000000000000000000000000000000000000000000815260040180806020018281038252602d815260200180614e34602d913960400191505060405180910390fd5b600160009054906101000a900473ffffffffffffffffffffffffffffffffffffffff1673ffffffffffffffffffffffffffffffffffffffff1663dbb31b703330308660ff1686026040518563ffffffff1660e01b8152600401808573ffffffffffffffffffffffffffffffffffffffff1673ffffffffffffffffffffffffffffffffffffffff1681526020018473ffffffffffffffffffffffffffffffffffffffff1673ffffffffffffffffffffffffffffffffffffffff1681526020018373ffffffffffffffffffffffffffffffffffffffff1673ffffffffffffffffffffffffffffffffffffffff168152602001828152602001945050505050600060405180830381600087803b15801561487d57600080fd5b505af1158015614891573d6000803e3d6000fd5b505050505b3373ffffffffffffffffffffffffffffffffffffffff166108fc8360ff16600260009054906101000a900473ffffffffffffffffffffffffffffffffffffffff1673ffffffffffffffffffffffffffffffffffffffff16636459d3b4876040518263ffffffff1660e01b81526004018082815260200191505060206040518083038186803b15801561492757600080fd5b505afa15801561493b573d6000803e3d6000fd5b505050506040513d602081101561495157600080fd5b81019080805190602001909291905050500234039081150290604051600060405180830381858888f19350505050158015614990573d6000803e3d6000fd5b50600080600090505b8360ff168160ff161015614a76576007600086815260200190815260200160002060008481526020019081526020016000203390806001815401808255809150509060018203906000526020600020016000909192909190916101000a81548173ffffffffffffffffffffffffffffffffffffffff021916908373ffffffffffffffffffffffffffffffffffffffff1602179055505060008160ff161415614a69576001600760008781526020019081526020016000206000858152602001908152602001600020805490500391505b8080600101915050614999565b50614a7f614cdc565b60405180608001604052808560ff168152602001600260009054906101000a900473ffffffffffffffffffffffffffffffffffffffff1673ffffffffffffffffffffffffffffffffffffffff16636459d3b4886040518263ffffffff1660e01b81526004018082815260200191505060206040518083038186803b158015614b0657600080fd5b505afa158015614b1a573d6000803e3d6000fd5b505050506040513d6020811015614b3057600080fd5b8101908080519060200190929190505050815260200184815260200183815250905080600860003373ffffffffffffffffffffffffffffffffffffffff1673ffffffffffffffffffffffffffffffffffffffff1681526020019081526020016000206000878152602001908152602001600020600082015181600001556020820151816001015560408201518160020155606082015181600301559050506006600086815260200190815260200160002054831115614c02578260066000878152602001908152602001600020819055505b7f0e54eff26401bf69b81b26f60bd85ef47f5d85275c1d268d84f68d6897431c47853385604051808481526020018373ffffffffffffffffffffffffffffffffffffffff1673ffffffffffffffffffffffffffffffffffffffff168152602001828152602001935050505060405180910390a15050505050565b600030905090565b60076020528260005260406000206020528160005260406000208181548110614ca957fe5b90600052602060002001600092509250509054906101000a900473ffffffffffffffffffffffffffffffffffffffff1681565b604051806080016040528060008152602001600081526020016000815260200160008152509056fe496e73756666696369656e74206465706f736974732e204e656564206465706f736974206d696e696d756d20286361706163697479202a2070726963654f665469636b6574292f32202a2035303030302077656920746f206c697374206576656e742e596f7520686176652070617373656420746865206d6178696d756d2062756c6b207075726368617365206c696d69744e657720746f6b656e20626964206d75737420626520686967686572207468616e2063757272656e742062696443616e74207570646174652062696420776974686f757420706c6163696e67206269642066697273745469636b6574206e6f74207472616e73666572656420746f20706c6174666f726d2079657442757965722068617320696e73756666696369656e74204576656e74546f6b656e73427579657220686173206e6f7420617070726f7665642073756666696369656e74204576656e74546f6b656e734f6e6c79206f726967696e616c2073656c6c65722063616e20656e64206576656e7442757965722068617320696e73756666696369656e742045544820746f20627579207469636b6574735175616e74697479206f66207469636b657473206d757374206265206174206c656173742031a265627a7a72315820e6a76bf351a2ddf77c9c3277ff1a20468e1858a0d902744430e1f2f992ecf52464736f6c63430005110032",
  "source": "pragma solidity ^0.5.0;\r\n\r\nimport \"./Account.sol\";\r\nimport \"./Event.sol\";\r\nimport \"./Ticket.sol\";\r\nimport \"./EventToken.sol\";\r\n\r\ncontract Platform {\r\n    Account accountContract;\r\n    EventToken eventTokenContract;\r\n    Event eventContract;\r\n    Ticket ticketContract;\r\n\r\n    event BidCommenced (uint256 eventId);\r\n    event BidPlaced (uint256 eventId, address buyer, uint256 tokenBid);\r\n    event BidUpdate (uint256 eventId, address buyer, uint256 tokenBid);\r\n    event BidClosed (uint256 eventId);\r\n    event BuyTicket (uint256 eventId, address buyer);\r\n    event RefundTicket (uint256 ticketId, address refunder);\r\n    event SellerEventEnd (uint256 eventId);\r\n    event PlatformEventEnd (uint256 eventId);\r\n\r\n    mapping(address => uint256) sellerDepositedValue;\r\n    address owner;\r\n\r\n    // Platform can only exist if other contracts are created first\r\n    constructor(Account accountAddr, EventToken eventTokenAddr, Event eventAddr, Ticket ticketAddr) public {\r\n        accountContract = accountAddr;\r\n        eventTokenContract = eventTokenAddr;\r\n        eventContract = eventAddr;\r\n        ticketContract = ticketAddr;\r\n        owner = msg.sender;\r\n    }\r\n\r\n    /**\r\n     * param quantity                       quantity of tickets in bid\r\n     * param pricePerTicket                 price per ticket in bid\r\n     * param tokenPerTicket                 token per ticket in bid\r\n     * param firstIndexForEventBiddings     first index of bid in eventBiddings mapping for O(1) lookup \r\n     */\r\n    struct bidInfo {\r\n        uint256 quantity;\r\n        uint256 pricePerTicket;\r\n        uint256 tokenPerTicket;\r\n        uint256 firstIndexForEventBiddings; // For ease of updating bid\r\n    }\r\n\r\n    mapping(uint256 => uint256) public eventTopBid; // eventId => topBid\r\n    mapping(uint256 => mapping(uint256 => address[])) public eventBiddings; // eventId => (tokenBid => addressArray) \r\n    mapping(address => mapping(uint256 => bidInfo)) public addressBiddings; // address => (eventId => bidInfo)\r\n\r\n    /* Ensure caller is a buyer */\r\n    modifier isBuyer() {\r\n        require(accountContract.viewAccountState(msg.sender) == accountContract.getUnverifiedStatus(), \"You are not a buyer\");\r\n        _;\r\n    }\r\n\r\n    /*Ensure caller is a verified seller*/\r\n    modifier isOrganiser() {\r\n        require(accountContract.viewAccountState(msg.sender) == accountContract.getVerifiedStatus(),\"You are not a verified seller\");\r\n        _;\r\n    }\r\n\r\n    /**\r\n     * list event on platform\r\n     *\r\n     * param title                                      title of event\r\n     * param venue                                      venue where event will be held at\r\n     * param year, month, day, hour, minute, second     date and time of event\r\n     * param capacity                                   capacity of event\r\n     * param ticketsLeft                                event tickets left \r\n     * param priceOfTicket                              price of ticket\r\n     * param seller                                     organiser / seller of event ticket   \r\n     */\r\n    function listEvent(string memory title,\r\n        string memory venue,\r\n        uint256 year, uint256 month, uint256 day, uint256 hour, uint256 minute, uint256 second,\r\n        uint256 capacity,\r\n        uint256 priceOfTicket,\r\n        address seller) public payable isOrganiser() returns (uint256) {\r\n\r\n        // however msg.value here will not be sent to event contract. msg.value at event contract is 0.\r\n        require(msg.value >= calMinimumDeposit(capacity,priceOfTicket) * 1 wei, \"Insufficient deposits. Need deposit minimum (capacity * priceOfTicket)/2 * 50000 wei to list event.\");\r\n\r\n        uint256 newEventId = eventContract.createEvent(title, venue, year, month, day, hour, minute, second, capacity, priceOfTicket, seller);\r\n        sellerDepositedValue[msg.sender] = msg.value;\r\n        return newEventId;\r\n    }\r\n\r\n    /**\r\n     * commence the bidding of event\r\n     *\r\n     * param eventId    id of event\r\n     */\r\n    function commenceBidding(uint256 eventId) public {\r\n        require(msg.sender == eventContract.getEventSeller(eventId), \"Only seller can commence bidding\");\r\n        require(eventContract.getEventState(eventId) == Event.eventState.initial, \"Event not in initial state\");\r\n\r\n        eventContract.setEventState(eventId, Event.eventState.bidding);\r\n        emit BidCommenced(eventId);\r\n    }\r\n\r\n    /**\r\n     * buyer place bid for event\r\n     *\r\n     * param eventId    id of event\r\n     * param quantity   quantity of tickets to bid\r\n     * param tokenBid   tokens to use for bidding per ticket\r\n     */\r\n    function placeBid(uint256 eventId, uint8 quantity, uint256 tokenBid) public payable isBuyer() {\r\n        require(eventContract.getEventState(eventId) == Event.eventState.bidding, \"Event not open for bidding\");\r\n        require(quantity > 0, \"Quantity of tickets must be at least 1\");\r\n        require(quantity <= 4, \"You have passed the maximum bulk purchase limit\");\r\n        require(msg.value >= eventContract.getEventTicketPrice(eventId) * quantity, \"Buyer has insufficient ETH\");\r\n        require(eventTokenContract.checkEventTokenOf(msg.sender) >= tokenBid * quantity, \"Buyer has insufficient EventTokens\");\r\n        \r\n        // Transfer tokenBid & ETH to contract\r\n        if (tokenBid > 0) {\r\n            require(eventTokenContract.checkAllowance(msg.sender, address(this)) >= tokenBid * quantity, \"Buyer has not approved sufficient EventTokens\");\r\n            eventTokenContract.approvedTransferFrom(msg.sender, address(this), address(this), tokenBid * quantity);\r\n        }\r\n        msg.sender.transfer(msg.value - (eventContract.getEventTicketPrice(eventId) * quantity)); // transfer remaining back to buyer\r\n    \r\n        // Record eventBiddings\r\n        uint256 firstIdx;\r\n        for (uint8 i = 0; i < quantity; i++) {\r\n            eventBiddings[eventId][tokenBid].push(msg.sender);\r\n            if (i == 0) {\r\n                firstIdx = eventBiddings[eventId][tokenBid].length - 1;\r\n            }\r\n        }\r\n\r\n        // Record bidInfo for ease of future refund / update \r\n        bidInfo memory newBidInfo = bidInfo(quantity, eventContract.getEventTicketPrice(eventId), tokenBid, firstIdx);\r\n        addressBiddings[msg.sender][eventId] = newBidInfo;\r\n        \r\n        // Update top bid\r\n        if (tokenBid > eventTopBid[eventId]) {\r\n            eventTopBid[eventId] = tokenBid;\r\n        }\r\n        emit BidPlaced(eventId, msg.sender, tokenBid);\r\n    }\r\n\r\n    /**\r\n     * allow buyer to update bid\r\n     *\r\n     * param eventId    id of event\r\n     * param tokenBid   tokens to use for bidding per ticket\r\n     */\r\n    function updateBid(uint256 eventId, uint256 tokenBid) public isBuyer() {\r\n        require(eventContract.getEventState(eventId) == Event.eventState.bidding, \"Event not open for bidding\");\r\n\r\n        bidInfo memory currentBidInfo = addressBiddings[msg.sender][eventId];\r\n        require(currentBidInfo.quantity != 0, \"Cant update bid without placing bid first\");\r\n        require(tokenBid > currentBidInfo.tokenPerTicket, \"New token bid must be higher than current bid\");\r\n\r\n        // Calculate additional tokens needed and transfer event tokens\r\n        uint256 tokenDifference = tokenBid - currentBidInfo.tokenPerTicket;\r\n        uint256 totalTokenDifference = tokenDifference * currentBidInfo.quantity;\r\n        require(eventTokenContract.checkAllowance(msg.sender, address(this)) >= totalTokenDifference, \"Buyer has not approved sufficient EventTokens\");\r\n        eventTokenContract.approvedTransferFrom(msg.sender, address(this), address(this), totalTokenDifference);\r\n\r\n        // Delete old bid\r\n        for (uint256 i = currentBidInfo.firstIndexForEventBiddings; i < currentBidInfo.firstIndexForEventBiddings + currentBidInfo.quantity; i++) {\r\n            delete eventBiddings[eventId][currentBidInfo.tokenPerTicket][i];\r\n        }\r\n\r\n        // Add new bid into eventBiddings\r\n        uint256 firstIdx;\r\n        for (uint8 i = 0; i < currentBidInfo.quantity; i++) {\r\n            eventBiddings[eventId][tokenBid].push(msg.sender);\r\n            if (i == 0) {\r\n                firstIdx = eventBiddings[eventId][tokenBid].length - 1;\r\n            }\r\n        }\r\n\r\n        // Update bidInfo\r\n        currentBidInfo.tokenPerTicket = tokenBid;\r\n        currentBidInfo.firstIndexForEventBiddings = firstIdx;\r\n        addressBiddings[msg.sender][eventId] = currentBidInfo;\r\n\r\n        // Update top bid\r\n        if (tokenBid > eventTopBid[eventId]) {\r\n            eventTopBid[eventId] = tokenBid;\r\n        }\r\n\r\n        emit BidUpdate(eventId, msg.sender, tokenBid);\r\n    }\r\n\r\n    /**\r\n     * close bidding for specific event and transfer tickets to top bidders while returning ETH to unsuccessful bidders\r\n     *\r\n     * param eventId    id of event\r\n     */\r\n    function closeBidding(uint256 eventId) public {\r\n        require(msg.sender == eventContract.getEventSeller(eventId), \"Only seller can close bidding\");\r\n        require(eventContract.getEventState(eventId) == Event.eventState.bidding, \"Event not open for bidding\");\r\n\r\n        uint256 bidAmount = eventTopBid[eventId];\r\n        uint256 ticketsLeft = eventContract.getEventTicketsLeft(eventId);\r\n        uint256 ticketId = eventContract.getEventFirstTicketId(eventId);\r\n\r\n        // Tickets given out starting from top bidders\r\n        while (true) {\r\n            address[] memory bidderList = eventBiddings[eventId][bidAmount];\r\n            for (uint256 i = 0; i < bidderList.length; i++) {\r\n                if (bidderList[i] == address(0)) continue; \r\n\r\n                if (ticketsLeft != 0) {\r\n                    ticketContract.transferTicket(ticketId, bidderList[i]); \r\n                    ticketId++;\r\n                    ticketsLeft--;\r\n                    //burnToken()\r\n                } else { \r\n                    // return ETH back to unsuccessful bidders when ticketsLeft == 0 \r\n                    address payable recipient = address(uint168(bidderList[i]));\r\n                    recipient.transfer(eventContract.getEventTicketPrice(eventId));\r\n                }\r\n            }\r\n            if (bidAmount == 0) break;\r\n            bidAmount--;\r\n        }\r\n        \r\n        // Update event tickets left\r\n        eventContract.setEventTicketsLeft(eventId, ticketsLeft);\r\n\r\n        // Change state to allow normal buying and refund\r\n        eventContract.setEventState(eventId, Event.eventState.buyAndRefund);\r\n        emit BidClosed(eventId);\r\n    }\r\n\r\n    /**\r\n     * allow ticket owners to refund ticket to platform at half price \r\n     *\r\n     * param ticketId    id of ticket to refund\r\n     */\r\n    function refundTicket(uint256 ticketId) public payable isBuyer() {\r\n        uint256 eventId = ticketContract.getTicketEvent(ticketId);\r\n        require(eventContract.getEventState(eventId) == Event.eventState.buyAndRefund, \"Event not open for refunding\");\r\n\r\n        //Ensure ticket has been transfered to platform\r\n        require(ticketContract.getTicketPrevOwner(ticketId) == msg.sender, \"Not owner of ticket\");\r\n        require(ticketContract.getTicketOwner(ticketId) == address(this), \"Ticket not transfered to platform yet\");\r\n\r\n        // Update tickets left\r\n        eventContract.setEventTicketsLeft(eventId, eventContract.getEventTicketsLeft(eventId) + 1);\r\n        \r\n        // ETH transfer back to buyer at 1/2 price\r\n        uint256 refundPrice = eventContract.getEventTicketPrice(eventId) / 2;\r\n        msg.sender.transfer(refundPrice);\r\n\r\n        emit RefundTicket(ticketId, msg.sender);\r\n    }\r\n\r\n    /**\r\n     * allow buyers to buy avaiable (unsold/refunded) tickets after bidding session has closed\r\n     *\r\n     * param eventId    id of event\r\n     * param quantity   quantity of tickets\r\n     */\r\n    function buyTickets(uint256 eventId, uint8 quantity) public payable isBuyer() {\r\n        require(eventContract.getEventState(eventId) == Event.eventState.buyAndRefund, \"Event not open for buying\");\r\n        require(quantity > 0, \"Quantity of tickets must be at least 1\");\r\n        require(quantity <= 4, \"You have passed the maximum bulk purchase limit\");\r\n        require(eventContract.isEventIdValid(eventId) == true, \"Invalid Event\");\r\n        require(eventContract.getEventTicketsLeft(eventId) >= quantity, \"Not enough tickets\");\r\n\r\n        uint256 totalPrice = eventContract.getEventTicketPrice(eventId) * quantity;\r\n        require(msg.value >= totalPrice, \"Buyer has insufficient ETH to buy tickets\");\r\n\r\n        // Set remaining tickets after someone buys ticket(s)\r\n        uint256 remainingTickets = eventContract.getEventTicketsLeft(eventId) - quantity;\r\n        eventContract.setEventTicketsLeft(eventId,remainingTickets);\r\n\r\n        // Transfer ticket\r\n        uint256 firstTicketId = eventContract.getEventFirstTicketId(eventId);\r\n        uint256 lastTicketId = firstTicketId + eventContract.getEventCapacity(eventId) - 1;\r\n\r\n        for (lastTicketId; lastTicketId >= firstTicketId; lastTicketId--) {\r\n            if (ticketContract.getTicketOwner(lastTicketId) == address(this)) {\r\n                ticketContract.transferTicket(lastTicketId, msg.sender);\r\n                quantity--;\r\n                if (quantity == 0) break;\r\n            }\r\n        }\r\n\r\n        // Update tickets left\r\n        eventContract.setEventTicketsLeft(eventId, eventContract.getEventTicketsLeft(eventId) - quantity);\r\n\r\n        msg.sender.transfer(msg.value - totalPrice); // transfer remaining back to buyer\r\n        emit BuyTicket(eventId, msg.sender);\r\n    }\r\n\r\n    /**\r\n     * declare the end of a successful event and transfer ETH to seller\r\n     *\r\n     * param eventId    id of event\r\n     */\r\n    function endEvent(uint256 eventId) public isOrganiser() {\r\n        address seller = eventContract.getEventSeller(eventId);\r\n        require(seller == msg.sender, \"Only original seller can end event\");\r\n        msg.sender.transfer(sellerDepositedValue[seller]);\r\n\r\n        // Calculating ticket sales\r\n        uint256 numOfTicketsSold = eventContract.getEventCapacity(eventId) - eventContract.getEventTicketsLeft(eventId);\r\n        uint256 ticketSales = numOfTicketsSold * eventContract.getEventTicketPrice(eventId);\r\n\r\n        // Platform keeps 5% commission of ticket sales, rest goes to Seller when event ends\r\n        uint256 sellerProfits = 95 * ticketSales /100;\r\n        msg.sender.transfer(sellerProfits);\r\n\r\n        eventContract.setEventState(eventId, Event.eventState.sellerEventEnd);\r\n        emit SellerEventEnd(eventId);\r\n    }\r\n\r\n    /**\r\n     * calculate mininum amount a seller has to deposit to list event\r\n     *\r\n     * param capacity       capacity of event / amount of tickets\r\n     * param priceOfTicket  ticket price\r\n     */\r\n    function calMinimumDeposit(uint256 capacity, uint256 priceOfTicket) public pure returns(uint256){\r\n        // 1USD = 50,000 wei\r\n        return (capacity * priceOfTicket)/2 * 50000;\r\n    }\r\n\r\n    function getPlatformAddr() public view returns(address) {\r\n        return address(this);\r\n    }\r\n\r\n}",
  "sourcePath": "C:\\Users\\remus\\Desktop\\3.2\\IS4302\\Project\\contracts\\Platform.sol",
  "compiler": {
    "name": "solc",
    "version": "0.5.17+commit.d19bba13.Emscripten.clang"
  },
  "schemaVersion": "3.4.11",
  "updatedAt": "2023-04-06T15:34:34.350Z",
  "devdoc": {
    "methods": {}
  },
  "userdoc": {
    "methods": {
      "buyTickets(uint256,uint8)": {
        "notice": "allow buyers to buy avaiable (unsold/refunded) tickets after bidding session has closed      * param eventId    id of event param quantity   quantity of tickets"
      },
      "calMinimumDeposit(uint256,uint256)": {
        "notice": "calculate mininum amount a seller has to deposit to list event      * param capacity       capacity of event / amount of tickets param priceOfTicket  ticket price"
      },
      "closeBidding(uint256)": {
        "notice": "close bidding for specific event and transfer tickets to top bidders while returning ETH to unsuccessful bidders      * param eventId    id of event"
      },
      "commenceBidding(uint256)": {
        "notice": "commence the bidding of event      * param eventId    id of event"
      },
      "endEvent(uint256)": {
        "notice": "declare the end of a successful event and transfer ETH to seller      * param eventId    id of event"
      },
      "listEvent(string,string,uint256,uint256,uint256,uint256,uint256,uint256,uint256,uint256,address)": {
        "notice": "list event on platform      * param title                                      title of event param venue                                      venue where event will be held at param year, month, day, hour, minute, second     date and time of event param capacity                                   capacity of event param ticketsLeft                                event tickets left  param priceOfTicket                              price of ticket param seller                                     organiser / seller of event ticket   "
      },
      "placeBid(uint256,uint8,uint256)": {
        "notice": "buyer place bid for event      * param eventId    id of event param quantity   quantity of tickets to bid param tokenBid   tokens to use for bidding per ticket"
      },
      "refundTicket(uint256)": {
        "notice": "allow ticket owners to refund ticket to platform at half price       * param ticketId    id of ticket to refund"
      },
      "updateBid(uint256,uint256)": {
        "notice": "allow buyer to update bid      * param eventId    id of event param tokenBid   tokens to use for bidding per ticket"
      }
    }
  }
}