{
  "contractName": "Platform",
  "abi": [
    {
      "inputs": [
        {
          "internalType": "contract Account",
          "name": "accountAddr",
          "type": "address"
        },
        {
          "internalType": "contract EventToken",
          "name": "eventTokenAddr",
          "type": "address"
        },
        {
          "internalType": "contract Event",
          "name": "eventAddr",
          "type": "address"
        },
        {
          "internalType": "contract Ticket",
          "name": "ticketAddr",
          "type": "address"
        }
      ],
      "payable": false,
      "stateMutability": "nonpayable",
      "type": "constructor"
    },
    {
      "anonymous": false,
      "inputs": [
        {
          "indexed": false,
          "internalType": "uint256",
          "name": "eventId",
          "type": "uint256"
        }
      ],
      "name": "BidBuy",
      "type": "event"
    },
    {
      "anonymous": false,
      "inputs": [
        {
          "indexed": false,
          "internalType": "uint256",
          "name": "eventId",
          "type": "uint256"
        }
      ],
      "name": "BidCommenced",
      "type": "event"
    },
    {
      "anonymous": false,
      "inputs": [
        {
          "indexed": false,
          "internalType": "uint256",
          "name": "eventId",
          "type": "uint256"
        },
        {
          "indexed": false,
          "internalType": "address",
          "name": "buyer",
          "type": "address"
        },
        {
          "indexed": false,
          "internalType": "uint256",
          "name": "tokenBid",
          "type": "uint256"
        }
      ],
      "name": "BidPlaced",
      "type": "event"
    },
    {
      "anonymous": false,
      "inputs": [
        {
          "indexed": false,
          "internalType": "address",
          "name": "to",
          "type": "address"
        },
        {
          "indexed": false,
          "internalType": "uint256",
          "name": "amount",
          "type": "uint256"
        }
      ],
      "name": "TransferToBuyerSuccessful",
      "type": "event"
    },
    {
      "constant": true,
      "inputs": [
        {
          "internalType": "address",
          "name": "",
          "type": "address"
        },
        {
          "internalType": "uint256",
          "name": "",
          "type": "uint256"
        }
      ],
      "name": "addressBiddings",
      "outputs": [
        {
          "internalType": "uint256",
          "name": "quantity",
          "type": "uint256"
        },
        {
          "internalType": "uint256",
          "name": "pricePerTicket",
          "type": "uint256"
        },
        {
          "internalType": "uint256",
          "name": "tokenPerTicket",
          "type": "uint256"
        },
        {
          "internalType": "uint256",
          "name": "firstIndexForEventBiddings",
          "type": "uint256"
        }
      ],
      "payable": false,
      "stateMutability": "view",
      "type": "function"
    },
    {
      "constant": true,
      "inputs": [
        {
          "internalType": "uint256",
          "name": "",
          "type": "uint256"
        },
        {
          "internalType": "uint256",
          "name": "",
          "type": "uint256"
        },
        {
          "internalType": "uint256",
          "name": "",
          "type": "uint256"
        }
      ],
      "name": "eventBiddings",
      "outputs": [
        {
          "internalType": "address",
          "name": "",
          "type": "address"
        }
      ],
      "payable": false,
      "stateMutability": "view",
      "type": "function"
    },
    {
      "constant": true,
      "inputs": [
        {
          "internalType": "uint256",
          "name": "",
          "type": "uint256"
        }
      ],
      "name": "eventTopBid",
      "outputs": [
        {
          "internalType": "uint256",
          "name": "",
          "type": "uint256"
        }
      ],
      "payable": false,
      "stateMutability": "view",
      "type": "function"
    },
    {
      "constant": false,
      "inputs": [
        {
          "internalType": "string",
          "name": "title",
          "type": "string"
        },
        {
          "internalType": "string",
          "name": "venue",
          "type": "string"
        },
        {
          "internalType": "uint256",
          "name": "year",
          "type": "uint256"
        },
        {
          "internalType": "uint256",
          "name": "month",
          "type": "uint256"
        },
        {
          "internalType": "uint256",
          "name": "day",
          "type": "uint256"
        },
        {
          "internalType": "uint256",
          "name": "hour",
          "type": "uint256"
        },
        {
          "internalType": "uint256",
          "name": "minute",
          "type": "uint256"
        },
        {
          "internalType": "uint256",
          "name": "second",
          "type": "uint256"
        },
        {
          "internalType": "uint256",
          "name": "capacity",
          "type": "uint256"
        },
        {
          "internalType": "uint256",
          "name": "priceOfTicket",
          "type": "uint256"
        },
        {
          "internalType": "address",
          "name": "seller",
          "type": "address"
        }
      ],
      "name": "listEvent",
      "outputs": [
        {
          "internalType": "uint256",
          "name": "",
          "type": "uint256"
        }
      ],
      "payable": true,
      "stateMutability": "payable",
      "type": "function"
    },
    {
      "constant": false,
      "inputs": [
        {
          "internalType": "uint256",
          "name": "eventId",
          "type": "uint256"
        }
      ],
      "name": "commenceBidding",
      "outputs": [],
      "payable": false,
      "stateMutability": "nonpayable",
      "type": "function"
    },
    {
      "constant": false,
      "inputs": [
        {
          "internalType": "uint256",
          "name": "eventId",
          "type": "uint256"
        },
        {
          "internalType": "uint8",
          "name": "quantity",
          "type": "uint8"
        },
        {
          "internalType": "uint256",
          "name": "tokenBid",
          "type": "uint256"
        }
      ],
      "name": "placeBid",
      "outputs": [],
      "payable": true,
      "stateMutability": "payable",
      "type": "function"
    },
    {
      "constant": false,
      "inputs": [
        {
          "internalType": "uint256",
          "name": "eventId",
          "type": "uint256"
        }
      ],
      "name": "closeBidding",
      "outputs": [],
      "payable": false,
      "stateMutability": "nonpayable",
      "type": "function"
    },
    {
      "constant": false,
      "inputs": [],
      "name": "returnBiddings",
      "outputs": [],
      "payable": false,
      "stateMutability": "nonpayable",
      "type": "function"
    },
    {
      "constant": true,
      "inputs": [
        {
          "internalType": "uint256",
          "name": "eventId",
          "type": "uint256"
        }
      ],
      "name": "viewTicketsLeft",
      "outputs": [
        {
          "internalType": "uint256",
          "name": "",
          "type": "uint256"
        }
      ],
      "payable": false,
      "stateMutability": "view",
      "type": "function"
    },
    {
      "constant": false,
      "inputs": [
        {
          "internalType": "uint256",
          "name": "eventId",
          "type": "uint256"
        },
        {
          "internalType": "uint8",
          "name": "quantity",
          "type": "uint8"
        }
      ],
      "name": "buyTickets",
      "outputs": [],
      "payable": true,
      "stateMutability": "payable",
      "type": "function"
    },
    {
      "constant": false,
      "inputs": [
        {
          "internalType": "uint256",
          "name": "eventId",
          "type": "uint256"
        }
      ],
      "name": "endEvent",
      "outputs": [],
      "payable": false,
      "stateMutability": "nonpayable",
      "type": "function"
    },
    {
      "constant": true,
      "inputs": [
        {
          "internalType": "uint256",
          "name": "capacity",
          "type": "uint256"
        },
        {
          "internalType": "uint256",
          "name": "priceOfTicket",
          "type": "uint256"
        }
      ],
      "name": "calMinimumDeposit",
      "outputs": [
        {
          "internalType": "uint256",
          "name": "",
          "type": "uint256"
        }
      ],
      "payable": false,
      "stateMutability": "pure",
      "type": "function"
    }
  ],
  "bytecode": "0x608060405234801561001057600080fd5b50604051613a2d380380613a2d8339818101604052608081101561003357600080fd5b8101908080519060200190929190805190602001909291908051906020019092919080519060200190929190505050836000806101000a81548173ffffffffffffffffffffffffffffffffffffffff021916908373ffffffffffffffffffffffffffffffffffffffff16021790555082600160006101000a81548173ffffffffffffffffffffffffffffffffffffffff021916908373ffffffffffffffffffffffffffffffffffffffff16021790555081600260006101000a81548173ffffffffffffffffffffffffffffffffffffffff021916908373ffffffffffffffffffffffffffffffffffffffff16021790555080600360006101000a81548173ffffffffffffffffffffffffffffffffffffffff021916908373ffffffffffffffffffffffffffffffffffffffff16021790555033600560006101000a81548173ffffffffffffffffffffffffffffffffffffffff021916908373ffffffffffffffffffffffffffffffffffffffff16021790555050505050613874806101b96000396000f3fe6080604052600436106100a75760003560e01c80635b1194b2116100645780635b1194b2146103e3578063750a9b3b1461041e5780637a101061146104595780637c1267a6146104b2578063aa2bb232146104f7578063d6375d9314610546576100a7565b80630bec24a6146100ac57806312f04c4d14610130578063330a347b146103075780634138915f1461034257806344c7cb71146103595780635a22ac92146103a8575b600080fd5b3480156100b857600080fd5b50610105600480360360408110156100cf57600080fd5b81019080803573ffffffffffffffffffffffffffffffffffffffff169060200190929190803590602001909291905050506105d5565b6040518085815260200184815260200183815260200182815260200194505050505060405180910390f35b6102f1600480360361016081101561014757600080fd5b810190808035906020019064010000000081111561016457600080fd5b82018360208201111561017657600080fd5b8035906020019184600183028401116401000000008311171561019857600080fd5b91908080601f016020809104026020016040519081016040528093929190818152602001838380828437600081840152601f19601f820116905080830192505050505050509192919290803590602001906401000000008111156101fb57600080fd5b82018360208201111561020d57600080fd5b8035906020019184600183028401116401000000008311171561022f57600080fd5b91908080601f016020809104026020016040519081016040528093929190818152602001838380828437600081840152601f19601f8201169050808301925050505050505091929192908035906020019092919080359060200190929190803590602001909291908035906020019092919080359060200190929190803590602001909291908035906020019092919080359060200190929190803573ffffffffffffffffffffffffffffffffffffffff169060200190929190505050610612565b6040518082815260200191505060405180910390f35b34801561031357600080fd5b506103406004803603602081101561032a57600080fd5b8101908080359060200190929190505050610ace565b005b34801561034e57600080fd5b50610357611190565b005b34801561036557600080fd5b506103926004803603602081101561037c57600080fd5b8101908080359060200190929190505050611192565b6040518082815260200191505060405180910390f35b6103e1600480360360408110156103be57600080fd5b8101908080359060200190929190803560ff1690602001909291905050506111aa565b005b3480156103ef57600080fd5b5061041c6004803603602081101561040657600080fd5b8101908080359060200190929190505050611e42565b005b34801561042a57600080fd5b506104576004803603602081101561044157600080fd5b8101908080359060200190929190505050612558565b005b34801561046557600080fd5b5061049c6004803603604081101561047c57600080fd5b8101908080359060200190929190803590602001909291905050506128bd565b6040518082815260200191505060405180910390f35b6104f5600480360360608110156104c857600080fd5b8101908080359060200190929190803560ff169060200190929190803590602001909291905050506128d8565b005b34801561050357600080fd5b506105306004803603602081101561051a57600080fd5b81019080803590602001909291905050506135b6565b6040518082815260200191505060405180910390f35b34801561055257600080fd5b506105936004803603606081101561056957600080fd5b8101908080359060200190929190803590602001909291908035906020019092919050505061366d565b604051808273ffffffffffffffffffffffffffffffffffffffff1673ffffffffffffffffffffffffffffffffffffffff16815260200191505060405180910390f35b6008602052816000526040600020602052806000526040600020600091509150508060000154908060010154908060020154908060030154905084565b60008060009054906101000a900473ffffffffffffffffffffffffffffffffffffffff1673ffffffffffffffffffffffffffffffffffffffff1663a76dd7746040518163ffffffff1660e01b815260040160206040518083038186803b15801561067b57600080fd5b505afa15801561068f573d6000803e3d6000fd5b505050506040513d60208110156106a557600080fd5b810190808051906020019092919050505060018111156106c157fe5b6000809054906101000a900473ffffffffffffffffffffffffffffffffffffffff1673ffffffffffffffffffffffffffffffffffffffff16639a6c8951336040518263ffffffff1660e01b8152600401808273ffffffffffffffffffffffffffffffffffffffff1673ffffffffffffffffffffffffffffffffffffffff16815260200191505060206040518083038186803b15801561075f57600080fd5b505afa158015610773573d6000803e3d6000fd5b505050506040513d602081101561078957600080fd5b810190808051906020019092919050505060018111156107a557fe5b14610818576040517f08c379a000000000000000000000000000000000000000000000000000000000815260040180806020018281038252601d8152602001807f596f7520617265206e6f7420612076657269666965642073656c6c657200000081525060200191505060405180910390fd5b600161082485856128bd565b0234101561087d576040517f08c379a00000000000000000000000000000000000000000000000000000000081526004018080602001828103825260638152602001806136ee6063913960800191505060405180910390fd5b6000600260009054906101000a900473ffffffffffffffffffffffffffffffffffffffff1673ffffffffffffffffffffffffffffffffffffffff1663ee6d30a18e8e8e8e8e8e8e8e8e8e8e6040518c63ffffffff1660e01b81526004018080602001806020018c81526020018b81526020018a81526020018981526020018881526020018781526020018681526020018581526020018473ffffffffffffffffffffffffffffffffffffffff1673ffffffffffffffffffffffffffffffffffffffff16815260200183810383528e818151815260200191508051906020019080838360005b8381101561097d578082015181840152602081019050610962565b50505050905090810190601f1680156109aa5780820380516001836020036101000a031916815260200191505b5083810382528d818151815260200191508051906020019080838360005b838110156109e35780820151818401526020810190506109c8565b50505050905090810190601f168015610a105780820380516001836020036101000a031916815260200191505b509d5050505050505050505050505050602060405180830381600087803b158015610a3a57600080fd5b505af1158015610a4e573d6000803e3d6000fd5b505050506040513d6020811015610a6457600080fd5b8101908080519060200190929190505050905034600460003373ffffffffffffffffffffffffffffffffffffffff1673ffffffffffffffffffffffffffffffffffffffff16815260200190815260200160002081905550809150509b9a5050505050505050505050565b6000809054906101000a900473ffffffffffffffffffffffffffffffffffffffff1673ffffffffffffffffffffffffffffffffffffffff1663a76dd7746040518163ffffffff1660e01b815260040160206040518083038186803b158015610b3557600080fd5b505afa158015610b49573d6000803e3d6000fd5b505050506040513d6020811015610b5f57600080fd5b81019080805190602001909291905050506001811115610b7b57fe5b6000809054906101000a900473ffffffffffffffffffffffffffffffffffffffff1673ffffffffffffffffffffffffffffffffffffffff16639a6c8951336040518263ffffffff1660e01b8152600401808273ffffffffffffffffffffffffffffffffffffffff1673ffffffffffffffffffffffffffffffffffffffff16815260200191505060206040518083038186803b158015610c1957600080fd5b505afa158015610c2d573d6000803e3d6000fd5b505050506040513d6020811015610c4357600080fd5b81019080805190602001909291905050506001811115610c5f57fe5b14610cd2576040517f08c379a000000000000000000000000000000000000000000000000000000000815260040180806020018281038252601d8152602001807f596f7520617265206e6f7420612076657269666965642073656c6c657200000081525060200191505060405180910390fd5b6000600260009054906101000a900473ffffffffffffffffffffffffffffffffffffffff1673ffffffffffffffffffffffffffffffffffffffff1663afaddf8f836040518263ffffffff1660e01b81526004018082815260200191505060206040518083038186803b158015610d4757600080fd5b505afa158015610d5b573d6000803e3d6000fd5b505050506040513d6020811015610d7157600080fd5b810190808051906020019092919050505090503373ffffffffffffffffffffffffffffffffffffffff168173ffffffffffffffffffffffffffffffffffffffff1614610e08576040517f08c379a00000000000000000000000000000000000000000000000000000000081526004018080602001828103825260228152602001806137cf6022913960400191505060405180910390fd5b3373ffffffffffffffffffffffffffffffffffffffff166108fc600460008473ffffffffffffffffffffffffffffffffffffffff1673ffffffffffffffffffffffffffffffffffffffff168152602001908152602001600020549081150290604051600060405180830381858888f19350505050158015610e8d573d6000803e3d6000fd5b506000600260009054906101000a900473ffffffffffffffffffffffffffffffffffffffff1673ffffffffffffffffffffffffffffffffffffffff1663046cbeec846040518263ffffffff1660e01b81526004018082815260200191505060206040518083038186803b158015610f0357600080fd5b505afa158015610f17573d6000803e3d6000fd5b505050506040513d6020811015610f2d57600080fd5b8101908080519060200190929190505050600260009054906101000a900473ffffffffffffffffffffffffffffffffffffffff1673ffffffffffffffffffffffffffffffffffffffff16635788b400856040518263ffffffff1660e01b81526004018082815260200191505060206040518083038186803b158015610fb157600080fd5b505afa158015610fc5573d6000803e3d6000fd5b505050506040513d6020811015610fdb57600080fd5b81019080805190602001909291905050500390506000600260009054906101000a900473ffffffffffffffffffffffffffffffffffffffff1673ffffffffffffffffffffffffffffffffffffffff16636459d3b4856040518263ffffffff1660e01b81526004018082815260200191505060206040518083038186803b15801561106457600080fd5b505afa158015611078573d6000803e3d6000fd5b505050506040513d602081101561108e57600080fd5b8101908080519060200190929190505050820290506000606482605f02816110b257fe5b0490503373ffffffffffffffffffffffffffffffffffffffff166108fc829081150290604051600060405180830381858888f193505050501580156110fb573d6000803e3d6000fd5b50600260009054906101000a900473ffffffffffffffffffffffffffffffffffffffff1673ffffffffffffffffffffffffffffffffffffffff1663330a347b866040518263ffffffff1660e01b815260040180828152602001915050600060405180830381600087803b15801561117157600080fd5b505af1158015611185573d6000803e3d6000fd5b505050505050505050565b565b60066020528060005260406000206000915090505481565b6000809054906101000a900473ffffffffffffffffffffffffffffffffffffffff1673ffffffffffffffffffffffffffffffffffffffff166390f9b6786040518163ffffffff1660e01b815260040160206040518083038186803b15801561121157600080fd5b505afa158015611225573d6000803e3d6000fd5b505050506040513d602081101561123b57600080fd5b8101908080519060200190929190505050600181111561125757fe5b6000809054906101000a900473ffffffffffffffffffffffffffffffffffffffff1673ffffffffffffffffffffffffffffffffffffffff16639a6c8951336040518263ffffffff1660e01b8152600401808273ffffffffffffffffffffffffffffffffffffffff1673ffffffffffffffffffffffffffffffffffffffff16815260200191505060206040518083038186803b1580156112f557600080fd5b505afa158015611309573d6000803e3d6000fd5b505050506040513d602081101561131f57600080fd5b8101908080519060200190929190505050600181111561133b57fe5b146113ae576040517f08c379a00000000000000000000000000000000000000000000000000000000081526004018080602001828103825260138152602001807f596f7520617265206e6f7420612062757965720000000000000000000000000081525060200191505060405180910390fd5b6002808111156113ba57fe5b600260009054906101000a900473ffffffffffffffffffffffffffffffffffffffff1673ffffffffffffffffffffffffffffffffffffffff1663f4a1ad16846040518263ffffffff1660e01b81526004018082815260200191505060206040518083038186803b15801561142d57600080fd5b505afa158015611441573d6000803e3d6000fd5b505050506040513d602081101561145757600080fd5b8101908080519060200190929190505050600281111561147357fe5b146114e6576040517f08c379a00000000000000000000000000000000000000000000000000000000081526004018080602001828103825260198152602001807f4576656e74206e6f74206f70656e20666f7220627579696e670000000000000081525060200191505060405180910390fd5b60008160ff1611611542576040517f08c379a000000000000000000000000000000000000000000000000000000000815260040180806020018281038252602681526020018061381a6026913960400191505060405180910390fd5b60048160ff16111561159f576040517f08c379a000000000000000000000000000000000000000000000000000000000815260040180806020018281038252602f815260200180613751602f913960400191505060405180910390fd5b60011515600260009054906101000a900473ffffffffffffffffffffffffffffffffffffffff1673ffffffffffffffffffffffffffffffffffffffff166301d3cf68846040518263ffffffff1660e01b81526004018082815260200191505060206040518083038186803b15801561161657600080fd5b505afa15801561162a573d6000803e3d6000fd5b505050506040513d602081101561164057600080fd5b81019080805190602001909291905050501515146116c6576040517f08c379a000000000000000000000000000000000000000000000000000000000815260040180806020018281038252600d8152602001807f496e76616c6964204576656e740000000000000000000000000000000000000081525060200191505060405180910390fd5b8060ff16600260009054906101000a900473ffffffffffffffffffffffffffffffffffffffff1673ffffffffffffffffffffffffffffffffffffffff1663046cbeec846040518263ffffffff1660e01b81526004018082815260200191505060206040518083038186803b15801561173d57600080fd5b505afa158015611751573d6000803e3d6000fd5b505050506040513d602081101561176757600080fd5b810190808051906020019092919050505010156117ec576040517f08c379a00000000000000000000000000000000000000000000000000000000081526004018080602001828103825260128152602001807f4e6f7420656e6f756768207469636b657473000000000000000000000000000081525060200191505060405180910390fd5b60008160ff16600260009054906101000a900473ffffffffffffffffffffffffffffffffffffffff1673ffffffffffffffffffffffffffffffffffffffff16636459d3b4856040518263ffffffff1660e01b81526004018082815260200191505060206040518083038186803b15801561186557600080fd5b505afa158015611879573d6000803e3d6000fd5b505050506040513d602081101561188f57600080fd5b8101908080519060200190929190505050029050803410156118fc576040517f08c379a00000000000000000000000000000000000000000000000000000000081526004018080602001828103825260298152602001806137f16029913960400191505060405180910390fd5b60008260ff16600260009054906101000a900473ffffffffffffffffffffffffffffffffffffffff1673ffffffffffffffffffffffffffffffffffffffff1663046cbeec866040518263ffffffff1660e01b81526004018082815260200191505060206040518083038186803b15801561197557600080fd5b505afa158015611989573d6000803e3d6000fd5b505050506040513d602081101561199f57600080fd5b8101908080519060200190929190505050039050600260009054906101000a900473ffffffffffffffffffffffffffffffffffffffff1673ffffffffffffffffffffffffffffffffffffffff1663af71a95885836040518363ffffffff1660e01b81526004018083815260200182815260200192505050600060405180830381600087803b158015611a3057600080fd5b505af1158015611a44573d6000803e3d6000fd5b505050506000600260009054906101000a900473ffffffffffffffffffffffffffffffffffffffff1673ffffffffffffffffffffffffffffffffffffffff1663a52f91f9866040518263ffffffff1660e01b81526004018082815260200191505060206040518083038186803b158015611abd57600080fd5b505afa158015611ad1573d6000803e3d6000fd5b505050506040513d6020811015611ae757600080fd5b8101908080519060200190929190505050905060006001600260009054906101000a900473ffffffffffffffffffffffffffffffffffffffff1673ffffffffffffffffffffffffffffffffffffffff16635788b400886040518263ffffffff1660e01b81526004018082815260200191505060206040518083038186803b158015611b7157600080fd5b505afa158015611b85573d6000803e3d6000fd5b505050506040513d6020811015611b9b57600080fd5b810190808051906020019092919050505083010390505b818110611d84573073ffffffffffffffffffffffffffffffffffffffff16600360009054906101000a900473ffffffffffffffffffffffffffffffffffffffff1673ffffffffffffffffffffffffffffffffffffffff1663ad093409836040518263ffffffff1660e01b81526004018082815260200191505060206040518083038186803b158015611c4357600080fd5b505afa158015611c57573d6000803e3d6000fd5b505050506040513d6020811015611c6d57600080fd5b810190808051906020019092919050505073ffffffffffffffffffffffffffffffffffffffff161415611d7657600360009054906101000a900473ffffffffffffffffffffffffffffffffffffffff1673ffffffffffffffffffffffffffffffffffffffff1663679ebf1a82336040518363ffffffff1660e01b8152600401808381526020018273ffffffffffffffffffffffffffffffffffffffff1673ffffffffffffffffffffffffffffffffffffffff16815260200192505050600060405180830381600087803b158015611d4357600080fd5b505af1158015611d57573d6000803e3d6000fd5b5050505084806001900395505060008560ff161415611d7557611d84565b5b808060019003915050611bb2565b3373ffffffffffffffffffffffffffffffffffffffff166108fc8534039081150290604051600060405180830381858888f19350505050158015611dcc573d6000803e3d6000fd5b507f85f663dec9a920059b20245b779d5040c902415f43beccbd6fba5e69ca2abf4033853403604051808373ffffffffffffffffffffffffffffffffffffffff1673ffffffffffffffffffffffffffffffffffffffff1681526020018281526020019250505060405180910390a1505050505050565b600260009054906101000a900473ffffffffffffffffffffffffffffffffffffffff1673ffffffffffffffffffffffffffffffffffffffff1663afaddf8f826040518263ffffffff1660e01b81526004018082815260200191505060206040518083038186803b158015611eb557600080fd5b505afa158015611ec9573d6000803e3d6000fd5b505050506040513d6020811015611edf57600080fd5b810190808051906020019092919050505073ffffffffffffffffffffffffffffffffffffffff163373ffffffffffffffffffffffffffffffffffffffff1614611f90576040517f08c379a000000000000000000000000000000000000000000000000000000000815260040180806020018281038252601d8152602001807f4f6e6c792073656c6c65722063616e20636c6f73652062696464696e6700000081525060200191505060405180910390fd5b60016002811115611f9d57fe5b600260009054906101000a900473ffffffffffffffffffffffffffffffffffffffff1673ffffffffffffffffffffffffffffffffffffffff1663f4a1ad16836040518263ffffffff1660e01b81526004018082815260200191505060206040518083038186803b15801561201057600080fd5b505afa158015612024573d6000803e3d6000fd5b505050506040513d602081101561203a57600080fd5b8101908080519060200190929190505050600281111561205657fe5b146120c9576040517f08c379a000000000000000000000000000000000000000000000000000000000815260040180806020018281038252601a8152602001807f4576656e74206e6f74206f70656e20666f722062696464696e6700000000000081525060200191505060405180910390fd5b6000600660008381526020019081526020016000205490506000600260009054906101000a900473ffffffffffffffffffffffffffffffffffffffff1673ffffffffffffffffffffffffffffffffffffffff1663046cbeec846040518263ffffffff1660e01b81526004018082815260200191505060206040518083038186803b15801561215657600080fd5b505afa15801561216a573d6000803e3d6000fd5b505050506040513d602081101561218057600080fd5b810190808051906020019092919050505090506000600260009054906101000a900473ffffffffffffffffffffffffffffffffffffffff1673ffffffffffffffffffffffffffffffffffffffff1663a52f91f9856040518263ffffffff1660e01b81526004018082815260200191505060206040518083038186803b15801561220857600080fd5b505afa15801561221c573d6000803e3d6000fd5b505050506040513d602081101561223257600080fd5b810190808051906020019092919050505090505b600082146124775760606007600086815260200190815260200160002060008581526020019081526020016000208054806020026020016040519081016040528092919081815260200182805480156122f457602002820191906000526020600020905b8160009054906101000a900473ffffffffffffffffffffffffffffffffffffffff1673ffffffffffffffffffffffffffffffffffffffff16815260200190600101908083116122aa575b5050505050905060008090505b815181101561245857600073ffffffffffffffffffffffffffffffffffffffff1682828151811061232e57fe5b602002602001015173ffffffffffffffffffffffffffffffffffffffff1614156123575761244b565b600360009054906101000a900473ffffffffffffffffffffffffffffffffffffffff1673ffffffffffffffffffffffffffffffffffffffff1663679ebf1a848484815181106123a257fe5b60200260200101516040518363ffffffff1660e01b8152600401808381526020018273ffffffffffffffffffffffffffffffffffffffff1673ffffffffffffffffffffffffffffffffffffffff16815260200192505050600060405180830381600087803b15801561241357600080fd5b505af1158015612427573d6000803e3d6000fd5b505050508280600101935050838060019003945050600084141561244a57612458565b5b8080600101915050612301565b5060008414156124685750612477565b83806001900394505050612246565b600260009054906101000a900473ffffffffffffffffffffffffffffffffffffffff1673ffffffffffffffffffffffffffffffffffffffff1663d9c6b2198560026040518363ffffffff1660e01b8152600401808381526020018260028111156124dd57fe5b60ff16815260200192505050600060405180830381600087803b15801561250357600080fd5b505af1158015612517573d6000803e3d6000fd5b505050507fa5fa8e2c671d60f636b03d4b0808ad73b0c6ed6cadc3dff077bac84f1a987e6a846040518082815260200191505060405180910390a150505050565b600260009054906101000a900473ffffffffffffffffffffffffffffffffffffffff1673ffffffffffffffffffffffffffffffffffffffff1663afaddf8f826040518263ffffffff1660e01b81526004018082815260200191505060206040518083038186803b1580156125cb57600080fd5b505afa1580156125df573d6000803e3d6000fd5b505050506040513d60208110156125f557600080fd5b810190808051906020019092919050505073ffffffffffffffffffffffffffffffffffffffff163373ffffffffffffffffffffffffffffffffffffffff16146126a6576040517f08c379a00000000000000000000000000000000000000000000000000000000081526004018080602001828103825260208152602001807f4f6e6c792073656c6c65722063616e20636f6d6d656e63652062696464696e6781525060200191505060405180910390fd5b600060028111156126b357fe5b600260009054906101000a900473ffffffffffffffffffffffffffffffffffffffff1673ffffffffffffffffffffffffffffffffffffffff1663f4a1ad16836040518263ffffffff1660e01b81526004018082815260200191505060206040518083038186803b15801561272657600080fd5b505afa15801561273a573d6000803e3d6000fd5b505050506040513d602081101561275057600080fd5b8101908080519060200190929190505050600281111561276c57fe5b146127df576040517f08c379a000000000000000000000000000000000000000000000000000000000815260040180806020018281038252601e8152602001807f4576656e7420616c7265616479206f70656e20666f722062696464696e67000081525060200191505060405180910390fd5b600260009054906101000a900473ffffffffffffffffffffffffffffffffffffffff1673ffffffffffffffffffffffffffffffffffffffff1663d9c6b2198260016040518363ffffffff1660e01b81526004018083815260200182600281111561284557fe5b60ff16815260200192505050600060405180830381600087803b15801561286b57600080fd5b505af115801561287f573d6000803e3d6000fd5b505050507f06fe11e50ef598e7d082666f5ab23b04096ea52b6b458ff241ba708c0e66bac9816040518082815260200191505060405180910390a150565b600061c3506002838502816128ce57fe5b0402905092915050565b6000809054906101000a900473ffffffffffffffffffffffffffffffffffffffff1673ffffffffffffffffffffffffffffffffffffffff166390f9b6786040518163ffffffff1660e01b815260040160206040518083038186803b15801561293f57600080fd5b505afa158015612953573d6000803e3d6000fd5b505050506040513d602081101561296957600080fd5b8101908080519060200190929190505050600181111561298557fe5b6000809054906101000a900473ffffffffffffffffffffffffffffffffffffffff1673ffffffffffffffffffffffffffffffffffffffff16639a6c8951336040518263ffffffff1660e01b8152600401808273ffffffffffffffffffffffffffffffffffffffff1673ffffffffffffffffffffffffffffffffffffffff16815260200191505060206040518083038186803b158015612a2357600080fd5b505afa158015612a37573d6000803e3d6000fd5b505050506040513d6020811015612a4d57600080fd5b81019080805190602001909291905050506001811115612a6957fe5b14612adc576040517f08c379a00000000000000000000000000000000000000000000000000000000081526004018080602001828103825260138152602001807f596f7520617265206e6f7420612062757965720000000000000000000000000081525060200191505060405180910390fd5b60016002811115612ae957fe5b600260009054906101000a900473ffffffffffffffffffffffffffffffffffffffff1673ffffffffffffffffffffffffffffffffffffffff1663f4a1ad16856040518263ffffffff1660e01b81526004018082815260200191505060206040518083038186803b158015612b5c57600080fd5b505afa158015612b70573d6000803e3d6000fd5b505050506040513d6020811015612b8657600080fd5b81019080805190602001909291905050506002811115612ba257fe5b14612c15576040517f08c379a000000000000000000000000000000000000000000000000000000000815260040180806020018281038252601a8152602001807f4576656e74206e6f74206f70656e20666f722062696464696e6700000000000081525060200191505060405180910390fd5b60008260ff1611612c71576040517f08c379a000000000000000000000000000000000000000000000000000000000815260040180806020018281038252602681526020018061381a6026913960400191505060405180910390fd5b60048260ff161115612cce576040517f08c379a000000000000000000000000000000000000000000000000000000000815260040180806020018281038252602f815260200180613751602f913960400191505060405180910390fd5b8160ff16600260009054906101000a900473ffffffffffffffffffffffffffffffffffffffff1673ffffffffffffffffffffffffffffffffffffffff16636459d3b4856040518263ffffffff1660e01b81526004018082815260200191505060206040518083038186803b158015612d4557600080fd5b505afa158015612d59573d6000803e3d6000fd5b505050506040513d6020811015612d6f57600080fd5b810190808051906020019092919050505002341015612df6576040517f08c379a000000000000000000000000000000000000000000000000000000000815260040180806020018281038252601a8152602001807f42757965722068617320696e73756666696369656e742045544800000000000081525060200191505060405180910390fd5b8160ff168102600160009054906101000a900473ffffffffffffffffffffffffffffffffffffffff1673ffffffffffffffffffffffffffffffffffffffff1663575a7c63336040518263ffffffff1660e01b8152600401808273ffffffffffffffffffffffffffffffffffffffff1673ffffffffffffffffffffffffffffffffffffffff16815260200191505060206040518083038186803b158015612e9b57600080fd5b505afa158015612eaf573d6000803e3d6000fd5b505050506040513d6020811015612ec557600080fd5b81019080805190602001909291905050501015612f2d576040517f08c379a00000000000000000000000000000000000000000000000000000000081526004018080602001828103825260228152602001806137806022913960400191505060405180910390fd5b60008111156131d0578160ff168102600160009054906101000a900473ffffffffffffffffffffffffffffffffffffffff1673ffffffffffffffffffffffffffffffffffffffff16638b099b2333306040518363ffffffff1660e01b8152600401808373ffffffffffffffffffffffffffffffffffffffff1673ffffffffffffffffffffffffffffffffffffffff1681526020018273ffffffffffffffffffffffffffffffffffffffff1673ffffffffffffffffffffffffffffffffffffffff1681526020019250505060206040518083038186803b15801561300f57600080fd5b505afa158015613023573d6000803e3d6000fd5b505050506040513d602081101561303957600080fd5b810190808051906020019092919050505010156130a1576040517f08c379a000000000000000000000000000000000000000000000000000000000815260040180806020018281038252602d8152602001806137a2602d913960400191505060405180910390fd5b600160009054906101000a900473ffffffffffffffffffffffffffffffffffffffff1673ffffffffffffffffffffffffffffffffffffffff1663dbb31b703330308660ff1686026040518563ffffffff1660e01b8152600401808573ffffffffffffffffffffffffffffffffffffffff1673ffffffffffffffffffffffffffffffffffffffff1681526020018473ffffffffffffffffffffffffffffffffffffffff1673ffffffffffffffffffffffffffffffffffffffff1681526020018373ffffffffffffffffffffffffffffffffffffffff1673ffffffffffffffffffffffffffffffffffffffff168152602001828152602001945050505050600060405180830381600087803b1580156131b757600080fd5b505af11580156131cb573d6000803e3d6000fd5b505050505b3373ffffffffffffffffffffffffffffffffffffffff166108fc8360ff16600260009054906101000a900473ffffffffffffffffffffffffffffffffffffffff1673ffffffffffffffffffffffffffffffffffffffff16636459d3b4876040518263ffffffff1660e01b81526004018082815260200191505060206040518083038186803b15801561326157600080fd5b505afa158015613275573d6000803e3d6000fd5b505050506040513d602081101561328b57600080fd5b81019080805190602001909291905050500234039081150290604051600060405180830381858888f193505050501580156132ca573d6000803e3d6000fd5b50600080600090505b8360ff168160ff1610156133b0576007600086815260200190815260200160002060008481526020019081526020016000203390806001815401808255809150509060018203906000526020600020016000909192909190916101000a81548173ffffffffffffffffffffffffffffffffffffffff021916908373ffffffffffffffffffffffffffffffffffffffff1602179055505060008160ff1614156133a3576001600760008781526020019081526020016000206000858152602001908152602001600020805490500391505b80806001019150506132d3565b506133b96136c5565b60405180608001604052808560ff168152602001600260009054906101000a900473ffffffffffffffffffffffffffffffffffffffff1673ffffffffffffffffffffffffffffffffffffffff16636459d3b4886040518263ffffffff1660e01b81526004018082815260200191505060206040518083038186803b15801561344057600080fd5b505afa158015613454573d6000803e3d6000fd5b505050506040513d602081101561346a57600080fd5b8101908080519060200190929190505050815260200184815260200183815250905080600860003373ffffffffffffffffffffffffffffffffffffffff1673ffffffffffffffffffffffffffffffffffffffff168152602001908152602001600020600087815260200190815260200160002060008201518160000155602082015181600101556040820151816002015560608201518160030155905050600660008681526020019081526020016000205483111561353c578260066000878152602001908152602001600020819055505b7f0e54eff26401bf69b81b26f60bd85ef47f5d85275c1d268d84f68d6897431c47853385604051808481526020018373ffffffffffffffffffffffffffffffffffffffff1673ffffffffffffffffffffffffffffffffffffffff168152602001828152602001935050505060405180910390a15050505050565b6000600260009054906101000a900473ffffffffffffffffffffffffffffffffffffffff1673ffffffffffffffffffffffffffffffffffffffff1663046cbeec836040518263ffffffff1660e01b81526004018082815260200191505060206040518083038186803b15801561362b57600080fd5b505afa15801561363f573d6000803e3d6000fd5b505050506040513d602081101561365557600080fd5b81019080805190602001909291905050509050919050565b6007602052826000526040600020602052816000526040600020818154811061369257fe5b90600052602060002001600092509250509054906101000a900473ffffffffffffffffffffffffffffffffffffffff1681565b604051806080016040528060008152602001600081526020016000815260200160008152509056fe496e73756666696369656e74206465706f736974732e204e656564206465706f736974206d696e696d756d20286361706163697479202a2070726963654f665469636b6574292f32202a2035303030302077656920746f206c697374206576656e742e596f7520686176652070617373656420746865206d6178696d756d2062756c6b207075726368617365206c696d697442757965722068617320696e73756666696369656e74204576656e74546f6b656e73427579657220686173206e6f7420617070726f7665642073756666696369656e74204576656e74546f6b656e734f6e6c79206f726967696e616c2073656c6c65722063616e20656e64206576656e7442757965722068617320696e73756666696369656e742045544820746f20627579207469636b6574735175616e74697479206f66207469636b657473206d757374206265206174206c656173742031a265627a7a72315820eb40d4ad47508dc3c682046904c77e6591b981b8962e2899618d929949d888e864736f6c63430005110032",
  "source": "pragma solidity ^0.5.0;\n\nimport \"./Account.sol\";\nimport \"./Event.sol\";\nimport \"./Ticket.sol\";\nimport \"./EventToken.sol\";\n\ncontract Platform {\n    Account accountContract;\n    EventToken eventTokenContract;\n    Event eventContract;\n    Ticket ticketContract;\n\n    event BidCommenced (uint256 eventId);\n    event BidPlaced (uint256 eventId, address buyer, uint256 tokenBid);\n    event BidBuy (uint256 eventId);\n    event TransferToBuyerSuccessful(address to, uint256 amount);\n\n    mapping(address => uint256) sellerDepositedValue;\n    address owner;\n\n    // Platform can only exist if other contracts are created first\n    constructor(Account accountAddr, EventToken eventTokenAddr, Event eventAddr, Ticket ticketAddr) public {\n        accountContract = accountAddr;\n        eventTokenContract = eventTokenAddr;\n        eventContract = eventAddr;\n        ticketContract = ticketAddr;\n        owner = msg.sender;\n    }\n\n    struct bidInfo {\n        uint256 quantity;\n        uint256 pricePerTicket;\n        uint256 tokenPerTicket;\n        uint256 firstIndexForEventBiddings; // For ease of updating bid\n    }\n\n    mapping(uint256 => uint256) public eventTopBid; // eventId => topBid\n    mapping(uint256 => mapping(uint256 => address[])) public eventBiddings; // eventId => (tokenBid => addressArray) \n    mapping(address => mapping(uint256 => bidInfo)) public addressBiddings; // address => (eventId => bidInfo)\n\n    /* Ensure caller is a buyer */\n    modifier isBuyer() {\n        require(accountContract.viewAccountState(msg.sender) == accountContract.getUnverifiedStatus(), \"You are not a buyer\");\n        _;\n    }\n\n    /*Ensure caller is a verified seller*/\n    modifier isOrganiser() {\n        require(accountContract.viewAccountState(msg.sender) == accountContract.getVerifiedStatus(),\"You are not a verified seller\");\n        _;\n    }\n\n    // list Event on Platform\n    function listEvent(string memory title,\n        string memory venue,\n        uint256 year, uint256 month, uint256 day, uint256 hour, uint256 minute, uint256 second,\n        uint256 capacity,\n        uint256 priceOfTicket,\n        address seller) public payable isOrganiser() returns (uint256) {\n\n        // however msg.value here will not be sent to event contract. msg.value at event contract is 0.\n        require(msg.value >= calMinimumDeposit(capacity,priceOfTicket) * 1 wei, \"Insufficient deposits. Need deposit minimum (capacity * priceOfTicket)/2 * 50000 wei to list event.\");\n\n        uint256 newEventId = eventContract.createEvent(title, venue, year, month, day, hour, minute, second, capacity, priceOfTicket, seller);\n        sellerDepositedValue[msg.sender] = msg.value;\n        return newEventId;\n    }\n\n    // Commence bidding for event\n    function commenceBidding(uint256 eventId) public {\n        require(msg.sender == eventContract.getEventSeller(eventId), \"Only seller can commence bidding\");\n        require(eventContract.getEventBidState(eventId) == Event.bidState.close, \"Event already open for bidding\");\n\n        eventContract.setEventBidState(eventId, Event.bidState.open);\n        emit BidCommenced(eventId);\n    }\n\n    // Bid for ticket\n    function placeBid(uint256 eventId, uint8 quantity, uint256 tokenBid) public payable isBuyer() {\n        require(eventContract.getEventBidState(eventId) == Event.bidState.open, \"Event not open for bidding\");\n        require(quantity > 0, \"Quantity of tickets must be at least 1\");\n        require(quantity <= 4, \"You have passed the maximum bulk purchase limit\");\n        require(msg.value >= eventContract.getEventTicketPrice(eventId) * quantity, \"Buyer has insufficient ETH\");\n        require(eventTokenContract.checkEventTokenOf(msg.sender) >= tokenBid * quantity, \"Buyer has insufficient EventTokens\");\n        \n        // Transfer tokenBid & ETH to contract\n        if (tokenBid > 0) {\n            require(eventTokenContract.checkAllowance(msg.sender, address(this)) >= tokenBid * quantity, \"Buyer has not approved sufficient EventTokens\");\n            eventTokenContract.approvedTransferFrom(msg.sender, address(this), address(this), tokenBid * quantity);\n        }\n        msg.sender.transfer(msg.value - (eventContract.getEventTicketPrice(eventId) * quantity)); // transfer remaining back to buyer\n    \n        // Record eventBiddings\n        uint256 firstIdx;\n        for (uint8 i = 0; i < quantity; i++) {\n            eventBiddings[eventId][tokenBid].push(msg.sender);\n            if (i == 0) {\n                firstIdx = eventBiddings[eventId][tokenBid].length - 1;\n            }\n        }\n\n        // Record bidInfo for ease of future refund / update \n        bidInfo memory newBidInfo = bidInfo(quantity, eventContract.getEventTicketPrice(eventId), tokenBid, firstIdx);\n        addressBiddings[msg.sender][eventId] = newBidInfo;\n        \n        // Update top bid\n        if (tokenBid > eventTopBid[eventId]) {\n            eventTopBid[eventId] = tokenBid;\n        }\n        emit BidPlaced(eventId, msg.sender, tokenBid);\n    }\n\n    // Close bidding and transfer tickets to top bidders\n    function closeBidding(uint256 eventId) public {\n        require(msg.sender == eventContract.getEventSeller(eventId), \"Only seller can close bidding\");\n        require(eventContract.getEventBidState(eventId) == Event.bidState.open, \"Event not open for bidding\");\n\n        uint256 bidAmount = eventTopBid[eventId];\n        uint256 ticketsLeft = eventContract.getEventTicketsLeft(eventId);\n        uint256 ticketId = eventContract.getEventFirstTicketId(eventId);\n\n        // Tickets given out starting from top bidders\n        while (ticketsLeft != 0) {\n            address[] memory bidderList = eventBiddings[eventId][bidAmount];\n            for (uint256 i = 0; i < bidderList.length; i++) {\n                if (bidderList[i] == address(0)) continue; \n\n                ticketContract.transferTicket(ticketId, bidderList[i]); \n                ticketId++;\n                ticketsLeft--;\n                //burnToken()\n                if (ticketsLeft == 0) break;\n            }\n            if (bidAmount == 0) break;\n            bidAmount--;\n        }\n\n        // TODO: Return unsuccessful bidders\n        // returnBiddings()\n        eventContract.setEventBidState(eventId, Event.bidState.buy);\n        emit BidBuy(eventId);\n    }   \n\n    // Return unsuccessful bidders their corresponding ETH and tokens\n    function returnBiddings() public {\n\n    }\n\n    /* Viewing the number of tickets left for an event */\n    function viewTicketsLeft(uint256 eventId) public view returns (uint256) {\n        return eventContract.getEventTicketsLeft(eventId);\n    }\n\n    /* Buyers buying tickets for an event */\n    function buyTickets(uint256 eventId, uint8 quantity) public payable isBuyer() {\n        require(eventContract.getEventBidState(eventId) == Event.bidState.buy, \"Event not open for buying\");\n        require(quantity > 0, \"Quantity of tickets must be at least 1\");\n        require(quantity <= 4, \"You have passed the maximum bulk purchase limit\");\n        require(eventContract.isEventIdValid(eventId) == true, \"Invalid Event\");\n        require(eventContract.getEventTicketsLeft(eventId) >= quantity, \"Not enough tickets\");\n\n        uint256 totalPrice = eventContract.getEventTicketPrice(eventId) * quantity;\n        require(msg.value >= totalPrice, \"Buyer has insufficient ETH to buy tickets\");\n\n        // Set remaining tickets after someone buys ticket(s)\n        uint256 remainingTickets = eventContract.getEventTicketsLeft(eventId) - quantity;\n        eventContract.setEventTicketsLeft(eventId,remainingTickets);\n\n        // Transfer ticket\n        uint256 firstTicketId = eventContract.getEventFirstTicketId(eventId);\n        uint256 lastTicketId = firstTicketId + eventContract.getEventCapacity(eventId) - 1;\n\n        for (lastTicketId; lastTicketId >= firstTicketId; lastTicketId--) {\n            if (ticketContract.getTicketOwner(lastTicketId) == address(this)) {\n                ticketContract.transferTicket(lastTicketId, msg.sender);\n                quantity--;\n                if (quantity == 0) break;\n            }\n        }\n\n        msg.sender.transfer(msg.value - totalPrice); // transfer remaining back to buyer\n        emit TransferToBuyerSuccessful(msg.sender, msg.value - totalPrice);\n    }\n\n    function endEvent(uint256 eventId) public isOrganiser() {\n        address seller = eventContract.getEventSeller(eventId);\n        require(seller == msg.sender, \"Only original seller can end event\");\n        msg.sender.transfer(sellerDepositedValue[seller]);\n\n        // Calculating ticket sales\n        uint256 numOfTicketsSold = eventContract.getEventCapacity(eventId) - eventContract.getEventTicketsLeft(eventId);\n        uint256 ticketSales = numOfTicketsSold * eventContract.getEventTicketPrice(eventId);\n\n        // Platform keeps 5% commission of ticket sales, rest goes to Seller when event ends\n        uint256 sellerProfits = 95 * ticketSales /100;\n        msg.sender.transfer(sellerProfits);\n\n        eventContract.endEvent(eventId);\n    }\n\n    function calMinimumDeposit(uint256 capacity, uint256 priceOfTicket) public pure returns(uint256){\n        // 1USD = 50,000 wei\n        return (capacity * priceOfTicket)/2 * 50000;\n    }\n\n\n}",
  "sourcePath": "C:\\Users\\jd98_\\OneDrive\\Desktop\\IS4302\\proj\\contracts\\Platform.sol",
  "compiler": {
    "name": "solc",
    "version": "0.5.17+commit.d19bba13.Emscripten.clang"
  },
  "schemaVersion": "3.4.11",
  "updatedAt": "2023-04-03T16:54:10.890Z",
  "networkType": "ethereum",
  "devdoc": {
    "methods": {}
  },
  "userdoc": {
    "methods": {}
  }
}