{
  "contractName": "Platform",
  "abi": [
    {
      "inputs": [
        {
          "internalType": "contract Buyer",
          "name": "buyerAddr",
          "type": "address"
        },
        {
          "internalType": "contract Seller",
          "name": "sellerAddr",
          "type": "address"
        },
        {
          "internalType": "contract EventToken",
          "name": "eventTokenAddr",
          "type": "address"
        },
        {
          "internalType": "contract Event",
          "name": "eventAddr",
          "type": "address"
        }
      ],
      "payable": false,
      "stateMutability": "nonpayable",
      "type": "constructor"
    },
    {
      "constant": true,
      "inputs": [
        {
          "internalType": "uint256",
          "name": "eventId",
          "type": "uint256"
        }
      ],
      "name": "viewTicketsLeft",
      "outputs": [
        {
          "internalType": "uint256",
          "name": "",
          "type": "uint256"
        }
      ],
      "payable": false,
      "stateMutability": "view",
      "type": "function"
    },
    {
      "constant": false,
      "inputs": [
        {
          "internalType": "uint256",
          "name": "eventId",
          "type": "uint256"
        },
        {
          "internalType": "uint8",
          "name": "quantity",
          "type": "uint8"
        }
      ],
      "name": "buyTickets",
      "outputs": [],
      "payable": true,
      "stateMutability": "payable",
      "type": "function"
    }
  ],
  "bytecode": "0x608060405234801561001057600080fd5b506040516103203803806103208339818101604052608081101561003357600080fd5b8101908080519060200190929190805190602001909291908051906020019092919080519060200190929190505050836000806101000a81548173ffffffffffffffffffffffffffffffffffffffff021916908373ffffffffffffffffffffffffffffffffffffffff16021790555082600160006101000a81548173ffffffffffffffffffffffffffffffffffffffff021916908373ffffffffffffffffffffffffffffffffffffffff16021790555081600260006101000a81548173ffffffffffffffffffffffffffffffffffffffff021916908373ffffffffffffffffffffffffffffffffffffffff16021790555080600360006101000a81548173ffffffffffffffffffffffffffffffffffffffff021916908373ffffffffffffffffffffffffffffffffffffffff160217905550505050506101a8806101786000396000f3fe6080604052600436106100295760003560e01c80635a22ac921461002e578063aa2bb23214610069575b600080fd5b6100676004803603604081101561004457600080fd5b8101908080359060200190929190803560ff1690602001909291905050506100b8565b005b34801561007557600080fd5b506100a26004803603602081101561008c57600080fd5b81019080803590602001909291905050506100bc565b6040518082815260200191505060405180910390f35b5050565b6000600360009054906101000a900473ffffffffffffffffffffffffffffffffffffffff1673ffffffffffffffffffffffffffffffffffffffff1663046cbeec836040518263ffffffff1660e01b81526004018082815260200191505060206040518083038186803b15801561013157600080fd5b505afa158015610145573d6000803e3d6000fd5b505050506040513d602081101561015b57600080fd5b8101908080519060200190929190505050905091905056fea265627a7a72315820ace55b05f18166774fe6114f9b7c7aa527a44cd813055f0cb45d39724755aeba64736f6c63430005110032",
  "source": "pragma solidity ^0.5.0;\r\n\r\nimport \"./Buyer.sol\";\r\nimport \"./Seller.sol\"; \r\nimport \"./Event.sol\";\r\nimport \"./Ticket.sol\";\r\nimport \"./EventToken.sol\";\r\n\r\ncontract Platform {\r\n    Buyer buyerContract;\r\n    Seller sellerContract;\r\n    EventToken eventTokenContract;\r\n    Event eventContract;\r\n\r\n    // Platform can only exist if other contracts are created first\r\n    constructor(Buyer buyerAddr, Seller sellerAddr, EventToken eventTokenAddr, Event eventAddr) public {\r\n        buyerContract = buyerAddr;\r\n        sellerContract = sellerAddr;\r\n        eventTokenContract = eventTokenAddr;\r\n        eventContract = eventAddr;\r\n    }\r\n\r\n    /* Viewing the number of tickets left for an event */\r\n    function viewTicketsLeft(uint256 eventId) public view returns (uint256) {\r\n        return eventContract.getEventTicketsLeft(eventId);\r\n    }\r\n\r\n    /* Buyers buying tickets for an event */\r\n    function buyTickets(uint256 eventId, uint8 quantity) public payable {\r\n        // buyerContract.buyTickets(eventId, quantity, concertTokenContract);\r\n    }\r\n\r\n}",
  "sourcePath": "C:\\Users\\remus\\Desktop\\3.2\\IS4302\\Project\\contracts\\Platform.sol",
  "compiler": {
    "name": "solc",
    "version": "0.5.17+commit.d19bba13.Emscripten.clang"
  },
  "schemaVersion": "3.4.11",
  "updatedAt": "2023-03-17T19:02:39.882Z",
  "devdoc": {
    "methods": {}
  },
  "userdoc": {
    "methods": {}
  }
}