{
  "contractName": "Platform",
  "abi": [
    {
      "inputs": [
        {
          "internalType": "contract Account",
          "name": "accountAddr",
          "type": "address"
        },
        {
          "internalType": "contract EventToken",
          "name": "eventTokenAddr",
          "type": "address"
        },
        {
          "internalType": "contract Event",
          "name": "eventAddr",
          "type": "address"
        }
      ],
      "payable": false,
      "stateMutability": "nonpayable",
      "type": "constructor"
    },
    {
      "anonymous": false,
      "inputs": [
        {
          "indexed": false,
          "internalType": "uint256",
          "name": "eventId",
          "type": "uint256"
        }
      ],
      "name": "BidClosed",
      "type": "event"
    },
    {
      "anonymous": false,
      "inputs": [
        {
          "indexed": false,
          "internalType": "uint256",
          "name": "eventId",
          "type": "uint256"
        }
      ],
      "name": "BidCommenced",
      "type": "event"
    },
    {
      "anonymous": false,
      "inputs": [
        {
          "indexed": false,
          "internalType": "uint256",
          "name": "eventId",
          "type": "uint256"
        },
        {
          "indexed": false,
          "internalType": "address",
          "name": "buyer",
          "type": "address"
        },
        {
          "indexed": false,
          "internalType": "uint256",
          "name": "tokenBid",
          "type": "uint256"
        }
      ],
      "name": "BidPlaced",
      "type": "event"
    },
    {
      "anonymous": false,
      "inputs": [
        {
          "indexed": false,
          "internalType": "address",
          "name": "to",
          "type": "address"
        },
        {
          "indexed": false,
          "internalType": "uint256",
          "name": "amount",
          "type": "uint256"
        }
      ],
      "name": "TransferToBuyerSuccessful",
      "type": "event"
    },
    {
      "constant": true,
      "inputs": [
        {
          "internalType": "address",
          "name": "",
          "type": "address"
        },
        {
          "internalType": "uint256",
          "name": "",
          "type": "uint256"
        }
      ],
      "name": "addressBiddings",
      "outputs": [
        {
          "internalType": "uint256",
          "name": "quantity",
          "type": "uint256"
        },
        {
          "internalType": "uint256",
          "name": "pricePerTicket",
          "type": "uint256"
        },
        {
          "internalType": "uint256",
          "name": "tokenPerTicket",
          "type": "uint256"
        },
        {
          "internalType": "uint256",
          "name": "firstIndexForEventBiddings",
          "type": "uint256"
        }
      ],
      "payable": false,
      "stateMutability": "view",
      "type": "function"
    },
    {
      "constant": true,
      "inputs": [
        {
          "internalType": "uint256",
          "name": "",
          "type": "uint256"
        },
        {
          "internalType": "uint256",
          "name": "",
          "type": "uint256"
        },
        {
          "internalType": "uint256",
          "name": "",
          "type": "uint256"
        }
      ],
      "name": "eventBiddings",
      "outputs": [
        {
          "internalType": "address",
          "name": "",
          "type": "address"
        }
      ],
      "payable": false,
      "stateMutability": "view",
      "type": "function"
    },
    {
      "constant": true,
      "inputs": [
        {
          "internalType": "uint256",
          "name": "",
          "type": "uint256"
        }
      ],
      "name": "eventTopBid",
      "outputs": [
        {
          "internalType": "uint256",
          "name": "",
          "type": "uint256"
        }
      ],
      "payable": false,
      "stateMutability": "view",
      "type": "function"
    },
    {
      "constant": false,
      "inputs": [
        {
          "internalType": "string",
          "name": "title",
          "type": "string"
        },
        {
          "internalType": "string",
          "name": "venue",
          "type": "string"
        },
        {
          "internalType": "uint256",
          "name": "year",
          "type": "uint256"
        },
        {
          "internalType": "uint256",
          "name": "month",
          "type": "uint256"
        },
        {
          "internalType": "uint256",
          "name": "day",
          "type": "uint256"
        },
        {
          "internalType": "uint256",
          "name": "hour",
          "type": "uint256"
        },
        {
          "internalType": "uint256",
          "name": "minute",
          "type": "uint256"
        },
        {
          "internalType": "uint256",
          "name": "second",
          "type": "uint256"
        },
        {
          "internalType": "uint256",
          "name": "capacity",
          "type": "uint256"
        },
        {
          "internalType": "uint256",
          "name": "ticketsLeft",
          "type": "uint256"
        },
        {
          "internalType": "uint256",
          "name": "priceOfTicket",
          "type": "uint256"
        },
        {
          "internalType": "address",
          "name": "seller",
          "type": "address"
        }
      ],
      "name": "listEvent",
      "outputs": [
        {
          "internalType": "uint256",
          "name": "",
          "type": "uint256"
        }
      ],
      "payable": true,
      "stateMutability": "payable",
      "type": "function"
    },
    {
      "constant": false,
      "inputs": [
        {
          "internalType": "uint256",
          "name": "eventId",
          "type": "uint256"
        }
      ],
      "name": "commenceBidding",
      "outputs": [],
      "payable": false,
      "stateMutability": "nonpayable",
      "type": "function"
    },
    {
      "constant": false,
      "inputs": [
        {
          "internalType": "uint256",
          "name": "eventId",
          "type": "uint256"
        },
        {
          "internalType": "uint8",
          "name": "quantity",
          "type": "uint8"
        },
        {
          "internalType": "uint256",
          "name": "tokenBid",
          "type": "uint256"
        }
      ],
      "name": "placeBid",
      "outputs": [],
      "payable": true,
      "stateMutability": "payable",
      "type": "function"
    },
    {
      "constant": false,
      "inputs": [
        {
          "internalType": "uint256",
          "name": "eventId",
          "type": "uint256"
        }
      ],
      "name": "closeBidding",
      "outputs": [],
      "payable": false,
      "stateMutability": "nonpayable",
      "type": "function"
    },
    {
      "constant": false,
      "inputs": [],
      "name": "returnBiddings",
      "outputs": [],
      "payable": false,
      "stateMutability": "nonpayable",
      "type": "function"
    },
    {
      "constant": true,
      "inputs": [
        {
          "internalType": "uint256",
          "name": "eventId",
          "type": "uint256"
        }
      ],
      "name": "viewTicketsLeft",
      "outputs": [
        {
          "internalType": "uint256",
          "name": "",
          "type": "uint256"
        }
      ],
      "payable": false,
      "stateMutability": "view",
      "type": "function"
    },
    {
      "constant": false,
      "inputs": [
        {
          "internalType": "uint256",
          "name": "eventId",
          "type": "uint256"
        },
        {
          "internalType": "uint8",
          "name": "quantity",
          "type": "uint8"
        },
        {
          "internalType": "uint256",
          "name": "price",
          "type": "uint256"
        }
      ],
      "name": "buyTickets",
      "outputs": [],
      "payable": true,
      "stateMutability": "payable",
      "type": "function"
    },
    {
      "constant": false,
      "inputs": [
        {
          "internalType": "uint256",
          "name": "eventId",
          "type": "uint256"
        }
      ],
      "name": "endEvent",
      "outputs": [],
      "payable": false,
      "stateMutability": "nonpayable",
      "type": "function"
    },
    {
      "constant": true,
      "inputs": [
        {
          "internalType": "uint256",
          "name": "capacity",
          "type": "uint256"
        },
        {
          "internalType": "uint256",
          "name": "priceOfTicket",
          "type": "uint256"
        }
      ],
      "name": "calMinimumDeposit",
      "outputs": [
        {
          "internalType": "uint256",
          "name": "",
          "type": "uint256"
        }
      ],
      "payable": false,
      "stateMutability": "pure",
      "type": "function"
    }
  ],
  "bytecode": "0x608060405234801561001057600080fd5b506040516127413803806127418339818101604052606081101561003357600080fd5b81019080805190602001909291908051906020019092919080519060200190929190505050826000806101000a81548173ffffffffffffffffffffffffffffffffffffffff021916908373ffffffffffffffffffffffffffffffffffffffff16021790555081600160006101000a81548173ffffffffffffffffffffffffffffffffffffffff021916908373ffffffffffffffffffffffffffffffffffffffff16021790555080600260006101000a81548173ffffffffffffffffffffffffffffffffffffffff021916908373ffffffffffffffffffffffffffffffffffffffff1602179055505050506126158061012c6000396000f3fe6080604052600436106100a75760003560e01c8063773c33ed11610064578063773c33ed146102475780637a1010611461028c5780637c1267a6146102e5578063aa2bb2321461032a578063d6375d9314610379578063dc5665cd14610408576100a7565b80630bec24a6146100ac578063330a347b146101305780634138915f1461016b57806344c7cb71146101825780635b1194b2146101d1578063750a9b3b1461020c575b600080fd5b3480156100b857600080fd5b50610105600480360360408110156100cf57600080fd5b81019080803573ffffffffffffffffffffffffffffffffffffffff169060200190929190803590602001909291905050506105e9565b6040518085815260200184815260200183815260200182815260200194505050505060405180910390f35b34801561013c57600080fd5b506101696004803603602081101561015357600080fd5b8101908080359060200190929190505050610626565b005b34801561017757600080fd5b50610180610a77565b005b34801561018e57600080fd5b506101bb600480360360208110156101a557600080fd5b8101908080359060200190929190505050610a79565b6040518082815260200191505060405180910390f35b3480156101dd57600080fd5b5061020a600480360360208110156101f457600080fd5b8101908080359060200190929190505050610a91565b005b34801561021857600080fd5b506102456004803603602081101561022f57600080fd5b8101908080359060200190929190505050611018565b005b61028a6004803603606081101561025d57600080fd5b8101908080359060200190929190803560ff1690602001909291908035906020019092919050505061137c565b005b34801561029857600080fd5b506102cf600480360360408110156102af57600080fd5b810190808035906020019092919080359060200190929190505050611693565b6040518082815260200191505060405180910390f35b610328600480360360608110156102fb57600080fd5b8101908080359060200190929190803560ff169060200190929190803590602001909291905050506116ae565b005b34801561033657600080fd5b506103636004803603602081101561034d57600080fd5b8101908080359060200190929190505050611f29565b6040518082815260200191505060405180910390f35b34801561038557600080fd5b506103c66004803603606081101561039c57600080fd5b81019080803590602001909291908035906020019092919080359060200190929190505050611fe0565b604051808273ffffffffffffffffffffffffffffffffffffffff1673ffffffffffffffffffffffffffffffffffffffff16815260200191505060405180910390f35b6105d3600480360361018081101561041f57600080fd5b810190808035906020019064010000000081111561043c57600080fd5b82018360208201111561044e57600080fd5b8035906020019184600183028401116401000000008311171561047057600080fd5b91908080601f016020809104026020016040519081016040528093929190818152602001838380828437600081840152601f19601f820116905080830192505050505050509192919290803590602001906401000000008111156104d357600080fd5b8201836020820111156104e557600080fd5b8035906020019184600183028401116401000000008311171561050757600080fd5b91908080601f016020809104026020016040519081016040528093929190818152602001838380828437600081840152601f19601f820116905080830192505050505050509192919290803590602001909291908035906020019092919080359060200190929190803590602001909291908035906020019092919080359060200190929190803590602001909291908035906020019092919080359060200190929190803573ffffffffffffffffffffffffffffffffffffffff169060200190929190505050612038565b6040518082815260200191505060405180910390f35b6006602052816000526040600020602052806000526040600020600091509150508060000154908060010154908060020154908060030154905084565b6000809054906101000a900473ffffffffffffffffffffffffffffffffffffffff1673ffffffffffffffffffffffffffffffffffffffff1663a76dd7746040518163ffffffff1660e01b815260040160206040518083038186803b15801561068d57600080fd5b505afa1580156106a1573d6000803e3d6000fd5b505050506040513d60208110156106b757600080fd5b810190808051906020019092919050505060018111156106d357fe5b6000809054906101000a900473ffffffffffffffffffffffffffffffffffffffff1673ffffffffffffffffffffffffffffffffffffffff16639a6c8951336040518263ffffffff1660e01b8152600401808273ffffffffffffffffffffffffffffffffffffffff1673ffffffffffffffffffffffffffffffffffffffff16815260200191505060206040518083038186803b15801561077157600080fd5b505afa158015610785573d6000803e3d6000fd5b505050506040513d602081101561079b57600080fd5b810190808051906020019092919050505060018111156107b757fe5b1461082a576040517f08c379a000000000000000000000000000000000000000000000000000000000815260040180806020018281038252601d8152602001807f596f7520617265206e6f7420612076657269666965642073656c6c657200000081525060200191505060405180910390fd5b6000600260009054906101000a900473ffffffffffffffffffffffffffffffffffffffff1673ffffffffffffffffffffffffffffffffffffffff1663afaddf8f836040518263ffffffff1660e01b81526004018082815260200191505060206040518083038186803b15801561089f57600080fd5b505afa1580156108b3573d6000803e3d6000fd5b505050506040513d60208110156108c957600080fd5b810190808051906020019092919050505090503373ffffffffffffffffffffffffffffffffffffffff168173ffffffffffffffffffffffffffffffffffffffff1614610960576040517f08c379a00000000000000000000000000000000000000000000000000000000081526004018080602001828103825260228152602001806125966022913960400191505060405180910390fd5b600260009054906101000a900473ffffffffffffffffffffffffffffffffffffffff1673ffffffffffffffffffffffffffffffffffffffff1663330a347b836040518263ffffffff1660e01b815260040180828152602001915050600060405180830381600087803b1580156109d557600080fd5b505af11580156109e9573d6000803e3d6000fd5b505050503373ffffffffffffffffffffffffffffffffffffffff166108fc600360008473ffffffffffffffffffffffffffffffffffffffff1673ffffffffffffffffffffffffffffffffffffffff168152602001908152602001600020549081150290604051600060405180830381858888f19350505050158015610a72573d6000803e3d6000fd5b505050565b565b60046020528060005260406000206000915090505481565b600260009054906101000a900473ffffffffffffffffffffffffffffffffffffffff1673ffffffffffffffffffffffffffffffffffffffff1663afaddf8f826040518263ffffffff1660e01b81526004018082815260200191505060206040518083038186803b158015610b0457600080fd5b505afa158015610b18573d6000803e3d6000fd5b505050506040513d6020811015610b2e57600080fd5b810190808051906020019092919050505073ffffffffffffffffffffffffffffffffffffffff163373ffffffffffffffffffffffffffffffffffffffff1614610bdf576040517f08c379a000000000000000000000000000000000000000000000000000000000815260040180806020018281038252601d8152602001807f4f6e6c792073656c6c65722063616e20636c6f73652062696464696e6700000081525060200191505060405180910390fd5b60006001811115610bec57fe5b600260009054906101000a900473ffffffffffffffffffffffffffffffffffffffff1673ffffffffffffffffffffffffffffffffffffffff1663f4a1ad16836040518263ffffffff1660e01b81526004018082815260200191505060206040518083038186803b158015610c5f57600080fd5b505afa158015610c73573d6000803e3d6000fd5b505050506040513d6020811015610c8957600080fd5b81019080805190602001909291905050506001811115610ca557fe5b14610d18576040517f08c379a000000000000000000000000000000000000000000000000000000000815260040180806020018281038252601a8152602001807f4576656e74206e6f74206f70656e20666f722062696464696e6700000000000081525060200191505060405180910390fd5b6000600460008381526020019081526020016000205490506000600260009054906101000a900473ffffffffffffffffffffffffffffffffffffffff1673ffffffffffffffffffffffffffffffffffffffff1663046cbeec846040518263ffffffff1660e01b81526004018082815260200191505060206040518083038186803b158015610da557600080fd5b505afa158015610db9573d6000803e3d6000fd5b505050506040513d6020811015610dcf57600080fd5b810190808051906020019092919050505090505b60008114610f38576060600560008581526020019081526020016000206000848152602001908152602001600020805480602002602001604051908101604052809291908181526020018280548015610e9157602002820191906000526020600020905b8160009054906101000a900473ffffffffffffffffffffffffffffffffffffffff1673ffffffffffffffffffffffffffffffffffffffff1681526020019060010190808311610e47575b5050505050905060008090505b8151811015610f1957600073ffffffffffffffffffffffffffffffffffffffff16828281518110610ecb57fe5b602002602001015173ffffffffffffffffffffffffffffffffffffffff161415610ef457610f0c565b8280600190039350506000831415610f0b57610f19565b5b8080600101915050610e9e565b506000831415610f295750610f38565b82806001900393505050610de3565b600260009054906101000a900473ffffffffffffffffffffffffffffffffffffffff1673ffffffffffffffffffffffffffffffffffffffff1663d9c6b2198460016040518363ffffffff1660e01b815260040180838152602001826001811115610f9e57fe5b60ff16815260200192505050600060405180830381600087803b158015610fc457600080fd5b505af1158015610fd8573d6000803e3d6000fd5b505050507f6763f632a6aff2fa61f0d00f2f5928247e48bbab083af597c763beb7a7074ac1836040518082815260200191505060405180910390a1505050565b600260009054906101000a900473ffffffffffffffffffffffffffffffffffffffff1673ffffffffffffffffffffffffffffffffffffffff1663afaddf8f826040518263ffffffff1660e01b81526004018082815260200191505060206040518083038186803b15801561108b57600080fd5b505afa15801561109f573d6000803e3d6000fd5b505050506040513d60208110156110b557600080fd5b810190808051906020019092919050505073ffffffffffffffffffffffffffffffffffffffff163373ffffffffffffffffffffffffffffffffffffffff1614611166576040517f08c379a00000000000000000000000000000000000000000000000000000000081526004018080602001828103825260208152602001807f4f6e6c792073656c6c65722063616e20636f6d6d656e63652062696464696e6781525060200191505060405180910390fd5b60018081111561117257fe5b600260009054906101000a900473ffffffffffffffffffffffffffffffffffffffff1673ffffffffffffffffffffffffffffffffffffffff1663f4a1ad16836040518263ffffffff1660e01b81526004018082815260200191505060206040518083038186803b1580156111e557600080fd5b505afa1580156111f9573d6000803e3d6000fd5b505050506040513d602081101561120f57600080fd5b8101908080519060200190929190505050600181111561122b57fe5b1461129e576040517f08c379a000000000000000000000000000000000000000000000000000000000815260040180806020018281038252601e8152602001807f4576656e7420616c7265616479206f70656e20666f722062696464696e67000081525060200191505060405180910390fd5b600260009054906101000a900473ffffffffffffffffffffffffffffffffffffffff1673ffffffffffffffffffffffffffffffffffffffff1663d9c6b2198260006040518363ffffffff1660e01b81526004018083815260200182600181111561130457fe5b60ff16815260200192505050600060405180830381600087803b15801561132a57600080fd5b505af115801561133e573d6000803e3d6000fd5b505050507f06fe11e50ef598e7d082666f5ab23b04096ea52b6b458ff241ba708c0e66bac9816040518082815260200191505060405180910390a150565b6000809054906101000a900473ffffffffffffffffffffffffffffffffffffffff1673ffffffffffffffffffffffffffffffffffffffff166390f9b6786040518163ffffffff1660e01b815260040160206040518083038186803b1580156113e357600080fd5b505afa1580156113f7573d6000803e3d6000fd5b505050506040513d602081101561140d57600080fd5b8101908080519060200190929190505050600181111561142957fe5b6000809054906101000a900473ffffffffffffffffffffffffffffffffffffffff1673ffffffffffffffffffffffffffffffffffffffff16639a6c8951336040518263ffffffff1660e01b8152600401808273ffffffffffffffffffffffffffffffffffffffff1673ffffffffffffffffffffffffffffffffffffffff16815260200191505060206040518083038186803b1580156114c757600080fd5b505afa1580156114db573d6000803e3d6000fd5b505050506040513d60208110156114f157600080fd5b8101908080519060200190929190505050600181111561150d57fe5b1461151757600080fd5b60048260ff161115611574576040517f08c379a000000000000000000000000000000000000000000000000000000000815260040180806020018281038252602f815260200180612545602f913960400191505060405180910390fd5b60008260ff1682029050803410156115d7576040517f08c379a00000000000000000000000000000000000000000000000000000000081526004018080602001828103825260298152602001806125b86029913960400191505060405180910390fd5b3373ffffffffffffffffffffffffffffffffffffffff166108fc8234039081150290604051600060405180830381858888f1935050505015801561161f573d6000803e3d6000fd5b507f85f663dec9a920059b20245b779d5040c902415f43beccbd6fba5e69ca2abf4033823403604051808373ffffffffffffffffffffffffffffffffffffffff1673ffffffffffffffffffffffffffffffffffffffff1681526020018281526020019250505060405180910390a150505050565b600061c3506002838502816116a457fe5b0402905092915050565b6000809054906101000a900473ffffffffffffffffffffffffffffffffffffffff1673ffffffffffffffffffffffffffffffffffffffff166390f9b6786040518163ffffffff1660e01b815260040160206040518083038186803b15801561171557600080fd5b505afa158015611729573d6000803e3d6000fd5b505050506040513d602081101561173f57600080fd5b8101908080519060200190929190505050600181111561175b57fe5b6000809054906101000a900473ffffffffffffffffffffffffffffffffffffffff1673ffffffffffffffffffffffffffffffffffffffff16639a6c8951336040518263ffffffff1660e01b8152600401808273ffffffffffffffffffffffffffffffffffffffff1673ffffffffffffffffffffffffffffffffffffffff16815260200191505060206040518083038186803b1580156117f957600080fd5b505afa15801561180d573d6000803e3d6000fd5b505050506040513d602081101561182357600080fd5b8101908080519060200190929190505050600181111561183f57fe5b1461184957600080fd5b6000600181111561185657fe5b600260009054906101000a900473ffffffffffffffffffffffffffffffffffffffff1673ffffffffffffffffffffffffffffffffffffffff1663f4a1ad16856040518263ffffffff1660e01b81526004018082815260200191505060206040518083038186803b1580156118c957600080fd5b505afa1580156118dd573d6000803e3d6000fd5b505050506040513d60208110156118f357600080fd5b8101908080519060200190929190505050600181111561190f57fe5b14611982576040517f08c379a000000000000000000000000000000000000000000000000000000000815260040180806020018281038252601a8152602001807f4576656e74206e6f74206f70656e20666f722062696464696e6700000000000081525060200191505060405180910390fd5b60048260ff1611156119df576040517f08c379a000000000000000000000000000000000000000000000000000000000815260040180806020018281038252602f815260200180612545602f913960400191505060405180910390fd5b8160ff16600260009054906101000a900473ffffffffffffffffffffffffffffffffffffffff1673ffffffffffffffffffffffffffffffffffffffff16636459d3b4856040518263ffffffff1660e01b81526004018082815260200191505060206040518083038186803b158015611a5657600080fd5b505afa158015611a6a573d6000803e3d6000fd5b505050506040513d6020811015611a8057600080fd5b810190808051906020019092919050505002341015611b07576040517f08c379a000000000000000000000000000000000000000000000000000000000815260040180806020018281038252601a8152602001807f42757965722068617320696e73756666696369656e742045544800000000000081525060200191505060405180910390fd5b8160ff168102600160009054906101000a900473ffffffffffffffffffffffffffffffffffffffff1673ffffffffffffffffffffffffffffffffffffffff1663575a7c63336040518263ffffffff1660e01b8152600401808273ffffffffffffffffffffffffffffffffffffffff1673ffffffffffffffffffffffffffffffffffffffff16815260200191505060206040518083038186803b158015611bac57600080fd5b505afa158015611bc0573d6000803e3d6000fd5b505050506040513d6020811015611bd657600080fd5b81019080805190602001909291905050501015611c3e576040517f08c379a00000000000000000000000000000000000000000000000000000000081526004018080602001828103825260228152602001806125746022913960400191505060405180910390fd5b600080600090505b8360ff168160ff161015611d23576005600086815260200190815260200160002060008481526020019081526020016000203390806001815401808255809150509060018203906000526020600020016000909192909190916101000a81548173ffffffffffffffffffffffffffffffffffffffff021916908373ffffffffffffffffffffffffffffffffffffffff1602179055505060008160ff161415611d16576001600560008781526020019081526020016000206000858152602001908152602001600020805490500391505b8080600101915050611c46565b50611d2c6124b9565b60405180608001604052808560ff168152602001600260009054906101000a900473ffffffffffffffffffffffffffffffffffffffff1673ffffffffffffffffffffffffffffffffffffffff16636459d3b4886040518263ffffffff1660e01b81526004018082815260200191505060206040518083038186803b158015611db357600080fd5b505afa158015611dc7573d6000803e3d6000fd5b505050506040513d6020811015611ddd57600080fd5b8101908080519060200190929190505050815260200184815260200183815250905080600660003373ffffffffffffffffffffffffffffffffffffffff1673ffffffffffffffffffffffffffffffffffffffff1681526020019081526020016000206000878152602001908152602001600020600082015181600001556020820151816001015560408201518160020155606082015181600301559050506004600086815260200190815260200160002054831115611eaf578260046000878152602001908152602001600020819055505b7f0e54eff26401bf69b81b26f60bd85ef47f5d85275c1d268d84f68d6897431c47853385604051808481526020018373ffffffffffffffffffffffffffffffffffffffff1673ffffffffffffffffffffffffffffffffffffffff168152602001828152602001935050505060405180910390a15050505050565b6000600260009054906101000a900473ffffffffffffffffffffffffffffffffffffffff1673ffffffffffffffffffffffffffffffffffffffff1663046cbeec836040518263ffffffff1660e01b81526004018082815260200191505060206040518083038186803b158015611f9e57600080fd5b505afa158015611fb2573d6000803e3d6000fd5b505050506040513d6020811015611fc857600080fd5b81019080805190602001909291905050509050919050565b6005602052826000526040600020602052816000526040600020818154811061200557fe5b90600052602060002001600092509250509054906101000a900473ffffffffffffffffffffffffffffffffffffffff1681565b60008060009054906101000a900473ffffffffffffffffffffffffffffffffffffffff1673ffffffffffffffffffffffffffffffffffffffff1663a76dd7746040518163ffffffff1660e01b815260040160206040518083038186803b1580156120a157600080fd5b505afa1580156120b5573d6000803e3d6000fd5b505050506040513d60208110156120cb57600080fd5b810190808051906020019092919050505060018111156120e757fe5b6000809054906101000a900473ffffffffffffffffffffffffffffffffffffffff1673ffffffffffffffffffffffffffffffffffffffff16639a6c8951336040518263ffffffff1660e01b8152600401808273ffffffffffffffffffffffffffffffffffffffff1673ffffffffffffffffffffffffffffffffffffffff16815260200191505060206040518083038186803b15801561218557600080fd5b505afa158015612199573d6000803e3d6000fd5b505050506040513d60208110156121af57600080fd5b810190808051906020019092919050505060018111156121cb57fe5b1461223e576040517f08c379a000000000000000000000000000000000000000000000000000000000815260040180806020018281038252601d8152602001807f596f7520617265206e6f7420612076657269666965642073656c6c657200000081525060200191505060405180910390fd5b600161224a8685611693565b023410156122a3576040517f08c379a00000000000000000000000000000000000000000000000000000000081526004018080602001828103825260638152602001806124e26063913960800191505060405180910390fd5b6000600260009054906101000a900473ffffffffffffffffffffffffffffffffffffffff1673ffffffffffffffffffffffffffffffffffffffff1663d14b3c6d8f8f8f8f8f8f8f8f8f8f8f8f6040518d63ffffffff1660e01b81526004018080602001806020018d81526020018c81526020018b81526020018a81526020018981526020018881526020018781526020018681526020018581526020018473ffffffffffffffffffffffffffffffffffffffff1673ffffffffffffffffffffffffffffffffffffffff16815260200183810383528f818151815260200191508051906020019080838360005b838110156123aa57808201518184015260208101905061238f565b50505050905090810190601f1680156123d75780820380516001836020036101000a031916815260200191505b5083810382528e818151815260200191508051906020019080838360005b838110156124105780820151818401526020810190506123f5565b50505050905090810190601f16801561243d5780820380516001836020036101000a031916815260200191505b509e505050505050505050505050505050602060405180830381600087803b15801561246857600080fd5b505af115801561247c573d6000803e3d6000fd5b505050506040513d602081101561249257600080fd5b81019080805190602001909291905050509050809150509c9b505050505050505050505050565b604051806080016040528060008152602001600081526020016000815260200160008152509056fe496e73756666696369656e74206465706f736974732e204e656564206465706f736974206d696e696d756d20286361706163697479202a2070726963654f665469636b6574292f32202a2035303030302077656920746f206c697374206576656e742e596f7520686176652070617373656420746865206d6178696d756d2062756c6b207075726368617365206c696d697442757965722068617320696e73756666696369656e74204576656e74546f6b656e734f6e6c79206f726967696e616c2073656c6c65722063616e20656e64206576656e7442757965722068617320696e73756666696369656e742045544820746f20627579207469636b657473a265627a7a723158200710045d9b6a8f5486b4c4d1e99b4af243e337a33b5fc8c46fe92ba63c16aef164736f6c63430005110032",
  "source": "pragma solidity ^0.5.0;\n\nimport \"./Account.sol\";\nimport \"./Event.sol\";\nimport \"./Ticket.sol\";\nimport \"./EventToken.sol\";\n\ncontract Platform {\n    Account accountContract;\n    EventToken eventTokenContract;\n    Event eventContract;\n\n    event BidCommenced (uint256 eventId);\n    event BidPlaced (uint256 eventId, address buyer, uint256 tokenBid);\n    event BidClosed (uint256 eventId);\n    event TransferToBuyerSuccessful(address to, uint256 amount);\n\n    mapping(address => uint256) sellerDepositedValue;\n\n    // Platform can only exist if other contracts are created first\n    constructor(Account accountAddr, EventToken eventTokenAddr, Event eventAddr) public {\n        accountContract = accountAddr;\n        eventTokenContract = eventTokenAddr;\n        eventContract = eventAddr;\n    }\n\n    struct bidInfo {\n        uint256 quantity;\n        uint256 pricePerTicket;\n        uint256 tokenPerTicket;\n        uint256 firstIndexForEventBiddings; // For ease of updating bid\n    }\n\n    mapping(uint256 => uint256) public eventTopBid; // eventId => topBid\n    mapping(uint256 => mapping(uint256 => address[])) public eventBiddings; // eventId => (tokenBid => addressArray) \n    mapping(address => mapping(uint256 => bidInfo)) public addressBiddings; // address => (eventId => bidInfo)\n\n    /* Ensure caller is a buyer */\n    modifier isBuyer() {\n        require(accountContract.viewAccountState(msg.sender) == accountContract.getUnverifiedStatus());\n        _;\n    }\n\n    /*Ensure caller is a verified seller*/\n    modifier isOrganiser() {\n        require(accountContract.viewAccountState(msg.sender) == accountContract.getVerifiedStatus(),\"You are not a verified seller\");\n        _;\n    }\n\n    // list Event on Platform\n    function listEvent(string memory title,\n        string memory venue,\n        uint256 year, uint256 month, uint256 day, uint256 hour, uint256 minute, uint256 second,\n        uint256 capacity,\n        uint256 ticketsLeft,\n        uint256 priceOfTicket,\n        address seller) public payable isOrganiser() returns (uint256) {\n\n        // however msg.value here will not be sent to event contract. msg.value at event contract is 0.\n        require(msg.value >= calMinimumDeposit(capacity,priceOfTicket) * 1 wei, \"Insufficient deposits. Need deposit minimum (capacity * priceOfTicket)/2 * 50000 wei to list event.\");\n\n        uint256 newEventId = eventContract.createEvent(title, venue, year, month, day,hour,minute, second, \n        capacity, ticketsLeft,priceOfTicket,seller);\n\n        return newEventId;\n    }\n\n    // Commence bidding for event\n    function commenceBidding(uint256 eventId) public {\n        require(msg.sender == eventContract.getEventSeller(eventId), \"Only seller can commence bidding\");\n        require(eventContract.getEventBidState(eventId) == Event.bidState.close, \"Event already open for bidding\");\n\n        eventContract.setEventBidState(eventId, Event.bidState.open);\n        emit BidCommenced(eventId);\n    }\n\n    // Bid for ticket\n    function placeBid(uint256 eventId, uint8 quantity, uint256 tokenBid) public payable isBuyer() {\n        require(eventContract.getEventBidState(eventId) == Event.bidState.open, \"Event not open for bidding\");\n        require(quantity <= 4, \"You have passed the maximum bulk purchase limit\");\n        require(msg.value >= eventContract.getEventTicketPrice(eventId) * quantity, \"Buyer has insufficient ETH\");\n        require(eventTokenContract.checkEventTokenOf(msg.sender) >= tokenBid * quantity, \"Buyer has insufficient EventTokens\");\n\n        //TODO: Transfer tokenBid & ETH to contract\n        //eventTokenContract.transferFrom(msg.sender, address(this), tokenBid * quantity);\n\n    \n        // Record eventBiddings\n        uint256 firstIdx;\n        for (uint8 i = 0; i < quantity; i++) {\n            eventBiddings[eventId][tokenBid].push(msg.sender);\n            if (i == 0) {\n                firstIdx = eventBiddings[eventId][tokenBid].length - 1;\n            }\n        }\n\n        // Record bidInfo for ease of future refund / update \n        bidInfo memory newBidInfo = bidInfo(quantity, eventContract.getEventTicketPrice(eventId), tokenBid, firstIdx);\n        addressBiddings[msg.sender][eventId] = newBidInfo;\n        \n        // Update top bid\n        if (tokenBid > eventTopBid[eventId]) {\n            eventTopBid[eventId] = tokenBid;\n        }\n        emit BidPlaced(eventId, msg.sender, tokenBid);\n    }\n\n    // Close bidding and transfer tickets to top bidders\n    function closeBidding(uint256 eventId) public {\n        require(msg.sender == eventContract.getEventSeller(eventId), \"Only seller can close bidding\");\n        require(eventContract.getEventBidState(eventId) == Event.bidState.open, \"Event not open for bidding\");\n\n        uint256 bidAmount = eventTopBid[eventId];\n        uint256 ticketsLeft = eventContract.getEventTicketsLeft(eventId);\n\n        // Tickets given out starting from top bidders\n        while (ticketsLeft != 0) {\n            address[] memory bidderList = eventBiddings[eventId][bidAmount];\n            for (uint256 i = 0; i < bidderList.length; i++) {\n                if (bidderList[i] == address(0)) continue; \n\n                // TODO: transfer ticket to address @ bidderList[i]\n                ticketsLeft--;\n\n                if (ticketsLeft == 0) break;\n            }\n            if (bidAmount == 0) break;\n            bidAmount--;\n        }\n\n        // TODO: Return unsuccessful bidders\n        // returnBiddings()\n        eventContract.setEventBidState(eventId, Event.bidState.close);\n        emit BidClosed(eventId);\n    }   \n\n    // Return unsuccessful bidders their corresponding ETH and tokens\n    function returnBiddings() public {\n\n    }\n\n    /* Viewing the number of tickets left for an event */\n    function viewTicketsLeft(uint256 eventId) public view returns (uint256) {\n        return eventContract.getEventTicketsLeft(eventId);\n    }\n\n    /* Buyers buying tickets for an event */\n    function buyTickets(uint256 eventId, uint8 quantity, uint256 price) public payable isBuyer() {\n        require(quantity <= 4, \"You have passed the maximum bulk purchase limit\");\n\n        /* Require eventid is a listed event */\n\n        uint256 totalPrice = price * quantity;\n        require(msg.value >= totalPrice, \"Buyer has insufficient ETH to buy tickets\");\n\n        /* Map ticket id to an account */\n        msg.sender.transfer(msg.value - totalPrice); // transfer remaining back to buyer\n        emit TransferToBuyerSuccessful(msg.sender, msg.value - totalPrice);\n    }\n\n    function endEvent(uint256 eventId) public isOrganiser() {\n        address seller = eventContract.getEventSeller(eventId);\n        require(seller == msg.sender, \"Only original seller can end event\");\n        eventContract.endEvent(eventId);\n        msg.sender.transfer(sellerDepositedValue[seller]);\n    }\n\n    function calMinimumDeposit(uint256 capacity, uint256 priceOfTicket) public pure returns(uint256){\n        // 1USD = 50,000 wei\n        return (capacity * priceOfTicket)/2 * 50000;\n    }\n\n\n}",
  "sourcePath": "C:\\Users\\jd98_\\OneDrive\\Desktop\\IS4302\\proj\\contracts\\Platform.sol",
  "compiler": {
    "name": "solc",
    "version": "0.5.17+commit.d19bba13.Emscripten.clang"
  },
  "schemaVersion": "3.4.11",
  "updatedAt": "2023-03-30T12:39:44.262Z",
  "networkType": "ethereum",
  "devdoc": {
    "methods": {}
  },
  "userdoc": {
    "methods": {}
  }
}