{
  "contractName": "Platform",
  "abi": [
    {
      "inputs": [
        {
          "internalType": "contract Account",
          "name": "accountAddr",
          "type": "address"
        },
        {
          "internalType": "contract EventToken",
          "name": "eventTokenAddr",
          "type": "address"
        },
        {
          "internalType": "contract Event",
          "name": "eventAddr",
          "type": "address"
        },
        {
          "internalType": "contract Ticket",
          "name": "ticketAddr",
          "type": "address"
        }
      ],
      "payable": false,
      "stateMutability": "nonpayable",
      "type": "constructor"
    },
    {
      "anonymous": false,
      "inputs": [
        {
          "indexed": false,
          "internalType": "uint256",
          "name": "eventId",
          "type": "uint256"
        }
      ],
      "name": "BidBuy",
      "type": "event"
    },
    {
      "anonymous": false,
      "inputs": [
        {
          "indexed": false,
          "internalType": "uint256",
          "name": "eventId",
          "type": "uint256"
        }
      ],
      "name": "BidCommenced",
      "type": "event"
    },
    {
      "anonymous": false,
      "inputs": [
        {
          "indexed": false,
          "internalType": "uint256",
          "name": "eventId",
          "type": "uint256"
        },
        {
          "indexed": false,
          "internalType": "address",
          "name": "buyer",
          "type": "address"
        },
        {
          "indexed": false,
          "internalType": "uint256",
          "name": "tokenBid",
          "type": "uint256"
        }
      ],
      "name": "BidPlaced",
      "type": "event"
    },
    {
      "anonymous": false,
      "inputs": [
        {
          "indexed": false,
          "internalType": "address",
          "name": "to",
          "type": "address"
        },
        {
          "indexed": false,
          "internalType": "uint256",
          "name": "amount",
          "type": "uint256"
        }
      ],
      "name": "TransferToBuyerSuccessful",
      "type": "event"
    },
    {
      "constant": true,
      "inputs": [
        {
          "internalType": "address",
          "name": "",
          "type": "address"
        },
        {
          "internalType": "uint256",
          "name": "",
          "type": "uint256"
        }
      ],
      "name": "addressBiddings",
      "outputs": [
        {
          "internalType": "uint256",
          "name": "quantity",
          "type": "uint256"
        },
        {
          "internalType": "uint256",
          "name": "pricePerTicket",
          "type": "uint256"
        },
        {
          "internalType": "uint256",
          "name": "tokenPerTicket",
          "type": "uint256"
        },
        {
          "internalType": "uint256",
          "name": "firstIndexForEventBiddings",
          "type": "uint256"
        }
      ],
      "payable": false,
      "stateMutability": "view",
      "type": "function"
    },
    {
      "constant": true,
      "inputs": [
        {
          "internalType": "uint256",
          "name": "",
          "type": "uint256"
        },
        {
          "internalType": "uint256",
          "name": "",
          "type": "uint256"
        },
        {
          "internalType": "uint256",
          "name": "",
          "type": "uint256"
        }
      ],
      "name": "eventBiddings",
      "outputs": [
        {
          "internalType": "address",
          "name": "",
          "type": "address"
        }
      ],
      "payable": false,
      "stateMutability": "view",
      "type": "function"
    },
    {
      "constant": true,
      "inputs": [
        {
          "internalType": "uint256",
          "name": "",
          "type": "uint256"
        }
      ],
      "name": "eventTopBid",
      "outputs": [
        {
          "internalType": "uint256",
          "name": "",
          "type": "uint256"
        }
      ],
      "payable": false,
      "stateMutability": "view",
      "type": "function"
    },
    {
      "constant": false,
      "inputs": [
        {
          "internalType": "string",
          "name": "title",
          "type": "string"
        },
        {
          "internalType": "string",
          "name": "venue",
          "type": "string"
        },
        {
          "internalType": "uint256",
          "name": "year",
          "type": "uint256"
        },
        {
          "internalType": "uint256",
          "name": "month",
          "type": "uint256"
        },
        {
          "internalType": "uint256",
          "name": "day",
          "type": "uint256"
        },
        {
          "internalType": "uint256",
          "name": "hour",
          "type": "uint256"
        },
        {
          "internalType": "uint256",
          "name": "minute",
          "type": "uint256"
        },
        {
          "internalType": "uint256",
          "name": "second",
          "type": "uint256"
        },
        {
          "internalType": "uint256",
          "name": "capacity",
          "type": "uint256"
        },
        {
          "internalType": "uint256",
          "name": "priceOfTicket",
          "type": "uint256"
        },
        {
          "internalType": "address",
          "name": "seller",
          "type": "address"
        }
      ],
      "name": "listEvent",
      "outputs": [
        {
          "internalType": "uint256",
          "name": "",
          "type": "uint256"
        }
      ],
      "payable": true,
      "stateMutability": "payable",
      "type": "function"
    },
    {
      "constant": false,
      "inputs": [
        {
          "internalType": "uint256",
          "name": "eventId",
          "type": "uint256"
        }
      ],
      "name": "commenceBidding",
      "outputs": [],
      "payable": false,
      "stateMutability": "nonpayable",
      "type": "function"
    },
    {
      "constant": false,
      "inputs": [
        {
          "internalType": "uint256",
          "name": "eventId",
          "type": "uint256"
        },
        {
          "internalType": "uint8",
          "name": "quantity",
          "type": "uint8"
        },
        {
          "internalType": "uint256",
          "name": "tokenBid",
          "type": "uint256"
        }
      ],
      "name": "placeBid",
      "outputs": [],
      "payable": true,
      "stateMutability": "payable",
      "type": "function"
    },
    {
      "constant": false,
      "inputs": [
        {
          "internalType": "uint256",
          "name": "eventId",
          "type": "uint256"
        }
      ],
      "name": "closeBidding",
      "outputs": [],
      "payable": false,
      "stateMutability": "nonpayable",
      "type": "function"
    },
    {
      "constant": false,
      "inputs": [],
      "name": "returnBiddings",
      "outputs": [],
      "payable": false,
      "stateMutability": "nonpayable",
      "type": "function"
    },
    {
      "constant": true,
      "inputs": [
        {
          "internalType": "uint256",
          "name": "eventId",
          "type": "uint256"
        }
      ],
      "name": "viewTicketsLeft",
      "outputs": [
        {
          "internalType": "uint256",
          "name": "",
          "type": "uint256"
        }
      ],
      "payable": false,
      "stateMutability": "view",
      "type": "function"
    },
    {
      "constant": false,
      "inputs": [
        {
          "internalType": "uint256",
          "name": "eventId",
          "type": "uint256"
        },
        {
          "internalType": "uint8",
          "name": "quantity",
          "type": "uint8"
        }
      ],
      "name": "buyTickets",
      "outputs": [],
      "payable": true,
      "stateMutability": "payable",
      "type": "function"
    },
    {
      "constant": false,
      "inputs": [
        {
          "internalType": "uint256",
          "name": "eventId",
          "type": "uint256"
        }
      ],
      "name": "endEvent",
      "outputs": [],
      "payable": false,
      "stateMutability": "nonpayable",
      "type": "function"
    },
    {
      "constant": true,
      "inputs": [
        {
          "internalType": "uint256",
          "name": "capacity",
          "type": "uint256"
        },
        {
          "internalType": "uint256",
          "name": "priceOfTicket",
          "type": "uint256"
        }
      ],
      "name": "calMinimumDeposit",
      "outputs": [
        {
          "internalType": "uint256",
          "name": "",
          "type": "uint256"
        }
      ],
      "payable": false,
      "stateMutability": "pure",
      "type": "function"
    },
    {
      "constant": true,
      "inputs": [],
      "name": "getPlatformAddr",
      "outputs": [
        {
          "internalType": "address",
          "name": "",
          "type": "address"
        }
      ],
      "payable": false,
      "stateMutability": "view",
      "type": "function"
    }
  ],
  "bytecode": "0x608060405234801561001057600080fd5b50604051613aa7380380613aa78339818101604052608081101561003357600080fd5b8101908080519060200190929190805190602001909291908051906020019092919080519060200190929190505050836000806101000a81548173ffffffffffffffffffffffffffffffffffffffff021916908373ffffffffffffffffffffffffffffffffffffffff16021790555082600160006101000a81548173ffffffffffffffffffffffffffffffffffffffff021916908373ffffffffffffffffffffffffffffffffffffffff16021790555081600260006101000a81548173ffffffffffffffffffffffffffffffffffffffff021916908373ffffffffffffffffffffffffffffffffffffffff16021790555080600360006101000a81548173ffffffffffffffffffffffffffffffffffffffff021916908373ffffffffffffffffffffffffffffffffffffffff16021790555033600560006101000a81548173ffffffffffffffffffffffffffffffffffffffff021916908373ffffffffffffffffffffffffffffffffffffffff160217905550505050506138ee806101b96000396000f3fe6080604052600436106100c25760003560e01c80635b1194b21161007f5780637c1267a6116100595780637c1267a6146104cd5780637c57937d14610512578063aa2bb23214610569578063d6375d93146105b8576100c2565b80635b1194b2146103fe578063750a9b3b146104395780637a10106114610474576100c2565b80630bec24a6146100c757806312f04c4d1461014b578063330a347b146103225780634138915f1461035d57806344c7cb71146103745780635a22ac92146103c3575b600080fd5b3480156100d357600080fd5b50610120600480360360408110156100ea57600080fd5b81019080803573ffffffffffffffffffffffffffffffffffffffff16906020019092919080359060200190929190505050610647565b6040518085815260200184815260200183815260200182815260200194505050505060405180910390f35b61030c600480360361016081101561016257600080fd5b810190808035906020019064010000000081111561017f57600080fd5b82018360208201111561019157600080fd5b803590602001918460018302840111640100000000831117156101b357600080fd5b91908080601f016020809104026020016040519081016040528093929190818152602001838380828437600081840152601f19601f8201169050808301925050505050505091929192908035906020019064010000000081111561021657600080fd5b82018360208201111561022857600080fd5b8035906020019184600183028401116401000000008311171561024a57600080fd5b91908080601f016020809104026020016040519081016040528093929190818152602001838380828437600081840152601f19601f8201169050808301925050505050505091929192908035906020019092919080359060200190929190803590602001909291908035906020019092919080359060200190929190803590602001909291908035906020019092919080359060200190929190803573ffffffffffffffffffffffffffffffffffffffff169060200190929190505050610684565b6040518082815260200191505060405180910390f35b34801561032e57600080fd5b5061035b6004803603602081101561034557600080fd5b8101908080359060200190929190505050610b40565b005b34801561036957600080fd5b50610372611202565b005b34801561038057600080fd5b506103ad6004803603602081101561039757600080fd5b8101908080359060200190929190505050611204565b6040518082815260200191505060405180910390f35b6103fc600480360360408110156103d957600080fd5b8101908080359060200190929190803560ff16906020019092919050505061121c565b005b34801561040a57600080fd5b506104376004803603602081101561042157600080fd5b8101908080359060200190929190505050611eb4565b005b34801561044557600080fd5b506104726004803603602081101561045c57600080fd5b81019080803590602001909291905050506125ca565b005b34801561048057600080fd5b506104b76004803603604081101561049757600080fd5b81019080803590602001909291908035906020019092919050505061292f565b6040518082815260200191505060405180910390f35b610510600480360360608110156104e357600080fd5b8101908080359060200190929190803560ff1690602001909291908035906020019092919050505061294a565b005b34801561051e57600080fd5b50610527613628565b604051808273ffffffffffffffffffffffffffffffffffffffff1673ffffffffffffffffffffffffffffffffffffffff16815260200191505060405180910390f35b34801561057557600080fd5b506105a26004803603602081101561058c57600080fd5b8101908080359060200190929190505050613630565b6040518082815260200191505060405180910390f35b3480156105c457600080fd5b50610605600480360360608110156105db57600080fd5b810190808035906020019092919080359060200190929190803590602001909291905050506136e7565b604051808273ffffffffffffffffffffffffffffffffffffffff1673ffffffffffffffffffffffffffffffffffffffff16815260200191505060405180910390f35b6008602052816000526040600020602052806000526040600020600091509150508060000154908060010154908060020154908060030154905084565b60008060009054906101000a900473ffffffffffffffffffffffffffffffffffffffff1673ffffffffffffffffffffffffffffffffffffffff1663a76dd7746040518163ffffffff1660e01b815260040160206040518083038186803b1580156106ed57600080fd5b505afa158015610701573d6000803e3d6000fd5b505050506040513d602081101561071757600080fd5b8101908080519060200190929190505050600181111561073357fe5b6000809054906101000a900473ffffffffffffffffffffffffffffffffffffffff1673ffffffffffffffffffffffffffffffffffffffff16639a6c8951336040518263ffffffff1660e01b8152600401808273ffffffffffffffffffffffffffffffffffffffff1673ffffffffffffffffffffffffffffffffffffffff16815260200191505060206040518083038186803b1580156107d157600080fd5b505afa1580156107e5573d6000803e3d6000fd5b505050506040513d60208110156107fb57600080fd5b8101908080519060200190929190505050600181111561081757fe5b1461088a576040517f08c379a000000000000000000000000000000000000000000000000000000000815260040180806020018281038252601d8152602001807f596f7520617265206e6f7420612076657269666965642073656c6c657200000081525060200191505060405180910390fd5b6001610896858561292f565b023410156108ef576040517f08c379a00000000000000000000000000000000000000000000000000000000081526004018080602001828103825260638152602001806137686063913960800191505060405180910390fd5b6000600260009054906101000a900473ffffffffffffffffffffffffffffffffffffffff1673ffffffffffffffffffffffffffffffffffffffff1663ee6d30a18e8e8e8e8e8e8e8e8e8e8e6040518c63ffffffff1660e01b81526004018080602001806020018c81526020018b81526020018a81526020018981526020018881526020018781526020018681526020018581526020018473ffffffffffffffffffffffffffffffffffffffff1673ffffffffffffffffffffffffffffffffffffffff16815260200183810383528e818151815260200191508051906020019080838360005b838110156109ef5780820151818401526020810190506109d4565b50505050905090810190601f168015610a1c5780820380516001836020036101000a031916815260200191505b5083810382528d818151815260200191508051906020019080838360005b83811015610a55578082015181840152602081019050610a3a565b50505050905090810190601f168015610a825780820380516001836020036101000a031916815260200191505b509d5050505050505050505050505050602060405180830381600087803b158015610aac57600080fd5b505af1158015610ac0573d6000803e3d6000fd5b505050506040513d6020811015610ad657600080fd5b8101908080519060200190929190505050905034600460003373ffffffffffffffffffffffffffffffffffffffff1673ffffffffffffffffffffffffffffffffffffffff16815260200190815260200160002081905550809150509b9a5050505050505050505050565b6000809054906101000a900473ffffffffffffffffffffffffffffffffffffffff1673ffffffffffffffffffffffffffffffffffffffff1663a76dd7746040518163ffffffff1660e01b815260040160206040518083038186803b158015610ba757600080fd5b505afa158015610bbb573d6000803e3d6000fd5b505050506040513d6020811015610bd157600080fd5b81019080805190602001909291905050506001811115610bed57fe5b6000809054906101000a900473ffffffffffffffffffffffffffffffffffffffff1673ffffffffffffffffffffffffffffffffffffffff16639a6c8951336040518263ffffffff1660e01b8152600401808273ffffffffffffffffffffffffffffffffffffffff1673ffffffffffffffffffffffffffffffffffffffff16815260200191505060206040518083038186803b158015610c8b57600080fd5b505afa158015610c9f573d6000803e3d6000fd5b505050506040513d6020811015610cb557600080fd5b81019080805190602001909291905050506001811115610cd157fe5b14610d44576040517f08c379a000000000000000000000000000000000000000000000000000000000815260040180806020018281038252601d8152602001807f596f7520617265206e6f7420612076657269666965642073656c6c657200000081525060200191505060405180910390fd5b6000600260009054906101000a900473ffffffffffffffffffffffffffffffffffffffff1673ffffffffffffffffffffffffffffffffffffffff1663afaddf8f836040518263ffffffff1660e01b81526004018082815260200191505060206040518083038186803b158015610db957600080fd5b505afa158015610dcd573d6000803e3d6000fd5b505050506040513d6020811015610de357600080fd5b810190808051906020019092919050505090503373ffffffffffffffffffffffffffffffffffffffff168173ffffffffffffffffffffffffffffffffffffffff1614610e7a576040517f08c379a00000000000000000000000000000000000000000000000000000000081526004018080602001828103825260228152602001806138496022913960400191505060405180910390fd5b3373ffffffffffffffffffffffffffffffffffffffff166108fc600460008473ffffffffffffffffffffffffffffffffffffffff1673ffffffffffffffffffffffffffffffffffffffff168152602001908152602001600020549081150290604051600060405180830381858888f19350505050158015610eff573d6000803e3d6000fd5b506000600260009054906101000a900473ffffffffffffffffffffffffffffffffffffffff1673ffffffffffffffffffffffffffffffffffffffff1663046cbeec846040518263ffffffff1660e01b81526004018082815260200191505060206040518083038186803b158015610f7557600080fd5b505afa158015610f89573d6000803e3d6000fd5b505050506040513d6020811015610f9f57600080fd5b8101908080519060200190929190505050600260009054906101000a900473ffffffffffffffffffffffffffffffffffffffff1673ffffffffffffffffffffffffffffffffffffffff16635788b400856040518263ffffffff1660e01b81526004018082815260200191505060206040518083038186803b15801561102357600080fd5b505afa158015611037573d6000803e3d6000fd5b505050506040513d602081101561104d57600080fd5b81019080805190602001909291905050500390506000600260009054906101000a900473ffffffffffffffffffffffffffffffffffffffff1673ffffffffffffffffffffffffffffffffffffffff16636459d3b4856040518263ffffffff1660e01b81526004018082815260200191505060206040518083038186803b1580156110d657600080fd5b505afa1580156110ea573d6000803e3d6000fd5b505050506040513d602081101561110057600080fd5b8101908080519060200190929190505050820290506000606482605f028161112457fe5b0490503373ffffffffffffffffffffffffffffffffffffffff166108fc829081150290604051600060405180830381858888f1935050505015801561116d573d6000803e3d6000fd5b50600260009054906101000a900473ffffffffffffffffffffffffffffffffffffffff1673ffffffffffffffffffffffffffffffffffffffff1663330a347b866040518263ffffffff1660e01b815260040180828152602001915050600060405180830381600087803b1580156111e357600080fd5b505af11580156111f7573d6000803e3d6000fd5b505050505050505050565b565b60066020528060005260406000206000915090505481565b6000809054906101000a900473ffffffffffffffffffffffffffffffffffffffff1673ffffffffffffffffffffffffffffffffffffffff166390f9b6786040518163ffffffff1660e01b815260040160206040518083038186803b15801561128357600080fd5b505afa158015611297573d6000803e3d6000fd5b505050506040513d60208110156112ad57600080fd5b810190808051906020019092919050505060018111156112c957fe5b6000809054906101000a900473ffffffffffffffffffffffffffffffffffffffff1673ffffffffffffffffffffffffffffffffffffffff16639a6c8951336040518263ffffffff1660e01b8152600401808273ffffffffffffffffffffffffffffffffffffffff1673ffffffffffffffffffffffffffffffffffffffff16815260200191505060206040518083038186803b15801561136757600080fd5b505afa15801561137b573d6000803e3d6000fd5b505050506040513d602081101561139157600080fd5b810190808051906020019092919050505060018111156113ad57fe5b14611420576040517f08c379a00000000000000000000000000000000000000000000000000000000081526004018080602001828103825260138152602001807f596f7520617265206e6f7420612062757965720000000000000000000000000081525060200191505060405180910390fd5b60028081111561142c57fe5b600260009054906101000a900473ffffffffffffffffffffffffffffffffffffffff1673ffffffffffffffffffffffffffffffffffffffff1663f4a1ad16846040518263ffffffff1660e01b81526004018082815260200191505060206040518083038186803b15801561149f57600080fd5b505afa1580156114b3573d6000803e3d6000fd5b505050506040513d60208110156114c957600080fd5b810190808051906020019092919050505060028111156114e557fe5b14611558576040517f08c379a00000000000000000000000000000000000000000000000000000000081526004018080602001828103825260198152602001807f4576656e74206e6f74206f70656e20666f7220627579696e670000000000000081525060200191505060405180910390fd5b60008160ff16116115b4576040517f08c379a00000000000000000000000000000000000000000000000000000000081526004018080602001828103825260268152602001806138946026913960400191505060405180910390fd5b60048160ff161115611611576040517f08c379a000000000000000000000000000000000000000000000000000000000815260040180806020018281038252602f8152602001806137cb602f913960400191505060405180910390fd5b60011515600260009054906101000a900473ffffffffffffffffffffffffffffffffffffffff1673ffffffffffffffffffffffffffffffffffffffff166301d3cf68846040518263ffffffff1660e01b81526004018082815260200191505060206040518083038186803b15801561168857600080fd5b505afa15801561169c573d6000803e3d6000fd5b505050506040513d60208110156116b257600080fd5b8101908080519060200190929190505050151514611738576040517f08c379a000000000000000000000000000000000000000000000000000000000815260040180806020018281038252600d8152602001807f496e76616c6964204576656e740000000000000000000000000000000000000081525060200191505060405180910390fd5b8060ff16600260009054906101000a900473ffffffffffffffffffffffffffffffffffffffff1673ffffffffffffffffffffffffffffffffffffffff1663046cbeec846040518263ffffffff1660e01b81526004018082815260200191505060206040518083038186803b1580156117af57600080fd5b505afa1580156117c3573d6000803e3d6000fd5b505050506040513d60208110156117d957600080fd5b8101908080519060200190929190505050101561185e576040517f08c379a00000000000000000000000000000000000000000000000000000000081526004018080602001828103825260128152602001807f4e6f7420656e6f756768207469636b657473000000000000000000000000000081525060200191505060405180910390fd5b60008160ff16600260009054906101000a900473ffffffffffffffffffffffffffffffffffffffff1673ffffffffffffffffffffffffffffffffffffffff16636459d3b4856040518263ffffffff1660e01b81526004018082815260200191505060206040518083038186803b1580156118d757600080fd5b505afa1580156118eb573d6000803e3d6000fd5b505050506040513d602081101561190157600080fd5b81019080805190602001909291905050500290508034101561196e576040517f08c379a000000000000000000000000000000000000000000000000000000000815260040180806020018281038252602981526020018061386b6029913960400191505060405180910390fd5b60008260ff16600260009054906101000a900473ffffffffffffffffffffffffffffffffffffffff1673ffffffffffffffffffffffffffffffffffffffff1663046cbeec866040518263ffffffff1660e01b81526004018082815260200191505060206040518083038186803b1580156119e757600080fd5b505afa1580156119fb573d6000803e3d6000fd5b505050506040513d6020811015611a1157600080fd5b8101908080519060200190929190505050039050600260009054906101000a900473ffffffffffffffffffffffffffffffffffffffff1673ffffffffffffffffffffffffffffffffffffffff1663af71a95885836040518363ffffffff1660e01b81526004018083815260200182815260200192505050600060405180830381600087803b158015611aa257600080fd5b505af1158015611ab6573d6000803e3d6000fd5b505050506000600260009054906101000a900473ffffffffffffffffffffffffffffffffffffffff1673ffffffffffffffffffffffffffffffffffffffff1663a52f91f9866040518263ffffffff1660e01b81526004018082815260200191505060206040518083038186803b158015611b2f57600080fd5b505afa158015611b43573d6000803e3d6000fd5b505050506040513d6020811015611b5957600080fd5b8101908080519060200190929190505050905060006001600260009054906101000a900473ffffffffffffffffffffffffffffffffffffffff1673ffffffffffffffffffffffffffffffffffffffff16635788b400886040518263ffffffff1660e01b81526004018082815260200191505060206040518083038186803b158015611be357600080fd5b505afa158015611bf7573d6000803e3d6000fd5b505050506040513d6020811015611c0d57600080fd5b810190808051906020019092919050505083010390505b818110611df6573073ffffffffffffffffffffffffffffffffffffffff16600360009054906101000a900473ffffffffffffffffffffffffffffffffffffffff1673ffffffffffffffffffffffffffffffffffffffff1663ad093409836040518263ffffffff1660e01b81526004018082815260200191505060206040518083038186803b158015611cb557600080fd5b505afa158015611cc9573d6000803e3d6000fd5b505050506040513d6020811015611cdf57600080fd5b810190808051906020019092919050505073ffffffffffffffffffffffffffffffffffffffff161415611de857600360009054906101000a900473ffffffffffffffffffffffffffffffffffffffff1673ffffffffffffffffffffffffffffffffffffffff1663679ebf1a82336040518363ffffffff1660e01b8152600401808381526020018273ffffffffffffffffffffffffffffffffffffffff1673ffffffffffffffffffffffffffffffffffffffff16815260200192505050600060405180830381600087803b158015611db557600080fd5b505af1158015611dc9573d6000803e3d6000fd5b5050505084806001900395505060008560ff161415611de757611df6565b5b808060019003915050611c24565b3373ffffffffffffffffffffffffffffffffffffffff166108fc8534039081150290604051600060405180830381858888f19350505050158015611e3e573d6000803e3d6000fd5b507f85f663dec9a920059b20245b779d5040c902415f43beccbd6fba5e69ca2abf4033853403604051808373ffffffffffffffffffffffffffffffffffffffff1673ffffffffffffffffffffffffffffffffffffffff1681526020018281526020019250505060405180910390a1505050505050565b600260009054906101000a900473ffffffffffffffffffffffffffffffffffffffff1673ffffffffffffffffffffffffffffffffffffffff1663afaddf8f826040518263ffffffff1660e01b81526004018082815260200191505060206040518083038186803b158015611f2757600080fd5b505afa158015611f3b573d6000803e3d6000fd5b505050506040513d6020811015611f5157600080fd5b810190808051906020019092919050505073ffffffffffffffffffffffffffffffffffffffff163373ffffffffffffffffffffffffffffffffffffffff1614612002576040517f08c379a000000000000000000000000000000000000000000000000000000000815260040180806020018281038252601d8152602001807f4f6e6c792073656c6c65722063616e20636c6f73652062696464696e6700000081525060200191505060405180910390fd5b6001600281111561200f57fe5b600260009054906101000a900473ffffffffffffffffffffffffffffffffffffffff1673ffffffffffffffffffffffffffffffffffffffff1663f4a1ad16836040518263ffffffff1660e01b81526004018082815260200191505060206040518083038186803b15801561208257600080fd5b505afa158015612096573d6000803e3d6000fd5b505050506040513d60208110156120ac57600080fd5b810190808051906020019092919050505060028111156120c857fe5b1461213b576040517f08c379a000000000000000000000000000000000000000000000000000000000815260040180806020018281038252601a8152602001807f4576656e74206e6f74206f70656e20666f722062696464696e6700000000000081525060200191505060405180910390fd5b6000600660008381526020019081526020016000205490506000600260009054906101000a900473ffffffffffffffffffffffffffffffffffffffff1673ffffffffffffffffffffffffffffffffffffffff1663046cbeec846040518263ffffffff1660e01b81526004018082815260200191505060206040518083038186803b1580156121c857600080fd5b505afa1580156121dc573d6000803e3d6000fd5b505050506040513d60208110156121f257600080fd5b810190808051906020019092919050505090506000600260009054906101000a900473ffffffffffffffffffffffffffffffffffffffff1673ffffffffffffffffffffffffffffffffffffffff1663a52f91f9856040518263ffffffff1660e01b81526004018082815260200191505060206040518083038186803b15801561227a57600080fd5b505afa15801561228e573d6000803e3d6000fd5b505050506040513d60208110156122a457600080fd5b810190808051906020019092919050505090505b600082146124e957606060076000868152602001908152602001600020600085815260200190815260200160002080548060200260200160405190810160405280929190818152602001828054801561236657602002820191906000526020600020905b8160009054906101000a900473ffffffffffffffffffffffffffffffffffffffff1673ffffffffffffffffffffffffffffffffffffffff168152602001906001019080831161231c575b5050505050905060008090505b81518110156124ca57600073ffffffffffffffffffffffffffffffffffffffff168282815181106123a057fe5b602002602001015173ffffffffffffffffffffffffffffffffffffffff1614156123c9576124bd565b600360009054906101000a900473ffffffffffffffffffffffffffffffffffffffff1673ffffffffffffffffffffffffffffffffffffffff1663679ebf1a8484848151811061241457fe5b60200260200101516040518363ffffffff1660e01b8152600401808381526020018273ffffffffffffffffffffffffffffffffffffffff1673ffffffffffffffffffffffffffffffffffffffff16815260200192505050600060405180830381600087803b15801561248557600080fd5b505af1158015612499573d6000803e3d6000fd5b50505050828060010193505083806001900394505060008414156124bc576124ca565b5b8080600101915050612373565b5060008414156124da57506124e9565b838060019003945050506122b8565b600260009054906101000a900473ffffffffffffffffffffffffffffffffffffffff1673ffffffffffffffffffffffffffffffffffffffff1663d9c6b2198560026040518363ffffffff1660e01b81526004018083815260200182600281111561254f57fe5b60ff16815260200192505050600060405180830381600087803b15801561257557600080fd5b505af1158015612589573d6000803e3d6000fd5b505050507fa5fa8e2c671d60f636b03d4b0808ad73b0c6ed6cadc3dff077bac84f1a987e6a846040518082815260200191505060405180910390a150505050565b600260009054906101000a900473ffffffffffffffffffffffffffffffffffffffff1673ffffffffffffffffffffffffffffffffffffffff1663afaddf8f826040518263ffffffff1660e01b81526004018082815260200191505060206040518083038186803b15801561263d57600080fd5b505afa158015612651573d6000803e3d6000fd5b505050506040513d602081101561266757600080fd5b810190808051906020019092919050505073ffffffffffffffffffffffffffffffffffffffff163373ffffffffffffffffffffffffffffffffffffffff1614612718576040517f08c379a00000000000000000000000000000000000000000000000000000000081526004018080602001828103825260208152602001807f4f6e6c792073656c6c65722063616e20636f6d6d656e63652062696464696e6781525060200191505060405180910390fd5b6000600281111561272557fe5b600260009054906101000a900473ffffffffffffffffffffffffffffffffffffffff1673ffffffffffffffffffffffffffffffffffffffff1663f4a1ad16836040518263ffffffff1660e01b81526004018082815260200191505060206040518083038186803b15801561279857600080fd5b505afa1580156127ac573d6000803e3d6000fd5b505050506040513d60208110156127c257600080fd5b810190808051906020019092919050505060028111156127de57fe5b14612851576040517f08c379a000000000000000000000000000000000000000000000000000000000815260040180806020018281038252601e8152602001807f4576656e7420616c7265616479206f70656e20666f722062696464696e67000081525060200191505060405180910390fd5b600260009054906101000a900473ffffffffffffffffffffffffffffffffffffffff1673ffffffffffffffffffffffffffffffffffffffff1663d9c6b2198260016040518363ffffffff1660e01b8152600401808381526020018260028111156128b757fe5b60ff16815260200192505050600060405180830381600087803b1580156128dd57600080fd5b505af11580156128f1573d6000803e3d6000fd5b505050507f06fe11e50ef598e7d082666f5ab23b04096ea52b6b458ff241ba708c0e66bac9816040518082815260200191505060405180910390a150565b600061c35060028385028161294057fe5b0402905092915050565b6000809054906101000a900473ffffffffffffffffffffffffffffffffffffffff1673ffffffffffffffffffffffffffffffffffffffff166390f9b6786040518163ffffffff1660e01b815260040160206040518083038186803b1580156129b157600080fd5b505afa1580156129c5573d6000803e3d6000fd5b505050506040513d60208110156129db57600080fd5b810190808051906020019092919050505060018111156129f757fe5b6000809054906101000a900473ffffffffffffffffffffffffffffffffffffffff1673ffffffffffffffffffffffffffffffffffffffff16639a6c8951336040518263ffffffff1660e01b8152600401808273ffffffffffffffffffffffffffffffffffffffff1673ffffffffffffffffffffffffffffffffffffffff16815260200191505060206040518083038186803b158015612a9557600080fd5b505afa158015612aa9573d6000803e3d6000fd5b505050506040513d6020811015612abf57600080fd5b81019080805190602001909291905050506001811115612adb57fe5b14612b4e576040517f08c379a00000000000000000000000000000000000000000000000000000000081526004018080602001828103825260138152602001807f596f7520617265206e6f7420612062757965720000000000000000000000000081525060200191505060405180910390fd5b60016002811115612b5b57fe5b600260009054906101000a900473ffffffffffffffffffffffffffffffffffffffff1673ffffffffffffffffffffffffffffffffffffffff1663f4a1ad16856040518263ffffffff1660e01b81526004018082815260200191505060206040518083038186803b158015612bce57600080fd5b505afa158015612be2573d6000803e3d6000fd5b505050506040513d6020811015612bf857600080fd5b81019080805190602001909291905050506002811115612c1457fe5b14612c87576040517f08c379a000000000000000000000000000000000000000000000000000000000815260040180806020018281038252601a8152602001807f4576656e74206e6f74206f70656e20666f722062696464696e6700000000000081525060200191505060405180910390fd5b60008260ff1611612ce3576040517f08c379a00000000000000000000000000000000000000000000000000000000081526004018080602001828103825260268152602001806138946026913960400191505060405180910390fd5b60048260ff161115612d40576040517f08c379a000000000000000000000000000000000000000000000000000000000815260040180806020018281038252602f8152602001806137cb602f913960400191505060405180910390fd5b8160ff16600260009054906101000a900473ffffffffffffffffffffffffffffffffffffffff1673ffffffffffffffffffffffffffffffffffffffff16636459d3b4856040518263ffffffff1660e01b81526004018082815260200191505060206040518083038186803b158015612db757600080fd5b505afa158015612dcb573d6000803e3d6000fd5b505050506040513d6020811015612de157600080fd5b810190808051906020019092919050505002341015612e68576040517f08c379a000000000000000000000000000000000000000000000000000000000815260040180806020018281038252601a8152602001807f42757965722068617320696e73756666696369656e742045544800000000000081525060200191505060405180910390fd5b8160ff168102600160009054906101000a900473ffffffffffffffffffffffffffffffffffffffff1673ffffffffffffffffffffffffffffffffffffffff1663575a7c63336040518263ffffffff1660e01b8152600401808273ffffffffffffffffffffffffffffffffffffffff1673ffffffffffffffffffffffffffffffffffffffff16815260200191505060206040518083038186803b158015612f0d57600080fd5b505afa158015612f21573d6000803e3d6000fd5b505050506040513d6020811015612f3757600080fd5b81019080805190602001909291905050501015612f9f576040517f08c379a00000000000000000000000000000000000000000000000000000000081526004018080602001828103825260228152602001806137fa6022913960400191505060405180910390fd5b6000811115613242578160ff168102600160009054906101000a900473ffffffffffffffffffffffffffffffffffffffff1673ffffffffffffffffffffffffffffffffffffffff16638b099b2333306040518363ffffffff1660e01b8152600401808373ffffffffffffffffffffffffffffffffffffffff1673ffffffffffffffffffffffffffffffffffffffff1681526020018273ffffffffffffffffffffffffffffffffffffffff1673ffffffffffffffffffffffffffffffffffffffff1681526020019250505060206040518083038186803b15801561308157600080fd5b505afa158015613095573d6000803e3d6000fd5b505050506040513d60208110156130ab57600080fd5b81019080805190602001909291905050501015613113576040517f08c379a000000000000000000000000000000000000000000000000000000000815260040180806020018281038252602d81526020018061381c602d913960400191505060405180910390fd5b600160009054906101000a900473ffffffffffffffffffffffffffffffffffffffff1673ffffffffffffffffffffffffffffffffffffffff1663dbb31b703330308660ff1686026040518563ffffffff1660e01b8152600401808573ffffffffffffffffffffffffffffffffffffffff1673ffffffffffffffffffffffffffffffffffffffff1681526020018473ffffffffffffffffffffffffffffffffffffffff1673ffffffffffffffffffffffffffffffffffffffff1681526020018373ffffffffffffffffffffffffffffffffffffffff1673ffffffffffffffffffffffffffffffffffffffff168152602001828152602001945050505050600060405180830381600087803b15801561322957600080fd5b505af115801561323d573d6000803e3d6000fd5b505050505b3373ffffffffffffffffffffffffffffffffffffffff166108fc8360ff16600260009054906101000a900473ffffffffffffffffffffffffffffffffffffffff1673ffffffffffffffffffffffffffffffffffffffff16636459d3b4876040518263ffffffff1660e01b81526004018082815260200191505060206040518083038186803b1580156132d357600080fd5b505afa1580156132e7573d6000803e3d6000fd5b505050506040513d60208110156132fd57600080fd5b81019080805190602001909291905050500234039081150290604051600060405180830381858888f1935050505015801561333c573d6000803e3d6000fd5b50600080600090505b8360ff168160ff161015613422576007600086815260200190815260200160002060008481526020019081526020016000203390806001815401808255809150509060018203906000526020600020016000909192909190916101000a81548173ffffffffffffffffffffffffffffffffffffffff021916908373ffffffffffffffffffffffffffffffffffffffff1602179055505060008160ff161415613415576001600760008781526020019081526020016000206000858152602001908152602001600020805490500391505b8080600101915050613345565b5061342b61373f565b60405180608001604052808560ff168152602001600260009054906101000a900473ffffffffffffffffffffffffffffffffffffffff1673ffffffffffffffffffffffffffffffffffffffff16636459d3b4886040518263ffffffff1660e01b81526004018082815260200191505060206040518083038186803b1580156134b257600080fd5b505afa1580156134c6573d6000803e3d6000fd5b505050506040513d60208110156134dc57600080fd5b8101908080519060200190929190505050815260200184815260200183815250905080600860003373ffffffffffffffffffffffffffffffffffffffff1673ffffffffffffffffffffffffffffffffffffffff16815260200190815260200160002060008781526020019081526020016000206000820151816000015560208201518160010155604082015181600201556060820151816003015590505060066000868152602001908152602001600020548311156135ae578260066000878152602001908152602001600020819055505b7f0e54eff26401bf69b81b26f60bd85ef47f5d85275c1d268d84f68d6897431c47853385604051808481526020018373ffffffffffffffffffffffffffffffffffffffff1673ffffffffffffffffffffffffffffffffffffffff168152602001828152602001935050505060405180910390a15050505050565b600030905090565b6000600260009054906101000a900473ffffffffffffffffffffffffffffffffffffffff1673ffffffffffffffffffffffffffffffffffffffff1663046cbeec836040518263ffffffff1660e01b81526004018082815260200191505060206040518083038186803b1580156136a557600080fd5b505afa1580156136b9573d6000803e3d6000fd5b505050506040513d60208110156136cf57600080fd5b81019080805190602001909291905050509050919050565b6007602052826000526040600020602052816000526040600020818154811061370c57fe5b90600052602060002001600092509250509054906101000a900473ffffffffffffffffffffffffffffffffffffffff1681565b604051806080016040528060008152602001600081526020016000815260200160008152509056fe496e73756666696369656e74206465706f736974732e204e656564206465706f736974206d696e696d756d20286361706163697479202a2070726963654f665469636b6574292f32202a2035303030302077656920746f206c697374206576656e742e596f7520686176652070617373656420746865206d6178696d756d2062756c6b207075726368617365206c696d697442757965722068617320696e73756666696369656e74204576656e74546f6b656e73427579657220686173206e6f7420617070726f7665642073756666696369656e74204576656e74546f6b656e734f6e6c79206f726967696e616c2073656c6c65722063616e20656e64206576656e7442757965722068617320696e73756666696369656e742045544820746f20627579207469636b6574735175616e74697479206f66207469636b657473206d757374206265206174206c656173742031a265627a7a72315820706de9a835d0c0396027871a75c315eeaaabf0ce636b4073facea2ea465a64f264736f6c63430005110032",
  "source": "pragma solidity ^0.5.0;\n\nimport \"./Account.sol\";\nimport \"./Event.sol\";\nimport \"./Ticket.sol\";\nimport \"./EventToken.sol\";\n\ncontract Platform {\n    Account accountContract;\n    EventToken eventTokenContract;\n    Event eventContract;\n    Ticket ticketContract;\n\n    event BidCommenced (uint256 eventId);\n    event BidPlaced (uint256 eventId, address buyer, uint256 tokenBid);\n    event BidBuy (uint256 eventId);\n    event TransferToBuyerSuccessful(address to, uint256 amount);\n\n    mapping(address => uint256) sellerDepositedValue;\n    address owner;\n\n    // Platform can only exist if other contracts are created first\n    constructor(Account accountAddr, EventToken eventTokenAddr, Event eventAddr, Ticket ticketAddr) public {\n        accountContract = accountAddr;\n        eventTokenContract = eventTokenAddr;\n        eventContract = eventAddr;\n        ticketContract = ticketAddr;\n        owner = msg.sender;\n    }\n\n    struct bidInfo {\n        uint256 quantity;\n        uint256 pricePerTicket;\n        uint256 tokenPerTicket;\n        uint256 firstIndexForEventBiddings; // For ease of updating bid\n    }\n\n    mapping(uint256 => uint256) public eventTopBid; // eventId => topBid\n    mapping(uint256 => mapping(uint256 => address[])) public eventBiddings; // eventId => (tokenBid => addressArray) \n    mapping(address => mapping(uint256 => bidInfo)) public addressBiddings; // address => (eventId => bidInfo)\n\n    /* Ensure caller is a buyer */\n    modifier isBuyer() {\n        require(accountContract.viewAccountState(msg.sender) == accountContract.getUnverifiedStatus(), \"You are not a buyer\");\n        _;\n    }\n\n    /*Ensure caller is a verified seller*/\n    modifier isOrganiser() {\n        require(accountContract.viewAccountState(msg.sender) == accountContract.getVerifiedStatus(),\"You are not a verified seller\");\n        _;\n    }\n\n    // list Event on Platform\n    function listEvent(string memory title,\n        string memory venue,\n        uint256 year, uint256 month, uint256 day, uint256 hour, uint256 minute, uint256 second,\n        uint256 capacity,\n        uint256 priceOfTicket,\n        address seller) public payable isOrganiser() returns (uint256) {\n\n        // however msg.value here will not be sent to event contract. msg.value at event contract is 0.\n        require(msg.value >= calMinimumDeposit(capacity,priceOfTicket) * 1 wei, \"Insufficient deposits. Need deposit minimum (capacity * priceOfTicket)/2 * 50000 wei to list event.\");\n\n        uint256 newEventId = eventContract.createEvent(title, venue, year, month, day, hour, minute, second, capacity, priceOfTicket, seller);\n        sellerDepositedValue[msg.sender] = msg.value;\n        return newEventId;\n    }\n\n    // Commence bidding for event\n    function commenceBidding(uint256 eventId) public {\n        require(msg.sender == eventContract.getEventSeller(eventId), \"Only seller can commence bidding\");\n        require(eventContract.getEventBidState(eventId) == Event.bidState.close, \"Event already open for bidding\");\n\n        eventContract.setEventBidState(eventId, Event.bidState.open);\n        emit BidCommenced(eventId);\n    }\n\n    // Bid for ticket\n    function placeBid(uint256 eventId, uint8 quantity, uint256 tokenBid) public payable isBuyer() {\n        require(eventContract.getEventBidState(eventId) == Event.bidState.open, \"Event not open for bidding\");\n        require(quantity > 0, \"Quantity of tickets must be at least 1\");\n        require(quantity <= 4, \"You have passed the maximum bulk purchase limit\");\n        require(msg.value >= eventContract.getEventTicketPrice(eventId) * quantity, \"Buyer has insufficient ETH\");\n        require(eventTokenContract.checkEventTokenOf(msg.sender) >= tokenBid * quantity, \"Buyer has insufficient EventTokens\");\n        \n        // Transfer tokenBid & ETH to contract\n        if (tokenBid > 0) {\n            require(eventTokenContract.checkAllowance(msg.sender, address(this)) >= tokenBid * quantity, \"Buyer has not approved sufficient EventTokens\");\n            eventTokenContract.approvedTransferFrom(msg.sender, address(this), address(this), tokenBid * quantity);\n        }\n        msg.sender.transfer(msg.value - (eventContract.getEventTicketPrice(eventId) * quantity)); // transfer remaining back to buyer\n    \n        // Record eventBiddings\n        uint256 firstIdx;\n        for (uint8 i = 0; i < quantity; i++) {\n            eventBiddings[eventId][tokenBid].push(msg.sender);\n            if (i == 0) {\n                firstIdx = eventBiddings[eventId][tokenBid].length - 1;\n            }\n        }\n\n        // Record bidInfo for ease of future refund / update \n        bidInfo memory newBidInfo = bidInfo(quantity, eventContract.getEventTicketPrice(eventId), tokenBid, firstIdx);\n        addressBiddings[msg.sender][eventId] = newBidInfo;\n        \n        // Update top bid\n        if (tokenBid > eventTopBid[eventId]) {\n            eventTopBid[eventId] = tokenBid;\n        }\n        emit BidPlaced(eventId, msg.sender, tokenBid);\n    }\n\n    // Close bidding and transfer tickets to top bidders\n    function closeBidding(uint256 eventId) public {\n        require(msg.sender == eventContract.getEventSeller(eventId), \"Only seller can close bidding\");\n        require(eventContract.getEventBidState(eventId) == Event.bidState.open, \"Event not open for bidding\");\n\n        uint256 bidAmount = eventTopBid[eventId];\n        uint256 ticketsLeft = eventContract.getEventTicketsLeft(eventId);\n        uint256 ticketId = eventContract.getEventFirstTicketId(eventId);\n\n        // Tickets given out starting from top bidders\n        while (ticketsLeft != 0) {\n            address[] memory bidderList = eventBiddings[eventId][bidAmount];\n            for (uint256 i = 0; i < bidderList.length; i++) {\n                if (bidderList[i] == address(0)) continue; \n\n                ticketContract.transferTicket(ticketId, bidderList[i]); \n                ticketId++;\n                ticketsLeft--;\n                //burnToken()\n                if (ticketsLeft == 0) break;\n            }\n            if (bidAmount == 0) break;\n            bidAmount--;\n        }\n\n        // TODO: Return unsuccessful bidders\n        // returnBiddings()\n        eventContract.setEventBidState(eventId, Event.bidState.buy);\n        emit BidBuy(eventId);\n    }   \n\n    // Return unsuccessful bidders their corresponding ETH and tokens\n    function returnBiddings() public {\n\n    }\n\n    /* Viewing the number of tickets left for an event */\n    function viewTicketsLeft(uint256 eventId) public view returns (uint256) {\n        return eventContract.getEventTicketsLeft(eventId);\n    }\n\n    /* Buyers buying tickets for an event */\n    function buyTickets(uint256 eventId, uint8 quantity) public payable isBuyer() {\n        require(eventContract.getEventBidState(eventId) == Event.bidState.buy, \"Event not open for buying\");\n        require(quantity > 0, \"Quantity of tickets must be at least 1\");\n        require(quantity <= 4, \"You have passed the maximum bulk purchase limit\");\n        require(eventContract.isEventIdValid(eventId) == true, \"Invalid Event\");\n        require(eventContract.getEventTicketsLeft(eventId) >= quantity, \"Not enough tickets\");\n\n        uint256 totalPrice = eventContract.getEventTicketPrice(eventId) * quantity;\n        require(msg.value >= totalPrice, \"Buyer has insufficient ETH to buy tickets\");\n\n        // Set remaining tickets after someone buys ticket(s)\n        uint256 remainingTickets = eventContract.getEventTicketsLeft(eventId) - quantity;\n        eventContract.setEventTicketsLeft(eventId,remainingTickets);\n\n        // Transfer ticket\n        uint256 firstTicketId = eventContract.getEventFirstTicketId(eventId);\n        uint256 lastTicketId = firstTicketId + eventContract.getEventCapacity(eventId) - 1;\n\n        for (lastTicketId; lastTicketId >= firstTicketId; lastTicketId--) {\n            if (ticketContract.getTicketOwner(lastTicketId) == address(this)) {\n                ticketContract.transferTicket(lastTicketId, msg.sender);\n                quantity--;\n                if (quantity == 0) break;\n            }\n        }\n\n        msg.sender.transfer(msg.value - totalPrice); // transfer remaining back to buyer\n        emit TransferToBuyerSuccessful(msg.sender, msg.value - totalPrice);\n    }\n\n    function endEvent(uint256 eventId) public isOrganiser() {\n        address seller = eventContract.getEventSeller(eventId);\n        require(seller == msg.sender, \"Only original seller can end event\");\n        msg.sender.transfer(sellerDepositedValue[seller]);\n\n        // Calculating ticket sales\n        uint256 numOfTicketsSold = eventContract.getEventCapacity(eventId) - eventContract.getEventTicketsLeft(eventId);\n        uint256 ticketSales = numOfTicketsSold * eventContract.getEventTicketPrice(eventId);\n\n        // Platform keeps 5% commission of ticket sales, rest goes to Seller when event ends\n        uint256 sellerProfits = 95 * ticketSales /100;\n        msg.sender.transfer(sellerProfits);\n\n        eventContract.endEvent(eventId);\n    }\n\n    function calMinimumDeposit(uint256 capacity, uint256 priceOfTicket) public pure returns(uint256){\n        // 1USD = 50,000 wei\n        return (capacity * priceOfTicket)/2 * 50000;\n    }\n\n    function getPlatformAddr() public view returns(address) {\n        return address(this);\n    }\n\n}",
  "sourcePath": "C:\\Users\\jd98_\\OneDrive\\Desktop\\IS4302\\proj\\contracts\\Platform.sol",
  "compiler": {
    "name": "solc",
    "version": "0.5.17+commit.d19bba13.Emscripten.clang"
  },
  "schemaVersion": "3.4.11",
  "updatedAt": "2023-04-04T07:34:56.744Z",
  "networkType": "ethereum",
  "devdoc": {
    "methods": {}
  },
  "userdoc": {
    "methods": {}
  }
}