{
  "contractName": "Ticket",
  "abi": [
    {
      "constant": true,
      "inputs": [],
      "name": "numTickets",
      "outputs": [
        {
          "internalType": "uint256",
          "name": "",
          "type": "uint256"
        }
      ],
      "payable": false,
      "stateMutability": "view",
      "type": "function"
    },
    {
      "constant": true,
      "inputs": [
        {
          "internalType": "uint256",
          "name": "",
          "type": "uint256"
        }
      ],
      "name": "tickets",
      "outputs": [
        {
          "internalType": "address",
          "name": "owner",
          "type": "address"
        },
        {
          "internalType": "address",
          "name": "prevowner",
          "type": "address"
        },
        {
          "internalType": "uint256",
          "name": "eventId",
          "type": "uint256"
        },
        {
          "internalType": "uint256",
          "name": "price",
          "type": "uint256"
        },
        {
          "internalType": "enum Ticket.category",
          "name": "cat",
          "type": "uint8"
        },
        {
          "internalType": "uint256",
          "name": "seatid",
          "type": "uint256"
        }
      ],
      "payable": false,
      "stateMutability": "view",
      "type": "function"
    },
    {
      "constant": false,
      "inputs": [
        {
          "internalType": "address",
          "name": "owner",
          "type": "address"
        },
        {
          "internalType": "uint256",
          "name": "eventId",
          "type": "uint256"
        },
        {
          "internalType": "uint256",
          "name": "price",
          "type": "uint256"
        },
        {
          "internalType": "enum Ticket.category",
          "name": "cat",
          "type": "uint8"
        },
        {
          "internalType": "uint256",
          "name": "seatid",
          "type": "uint256"
        }
      ],
      "name": "add",
      "outputs": [
        {
          "internalType": "uint256",
          "name": "",
          "type": "uint256"
        }
      ],
      "payable": false,
      "stateMutability": "nonpayable",
      "type": "function"
    },
    {
      "constant": false,
      "inputs": [
        {
          "internalType": "uint256",
          "name": "ticketId",
          "type": "uint256"
        },
        {
          "internalType": "address",
          "name": "transferTo",
          "type": "address"
        }
      ],
      "name": "transferTicket",
      "outputs": [],
      "payable": false,
      "stateMutability": "nonpayable",
      "type": "function"
    },
    {
      "constant": true,
      "inputs": [
        {
          "internalType": "uint256",
          "name": "ticketId",
          "type": "uint256"
        }
      ],
      "name": "getTicketOwner",
      "outputs": [
        {
          "internalType": "address",
          "name": "",
          "type": "address"
        }
      ],
      "payable": false,
      "stateMutability": "view",
      "type": "function"
    },
    {
      "constant": true,
      "inputs": [
        {
          "internalType": "uint256",
          "name": "ticketId",
          "type": "uint256"
        }
      ],
      "name": "getTicketPrevOwner",
      "outputs": [
        {
          "internalType": "address",
          "name": "",
          "type": "address"
        }
      ],
      "payable": false,
      "stateMutability": "view",
      "type": "function"
    },
    {
      "constant": true,
      "inputs": [
        {
          "internalType": "uint256",
          "name": "ticketId",
          "type": "uint256"
        }
      ],
      "name": "getTicketEvent",
      "outputs": [
        {
          "internalType": "uint256",
          "name": "",
          "type": "uint256"
        }
      ],
      "payable": false,
      "stateMutability": "view",
      "type": "function"
    },
    {
      "constant": true,
      "inputs": [
        {
          "internalType": "uint256",
          "name": "ticketId",
          "type": "uint256"
        }
      ],
      "name": "getTicketPrice",
      "outputs": [
        {
          "internalType": "uint256",
          "name": "",
          "type": "uint256"
        }
      ],
      "payable": false,
      "stateMutability": "view",
      "type": "function"
    },
    {
      "constant": true,
      "inputs": [
        {
          "internalType": "uint256",
          "name": "ticketId",
          "type": "uint256"
        }
      ],
      "name": "getTicketCat",
      "outputs": [
        {
          "internalType": "enum Ticket.category",
          "name": "",
          "type": "uint8"
        }
      ],
      "payable": false,
      "stateMutability": "view",
      "type": "function"
    },
    {
      "constant": true,
      "inputs": [
        {
          "internalType": "uint256",
          "name": "ticketId",
          "type": "uint256"
        }
      ],
      "name": "getTicketSeat",
      "outputs": [
        {
          "internalType": "uint256",
          "name": "",
          "type": "uint256"
        }
      ],
      "payable": false,
      "stateMutability": "view",
      "type": "function"
    }
  ],
  "bytecode": "0x60806040526000805534801561001457600080fd5b50610a4a806100246000396000f3fe608060405234801561001057600080fd5b506004361061009e5760003560e01c8063679ebf1a11610066578063679ebf1a146102bf578063959bc48d1461030d578063a433cbbc1461035d578063ad0934091461039f578063f06fc9611461040d5761009e565b8063262ebb48146100a35780632b6fed0514610111578063353d90ec14610153578063389b62aa1461017157806350b44712146101f4575b600080fd5b6100cf600480360360208110156100b957600080fd5b810190808035906020019092919050505061044f565b604051808273ffffffffffffffffffffffffffffffffffffffff1673ffffffffffffffffffffffffffffffffffffffff16815260200191505060405180910390f35b61013d6004803603602081101561012757600080fd5b810190808035906020019092919050505061049f565b6040518082815260200191505060405180910390f35b61015b6104cf565b6040518082815260200191505060405180910390f35b6101de600480360360a081101561018757600080fd5b81019080803573ffffffffffffffffffffffffffffffffffffffff1690602001909291908035906020019092919080359060200190929190803560ff169060200190929190803590602001909291905050506104d5565b6040518082815260200191505060405180910390f35b6102206004803603602081101561020a57600080fd5b81019080803590602001909291905050506106ac565b604051808773ffffffffffffffffffffffffffffffffffffffff1673ffffffffffffffffffffffffffffffffffffffff1681526020018673ffffffffffffffffffffffffffffffffffffffff1673ffffffffffffffffffffffffffffffffffffffff1681526020018581526020018481526020018360028111156102a057fe5b60ff168152602001828152602001965050505050505060405180910390f35b61030b600480360360408110156102d557600080fd5b8101908080359060200190929190803573ffffffffffffffffffffffffffffffffffffffff169060200190929190505050610735565b005b6103396004803603602081101561032357600080fd5b8101908080359060200190929190505050610899565b6040518082600281111561034957fe5b60ff16815260200191505060405180910390f35b6103896004803603602081101561037357600080fd5b81019080803590602001909291905050506108d6565b6040518082815260200191505060405180910390f35b6103cb600480360360208110156103b557600080fd5b8101908080359060200190929190505050610906565b604051808273ffffffffffffffffffffffffffffffffffffffff1673ffffffffffffffffffffffffffffffffffffffff16815260200191505060405180910390f35b6104396004803603602081101561042357600080fd5b8101908080359060200190929190505050610956565b6040518082815260200191505060405180910390f35b600081600054811061046057600080fd5b6001600084815260200190815260200160002060010160009054906101000a900473ffffffffffffffffffffffffffffffffffffffff16915050919050565b60008160005481106104b057600080fd5b6001600084815260200190815260200160002060050154915050919050565b60005481565b600080841161052f576040517f08c379a00000000000000000000000000000000000000000000000000000000081526004018080602001828103825260228152602001806109f46022913960400191505060405180910390fd5b610537610986565b6040518060c001604052808873ffffffffffffffffffffffffffffffffffffffff168152602001600073ffffffffffffffffffffffffffffffffffffffff16815260200187815260200186815260200185600281111561059357fe5b81526020018481525090506000806000815480929190600101919050559050816001600083815260200190815260200160002060008201518160000160006101000a81548173ffffffffffffffffffffffffffffffffffffffff021916908373ffffffffffffffffffffffffffffffffffffffff16021790555060208201518160010160006101000a81548173ffffffffffffffffffffffffffffffffffffffff021916908373ffffffffffffffffffffffffffffffffffffffff160217905550604082015181600201556060820151816003015560808201518160040160006101000a81548160ff0219169083600281111561068c57fe5b021790555060a08201518160050155905050809250505095945050505050565b60016020528060005260406000206000915090508060000160009054906101000a900473ffffffffffffffffffffffffffffffffffffffff16908060010160009054906101000a900473ffffffffffffffffffffffffffffffffffffffff16908060020154908060030154908060040160009054906101000a900460ff16908060050154905086565b81600054811061074457600080fd5b823373ffffffffffffffffffffffffffffffffffffffff166001600083815260200190815260200160002060000160009054906101000a900473ffffffffffffffffffffffffffffffffffffffff1673ffffffffffffffffffffffffffffffffffffffff16146107b357600080fd5b6001600085815260200190815260200160002060000160009054906101000a900473ffffffffffffffffffffffffffffffffffffffff166001600086815260200190815260200160002060010160006101000a81548173ffffffffffffffffffffffffffffffffffffffff021916908373ffffffffffffffffffffffffffffffffffffffff160217905550826001600086815260200190815260200160002060000160006101000a81548173ffffffffffffffffffffffffffffffffffffffff021916908373ffffffffffffffffffffffffffffffffffffffff16021790555050505050565b60008160005481106108aa57600080fd5b6001600084815260200190815260200160002060040160009054906101000a900460ff16915050919050565b60008160005481106108e757600080fd5b6001600084815260200190815260200160002060020154915050919050565b600081600054811061091757600080fd5b6001600084815260200190815260200160002060000160009054906101000a900473ffffffffffffffffffffffffffffffffffffffff16915050919050565b600081600054811061096757600080fd5b6001600084815260200190815260200160002060030154915050919050565b6040518060c00160405280600073ffffffffffffffffffffffffffffffffffffffff168152602001600073ffffffffffffffffffffffffffffffffffffffff1681526020016000815260200160008152602001600060028111156109e657fe5b815260200160008152509056fe5469636b65742070726963652063616e6e6f74206265206c657373207468656e2030a265627a7a723158208359857f9cfba2399d705ab1c4ef876b758d1cd4a0fa475349ad19d1bb21055a64736f6c63430005110032",
  "source": "pragma solidity ^0.5.0;\r\n\r\ncontract Ticket {\r\n\r\n    /**\r\n     * enum containing 'seating' categories\r\n     * floor:       general standing zone(s)\r\n     * standard:    standard seating zone(s)\r\n     * vip:         premium seating zone(s)\r\n     */\r\n    enum category {floor, standard, vip}\r\n\r\n    /**\r\n     * param owner     address of the owner of the ticket\r\n     * param eventId   id of the event the ticket belongs to\r\n     * param price     Price of ticket in tokens\r\n     * param cat       category of ticket \r\n     * param seatid    assigned seat/zone \r\n     */\r\n    struct ticket {\r\n        address owner;\r\n        address prevowner;\r\n        uint256 eventId; // event is a keyword\r\n        uint256 price;\r\n        category cat;\r\n        uint256 seatid;\r\n    }\r\n\r\n    uint256 public numTickets = 0;  // Total number of tickets\r\n    mapping(uint256 => ticket) public tickets;  // Stores ticket\r\n\r\n    // modifier to ensure a function is callable only by its owner    \r\n    modifier ownerOnly(uint256 ticketId) {\r\n        require(tickets[ticketId].owner == msg.sender);\r\n        _;\r\n    }\r\n\r\n    // modifier to ensure ticketId is valid\r\n    modifier validTicketId(uint256 ticketId) {\r\n        require(ticketId < numTickets);\r\n        _;\r\n    }\r\n\r\n    /**\r\n     * creates a ticket and adds it to the ticket list\r\n     *\r\n     * param eventId   id of the event the ticket belongs to\r\n     * param price     Price of ticket in tokens\r\n     * param cat       category of ticket \r\n     * param seatid    assigned seat/zone\r\n     * return uint256  id of ticket that was created\r\n     */\r\n    function add(address owner, uint256 eventId, uint256 price, category cat, uint256 seatid) public returns (uint256) {\r\n        require(price > 0, \"Ticket price cannot be less then 0\");\r\n        // TODO: require user has enough tokens to purchase ticket (if ticket handles purchase)\r\n\r\n        ticket memory newTicket = ticket(owner,\r\n                                         address(0),\r\n                                         eventId,\r\n                                         price,\r\n                                         cat,\r\n                                         seatid);\r\n\r\n        uint256 newTicketId = numTickets++;\r\n        tickets[newTicketId] = newTicket;\r\n\r\n        return newTicketId;\r\n    }\r\n\r\n    /**\r\n     * transfers ticket to the specified address\r\n     *\r\n     * param ticketID ID of ticket to transfer\r\n     * param transferTo address to transfer ticket to\r\n     */\r\n    function transferTicket(uint256 ticketId, address transferTo) public validTicketId(ticketId) ownerOnly(ticketId) {\r\n        tickets[ticketId].prevowner = tickets[ticketId].owner;\r\n        tickets[ticketId].owner = transferTo;\r\n    }\r\n\r\n    function getTicketOwner(uint256 ticketId) public view validTicketId(ticketId) returns (address) {\r\n        return tickets[ticketId].owner;\r\n    }\r\n\r\n    function getTicketPrevOwner(uint256 ticketId) public view validTicketId(ticketId) returns (address) {\r\n        return tickets[ticketId].prevowner;\r\n    }\r\n\r\n    /**\r\n     * gets the eventId of the event that the ticket is for\r\n     *\r\n     * param ticketID ID of ticket to query\r\n     * return eventId of ticket\r\n     */\r\n    function getTicketEvent(uint256 ticketId) public view validTicketId(ticketId) returns (uint256) {\r\n        return tickets[ticketId].eventId;\r\n    }\r\n\r\n    /**\r\n     * gets the price of the ticket\r\n     *\r\n     * param ticketID ID of ticket to query\r\n     * return uint256 price of ticket\r\n     */\r\n    function getTicketPrice(uint256 ticketId) public view validTicketId(ticketId) returns (uint256) {\r\n        return tickets[ticketId].price;\r\n    }\r\n\r\n    /**\r\n     * gets the category of the ticket\r\n     *\r\n     * param ticketID ID of ticket to query\r\n     * return category category of the ticket\r\n     */\r\n    function getTicketCat(uint256 ticketId) public view validTicketId(ticketId) returns (category) {\r\n        return tickets[ticketId].cat;\r\n    }\r\n\r\n    /**\r\n     * gets the ticket seat\r\n     *\r\n     * param ticketID ID of ticket to query\r\n     * return uint256 seatid of ticket\r\n     */\r\n    function getTicketSeat(uint256 ticketId) public view validTicketId(ticketId) returns (uint256) {\r\n        return tickets[ticketId].seatid;\r\n    }\r\n    \r\n}\r\n",
  "sourcePath": "C:\\Users\\remus\\Desktop\\3.2\\IS4302\\Project\\contracts\\Ticket.sol",
  "compiler": {
    "name": "solc",
    "version": "0.5.17+commit.d19bba13.Emscripten.clang"
  },
  "schemaVersion": "3.4.11",
  "updatedAt": "2023-04-06T15:34:34.360Z",
  "devdoc": {
    "methods": {}
  },
  "userdoc": {
    "methods": {
      "add(address,uint256,uint256,uint8,uint256)": {
        "notice": "creates a ticket and adds it to the ticket list      * param eventId   id of the event the ticket belongs to param price     Price of ticket in tokens param cat       category of ticket  param seatid    assigned seat/zone return uint256  id of ticket that was created"
      },
      "getTicketCat(uint256)": {
        "notice": "gets the category of the ticket      * param ticketID ID of ticket to query return category category of the ticket"
      },
      "getTicketEvent(uint256)": {
        "notice": "gets the eventId of the event that the ticket is for      * param ticketID ID of ticket to query return eventId of ticket"
      },
      "getTicketPrice(uint256)": {
        "notice": "gets the price of the ticket      * param ticketID ID of ticket to query return uint256 price of ticket"
      },
      "getTicketSeat(uint256)": {
        "notice": "gets the ticket seat      * param ticketID ID of ticket to query return uint256 seatid of ticket"
      },
      "transferTicket(uint256,address)": {
        "notice": "transfers ticket to the specified address      * param ticketID ID of ticket to transfer param transferTo address to transfer ticket to"
      }
    }
  }
}