{
  "contractName": "Ticket",
  "abi": [
    {
      "constant": true,
      "inputs": [],
      "name": "numTickets",
      "outputs": [
        {
          "internalType": "uint256",
          "name": "",
          "type": "uint256"
        }
      ],
      "payable": false,
      "stateMutability": "view",
      "type": "function"
    },
    {
      "constant": true,
      "inputs": [
        {
          "internalType": "uint256",
          "name": "",
          "type": "uint256"
        }
      ],
      "name": "tickets",
      "outputs": [
        {
          "internalType": "address",
          "name": "owner",
          "type": "address"
        },
        {
          "internalType": "address",
          "name": "prevowner",
          "type": "address"
        },
        {
          "internalType": "uint256",
          "name": "eventId",
          "type": "uint256"
        },
        {
          "internalType": "uint256",
          "name": "price",
          "type": "uint256"
        },
        {
          "internalType": "enum Ticket.category",
          "name": "cat",
          "type": "uint8"
        },
        {
          "internalType": "uint256",
          "name": "seatid",
          "type": "uint256"
        }
      ],
      "payable": false,
      "stateMutability": "view",
      "type": "function"
    },
    {
      "constant": false,
      "inputs": [
        {
          "internalType": "uint256",
          "name": "eventId",
          "type": "uint256"
        },
        {
          "internalType": "uint256",
          "name": "price",
          "type": "uint256"
        },
        {
          "internalType": "enum Ticket.category",
          "name": "cat",
          "type": "uint8"
        },
        {
          "internalType": "uint256",
          "name": "seatid",
          "type": "uint256"
        }
      ],
      "name": "add",
      "outputs": [
        {
          "internalType": "uint256",
          "name": "",
          "type": "uint256"
        }
      ],
      "payable": false,
      "stateMutability": "nonpayable",
      "type": "function"
    },
    {
      "constant": false,
      "inputs": [
        {
          "internalType": "uint256",
          "name": "ticketId",
          "type": "uint256"
        },
        {
          "internalType": "address",
          "name": "transferTo",
          "type": "address"
        }
      ],
      "name": "transferTicket",
      "outputs": [],
      "payable": false,
      "stateMutability": "nonpayable",
      "type": "function"
    },
    {
      "constant": true,
      "inputs": [
        {
          "internalType": "uint256",
          "name": "ticketId",
          "type": "uint256"
        }
      ],
      "name": "getTicketEvent",
      "outputs": [
        {
          "internalType": "uint256",
          "name": "",
          "type": "uint256"
        }
      ],
      "payable": false,
      "stateMutability": "view",
      "type": "function"
    },
    {
      "constant": true,
      "inputs": [
        {
          "internalType": "uint256",
          "name": "ticketId",
          "type": "uint256"
        }
      ],
      "name": "getTicketPrice",
      "outputs": [
        {
          "internalType": "uint256",
          "name": "",
          "type": "uint256"
        }
      ],
      "payable": false,
      "stateMutability": "view",
      "type": "function"
    },
    {
      "constant": true,
      "inputs": [
        {
          "internalType": "uint256",
          "name": "ticketId",
          "type": "uint256"
        }
      ],
      "name": "getTicketCat",
      "outputs": [
        {
          "internalType": "enum Ticket.category",
          "name": "",
          "type": "uint8"
        }
      ],
      "payable": false,
      "stateMutability": "view",
      "type": "function"
    },
    {
      "constant": true,
      "inputs": [
        {
          "internalType": "uint256",
          "name": "ticketId",
          "type": "uint256"
        }
      ],
      "name": "getTicketSeat",
      "outputs": [
        {
          "internalType": "uint256",
          "name": "",
          "type": "uint256"
        }
      ],
      "payable": false,
      "stateMutability": "view",
      "type": "function"
    }
  ],
  "bytecode": "0x60806040526000805534801561001457600080fd5b50610897806100246000396000f3fe608060405234801561001057600080fd5b50600436106100885760003560e01c8063959bc48d1161005b578063959bc48d14610206578063a433cbbc14610256578063b48630c214610298578063f06fc961146102fb57610088565b80632b6fed051461008d578063353d90ec146100cf57806350b44712146100ed578063679ebf1a146101b8575b600080fd5b6100b9600480360360208110156100a357600080fd5b810190808035906020019092919050505061033d565b6040518082815260200191505060405180910390f35b6100d761036d565b6040518082815260200191505060405180910390f35b6101196004803603602081101561010357600080fd5b8101908080359060200190929190505050610373565b604051808773ffffffffffffffffffffffffffffffffffffffff1673ffffffffffffffffffffffffffffffffffffffff1681526020018673ffffffffffffffffffffffffffffffffffffffff1673ffffffffffffffffffffffffffffffffffffffff16815260200185815260200184815260200183600281111561019957fe5b60ff168152602001828152602001965050505050505060405180910390f35b610204600480360360408110156101ce57600080fd5b8101908080359060200190929190803573ffffffffffffffffffffffffffffffffffffffff1690602001909291905050506103fc565b005b6102326004803603602081101561021c57600080fd5b8101908080359060200190929190505050610560565b6040518082600281111561024257fe5b60ff16815260200191505060405180910390f35b6102826004803603602081101561026c57600080fd5b810190808035906020019092919050505061059d565b6040518082815260200191505060405180910390f35b6102e5600480360360808110156102ae57600080fd5b810190808035906020019092919080359060200190929190803560ff169060200190929190803590602001909291905050506105cd565b6040518082815260200191505060405180910390f35b6103276004803603602081101561031157600080fd5b81019080803590602001909291905050506107a3565b6040518082815260200191505060405180910390f35b600081600054811061034e57600080fd5b6001600084815260200190815260200160002060050154915050919050565b60005481565b60016020528060005260406000206000915090508060000160009054906101000a900473ffffffffffffffffffffffffffffffffffffffff16908060010160009054906101000a900473ffffffffffffffffffffffffffffffffffffffff16908060020154908060030154908060040160009054906101000a900460ff16908060050154905086565b81600054811061040b57600080fd5b823373ffffffffffffffffffffffffffffffffffffffff166001600083815260200190815260200160002060000160009054906101000a900473ffffffffffffffffffffffffffffffffffffffff1673ffffffffffffffffffffffffffffffffffffffff161461047a57600080fd5b6001600085815260200190815260200160002060000160009054906101000a900473ffffffffffffffffffffffffffffffffffffffff166001600086815260200190815260200160002060010160006101000a81548173ffffffffffffffffffffffffffffffffffffffff021916908373ffffffffffffffffffffffffffffffffffffffff160217905550826001600086815260200190815260200160002060000160006101000a81548173ffffffffffffffffffffffffffffffffffffffff021916908373ffffffffffffffffffffffffffffffffffffffff16021790555050505050565b600081600054811061057157600080fd5b6001600084815260200190815260200160002060040160009054906101000a900460ff16915050919050565b60008160005481106105ae57600080fd5b6001600084815260200190815260200160002060020154915050919050565b6000808411610627576040517f08c379a00000000000000000000000000000000000000000000000000000000081526004018080602001828103825260228152602001806108416022913960400191505060405180910390fd5b61062f6107d3565b6040518060c001604052803373ffffffffffffffffffffffffffffffffffffffff168152602001600073ffffffffffffffffffffffffffffffffffffffff16815260200187815260200186815260200185600281111561068b57fe5b81526020018481525090506000806000815480929190600101919050559050816001600083815260200190815260200160002060008201518160000160006101000a81548173ffffffffffffffffffffffffffffffffffffffff021916908373ffffffffffffffffffffffffffffffffffffffff16021790555060208201518160010160006101000a81548173ffffffffffffffffffffffffffffffffffffffff021916908373ffffffffffffffffffffffffffffffffffffffff160217905550604082015181600201556060820151816003015560808201518160040160006101000a81548160ff0219169083600281111561078457fe5b021790555060a082015181600501559050508092505050949350505050565b60008160005481106107b457600080fd5b6001600084815260200190815260200160002060030154915050919050565b6040518060c00160405280600073ffffffffffffffffffffffffffffffffffffffff168152602001600073ffffffffffffffffffffffffffffffffffffffff16815260200160008152602001600081526020016000600281111561083357fe5b815260200160008152509056fe5469636b65742070726963652063616e6e6f74206265206c657373207468656e2030a265627a7a72315820f0583d0f6efb4d196aa8469f8475d9caafcb9589219c2c107735e86462cadf8c64736f6c63430005110032",
  "source": "pragma solidity ^0.5.0;\n\ncontract Ticket {\n\n    /**\n     * enum containing 'seating' categories\n     * floor:       general standing zone(s)\n     * standard:    standard seating zone(s)\n     * vip:         premium seating zone(s)\n     */\n    enum category {floor, standard, vip}\n\n    /**\n     * param owner     address of the owner of the ticket\n     * param eventId   id of the event the ticket belongs to\n     * param price     Price of ticket in tokens\n     * param cat       category of ticket \n     * param seatid    assigned seat/zone \n     */\n    struct ticket {\n        address owner;\n        address prevowner;\n        uint256 eventId; // event is a keyword\n        uint256 price;\n        category cat;\n        uint256 seatid;\n    }\n\n    uint256 public numTickets = 0;  // Total number of tickets\n    mapping(uint256 => ticket) public tickets;  // Stores ticket\n\n    // modifier to ensure a function is callable only by its owner    \n    modifier ownerOnly(uint256 ticketId) {\n        require(tickets[ticketId].owner == msg.sender);\n        _;\n    }\n\n    // modifier to ensure ticketId is valid\n    modifier validTicketId(uint256 ticketId) {\n        require(ticketId < numTickets);\n        _;\n    }\n\n    /**\n     * creates a ticket and adds it to the ticket list\n     *\n     * param eventId   id of the event the ticket belongs to\n     * param price     Price of ticket in tokens\n     * param cat       category of ticket \n     * param seatid    assigned seat/zone\n     * return uint256  id of ticket that was created\n     */\n    function add(uint256 eventId, uint256 price, category cat, uint256 seatid) public returns (uint256) {\n        require(price > 0, \"Ticket price cannot be less then 0\");\n        // TODO: require user has enough tokens to purchase ticket (if ticket handles purchase)\n\n        ticket memory newTicket = ticket(msg.sender,\n                                         address(0),\n                                         eventId,\n                                         price,\n                                         cat,\n                                         seatid);\n\n        uint256 newTicketId = numTickets++;\n        tickets[newTicketId] = newTicket;\n\n        return newTicketId;\n    }\n\n    /**\n     * transfers ticket to the specified address\n     *\n     * param ticketID ID of ticket to transfer\n     * param transferTo address to transfer ticket to\n     */\n    function transferTicket(uint256 ticketId, address transferTo) public validTicketId(ticketId) ownerOnly(ticketId) {\n        tickets[ticketId].prevowner = tickets[ticketId].owner;\n        tickets[ticketId].owner = transferTo;\n    }\n\n    /**\n     * gets the eventId of the event that the ticket is for\n     *\n     * param ticketID ID of ticket to query\n     * return eventId of ticket \n     */\n    function getTicketEvent(uint256 ticketId) public view validTicketId(ticketId) returns (uint256) {\n        return tickets[ticketId].eventId;\n    }\n\n    /**\n     * gets the price of the ticket\n     *\n     * param ticketID ID of ticket to query\n     * return uint256 price of ticket\n     */\n    function getTicketPrice(uint256 ticketId) public view validTicketId(ticketId) returns (uint256) {\n        return tickets[ticketId].price;\n    }\n\n    /**\n     * gets the category of the ticket\n     *\n     * param ticketID ID of ticket to query\n     * return category category of the ticket\n     */\n    function getTicketCat(uint256 ticketId) public view validTicketId(ticketId) returns (category) {\n        return tickets[ticketId].cat;\n    }\n\n    /**\n     * gets the ticket seat\n     *\n     * param ticketID ID of ticket to query\n     * return uint256 seatid of ticket\n     */\n    function getTicketSeat(uint256 ticketId) public view validTicketId(ticketId) returns (uint256) {\n        return tickets[ticketId].seatid;\n    }\n    \n}\n",
  "sourcePath": "C:\\Users\\jd98_\\OneDrive\\Desktop\\IS4302\\proj\\contracts\\Ticket.sol",
  "compiler": {
    "name": "solc",
    "version": "0.5.17+commit.d19bba13.Emscripten.clang"
  },
  "schemaVersion": "3.4.11",
  "updatedAt": "2023-03-27T15:14:37.786Z",
  "devdoc": {
    "methods": {}
  },
  "userdoc": {
    "methods": {
      "add(uint256,uint256,uint8,uint256)": {
        "notice": "creates a ticket and adds it to the ticket list     * param eventId   id of the event the ticket belongs to param price     Price of ticket in tokens param cat       category of ticket  param seatid    assigned seat/zone return uint256  id of ticket that was created"
      },
      "getTicketCat(uint256)": {
        "notice": "gets the category of the ticket     * param ticketID ID of ticket to query return category category of the ticket"
      },
      "getTicketEvent(uint256)": {
        "notice": "gets the eventId of the event that the ticket is for     * param ticketID ID of ticket to query return eventId of ticket "
      },
      "getTicketPrice(uint256)": {
        "notice": "gets the price of the ticket     * param ticketID ID of ticket to query return uint256 price of ticket"
      },
      "getTicketSeat(uint256)": {
        "notice": "gets the ticket seat     * param ticketID ID of ticket to query return uint256 seatid of ticket"
      },
      "transferTicket(uint256,address)": {
        "notice": "transfers ticket to the specified address     * param ticketID ID of ticket to transfer param transferTo address to transfer ticket to"
      }
    }
  }
}